{
  "contractName": "Assessment",
  "abi": [
    {
      "constant": true,
      "inputs": [],
      "name": "cost",
      "outputs": [
        {
          "name": "",
          "type": "uint256"
        }
      ],
      "payable": false,
      "stateMutability": "view",
      "type": "function"
    },
    {
      "constant": true,
      "inputs": [],
      "name": "endTime",
      "outputs": [
        {
          "name": "",
          "type": "uint256"
        }
      ],
      "payable": false,
      "stateMutability": "view",
      "type": "function"
    },
    {
      "constant": true,
      "inputs": [],
      "name": "assessee",
      "outputs": [
        {
          "name": "",
          "type": "address"
        }
      ],
      "payable": false,
      "stateMutability": "view",
      "type": "function"
    },
    {
      "constant": true,
      "inputs": [],
      "name": "concept",
      "outputs": [
        {
          "name": "",
          "type": "address"
        }
      ],
      "payable": false,
      "stateMutability": "view",
      "type": "function"
    },
    {
      "constant": true,
      "inputs": [],
      "name": "finalScore",
      "outputs": [
        {
          "name": "",
          "type": "int256"
        }
      ],
      "payable": false,
      "stateMutability": "view",
      "type": "function"
    },
    {
      "constant": true,
      "inputs": [],
      "name": "size",
      "outputs": [
        {
          "name": "",
          "type": "uint256"
        }
      ],
      "payable": false,
      "stateMutability": "view",
      "type": "function"
    },
    {
      "constant": true,
      "inputs": [],
      "name": "assessmentStage",
      "outputs": [
        {
          "name": "",
          "type": "uint8"
        }
      ],
      "payable": false,
      "stateMutability": "view",
      "type": "function"
    },
    {
      "constant": true,
      "inputs": [],
      "name": "done",
      "outputs": [
        {
          "name": "",
          "type": "uint256"
        }
      ],
      "payable": false,
      "stateMutability": "view",
      "type": "function"
    },
    {
      "constant": true,
      "inputs": [
        {
          "name": "",
          "type": "address"
        }
      ],
      "name": "assessorState",
      "outputs": [
        {
          "name": "",
          "type": "uint8"
        }
      ],
      "payable": false,
      "stateMutability": "view",
      "type": "function"
    },
    {
      "constant": true,
      "inputs": [],
      "name": "salt",
      "outputs": [
        {
          "name": "",
          "type": "bytes32"
        }
      ],
      "payable": false,
      "stateMutability": "view",
      "type": "function"
    },
    {
      "constant": true,
      "inputs": [],
      "name": "checkpoint",
      "outputs": [
        {
          "name": "",
          "type": "uint256"
        }
      ],
      "payable": false,
      "stateMutability": "view",
      "type": "function"
    },
    {
      "inputs": [
        {
          "name": "_assessee",
          "type": "address"
        },
        {
          "name": "_size",
          "type": "uint256"
        },
        {
          "name": "_cost",
          "type": "uint256"
        },
        {
          "name": "_confirmTime",
          "type": "uint256"
        },
        {
          "name": "_timeLimit",
          "type": "uint256"
        }
      ],
      "payable": false,
      "stateMutability": "nonpayable",
      "type": "constructor"
    },
    {
      "constant": false,
      "inputs": [
        {
          "name": "seed",
          "type": "uint256"
        },
        {
          "name": "_concept",
          "type": "address"
        },
        {
          "name": "num",
          "type": "uint256"
        }
      ],
      "name": "setAssessorPool",
      "outputs": [],
      "payable": false,
      "stateMutability": "nonpayable",
      "type": "function"
    },
    {
      "constant": false,
      "inputs": [
        {
          "name": "_nMew",
          "type": "uint256"
        },
        {
          "name": "_mew",
          "type": "address"
        }
      ],
      "name": "callAllFromMew",
      "outputs": [],
      "payable": false,
      "stateMutability": "nonpayable",
      "type": "function"
    },
    {
      "constant": false,
      "inputs": [],
      "name": "confirmAssessor",
      "outputs": [],
      "payable": false,
      "stateMutability": "nonpayable",
      "type": "function"
    },
    {
      "constant": false,
      "inputs": [
        {
          "name": "_hash",
          "type": "bytes32"
        }
      ],
      "name": "commit",
      "outputs": [],
      "payable": false,
      "stateMutability": "nonpayable",
      "type": "function"
    },
    {
      "constant": false,
      "inputs": [
        {
          "name": "_score",
          "type": "int128"
        },
        {
          "name": "_salt",
          "type": "string"
        },
        {
          "name": "assessor",
          "type": "address"
        }
      ],
      "name": "steal",
      "outputs": [],
      "payable": false,
      "stateMutability": "nonpayable",
      "type": "function"
    },
    {
      "constant": false,
      "inputs": [
        {
          "name": "_score",
          "type": "int128"
        },
        {
          "name": "_salt",
          "type": "string"
        }
      ],
      "name": "reveal",
      "outputs": [],
      "payable": false,
      "stateMutability": "nonpayable",
      "type": "function"
    },
    {
      "constant": false,
      "inputs": [
        {
          "name": "finalClusterLength",
          "type": "uint256"
        }
      ],
      "name": "payout",
      "outputs": [],
      "payable": false,
      "stateMutability": "nonpayable",
      "type": "function"
    }
  ],
  "bytecode": "0x606060405234156200001057600080fd5b60405160a08062002037833981016040528080519190602001805191906020018051919060200180519190602001805160008054600160a060020a031916600160a060020a038981169190911782556003805461010060a860020a03191661010033841681029190911791829055939550929092049091169150631684ae4d90604051602001526040518163ffffffff167c0100000000000000000000000000000000000000000000000000000000028152600401602060405180830381600087803b1515620000df57600080fd5b6102c65a03f11515620000f157600080fd5b505050604051805160048054600160a060020a031916600160a060020a0392831617905560035461010090041690506372de5b2f6000604051602001526040518163ffffffff167c0100000000000000000000000000000000000000000000000000000000028152600401602060405180830381600087803b15156200017657600080fd5b6102c65a03f115156200018857600080fd5b505050604051805160058054600160a060020a031916600160a060020a039290921691909117905550428181016006819055908301600781905510620001ca57fe5b6008849055600983905560045460008054600160a060020a03928316926376147a0e929116906040517c010000000000000000000000000000000000000000000000000000000063ffffffff8516028152600160a060020a0390921660048301526024820152604401600060405180830381600087803b15156200024d57600080fd5b6102c65a03f115156200025f57600080fd5b50506000600b55505050505050611dbb806200027c6000396000f3006060604052600436106100e25763ffffffff60e060020a60003504166313faede681146100e75780632ad1bc091461010c5780632fa4f694146101725780633197cbb61461019757806347c20ab7146101aa5780636732e966146101d9578063739d9dc1146101ec578063949d225d146101ff5780639c6a1dfb14610212578063ae8421e114610249578063bf1c69691461025c578063bfa0b1331461027b578063c2c4c5c11461028e578063e1152343146102a1578063e6c50020146102b7578063f14fcbc8146102d9578063f571da7f146102ef578063fadf617b14610302575b600080fd5b34156100f257600080fd5b6100fa61035b565b60405190815260200160405180910390f35b341561011757600080fd5b61017060048035600f0b9060446024803590810190830135806020601f8201819004810201604051908101604052818152929190602084018383808284375094965050509235600160a060020a03169250610361915050565b005b341561017d57600080fd5b610170600435600160a060020a03602435166044356104e5565b34156101a257600080fd5b6100fa6107d0565b34156101b557600080fd5b6101bd6107d6565b604051600160a060020a03909116815260200160405180910390f35b34156101e457600080fd5b6101bd6107e5565b34156101f757600080fd5b6100fa6107f9565b341561020a57600080fd5b6100fa6107ff565b341561021d57600080fd5b610225610805565b6040518082600581111561023557fe5b60ff16815260200191505060405180910390f35b341561025457600080fd5b6100fa61080e565b341561026757600080fd5b610225600160a060020a0360043516610814565b341561028657600080fd5b6100fa610829565b341561029957600080fd5b6100fa61082f565b34156102ac57600080fd5b610170600435610835565b34156102c257600080fd5b610170600435600160a060020a0360243516610d72565b34156102e457600080fd5b610170600435610e34565b34156102fa57600080fd5b610170610f64565b341561030d57600080fd5b61017060048035600f0b9060446024803590810190830135806020601f820181900481020160405190810160405281815292919060208401838380828437509496506111ec95505050505050565b60095481565b6003600160a060020a03821660009081526002602052604090205460ff16600581111561038a57fe5b14156104e05782826040518083600f0b600f0b70010000000000000000000000000000000002815260100182805190602001908083835b602083106103e05780518252601f1990920191602091820191016103c1565b6001836020036101000a038019825116818451161790925250505091909101935060409250505051908190039020600160a060020a0382166000908152600a602052604090205414156104e057600454600954600160a060020a039091169063a9059cbb9033906002900460006040516020015260405160e060020a63ffffffff8516028152600160a060020a0390921660048301526024820152604401602060405180830381600087803b151561049757600080fd5b6102c65a03f115156104a857600080fd5b50505060405180515050600160a060020a0381166000908152600260205260409020805460ff19166005179055600880546000190190555b505050565b6000806000806000806000600360019054906101000a9004600160a060020a0316600160a060020a031633600160a060020a031614151561052557600080fd5b6000965088600160a060020a031663d965ea006000604051602001526040518163ffffffff1660e060020a028152600401602060405180830381600087803b151561056f57600080fd5b6102c65a03f1151561058057600080fd5b505050604051805196505060028604881161059b57876105a0565b600286045b9450600093505b8484101561064f5788600160a060020a03166385b2ff8f858c0160006040516020015260405160e060020a63ffffffff84160281526004810191909152602401602060405180830381600087803b151561060057600080fd5b6102c65a03f1151561061157600080fd5b5050506040518051935050600160a060020a0383161580159061063857506106388361145f565b15610644576001909601955b6001909301926105a7565b868803915060008211156107b7575060005b88600160a060020a031663449a058d6000604051602001526040518163ffffffff1660e060020a028152600401602060405180830381600087803b15156106a757600080fd5b6102c65a03f115156106b857600080fd5b505050604051805190508110156107b7576107af81888c01018a600160a060020a031663898572a68460006040516020015260405160e060020a63ffffffff84160281526004810191909152602401602060405180830381600087803b151561072057600080fd5b6102c65a03f1151561073157600080fd5b505050604051805190508b600160a060020a031663449a058d6000604051602001526040518163ffffffff1660e060020a028152600401602060405180830381600087803b151561078157600080fd5b6102c65a03f1151561079257600080fd5b50505060405180519050858115156107a657fe5b046001016104e5565b600101610661565b50506003805460ff191660011790555050505050505050565b60065481565b600054600160a060020a031681565b6003546101009004600160a060020a031681565b600d5481565b60085481565b60035460ff1681565b600b5481565b60026020526000908152604090205460ff1681565b600e5481565b60075481565b600061083f611d3d565b610847611d3d565b600080808060048060035460ff16600581111561086057fe5b1461086a57600080fd5b6001546000985060405180591061087e5750595b90808252806020026020018201604052506001549097506040518059106108a25750595b90808252806020026020018201604052509550600094505b600154851015610bdd576004600260006001888154811015156108d957fe5b6000918252602080832090910154600160a060020a0316835282019290925260400190205460ff16600581111561090c57fe5b1415610bd25773__Math__________________________________634c619e4c73__Math__________________________________631b5ac4b5600d54600c600060018c81548110151561095c57fe5b6000918252602080832090910154600160a060020a031683528201929092526040908101822054600f90810b900b9290920391516020015260405160e060020a63ffffffff8416028152600481019190915260240160206040518083038186803b15156109c857600080fd5b6102c65a03f415156109d957600080fd5b5050506040518051905060095460006040516040015260405160e060020a63ffffffff851602815260048101929092526024820152604401604080518083038186803b1515610a2757600080fd5b6102c65a03f41515610a3857600080fd5b5050506040518051906020018051919550909350508215610b9d578360095403880197506000841115610b065760045460018054600160a060020a039092169163a9059cbb919088908110610a8957fe5b6000918252602082200154600160a060020a03169087906040516020015260405160e060020a63ffffffff8516028152600160a060020a0390921660048301526024820152604401602060405180830381600087803b1515610aea57600080fd5b6102c65a03f11515610afb57600080fd5b505050604051805150505b60045460018054600160a060020a03909216916376147a0e919088908110610b2a57fe5b600091825260209091200154600160a060020a0316600660405160e060020a63ffffffff8516028152600160a060020a0390921660048301526024820152604401600060405180830381600087803b1515610b8457600080fd5b6102c65a03f11515610b9557600080fd5b505050610bd2565b6001878681518110610bab57fe5b91151560209283029091019091015283868681518110610bc757fe5b602090810290910101525b6001909401936108ba565b600091505b8551821015610d6757868281518110610bf757fe5b9060200190602002015115610d5c5760045460018054600160a060020a039092169163a9059cbb919085908110610c2a57fe5b600091825260209091200154600160a060020a03168b8b811515610c4a57fe5b04898681518110610c5757fe5b906020019060200201510160006040516020015260405160e060020a63ffffffff8516028152600160a060020a0390921660048301526024820152604401602060405180830381600087803b1515610cae57600080fd5b6102c65a03f11515610cbf57600080fd5b5050506040518051505060045460018054600160a060020a03909216916376147a0e919085908110610ced57fe5b600091825260209091200154600160a060020a0316600660405160e060020a63ffffffff8516028152600160a060020a0390921660048301526024820152604401600060405180830381600087803b1515610d4757600080fd5b6102c65a03f11515610d5857600080fd5b5050505b600190910190610be2565b505050505050505050565b600354600090819033600160a060020a039081166101009092041614610d9757600080fd5b5081905060005b83811015610e2157610e1882600160a060020a0316635daf08ca8360006040516020015260405160e060020a63ffffffff84160281526004810191909152602401602060405180830381600087803b1515610df857600080fd5b6102c65a03f11515610e0957600080fd5b5050506040518051905061145f565b50600101610d9e565b50506003805460ff191660011790555050565b60028060035460ff166005811115610e4857fe5b14610e5257600080fd5b600654421115610e6657610e66600261153f565b6002600160a060020a03331660009081526002602052604090205460ff166005811115610e8f57fe5b1415610ecf5733600160a060020a03166000908152600a6020908152604080832085905560029091529020805460ff19166003179055600b805460010190555b600854600b541415610f6057600554600160a060020a0316631f7489546000604051602001526040518163ffffffff1660e060020a028152600401602060405180830381600087803b1515610f2357600080fd5b6102c65a03f11515610f3457600080fd5b5050506040518051420160075550610f4e600360056115d8565b6000600b556003805460ff1916811790555b5050565b60018060035460ff166005811115610f7857fe5b14610f8257600080fd5b600754421115610f9957610f946116cc565b6111e9565b6001600160a060020a03331660009081526002602052604090205460ff166005811115610fc257fe5b148015610fd25750600854600154105b801561107a5750600454600954600354600160a060020a03928316926327234ecc92339230926101009091041660006040516020015260405160e060020a63ffffffff8716028152600160a060020a039485166004820152928416602484015260448301919091529091166064820152608401602060405180830381600087803b151561105e57600080fd5b6102c65a03f1151561106f57600080fd5b505050604051805190505b1561114f57600180548082016110908382611d4f565b506000918252602080832091909101805473ffffffffffffffffffffffffffffffffffffffff191633600160a060020a031690811790915582526002908190526040909120805460ff19166001830217905550600454600160a060020a03166376147a0e33600260405160e060020a63ffffffff8516028152600160a060020a0390921660048301526024820152604401600060405180830381600087803b151561113a57600080fd5b6102c65a03f1151561114b57600080fd5b5050505b60085460015414156111e957611167600260046115d8565b60048054600054600160a060020a03918216926376147a0e929091169060405160e060020a63ffffffff8516028152600160a060020a0390921660048301526024820152604401600060405180830381600087803b15156111c757600080fd5b6102c65a03f115156111d857600080fd5b50506003805460ff19166002179055505b50565b60038060035460ff16600581111561120057fe5b1461120a57600080fd5b600754421161121857600080fd5b600554600160a060020a0316631f7489546000604051602001526040518163ffffffff1660e060020a028152600401602060405180830381600087803b151561126057600080fd5b6102c65a03f1151561127157600080fd5b505050604051805190506006540161a8c00142111561129457611294600361153f565b6003600160a060020a03331660009081526002602052604090205460ff1660058111156112bd57fe5b14801561135e575082826040518083600f0b600f0b70010000000000000000000000000000000002815260100182805190602001908083835b602083106113155780518252601f1990920191602091820191016112f6565b6001836020036101000a038019825116818451161790925250505091909101935060409250505051908190039020600160a060020a0333166000908152600a6020526040902054145b1561143e5733600160a060020a03166000908152600c60205260409081902080546fffffffffffffffffffffffffffffffff19166fffffffffffffffffffffffffffffffff600f87900b161790558290518082805190602001908083835b602083106113db5780518252601f1990920191602091820191016113bc565b6001836020036101000a0380198251168184511617909252505050919091019250604091505051908190039020600e8054909118905533600160a060020a03166000908152600260205260409020805460ff19166004179055600b805460010190555b600854600b5414156104e0576003805460ff191660041790556104e061199f565b60008054600160a060020a038381169116148015906114a25750600160a060020a03821660009081526002602052604081205460ff1660058111156114a057fe5b145b1561153a57600454600160a060020a03166376147a0e83600160405160e060020a63ffffffff8516028152600160a060020a0390921660048301526024820152604401600060405180830381600087803b15156114fe57600080fd5b6102c65a03f1151561150f57600080fd5b50505050600160a060020a0381166000908152600260205260409020805460ff191660019081179091555b919050565b60005b600154811015610f605781600581111561155857fe5b6002600060018481548110151561156b57fe5b6000918252602080832090910154600160a060020a0316835282019290925260400190205460ff16600581111561159e57fe5b14156115d0576115d06001828154811015156115b657fe5b600091825260209091200154600160a060020a0316611c96565b600101611542565b60005b6001548110156104e05782600260006001848154811015156115f957fe5b6000918252602080832090910154600160a060020a0316835282019290925260400190205460ff16600581111561162c57fe5b14156116c45760045460018054600160a060020a03909216916376147a0e91908490811061165657fe5b600091825260209091200154600160a060020a03168460405160e060020a63ffffffff8516028152600160a060020a0390921660048301526024820152604401600060405180830381600087803b15156116af57600080fd5b6102c65a03f115156116c057600080fd5b5050505b6001016115db565b600080600160035460ff1660058111156116e257fe5b146116f357600154600954026116fb565b600854600954025b60045460008054929450600160a060020a039182169263a9059cbb92169085906040516020015260405160e060020a63ffffffff8516028152600160a060020a0390921660048301526024820152604401602060405180830381600087803b151561176557600080fd5b6102c65a03f1151561177657600080fd5b50505060405180515050600454600054600160a060020a03918216916376147a0e9116600360405160e060020a63ffffffff8516028152600160a060020a0390921660048301526024820152604401600060405180830381600087803b15156117de57600080fd5b6102c65a03f115156117ef57600080fd5b505050600090505b60015481101561198c5760056002600060018481548110151561181657fe5b6000918252602080832090910154600160a060020a0316835282019290925260400190205460ff16600581111561184957fe5b146119845760045460018054600160a060020a039092169163a9059cbb91908490811061187257fe5b6000918252602082200154600954600160a060020a03909116916040516020015260405160e060020a63ffffffff8516028152600160a060020a0390921660048301526024820152604401602060405180830381600087803b15156118d657600080fd5b6102c65a03f115156118e757600080fd5b5050506040518051505060045460018054600160a060020a03909216916376147a0e91908490811061191557fe5b600091825260209091200154600160a060020a0316600360405160e060020a63ffffffff8516028152600160a060020a0390921660048301526024820152604401600060405180830381600087803b151561196f57600080fd5b6102c65a03f1151561198057600080fd5b5050505b6001016117f7565b6003546101009004600160a060020a0316ff5b6119a7611d3d565b6000808060048060035460ff1660058111156119bf57fe5b146119c957600080fd5b600b546040518059106119d95750595b9080825280602002602001820160405250945060009350600092505b600154831015611ab457600460026000600186815481101515611a1457fe5b6000918252602080832090910154600160a060020a0316835282019290925260400190205460ff166005811115611a4757fe5b1415611aa957600c6000600185815481101515611a6057fe5b6000918252602080832090910154600160a060020a03168352820192909252604001902054600f90810b900b858581518110611a9857fe5b602090810290910101526001909301925b6001909201916119f5565b73__Math__________________________________63140a7ac6866000604051604001526040518263ffffffff1660e060020a0281526004018080602001828103825283818151815260200191508051906020019060200280838360005b83811015611b2a578082015183820152602001611b12565b5050505090500192505050604080518083038186803b1515611b4b57600080fd5b6102c65a03f41515611b5c57600080fd5b5050506040518051906020018051600d9290925550600b5490925060029004821115611c1757611b8b82610835565b6000600d541315611c1257600354600054600d54600160a060020a036101009093048316926398041ea3921690850260405160e060020a63ffffffff8516028152600160a060020a0390921660048301526024820152604401600060405180830381600087803b1515611bfd57600080fd5b6102c65a03f11515611c0e57600080fd5b5050505b611c1d565b6000600d555b600454600054600160a060020a03918216916376147a0e9116600760405160e060020a63ffffffff8516028152600160a060020a0390921660048301526024820152604401600060405180830381600087803b1515611c7b57600080fd5b6102c65a03f11515611c8c57600080fd5b5050505050505050565b600160a060020a038116600090815260026020526040902080546005919060ff19166001830217905550600554600160a060020a0316630ea24e546000604051602001526040518163ffffffff1660e060020a028152600401602060405180830381600087803b1515611d0857600080fd5b6102c65a03f11515611d1957600080fd5b5050506040518051600880546000190190819055101590506111e9576111e96116cc565b60206040519081016040526000815290565b8154818355818115116104e0576000838152602090206104e0918101908301611d8c91905b80821115611d885760008155600101611d74565b5090565b905600a165627a7a7230582034ca86a07a025a822249d50199fc28ee51a22244325b5b9fadd14b7604ad65e40029",
  "source": "pragma solidity ^0.4.11;\n\nimport \"./Math.sol\";\nimport \"./Concept.sol\";\nimport \"./FathomToken.sol\";\nimport \"./Constants.sol\";\n\ncontract Assessment {\n    address public assessee;\n    address[] assessors;\n\n    mapping (address => State) public assessorState;\n    State public assessmentStage;\n    enum State {\n        None,\n        Called,\n        Confirmed,\n        Committed,\n        Done,\n        Burned\n    }\n\n    Concept public concept;\n    FathomToken fathomToken;\n    Constants constants;\n\n    uint public endTime;\n    // will keep track of timelimits for 1) latest possible time to confirm and\n    // 2) earliest time to reveal\n    uint public checkpoint;\n    uint public size;\n    uint public cost;\n\n    mapping(address => bytes32) commits;\n    uint public done; //counter how many assessors have committed/revealed their score\n    mapping(address => int128) scores;\n    int public finalScore;\n    bytes32 public salt; //used for token distribution\n\n    modifier onlyConcept() {\n        require(msg.sender == address(concept));\n        _;\n    }\n\n    modifier onlyInStage(State _stage) {\n        require(assessmentStage == _stage);\n        _;\n    }\n\n    function Assessment(address _assessee,\n                        uint _size,\n                        uint _cost,\n                        uint _confirmTime,\n                        uint _timeLimit) public {\n        assessee = _assessee;\n        concept = Concept(msg.sender);\n        fathomToken = concept.fathomToken();\n        constants = concept.constants();\n\n        endTime = now + _timeLimit;\n        // set checkpoint to latest possible time to confirm\n        checkpoint = now + _confirmTime;\n        assert(checkpoint < endTime);\n\n        size = _size;\n        cost = _cost;\n\n        fathomToken.notification(assessee, 0); // assessee has started an assessment\n        done = 0;\n    }\n\n    // ends the assessment, refunds the assessee and all assessors who have not been burned\n    function cancelAssessment() private {\n        uint assesseeRefund = assessmentStage == State.Called ? cost * size : cost * assessors.length; //in later stages size can be reduced by burned assessors\n        fathomToken.transfer(assessee, assesseeRefund);\n        fathomToken.notification(assessee, 3); //Assessment Cancelled and you have been refunded\n        for (uint i = 0; i < assessors.length; i++) {\n            if (assessorState[assessors[i]] != State.Burned) {\n                fathomToken.transfer(assessors[i], cost);\n                fathomToken.notification(assessors[i], 3); //Assessment Cancelled and you have been refunded\n            }\n        }\n        selfdestruct(address(concept));\n    }\n\n    //adds a user to the pool eligible to accept an assessment\n    function addAssessorToPool(address assessor) private returns(bool) {\n        if (assessor != assessee && assessorState[assessor] == State.None) {\n            fathomToken.notification(assessor, 1); //Called As A Potential Assessor\n            assessorState[assessor] = State.Called;\n            return true;\n        }\n    }\n\n    /*\n      To recursively set the pool to draw assessors from in the assessment\n      stops when the pool of potential assessors is 20 times the size of the assessment2\n      @param: uint seed = the seed number for random number generation\n      @param: address _concept = the concept being called from\n      @param: uint num = the total number of assessors to be called\n    */\n    function setAssessorPool(uint seed, address _concept, uint num) public onlyConcept() {\n        uint numCalled = 0;\n        uint membersOfConcept = Concept(_concept).getMemberLength();\n        //we want to call at most half of the members of each concept\n        uint maxFromThisPool = num > membersOfConcept/2 ? membersOfConcept/2 : num;\n        for (uint k=0; k < maxFromThisPool; k++) {\n            address randomUser = Concept(_concept).getWeightedRandomMember(seed + k);\n            if (randomUser != address(0x0) && addAssessorToPool(randomUser)) {\n                numCalled++;\n            }\n        }\n        uint remaining = num - numCalled;\n        if (remaining > 0) {\n            for (uint i = 0; i < Concept(_concept).getParentsLength(); i++) {\n                setAssessorPool(seed + numCalled + i, Concept(_concept).parents(i), remaining/Concept(_concept).getParentsLength() + 1); //Calls the remaining users from the parent concepts proportional to their size\n            }\n        }\n        assessmentStage = State.Called;\n    }\n\n    /*\n      Function to call all members of mew to be assessors. Will be removed after\n      the alpha-testing phase.\n    */\n    function callAllFromMew(uint _nMew, address _mew) public onlyConcept() {\n        Concept mew = Concept(_mew);\n        for (uint i=0; i< _nMew; i++) {\n            addAssessorToPool(mew.members(i));\n        }\n        assessmentStage = State.Called;\n    }\n\n    // called by an assessor to confirm and stake\n    function confirmAssessor() public onlyInStage(State.Called) {\n        // cancel if the assessment is past its startTime\n        if (now > checkpoint){\n            cancelAssessment();\n            return;\n        }\n        if (assessorState[msg.sender] == State.Called &&\n            assessors.length < size &&\n            fathomToken.takeBalance(msg.sender, address(this), cost, concept)\n            ) {\n            assessors.push(msg.sender);\n            assessorState[msg.sender] = State.Confirmed;\n            fathomToken.notification(msg.sender, 2); //Confirmed for assessing, stake has been taken\n        }\n        if (assessors.length == size) {\n            notifyAssessors(uint(State.Confirmed), 4);\n            fathomToken.notification(assessee, 4);\n            assessmentStage = State.Confirmed;\n        }\n    }\n    //called by an assessor to commit a hash of their score //TODO explain in more detail what's happening\n    function commit(bytes32 _hash) public onlyInStage(State.Confirmed) {\n        if (now > endTime) {\n            burnStakes(State.Confirmed);\n        }\n        if (assessorState[msg.sender] == State.Confirmed) {\n                commits[msg.sender] = _hash;\n                assessorState[msg.sender] = State.Committed;\n                done++; //Increases done by 1 to help progress to the next assessment stage.\n        }\n        if (done == size) {\n            //set checkpoint to end of 12 hour challenge period after which scores can be revealed\n            checkpoint = now + constants.CHALLENGE_COMMIT_PERIOD();\n            notifyAssessors(uint(State.Committed), 5);\n            done = 0; //Resets the done counter\n            assessmentStage = State.Committed;\n        }\n    }\n\n\n    function steal(int128 _score, string _salt, address assessor) public {\n        if(assessorState[assessor] == State.Committed) {\n            if(commits[assessor] == keccak256(_score, _salt)) {\n                fathomToken.transfer(msg.sender, cost/2);\n                assessorState[assessor] = State.Burned;\n                size--;\n            }\n        }\n    }\n\n    //@purpose: called by assessors to reveal their own commits or others\n    // must be called between Constants.CHALLENGE_COMMIT_PERIOD after the latest commit and 12 more hours after the\n    // end of the assessment. If the last commit happens during at the last possible\n    // point in time (right before endtime), this period will be 12hours\n    function reveal(int128 _score, string _salt) public onlyInStage(State.Committed) {\n        // scores can only be revealed after the challenge period has passed\n        require(now > checkpoint);\n        // If the time to reveal has passed, burn all unrevealed assessors\n        if (now > endTime + constants.CHALLENGE_COMMIT_PERIOD() + 12 hours) {\n            burnStakes(State.Committed);\n        }\n\n        if(assessorState[msg.sender] == State.Committed &&\n           commits[msg.sender] == keccak256(_score, _salt)) {\n                    scores[msg.sender] = _score;\n                    salt = salt ^ (keccak256(_salt));\n                    assessorState[msg.sender] = State.Done;\n                    done++;\n        }\n\n        if (done == size) {\n            assessmentStage = State.Done;\n            calculateResult();\n        }\n    }\n\n    //burns stakes of all assessors who are in a certain state\n    function burnStakes(State _state) private {\n        for (uint i = 0; i < assessors.length; i++) {\n            if (assessorState[assessors[i]] == _state) {\n                burnAssessor(assessors[i]);\n           }\n        }\n    }\n\n    /** mark an assessor as burned, reduce size and cancel assessment\n        if the size is below five.\n        @param _assessor address of the assessor to be burned\n    */\n    function burnAssessor(address _assessor) private {\n        assessorState[_assessor] = State.Burned;\n        if (--size < constants.MIN_ASSESSMENT_SIZE()) {\n            cancelAssessment();\n        }\n    }\n\n    function notifyAssessors(uint _state, uint _topic) private {\n        for (uint i=0; i < assessors.length; i++) {\n            if (uint(assessorState[assessors[i]]) == _state) {\n                fathomToken.notification(assessors[i], _topic);\n            }\n        }\n    }\n\n    function calculateResult() onlyInStage(State.Done) private {\n        int[] memory finalScores = new int[] (done);\n        uint idx =0;\n        for (uint j = 0; j < assessors.length; j++) {\n            if (assessorState[assessors[j]] == State.Done) {\n                finalScores[idx] = scores[assessors[j]];\n                idx++;\n            }\n        }\n        uint finalClusterLength;\n        (finalScore, finalClusterLength) = Math.getFinalScore(finalScores);\n        // check if a majority of assessors found a point of consensus\n        if (finalClusterLength > done/2) {\n            payout(finalClusterLength);\n            if (finalScore > 0) {\n                concept.addMember(assessee, uint(finalScore) * finalClusterLength);\n            }\n        } else {\n            // set final Score to zero to signal no consensus\n            finalScore = 0;\n        }\n        fathomToken.notification(assessee, 7);\n    }\n\n    function payout(uint finalClusterLength) onlyInStage(State.Done) public {\n        uint dissentBonus = 0;\n        bool[] memory inAssessor = new bool[] (assessors.length);\n        uint[] memory inAssessorPayout = new uint[] (assessors.length);\n        // pay out dissenting assessors their reduced stake and save how much stake to redistribute to whom\n        for (uint i = 0; i < assessors.length; i++) {\n            if (assessorState[assessors[i]] == State.Done) {\n                uint payoutValue;\n                bool dissenting;\n                (payoutValue, dissenting) = Math.getPayout(Math.abs(scores[assessors[i]] - finalScore), cost);\n                if (dissenting) {\n                    dissentBonus += cost - payoutValue;\n                    if (payoutValue > 0) {\n                        fathomToken.transfer(assessors[i], payoutValue);\n                    }\n                    fathomToken.notification(assessors[i], 6); //Consensus reached; Tokens paid out\n                } else {\n                    inAssessor[i] = true;\n                    inAssessorPayout[i] = payoutValue;\n                }\n            }\n        }\n        // pay out the majority-assessors their share of stake + the remainders of any dissenting assessors\n        for (uint j = 0; j < inAssessorPayout.length; j++) {\n            if (inAssessor[j]) {\n                fathomToken.transfer(assessors[j],\n                                                    inAssessorPayout[j] + dissentBonus/finalClusterLength);\n                fathomToken.notification(assessors[j], 6); //Consensus reached; Tokens paid out\n            }\n        }\n    }\n}\n",
  "sourcePath": "/Users/antoineestienne/GitFolder/fathom/assess/contracts/Assessment.sol",
  "compiler": {
    "name": "solc",
    "version": "0.4.19+commit.c4cbbb05.Emscripten.clang"
  },
  "schemaVersion": "1.0.1",
  "updatedAt": "2018-05-04T15:19:04.664Z"
}