{
  "contractName": "Constants",
  "abi": [
    {
      "constant": true,
      "inputs": [],
      "name": "MIN_ASSESSMENT_SIZE",
      "outputs": [
        {
          "name": "",
          "type": "uint256"
        }
      ],
      "payable": false,
      "stateMutability": "view",
      "type": "function"
    },
    {
      "constant": true,
      "inputs": [],
      "name": "CHALLENGE_COMMIT_PERIOD",
      "outputs": [
        {
          "name": "",
          "type": "uint256"
        }
      ],
      "payable": false,
      "stateMutability": "view",
      "type": "function"
    },
    {
      "constant": true,
      "inputs": [],
      "name": "ASSESSORPOOL_SIZE_FACTOR",
      "outputs": [
        {
          "name": "",
          "type": "uint256"
        }
      ],
      "payable": false,
      "stateMutability": "view",
      "type": "function"
    },
    {
      "inputs": [
        {
          "name": "_minSize",
          "type": "uint256"
        },
        {
          "name": "_challengePeriod",
          "type": "uint256"
        },
        {
          "name": "_assessorpoolSize",
          "type": "uint256"
        }
      ],
      "payable": false,
      "stateMutability": "nonpayable",
      "type": "constructor"
    },
    {
      "constant": false,
      "inputs": [
        {
          "name": "newSize",
          "type": "uint256"
        }
      ],
      "name": "setMinAssessmentSize",
      "outputs": [],
      "payable": false,
      "stateMutability": "nonpayable",
      "type": "function"
    },
    {
      "constant": false,
      "inputs": [
        {
          "name": "newTime",
          "type": "uint256"
        }
      ],
      "name": "setChallengeCommitPeriod",
      "outputs": [],
      "payable": false,
      "stateMutability": "nonpayable",
      "type": "function"
    },
    {
      "constant": false,
      "inputs": [
        {
          "name": "newFactor",
          "type": "uint256"
        }
      ],
      "name": "setAssessorpoolSizeFactor",
      "outputs": [],
      "payable": false,
      "stateMutability": "nonpayable",
      "type": "function"
    }
  ],
  "bytecode": "0x6060604052341561000f57600080fd5b6040516060806101a583398101604052808051919060200180519190602001805160009490945550506001556002556101588061004d6000396000f3006060604052600436106100775763ffffffff7c01000000000000000000000000000000000000000000000000000000006000350416630ea24e54811461007c5780631f748954146100a1578063213bdfb8146100b45780633ba30806146100cc57806345f2ac3b146100df578063ec118074146100f5575b600080fd5b341561008757600080fd5b61008f61010b565b60405190815260200160405180910390f35b34156100ac57600080fd5b61008f610111565b34156100bf57600080fd5b6100ca600435610117565b005b34156100d757600080fd5b61008f61011c565b34156100ea57600080fd5b6100ca600435610122565b341561010057600080fd5b6100ca600435610127565b60005481565b60015481565b600155565b60025481565b600055565b6002555600a165627a7a72305820c15ee6a76d6d631a1afaa3986eb989a41c675b7154ae7b7daa5deea3d4aab2550029",
  "source": "pragma solidity ^0.4.18;\n\n/*\n  @type: contract\n  @name: Constants\n  @purpose: To ease development-cyles and testing, all constants will be loaded\n  from this contract, so that we can change them to our needs. NOTE: This is not\n  supposed to be part of the final contract-design, but specifically for testing\n  purposes\n*/\n\ncontract Constants {\n  uint public MIN_ASSESSMENT_SIZE; // 5\n  uint public CHALLENGE_COMMIT_PERIOD; // 12 hours\n  uint public ASSESSORPOOL_SIZE_FACTOR;  // originally 5\n\n  function Constants(uint _minSize, uint _challengePeriod, uint _assessorpoolSize) public {\n    MIN_ASSESSMENT_SIZE = _minSize;\n    CHALLENGE_COMMIT_PERIOD = _challengePeriod;\n    ASSESSORPOOL_SIZE_FACTOR = _assessorpoolSize;\n  }\n\n  function setMinAssessmentSize(uint newSize) public {\n    MIN_ASSESSMENT_SIZE = newSize;\n  }\n\n  function setChallengeCommitPeriod(uint newTime) public {\n    CHALLENGE_COMMIT_PERIOD = newTime;\n  }\n\n  function setAssessorpoolSizeFactor(uint newFactor) public {\n    ASSESSORPOOL_SIZE_FACTOR = newFactor;\n  }\n\n}\n",
  "sourcePath": "/Users/antoineestienne/GitFolder/fathom/assess/contracts/Constants.sol",
  "compiler": {
    "name": "solc",
    "version": "0.4.19+commit.c4cbbb05.Emscripten.clang"
  },
  "schemaVersion": "1.0.1",
  "updatedAt": "2018-05-04T15:19:04.647Z"
}