{
  "contractName": "Distributor",
  "abi": [
    {
      "constant": true,
      "inputs": [],
      "name": "conceptRegistry",
      "outputs": [
        {
          "name": "",
          "type": "address"
        }
      ],
      "payable": false,
      "stateMutability": "view",
      "type": "function"
    },
    {
      "constant": true,
      "inputs": [],
      "name": "nInitialMembers",
      "outputs": [
        {
          "name": "",
          "type": "uint256"
        }
      ],
      "payable": false,
      "stateMutability": "view",
      "type": "function"
    },
    {
      "constant": true,
      "inputs": [
        {
          "name": "",
          "type": "uint256"
        }
      ],
      "name": "memberWeights",
      "outputs": [
        {
          "name": "",
          "type": "uint256"
        }
      ],
      "payable": false,
      "stateMutability": "view",
      "type": "function"
    },
    {
      "constant": true,
      "inputs": [
        {
          "name": "",
          "type": "uint256"
        }
      ],
      "name": "memberAddresses",
      "outputs": [
        {
          "name": "",
          "type": "address"
        }
      ],
      "payable": false,
      "stateMutability": "view",
      "type": "function"
    },
    {
      "inputs": [
        {
          "name": "_nInitialMembers",
          "type": "uint256"
        },
        {
          "name": "_conceptRegistry",
          "type": "address"
        }
      ],
      "payable": false,
      "stateMutability": "nonpayable",
      "type": "constructor"
    },
    {
      "constant": false,
      "inputs": [
        {
          "name": "_memberAddress",
          "type": "address"
        },
        {
          "name": "_memberWeight",
          "type": "uint256"
        }
      ],
      "name": "addInitialMember",
      "outputs": [],
      "payable": false,
      "stateMutability": "nonpayable",
      "type": "function"
    }
  ],
  "bytecode": "0x6060604052341561000f57600080fd5b60405160408061036f8339810160405280805191906020018051600093845560018054600160a060020a031916600160a060020a03909216919091179055506103109182915061005f90396000f3006060604052600436106100535763ffffffff60e060020a6000350416633f99fa5481146100585780637654e9211461007c578063963e01f7146100ab578063a0786d0c146100d0578063cc4e6299146100e6575b600080fd5b341561006357600080fd5b61007a600160a060020a03600435166024356100fc565b005b341561008757600080fd5b61008f61023e565b604051600160a060020a03909116815260200160405180910390f35b34156100b657600080fd5b6100be61024d565b60405190815260200160405180910390f35b34156100db57600080fd5b6100be600435610253565b34156100f157600080fd5b61008f600435610272565b6000546002541061010c57600080fd5b600154600160a060020a0316639e45c8866000604051602001526040518163ffffffff1660e060020a028152600401602060405180830381600087803b151561015457600080fd5b6102c65a03f1151561016557600080fd5b50505060405180519050600160a060020a0316633f99fa54838360405160e060020a63ffffffff8516028152600160a060020a0390921660048301526024820152604401600060405180830381600087803b15156101c257600080fd5b6102c65a03f115156101d357600080fd5b505050600280548060010182816101ea919061029a565b506000918252602090912001805473ffffffffffffffffffffffffffffffffffffffff1916600160a060020a038416179055600380546001810161022e838261029a565b5060009182526020909120015550565b600154600160a060020a031681565b60005481565b600380548290811061026157fe5b600091825260209091200154905081565b600280548290811061028057fe5b600091825260209091200154600160a060020a0316905081565b8154818355818115116102be576000838152602090206102be9181019083016102c3565b505050565b6102e191905b808211156102dd57600081556001016102c9565b5090565b905600a165627a7a723058203ebd13620090cfc88413865975be803fadb0c13cb9693f03e67535fcfc759e8f0029",
  "source": "pragma solidity ^0.4.0;\n\nimport \"./Concept.sol\";\nimport \"./ConceptRegistry.sol\";\n\n// Contract that can add a specified number of members to the mew-concept\n// of the given conceptRegistry\ncontract Distributor{\n    uint public nInitialMembers;\n    address public conceptRegistry;\n    address[] public memberAddresses;\n    uint[] public memberWeights;\n\n    function Distributor(uint _nInitialMembers, address _conceptRegistry) public {\n        nInitialMembers = _nInitialMembers;\n        conceptRegistry = _conceptRegistry;\n    }\n\n    function addInitialMember(address _memberAddress, uint _memberWeight) public {\n        require(memberAddresses.length < nInitialMembers);\n        Concept(ConceptRegistry(conceptRegistry).mewAddress()).addInitialMember(_memberAddress, _memberWeight);\n        memberAddresses.push(_memberAddress);\n        memberWeights.push(_memberWeight);\n    }\n\n}\n\n",
  "sourcePath": "/Users/antoineestienne/GitFolder/fathom/assess/contracts/Distributor.sol",
  "compiler": {
    "name": "solc",
    "version": "0.4.19+commit.c4cbbb05.Emscripten.clang"
  },
  "schemaVersion": "1.0.1",
  "updatedAt": "2018-05-04T15:19:06.531Z"
}