{
  "contractName": "Minter",
  "abi": [
    {
      "constant": true,
      "inputs": [],
      "name": "initialized",
      "outputs": [
        {
          "name": "",
          "type": "bool"
        }
      ],
      "payable": false,
      "stateMutability": "view",
      "type": "function"
    },
    {
      "constant": true,
      "inputs": [],
      "name": "epochStart",
      "outputs": [
        {
          "name": "",
          "type": "uint256"
        }
      ],
      "payable": false,
      "stateMutability": "view",
      "type": "function"
    },
    {
      "constant": true,
      "inputs": [],
      "name": "fathomToken",
      "outputs": [
        {
          "name": "",
          "type": "address"
        }
      ],
      "payable": false,
      "stateMutability": "view",
      "type": "function"
    },
    {
      "constant": true,
      "inputs": [],
      "name": "reward",
      "outputs": [
        {
          "name": "",
          "type": "uint256"
        }
      ],
      "payable": false,
      "stateMutability": "view",
      "type": "function"
    },
    {
      "constant": true,
      "inputs": [],
      "name": "closestDistance",
      "outputs": [
        {
          "name": "",
          "type": "uint256"
        }
      ],
      "payable": false,
      "stateMutability": "view",
      "type": "function"
    },
    {
      "constant": true,
      "inputs": [],
      "name": "epochLength",
      "outputs": [
        {
          "name": "",
          "type": "uint256"
        }
      ],
      "payable": false,
      "stateMutability": "view",
      "type": "function"
    },
    {
      "constant": true,
      "inputs": [],
      "name": "conceptRegistry",
      "outputs": [
        {
          "name": "",
          "type": "address"
        }
      ],
      "payable": false,
      "stateMutability": "view",
      "type": "function"
    },
    {
      "constant": true,
      "inputs": [],
      "name": "owner",
      "outputs": [
        {
          "name": "",
          "type": "address"
        }
      ],
      "payable": false,
      "stateMutability": "view",
      "type": "function"
    },
    {
      "constant": true,
      "inputs": [],
      "name": "winner",
      "outputs": [
        {
          "name": "",
          "type": "address"
        }
      ],
      "payable": false,
      "stateMutability": "view",
      "type": "function"
    },
    {
      "constant": true,
      "inputs": [],
      "name": "epochHash",
      "outputs": [
        {
          "name": "",
          "type": "uint256"
        }
      ],
      "payable": false,
      "stateMutability": "view",
      "type": "function"
    },
    {
      "inputs": [
        {
          "name": "_conceptRegistry",
          "type": "address"
        },
        {
          "name": "_epochLength",
          "type": "uint256"
        },
        {
          "name": "_reward",
          "type": "uint256"
        }
      ],
      "payable": false,
      "stateMutability": "nonpayable",
      "type": "constructor"
    },
    {
      "anonymous": false,
      "inputs": [
        {
          "indexed": false,
          "name": "oldOwner",
          "type": "address"
        },
        {
          "indexed": false,
          "name": "newOwner",
          "type": "address"
        }
      ],
      "name": "NewOwner",
      "type": "event"
    },
    {
      "anonymous": false,
      "inputs": [
        {
          "indexed": false,
          "name": "oldReward",
          "type": "uint256"
        },
        {
          "indexed": false,
          "name": "newReward",
          "type": "uint256"
        }
      ],
      "name": "NewReward",
      "type": "event"
    },
    {
      "anonymous": false,
      "inputs": [
        {
          "indexed": false,
          "name": "oldLength",
          "type": "uint256"
        },
        {
          "indexed": false,
          "name": "newLength",
          "type": "uint256"
        }
      ],
      "name": "NewEpochLength",
      "type": "event"
    },
    {
      "anonymous": false,
      "inputs": [
        {
          "indexed": false,
          "name": "recipient",
          "type": "address"
        },
        {
          "indexed": false,
          "name": "amount",
          "type": "uint256"
        }
      ],
      "name": "TokensMinted",
      "type": "event"
    },
    {
      "constant": false,
      "inputs": [
        {
          "name": "_fathomToken",
          "type": "address"
        }
      ],
      "name": "init",
      "outputs": [],
      "payable": false,
      "stateMutability": "nonpayable",
      "type": "function"
    },
    {
      "constant": false,
      "inputs": [
        {
          "name": "_assessor",
          "type": "address"
        },
        {
          "name": "_assessment",
          "type": "address"
        },
        {
          "name": "_tokenSalt",
          "type": "uint256"
        }
      ],
      "name": "submitTicket",
      "outputs": [],
      "payable": false,
      "stateMutability": "nonpayable",
      "type": "function"
    },
    {
      "constant": true,
      "inputs": [
        {
          "name": "_assessor",
          "type": "address"
        },
        {
          "name": "_assessment",
          "type": "address"
        },
        {
          "name": "_tokenSalt",
          "type": "uint256"
        },
        {
          "name": "_assessmentSalt",
          "type": "bytes32"
        }
      ],
      "name": "getTicketDistance",
      "outputs": [
        {
          "name": "distance",
          "type": "uint256"
        }
      ],
      "payable": false,
      "stateMutability": "view",
      "type": "function"
    },
    {
      "constant": false,
      "inputs": [],
      "name": "endEpoch",
      "outputs": [],
      "payable": false,
      "stateMutability": "nonpayable",
      "type": "function"
    },
    {
      "constant": false,
      "inputs": [
        {
          "name": "_owner",
          "type": "address"
        }
      ],
      "name": "setOwner",
      "outputs": [],
      "payable": false,
      "stateMutability": "nonpayable",
      "type": "function"
    },
    {
      "constant": false,
      "inputs": [
        {
          "name": "_reward",
          "type": "uint256"
        }
      ],
      "name": "setReward",
      "outputs": [],
      "payable": false,
      "stateMutability": "nonpayable",
      "type": "function"
    },
    {
      "constant": false,
      "inputs": [
        {
          "name": "_length",
          "type": "uint256"
        }
      ],
      "name": "setEpochLength",
      "outputs": [],
      "payable": false,
      "stateMutability": "nonpayable",
      "type": "function"
    }
  ],
  "bytecode": "0x6060604052600019600855341561001557600080fd5b604051606080610a0283398101604052808051919060200180519190602001805160068054600160a060020a0319908116600160a060020a039788161790915560049490945542600255436000190140600355600155505060098054909116339092169190911790556109758061008d6000396000f3006060604052600436106100d75763ffffffff60e060020a6000350416630b9663db81146100dc57806313af4035146100f1578063158ef93e1461011057806315e5a1e5146101375780631684ae4d1461015c57806319ab453c1461018b578063228cb733146101aa578063293be456146101bd57806343f8be51146101d357806354eea796146101e657806357d775f8146101fc5780637654e9211461020f5780638da5cb5b146102225780639cda46a814610235578063dfbf53ae14610260578063e040eb5914610273578063f9958e6814610286575b600080fd5b34156100e757600080fd5b6100ef6102ae565b005b34156100fc57600080fd5b6100ef600160a060020a03600435166103d1565b341561011b57600080fd5b61012361041b565b604051901515815260200160405180910390f35b341561014257600080fd5b61014a610424565b60405190815260200160405180910390f35b341561016757600080fd5b61016f61042a565b604051600160a060020a03909116815260200160405180910390f35b341561019657600080fd5b6100ef600160a060020a0360043516610439565b34156101b557600080fd5b61014a61047e565b34156101c857600080fd5b6100ef600435610484565b34156101de57600080fd5b61014a6104a4565b34156101f157600080fd5b6100ef6004356104aa565b341561020757600080fd5b61014a6104ca565b341561021a57600080fd5b61016f6104d0565b341561022d57600080fd5b61016f6104df565b341561024057600080fd5b61014a600160a060020a03600435811690602435166044356064356104ee565b341561026b57600080fd5b61016f61055f565b341561027e57600080fd5b61014a61056e565b341561029157600080fd5b6100ef600160a060020a0360043581169060243516604435610574565b600454600254014211156103cf57600554600754600154600160a060020a03928316926340c10f1992169060006040516020015260405160e060020a63ffffffff8516028152600160a060020a0390921660048301526024820152604401602060405180830381600087803b151561032557600080fd5b6102c65a03f1151561033657600080fd5b50505060405180519050156103cf576007546001547f3f2c9d57c068687834f0de942a9babb9e5acab57d516d3480a3c16ee165a427391600160a060020a031690604051600160a060020a03909216825260208201526040908101905180910390a1600454600280549091019055600019438101406003556008556007805473ffffffffffffffffffffffffffffffffffffffff191690555b565b60095433600160a060020a039081169116146103ec57600080fd5b6009805473ffffffffffffffffffffffffffffffffffffffff1916600160a060020a0392909216919091179055565b60005460ff1681565b60025481565b600554600160a060020a031681565b60005460ff16151561047b576005805473ffffffffffffffffffffffffffffffffffffffff1916600160a060020a0383161790556000805460ff191660011790555b50565b60015481565b60095433600160a060020a0390811691161461049f57600080fd5b600155565b60085481565b60095433600160a060020a039081169116146104c557600080fd5b600455565b60045481565b600654600160a060020a031681565b600954600160a060020a031681565b600080858585856040516c01000000000000000000000000600160a060020a0395861681028252939094169092026014840152602883015260488201526068016040518091039020600190049050806003541161054f576003548103610555565b80600354035b9695505050505050565b600754600160a060020a031681565b60035481565b6006548290600090600160a060020a039081169063c18e4679908416636732e96684604051602001526040518163ffffffff1660e060020a028152600401602060405180830381600087803b15156105cb57600080fd5b6102c65a03f115156105dc57600080fd5b5050506040518051905060006040516020015260405160e060020a63ffffffff8416028152600160a060020a039091166004820152602401602060405180830381600087803b151561062d57600080fd5b6102c65a03f1151561063e57600080fd5b505050604051805190508015610722575081600160a060020a0316636732e9666000604051602001526040518163ffffffff1660e060020a028152600401602060405180830381600087803b151561069557600080fd5b6102c65a03f115156106a657600080fd5b50505060405180519050600160a060020a03166321d39c2c8560006040516020015260405160e060020a63ffffffff8416028152600160a060020a039091166004820152602401602060405180830381600087803b151561070657600080fd5b6102c65a03f1151561071757600080fd5b505050604051805190505b801561079357506004546002540182600160a060020a0316633197cbb66000604051602001526040518163ffffffff1660e060020a028152600401602060405180830381600087803b151561077657600080fd5b6102c65a03f1151561078757600080fd5b50505060405180519050105b801561081b575081600160a060020a031663bf1c69698660006040516020015260405160e060020a63ffffffff8416028152600160a060020a039091166004820152602401602060405180830381600087803b15156107f157600080fd5b6102c65a03f1151561080257600080fd5b50505060405180519050600581111561081757fe5b6004145b8015610887575081600160a060020a03166313faede66000604051602001526040518163ffffffff1660e060020a028152600401602060405180830381600087803b151561086857600080fd5b6102c65a03f1151561087957600080fd5b505050604051805190508311155b8015610891575060015b151561089c57600080fd5b61090885838585600160a060020a031663bfa0b1336000604051602001526040518163ffffffff1660e060020a028152600401602060405180830381600087803b15156108e857600080fd5b6102c65a03f115156108f957600080fd5b505050604051805190506104ee565b90506008548110156109425760088190556007805473ffffffffffffffffffffffffffffffffffffffff1916600160a060020a0387161790555b50505050505600a165627a7a72305820c99e3d137b7d131b83c1d39d021a62994247fa2acd371a8b7beef1418cb64a560029",
  "source": "pragma solidity ^0.4.18;\n\nimport \"./ConceptRegistry.sol\";\nimport \"./Assessment.sol\";\nimport \"./FathomToken.sol\";\n\n\ncontract Minter {\n\n\n    bool public initialized;\n    uint public reward;\n\n    uint public epochStart;\n    uint public epochHash;\n    uint public epochLength;\n\n    FathomToken public fathomToken;\n    ConceptRegistry public conceptRegistry;\n\n    address public winner;\n    uint public closestDistance = 2**256 - 1;\n\n    address public owner;\n\n    modifier onlyOwner() {\n        require(msg.sender == owner);\n        _;\n    }\n\n    event NewOwner(address oldOwner, address newOwner);\n    event NewReward(uint oldReward, uint newReward);\n    event NewEpochLength(uint oldLength, uint newLength);\n    event TokensMinted(address recipient, uint amount);\n\n    function Minter(address _conceptRegistry, uint _epochLength, uint _reward) public {\n        conceptRegistry = ConceptRegistry(_conceptRegistry);\n        epochLength = _epochLength;\n        epochStart = now;\n        epochHash = uint(block.blockhash(block.number - 1));\n        reward = _reward;\n        owner = msg.sender;\n    }\n\n    function init(address _fathomToken) public {\n        if (!initialized) {\n            fathomToken = FathomToken(_fathomToken);\n            initialized = true;\n        }\n    }\n    /*\n      function to be called by an assessor to submit a ticket to the lottery if\n      the assessor has revealed their score in an assessment whose commit-phase\n      will end before the end of the epoch.\n      @param _assessor: address of the assessor\n      @param _assessment: address of the assessment\n      @param _tokenSalt: a number smaller or equal to amount of tokens the assessor staked in the assessment\n    */\n    function submitTicket (address _assessor, address _assessment, uint _tokenSalt) public {\n        Assessment assessment = Assessment(_assessment);\n        require(conceptRegistry.conceptExists(address(assessment.concept())) &&\n                Concept(assessment.concept()).assessmentExists(_assessment) &&\n                assessment.endTime() < epochStart + epochLength &&\n                uint(assessment.assessorState(_assessor)) == 4 &&\n                _tokenSalt <= assessment.cost() &&\n                true);\n\n        uint distance = getTicketDistance(_assessor, assessment, _tokenSalt, assessment.salt());\n        if (distance < closestDistance) {\n            closestDistance = distance;\n            winner = _assessor;\n        }\n    }\n\n    function getTicketDistance(\n        address _assessor,\n        address _assessment,\n        uint _tokenSalt,\n        bytes32 _assessmentSalt\n    )\n        public view returns(uint distance)\n    {\n        uint hash = uint(keccak256(_assessor, _assessment, _tokenSalt, _assessmentSalt));\n        distance = epochHash > hash ? epochHash - hash : hash - epochHash;\n    }\n\n    function endEpoch() public {\n        if (now > (epochStart + epochLength)) {\n            if (fathomToken.mint(winner, reward)) {\n                TokensMinted(winner, reward);\n                epochStart = epochStart + epochLength;\n                epochHash = uint(block.blockhash(block.number - 1));\n                closestDistance = 2**256-1;\n                winner = address(0x0);\n            }\n        }\n    }\n\n    function setOwner(address _owner) public onlyOwner() {\n        owner = _owner;\n    }\n\n    function setReward(uint _reward) public onlyOwner() {\n        reward = _reward;\n    }\n\n    function setEpochLength (uint _length) public onlyOwner() {\n        epochLength = _length;\n    }\n}\n",
  "sourcePath": "/Users/antoineestienne/GitFolder/fathom/assess/contracts/Minter.sol",
  "compiler": {
    "name": "solc",
    "version": "0.4.19+commit.c4cbbb05.Emscripten.clang"
  },
  "schemaVersion": "1.0.1",
  "updatedAt": "2018-05-04T15:19:04.673Z"
}