{
  "contractName": "Concept",
  "abi": [
    {
      "constant": true,
      "inputs": [],
      "name": "fathomToken",
      "outputs": [
        {
          "name": "",
          "type": "address"
        }
      ],
      "payable": false,
      "stateMutability": "view",
      "type": "function"
    },
    {
      "constant": true,
      "inputs": [
        {
          "name": "",
          "type": "address"
        }
      ],
      "name": "assessmentExists",
      "outputs": [
        {
          "name": "",
          "type": "bool"
        }
      ],
      "payable": false,
      "stateMutability": "view",
      "type": "function"
    },
    {
      "constant": true,
      "inputs": [
        {
          "name": "",
          "type": "uint256"
        }
      ],
      "name": "members",
      "outputs": [
        {
          "name": "",
          "type": "address"
        }
      ],
      "payable": false,
      "stateMutability": "view",
      "type": "function"
    },
    {
      "constant": true,
      "inputs": [],
      "name": "lifetime",
      "outputs": [
        {
          "name": "",
          "type": "uint256"
        }
      ],
      "payable": false,
      "stateMutability": "view",
      "type": "function"
    },
    {
      "constant": true,
      "inputs": [],
      "name": "data",
      "outputs": [
        {
          "name": "",
          "type": "bytes"
        }
      ],
      "payable": false,
      "stateMutability": "view",
      "type": "function"
    },
    {
      "constant": true,
      "inputs": [
        {
          "name": "",
          "type": "uint256"
        }
      ],
      "name": "parents",
      "outputs": [
        {
          "name": "",
          "type": "address"
        }
      ],
      "payable": false,
      "stateMutability": "view",
      "type": "function"
    },
    {
      "constant": true,
      "inputs": [],
      "name": "owner",
      "outputs": [
        {
          "name": "",
          "type": "address"
        }
      ],
      "payable": false,
      "stateMutability": "view",
      "type": "function"
    },
    {
      "constant": true,
      "inputs": [
        {
          "name": "",
          "type": "address"
        }
      ],
      "name": "memberData",
      "outputs": [
        {
          "name": "recentAssessment",
          "type": "address"
        },
        {
          "name": "index",
          "type": "uint256"
        }
      ],
      "payable": false,
      "stateMutability": "view",
      "type": "function"
    },
    {
      "inputs": [
        {
          "name": "_parents",
          "type": "address[]"
        },
        {
          "name": "_propagationRates",
          "type": "uint256[]"
        },
        {
          "name": "_lifetime",
          "type": "uint256"
        },
        {
          "name": "_data",
          "type": "bytes"
        },
        {
          "name": "_owner",
          "type": "address"
        }
      ],
      "payable": false,
      "stateMutability": "nonpayable",
      "type": "constructor"
    },
    {
      "constant": false,
      "inputs": [
        {
          "name": "_newOwner",
          "type": "address"
        }
      ],
      "name": "transferOwnership",
      "outputs": [],
      "payable": false,
      "stateMutability": "nonpayable",
      "type": "function"
    },
    {
      "constant": false,
      "inputs": [
        {
          "name": "_newLifetime",
          "type": "uint256"
        }
      ],
      "name": "changeLifetime",
      "outputs": [],
      "payable": false,
      "stateMutability": "nonpayable",
      "type": "function"
    },
    {
      "constant": true,
      "inputs": [],
      "name": "getMemberLength",
      "outputs": [
        {
          "name": "",
          "type": "uint256"
        }
      ],
      "payable": false,
      "stateMutability": "view",
      "type": "function"
    },
    {
      "constant": true,
      "inputs": [],
      "name": "getParentsLength",
      "outputs": [
        {
          "name": "",
          "type": "uint256"
        }
      ],
      "payable": false,
      "stateMutability": "view",
      "type": "function"
    },
    {
      "constant": false,
      "inputs": [
        {
          "name": "_user",
          "type": "address"
        },
        {
          "name": "_weight",
          "type": "uint256"
        }
      ],
      "name": "addInitialMember",
      "outputs": [],
      "payable": false,
      "stateMutability": "nonpayable",
      "type": "function"
    },
    {
      "constant": false,
      "inputs": [],
      "name": "toggleAvailability",
      "outputs": [
        {
          "name": "success",
          "type": "bool"
        }
      ],
      "payable": false,
      "stateMutability": "nonpayable",
      "type": "function"
    },
    {
      "constant": false,
      "inputs": [
        {
          "name": "seed",
          "type": "uint256"
        }
      ],
      "name": "getWeightedRandomMember",
      "outputs": [
        {
          "name": "",
          "type": "address"
        }
      ],
      "payable": false,
      "stateMutability": "nonpayable",
      "type": "function"
    },
    {
      "constant": true,
      "inputs": [
        {
          "name": "_member",
          "type": "address"
        }
      ],
      "name": "getWeight",
      "outputs": [
        {
          "name": "weight",
          "type": "uint256"
        }
      ],
      "payable": false,
      "stateMutability": "view",
      "type": "function"
    },
    {
      "constant": false,
      "inputs": [
        {
          "name": "_member",
          "type": "address"
        }
      ],
      "name": "getWeightAndUpdate",
      "outputs": [
        {
          "name": "weight",
          "type": "uint256"
        }
      ],
      "payable": false,
      "stateMutability": "nonpayable",
      "type": "function"
    },
    {
      "constant": false,
      "inputs": [
        {
          "name": "cost",
          "type": "uint256"
        },
        {
          "name": "size",
          "type": "uint256"
        },
        {
          "name": "_waitTime",
          "type": "uint256"
        },
        {
          "name": "_timeLimit",
          "type": "uint256"
        }
      ],
      "name": "makeAssessment",
      "outputs": [
        {
          "name": "",
          "type": "bool"
        }
      ],
      "payable": false,
      "stateMutability": "nonpayable",
      "type": "function"
    },
    {
      "constant": false,
      "inputs": [
        {
          "name": "_assessee",
          "type": "address"
        },
        {
          "name": "_weight",
          "type": "uint256"
        }
      ],
      "name": "addMember",
      "outputs": [],
      "payable": false,
      "stateMutability": "nonpayable",
      "type": "function"
    },
    {
      "constant": false,
      "inputs": [
        {
          "name": "_assessee",
          "type": "address"
        },
        {
          "name": "_weight",
          "type": "uint256"
        }
      ],
      "name": "addWeight",
      "outputs": [],
      "payable": false,
      "stateMutability": "nonpayable",
      "type": "function"
    }
  ],
  "bytecode": "0x606060405234156200001057600080fd5b604051620035b8380380620035b8833981016040528080518201919060200180518201919060200180519190602001805182019190602001805191506000905084518651146200005f57600080fd5b5060048054600160a060020a03191633600160a060020a031617905560005b85518110156200016857600454600160a060020a031663c18e4679878381518110620000a657fe5b906020019060200201516000604051602001526040517c010000000000000000000000000000000000000000000000000000000063ffffffff8416028152600160a060020a039091166004820152602401602060405180830381600087803b15156200011157600080fd5b6102c65a03f115156200012357600080fd5b5050506040518051905015156200013957600080fd5b6103e88582815181106200014957fe5b9060200190602002015111156200015f57600080fd5b6001016200007e565b60078580516200017d92916020019062000271565b50600086805162000193929160200190620002c1565b506001838051620001a992916020019062000329565b50600584905560028054600160a060020a031916600160a060020a038481169190911790915560045416631684ae4d6000604051602001526040518163ffffffff167c0100000000000000000000000000000000000000000000000000000000028152600401602060405180830381600087803b15156200022957600080fd5b6102c65a03f115156200023b57600080fd5b505050604051805160038054600160a060020a031916600160a060020a039290921691909117905550620003e295505050505050565b828054828255906000526020600020908101928215620002af579160200282015b82811115620002af57825182559160200191906001019062000292565b50620002bd9291506200039b565b5090565b8280548282559060005260206000209081019282156200031b579160200282015b828111156200031b5782518254600160a060020a031916600160a060020a039190911617825560209290920191600190910190620002e2565b50620002bd929150620003bb565b828054600181600116156101000203166002900490600052602060002090601f016020900481019282601f106200036c57805160ff1916838001178555620002af565b82800160010185558215620002af5791820182811115620002af57825182559160200191906001019062000292565b620003b891905b80821115620002bd5760008155600101620003a2565b90565b620003b891905b80821115620002bd578054600160a060020a0319168155600101620003c2565b6131c680620003f26000396000f3006060604052600436106200010d5763ffffffff60e060020a6000350416631684ae4d81146200011257806321d39c2c146200014457806335a07291146200017a5780633f99fa54146200019c578063449a058d14620001c35780635daf08ca14620001eb57806369d24f63146200020457806370a2b84a146200021a57806373d4a13a1462000230578063824989c314620002c057806385b2ff8f14620002d9578063898572a614620002f25780638da5cb5b146200030b5780639107d08e146200032157806398041ea31462000365578063ac6c5251146200038a578063d965ea0014620003ac578063de0d080214620003c2578063f2fde38b14620003e4578063fd6369751462000406575b600080fd5b34156200011e57600080fd5b620001286200042b565b604051600160a060020a03909116815260200160405180910390f35b34156200015057600080fd5b62000166600160a060020a03600435166200043a565b604051901515815260200160405180910390f35b34156200018657600080fd5b620001666004356024356044356064356200044f565b3415620001a857600080fd5b620001c1600160a060020a0360043516602435620007c1565b005b3415620001cf57600080fd5b620001d9620008a9565b60405190815260200160405180910390f35b3415620001f757600080fd5b62000128600435620008b0565b34156200021057600080fd5b620001d9620008d9565b34156200022657600080fd5b62000166620008df565b34156200023c57600080fd5b6200024662000993565b60405160208082528190810183818151815260200191508051906020019080838360005b83811015620002845780820151838201526020016200026a565b50505050905090810190601f168015620002b25780820380516001836020036101000a031916815260200191505b509250505060405180910390f35b3415620002cc57600080fd5b620001c160043562000a35565b3415620002e557600080fd5b6200012860043562000a56565b3415620002fe57600080fd5b6200012860043562000c37565b34156200031757600080fd5b6200012862000c46565b34156200032d57600080fd5b62000343600160a060020a036004351662000c55565b604051600160a060020a03909216825260208201526040908101905180910390f35b34156200037157600080fd5b620001c1600160a060020a036004351660243562000c7a565b34156200039657600080fd5b620001d9600160a060020a036004351662000d27565b3415620003b857600080fd5b620001d962000de1565b3415620003ce57600080fd5b620001d9600160a060020a036004351662000de7565b3415620003f057600080fd5b620001c1600160a060020a036004351662000e0e565b34156200041257600080fd5b620001c1600160a060020a036004351660243562000e59565b600354600160a060020a031681565b60066020526000908152604090205460ff1681565b60008060008060058710158015620004df575060035488880290600160a060020a03166370a082313360006040516020015260405160e060020a63ffffffff8416028152600160a060020a039091166004820152602401602060405180830381600087803b1515620004c057600080fd5b6102c65a03f11515620004d257600080fd5b5050506040518051905010155b15620007b6573387898888620004f462001270565b600160a060020a03909516855260208501939093526040808501929092526060840152608083019190915260a09091019051809103906000f08015156200053a57600080fd5b600160a060020a03808216600090815260066020526040808220805460ff1916600117905560035493965092909116916327234ecc91339187918d8d0291309190516020015260405160e060020a63ffffffff8716028152600160a060020a039485166004820152928416602484015260448301919091529091166064820152608401602060405180830381600087803b1515620005d757600080fd5b6102c65a03f11515620005e957600080fd5b50505060405180515050600454600160a060020a0316639e45c8866000604051602001526040518163ffffffff1660e060020a028152600401602060405180830381600087803b15156200063c57600080fd5b6102c65a03f115156200064e57600080fd5b5050506040518051925050600160a060020a03821663d965ea006000604051602001526040518163ffffffff1660e060020a028152600401602060405180830381600087803b1515620006a057600080fd5b6102c65a03f11515620006b257600080fd5b5050506040518051915050600587028110156200073a5782600160a060020a031663e6c50020828460405160e060020a63ffffffff85160281526004810192909252600160a060020a03166024820152604401600060405180830381600087803b15156200071f57600080fd5b6102c65a03f115156200073157600080fd5b505050620007b1565b82600160a060020a0316632fa4f69443308a60050260405160e060020a63ffffffff86160281526004810193909352600160a060020a0390911660248301526044820152606401600060405180830381600087803b15156200079b57600080fd5b6102c65a03f11515620007ad57600080fd5b5050505b600193505b505050949350505050565b600454600160a060020a03338116911663a51af4c56000604051602001526040518163ffffffff1660e060020a028152600401602060405180830381600087803b15156200080e57600080fd5b6102c65a03f115156200082057600080fd5b50505060405180519050600160a060020a03161415620008a55730600160a060020a031663fd636975838360405160e060020a63ffffffff8516028152600160a060020a0390921660048301526024820152604401600060405180830381600087803b15156200088f57600080fd5b6102c65a03f11515620008a157600080fd5b5050505b5050565b6000545b90565b6008805482908110620008bf57fe5b600091825260209091200154600160a060020a0316905081565b60055481565b600080620008ed3362000de7565b1115620008ad57600160a060020a0333166000908152600960205260409020600101541515620009845760088054600181016200092b838262001281565b506000918252602080832091909101805473ffffffffffffffffffffffffffffffffffffffff191633600160a060020a0316908117909155600854908352600990915260409091206001908101919091559050620008ad565b6200098f33620011a9565b5090565b60018054600181600116156101000203166002900480601f01602080910402602001604051908101604052809291908181526020018280546001816001161561010002031660029004801562000a2d5780601f1062000a015761010080835404028352916020019162000a2d565b820191906000526020600020905b81548152906001019060200180831162000a0f57829003601f168201915b505050505081565b60025433600160a060020a0390811691161462000a5157600080fd5b600555565b60008060008060008060005b60085460019011801562000a74575085155b1562000b3f5773__Math__________________________________63655b08eb8960016008805490500360006040516020015260405160e060020a63ffffffff85160281526004810192909252602482015260440160206040518083038186803b151562000ae157600080fd5b6102c65a03f4151562000af357600080fd5b50505060405180519050925060088381548110151562000b0f57fe5b600091825260209091200154600160a060020a0316935062000b318462000de7565b600190980197955062000a62565b60085460019011801562000b51575084155b1562000c1f5773__Math__________________________________63655b08eb8960020260016008805490500360006040516020015260405160e060020a63ffffffff85160281526004810192909252602482015260440160206040518083038186803b151562000bc157600080fd5b6102c65a03f4151562000bd357600080fd5b50505060405180519050915060088281548110151562000bef57fe5b600091825260209091200154600160a060020a0316905062000c118162000de7565b9450600a8801975062000b3f565b8486111562000c2c578396505b505050505050919050565b6000805482908110620008bf57fe5b600254600160a060020a031681565b60096020526000908152604090208054600190910154600160a060020a039091169082565b600160a060020a03331660009081526006602052604090205460ff1615620008a557600160a060020a0382811660009081526009602052604090819020805473ffffffffffffffffffffffffffffffffffffffff1916338416179055309091169063fd63697590849084905160e060020a63ffffffff8516028152600160a060020a0390921660048301526024820152604401600060405180830381600087803b15156200088f57600080fd5b6000805b600160a060020a03831660009081526009602052604090206002015481101562000ddb57600160a060020a038316600090815260096020526040902060020180544291908390811062000d7a57fe5b906000526020600020906002020160010154111562000dd257600160a060020a038316600090815260096020526040902060020180548290811062000dbb57fe5b906000526020600020906002020160000154820191505b60010162000d2b565b50919050565b60085490565b600062000df48262000d27565b905080151562000e095762000ddb82620011a9565b919050565b60025433600160a060020a0390811691161462000e2a57600080fd5b6002805473ffffffffffffffffffffffffffffffffffffffff1916600160a060020a0392909216919091179055565b6004546000908190600160a060020a031663c18e467933836040516020015260405160e060020a63ffffffff8416028152600160a060020a039091166004820152602401602060405180830381600087803b151562000eb757600080fd5b6102c65a03f1151562000ec957600080fd5b50505060405180519050151562000edf57600080fd5b600160a060020a038416600090815260096020526040902060010154151562000f6357600880546001810162000f16838262001281565b506000918252602080832091909101805473ffffffffffffffffffffffffffffffffffffffff1916600160a060020a03881690811790915560085490835260099091526040909120600101555b600160a060020a0380851660009081526009602090815260408083203390941683526003909301905290812054925082111562001007576040805190810160409081528482526005544201602080840191909152600160a060020a03871660009081526009909152206002018054600019850190811062000fe057fe5b906000526020600020906002020160008201518155602082015160019091015550620010a0565b600160a060020a0384166000908152600960205260409020600201805460018101620010348382620012ad565b9160005260206000209060020201600060408051908101604052868152600554420160208201529190508151815560208201516001909101555050600160a060020a03808516600090815260096020908152604080832060028101543390951684526003019091529020555b5060005b600054811015620011a35760006103e8600783815481101515620010c457fe5b9060005260206000209001548502811515620010dc57fe5b0411156200119a576000805482908110620010f357fe5b60009182526020909120015460078054600160a060020a039092169163fd6369759187916103e89190869081106200112757fe5b90600052602060002090015487028115156200113f57fe5b0460405160e060020a63ffffffff8516028152600160a060020a0390921660048301526024820152604401600060405180830381600087803b15156200118457600080fd5b6102c65a03f115156200119657600080fd5b5050505b600101620010a4565b50505050565b600160a060020a038116600090815260096020526040812060010154818111156200126657600880546000198101908110620011e157fe5b60009182526020909120015460088054600160a060020a0390921691839081106200120857fe5b6000918252602080832091909101805473ffffffffffffffffffffffffffffffffffffffff1916600160a060020a0394851617905591851681526009909152604081206001015560088054906200126490600019830162001281565b505b5050600854919050565b604051611e7e806200131d83390190565b815481835581811511620012a857600083815260209020620012a8918101908301620012dc565b505050565b815481835581811511620012a857600202816002028360005260206000209182019101620012a89190620012f9565b620008ad91905b808211156200098f5760008155600101620012e3565b620008ad91905b808211156200098f57600080825560018201556002016200130056006060604052341561000f57600080fd5b60405160a080611e7e833981016040528080519190602001805191906020018051919060200180519190602001805160008054600160a060020a031916600160a060020a038981169190911782556003805461010060a860020a03191661010033841681029190911791829055939550929092049091169150631684ae4d90604051602001526040518163ffffffff167c0100000000000000000000000000000000000000000000000000000000028152600401602060405180830381600087803b15156100dc57600080fd5b6102c65a03f115156100ed57600080fd5b505050604051805160048054600160a060020a031916600160a060020a03929092169190911790555042818101600581905590830160068190551061012e57fe5b6007849055600883905560045460008054600160a060020a03928316926376147a0e929116906040517c010000000000000000000000000000000000000000000000000000000063ffffffff8516028152600160a060020a0390921660048301526024820152604401600060405180830381600087803b15156101b057600080fd5b6102c65a03f115156101c157600080fd5b50506000600a55505050505050611ca1806101dd6000396000f3006060604052600436106100e25763ffffffff60e060020a60003504166313faede681146100e75780632ad1bc091461010c5780632fa4f694146101725780633197cbb61461019757806347c20ab7146101aa5780636732e966146101d9578063739d9dc1146101ec578063949d225d146101ff5780639c6a1dfb14610212578063ae8421e114610249578063bf1c69691461025c578063bfa0b1331461027b578063c2c4c5c11461028e578063e1152343146102a1578063e6c50020146102b7578063f14fcbc8146102d9578063f571da7f146102ef578063fadf617b14610302575b600080fd5b34156100f257600080fd5b6100fa61035b565b60405190815260200160405180910390f35b341561011757600080fd5b61017060048035600f0b9060446024803590810190830135806020601f8201819004810201604051908101604052818152929190602084018383808284375094965050509235600160a060020a03169250610361915050565b005b341561017d57600080fd5b610170600435600160a060020a03602435166044356104e5565b34156101a257600080fd5b6100fa6107d0565b34156101b557600080fd5b6101bd6107d6565b604051600160a060020a03909116815260200160405180910390f35b34156101e457600080fd5b6101bd6107e5565b34156101f757600080fd5b6100fa6107f9565b341561020a57600080fd5b6100fa6107ff565b341561021d57600080fd5b610225610805565b6040518082600581111561023557fe5b60ff16815260200191505060405180910390f35b341561025457600080fd5b6100fa61080e565b341561026757600080fd5b610225600160a060020a0360043516610814565b341561028657600080fd5b6100fa610829565b341561029957600080fd5b6100fa61082f565b34156102ac57600080fd5b610170600435610835565b34156102c257600080fd5b610170600435600160a060020a0360243516610d81565b34156102e457600080fd5b610170600435610e43565b34156102fa57600080fd5b610170610f14565b341561030d57600080fd5b61017060048035600f0b9060446024803590810190830135806020601f8201819004810201604051908101604052818152929190602084018383808284375094965061119c95505050505050565b60085481565b6003600160a060020a03821660009081526002602052604090205460ff16600581111561038a57fe5b14156104e05782826040518083600f0b600f0b70010000000000000000000000000000000002815260100182805190602001908083835b602083106103e05780518252601f1990920191602091820191016103c1565b6001836020036101000a038019825116818451161790925250505091909101935060409250505051908190039020600160a060020a03821660009081526009602052604090205414156104e057600454600854600160a060020a039091169063a9059cbb9033906002900460006040516020015260405160e060020a63ffffffff8516028152600160a060020a0390921660048301526024820152604401602060405180830381600087803b151561049757600080fd5b6102c65a03f115156104a857600080fd5b50505060405180515050600160a060020a0381166000908152600260205260409020805460ff19166005179055600780546000190190555b505050565b6000806000806000806000600360019054906101000a9004600160a060020a0316600160a060020a031633600160a060020a031614151561052557600080fd5b6000965088600160a060020a031663d965ea006000604051602001526040518163ffffffff1660e060020a028152600401602060405180830381600087803b151561056f57600080fd5b6102c65a03f1151561058057600080fd5b505050604051805196505060028604881161059b57876105a0565b600286045b9450600093505b8484101561064f5788600160a060020a03166385b2ff8f858c0160006040516020015260405160e060020a63ffffffff84160281526004810191909152602401602060405180830381600087803b151561060057600080fd5b6102c65a03f1151561061157600080fd5b5050506040518051935050600160a060020a038316158015906106385750610638836113ac565b15610644576001909601955b6001909301926105a7565b868803915060008211156107b7575060005b88600160a060020a031663449a058d6000604051602001526040518163ffffffff1660e060020a028152600401602060405180830381600087803b15156106a757600080fd5b6102c65a03f115156106b857600080fd5b505050604051805190508110156107b7576107af81888c01018a600160a060020a031663898572a68460006040516020015260405160e060020a63ffffffff84160281526004810191909152602401602060405180830381600087803b151561072057600080fd5b6102c65a03f1151561073157600080fd5b505050604051805190508b600160a060020a031663449a058d6000604051602001526040518163ffffffff1660e060020a028152600401602060405180830381600087803b151561078157600080fd5b6102c65a03f1151561079257600080fd5b50505060405180519050858115156107a657fe5b046001016104e5565b600101610661565b50506003805460ff191660011790555050505050505050565b60055481565b600054600160a060020a031681565b6003546101009004600160a060020a031681565b600c5481565b60075481565b60035460ff1681565b600a5481565b60026020526000908152604090205460ff1681565b600d5481565b60065481565b600080610840611c23565b610848611c23565b600080808060048060035460ff16600581111561086157fe5b1461086b57600080fd5b60018054909950600098506040518059106108835750595b90808252806020026020018201604052506001549097506040518059106108a75750595b90808252806020026020018201604052509550600094505b600154851015610beb576004600260006001888154811015156108de57fe5b6000918252602080832090910154600160a060020a0316835282019290925260400190205460ff16600581111561091157fe5b1415610be05773__Math__________________________________6366cc606473__Math__________________________________631b5ac4b5600c54600b600060018c81548110151561096157fe5b6000918252602080832090910154600160a060020a031683528201929092526040908101822054600f90810b900b9290920391516020015260405160e060020a63ffffffff8416028152600481019190915260240160206040518083038186803b15156109cd57600080fd5b6102c65a03f415156109de57600080fd5b505050604051805190506008548c60006040516040015260405160e060020a63ffffffff8616028152600481019390935260248301919091526044820152606401604080518083038186803b1515610a3557600080fd5b6102c65a03f41515610a4657600080fd5b5050506040518051906020018051919550909350508215610bab578360085403880197506000841115610b145760045460018054600160a060020a039092169163a9059cbb919088908110610a9757fe5b6000918252602082200154600160a060020a03169087906040516020015260405160e060020a63ffffffff8516028152600160a060020a0390921660048301526024820152604401602060405180830381600087803b1515610af857600080fd5b6102c65a03f11515610b0957600080fd5b505050604051805150505b60045460018054600160a060020a03909216916376147a0e919088908110610b3857fe5b600091825260209091200154600160a060020a0316600660405160e060020a63ffffffff8516028152600160a060020a0390921660048301526024820152604401600060405180830381600087803b1515610b9257600080fd5b6102c65a03f11515610ba357600080fd5b505050610be0565b6001878681518110610bb957fe5b91151560209283029091019091015283868681518110610bd557fe5b602090810290910101525b6001909401936108bf565b600091505b8551821015610d7557868281518110610c0557fe5b9060200190602002015115610d6a5760045460018054600160a060020a039092169163a9059cbb919085908110610c3857fe5b600091825260209091200154600160a060020a03168c8b811515610c5857fe5b04898681518110610c6557fe5b906020019060200201510160006040516020015260405160e060020a63ffffffff8516028152600160a060020a0390921660048301526024820152604401602060405180830381600087803b1515610cbc57600080fd5b6102c65a03f11515610ccd57600080fd5b5050506040518051505060045460018054600160a060020a03909216916376147a0e919085908110610cfb57fe5b600091825260209091200154600160a060020a0316600660405160e060020a63ffffffff8516028152600160a060020a0390921660048301526024820152604401600060405180830381600087803b1515610d5557600080fd5b6102c65a03f11515610d6657600080fd5b5050505b600190910190610bf0565b50505050505050505050565b600354600090819033600160a060020a039081166101009092041614610da657600080fd5b5081905060005b83811015610e3057610e2782600160a060020a0316635daf08ca8360006040516020015260405160e060020a63ffffffff84160281526004810191909152602401602060405180830381600087803b1515610e0757600080fd5b6102c65a03f11515610e1857600080fd5b505050604051805190506113ac565b50600101610dad565b50506003805460ff191660011790555050565b60028060035460ff166005811115610e5757fe5b14610e6157600080fd5b600554421115610e7557610e75600261148c565b6002600160a060020a03331660009081526002602052604090205460ff166005811115610e9e57fe5b1415610ede5733600160a060020a0316600090815260096020908152604080832085905560029091529020805460ff19166003179055600a805460010190555b600754600a541415610f105761a8c04201600655610efe60036005611525565b6000600a556003805460ff1916811790555b5050565b60018060035460ff166005811115610f2857fe5b14610f3257600080fd5b600654421115610f4957610f44611619565b611199565b6001600160a060020a03331660009081526002602052604090205460ff166005811115610f7257fe5b148015610f825750600754600154105b801561102a5750600454600854600354600160a060020a03928316926327234ecc92339230926101009091041660006040516020015260405160e060020a63ffffffff8716028152600160a060020a039485166004820152928416602484015260448301919091529091166064820152608401602060405180830381600087803b151561100e57600080fd5b6102c65a03f1151561101f57600080fd5b505050604051805190505b156110ff57600180548082016110408382611c35565b506000918252602080832091909101805473ffffffffffffffffffffffffffffffffffffffff191633600160a060020a031690811790915582526002908190526040909120805460ff19166001830217905550600454600160a060020a03166376147a0e33600260405160e060020a63ffffffff8516028152600160a060020a0390921660048301526024820152604401600060405180830381600087803b15156110ea57600080fd5b6102c65a03f115156110fb57600080fd5b5050505b60075460015414156111995761111760026004611525565b60048054600054600160a060020a03918216926376147a0e929091169060405160e060020a63ffffffff8516028152600160a060020a0390921660048301526024820152604401600060405180830381600087803b151561117757600080fd5b6102c65a03f1151561118857600080fd5b50506003805460ff19166002179055505b50565b60038060035460ff1660058111156111b057fe5b146111ba57600080fd5b60065442116111c857600080fd5b60055462015180014211156111e1576111e1600361148c565b6003600160a060020a03331660009081526002602052604090205460ff16600581111561120a57fe5b1480156112ab575082826040518083600f0b600f0b70010000000000000000000000000000000002815260100182805190602001908083835b602083106112625780518252601f199092019160209182019101611243565b6001836020036101000a038019825116818451161790925250505091909101935060409250505051908190039020600160a060020a033316600090815260096020526040902054145b1561138b5733600160a060020a03166000908152600b60205260409081902080546fffffffffffffffffffffffffffffffff19166fffffffffffffffffffffffffffffffff600f87900b161790558290518082805190602001908083835b602083106113285780518252601f199092019160209182019101611309565b6001836020036101000a0380198251168184511617909252505050919091019250604091505051908190039020600d8054909118905533600160a060020a03166000908152600260205260409020805460ff19166004179055600a805460010190555b600754600a5414156104e0576003805460ff191660041790556104e06118ec565b60008054600160a060020a038381169116148015906113ef5750600160a060020a03821660009081526002602052604081205460ff1660058111156113ed57fe5b145b1561148757600454600160a060020a03166376147a0e83600160405160e060020a63ffffffff8516028152600160a060020a0390921660048301526024820152604401600060405180830381600087803b151561144b57600080fd5b6102c65a03f1151561145c57600080fd5b50505050600160a060020a0381166000908152600260205260409020805460ff191660019081179091555b919050565b60005b600154811015610f10578160058111156114a557fe5b600260006001848154811015156114b857fe5b6000918252602080832090910154600160a060020a0316835282019290925260400190205460ff1660058111156114eb57fe5b141561151d5761151d60018281548110151561150357fe5b600091825260209091200154600160a060020a0316611be3565b60010161148f565b60005b6001548110156104e057826002600060018481548110151561154657fe5b6000918252602080832090910154600160a060020a0316835282019290925260400190205460ff16600581111561157957fe5b14156116115760045460018054600160a060020a03909216916376147a0e9190849081106115a357fe5b600091825260209091200154600160a060020a03168460405160e060020a63ffffffff8516028152600160a060020a0390921660048301526024820152604401600060405180830381600087803b15156115fc57600080fd5b6102c65a03f1151561160d57600080fd5b5050505b600101611528565b600080600160035460ff16600581111561162f57fe5b146116405760015460085402611648565b600754600854025b60045460008054929450600160a060020a039182169263a9059cbb92169085906040516020015260405160e060020a63ffffffff8516028152600160a060020a0390921660048301526024820152604401602060405180830381600087803b15156116b257600080fd5b6102c65a03f115156116c357600080fd5b50505060405180515050600454600054600160a060020a03918216916376147a0e9116600360405160e060020a63ffffffff8516028152600160a060020a0390921660048301526024820152604401600060405180830381600087803b151561172b57600080fd5b6102c65a03f1151561173c57600080fd5b505050600090505b6001548110156118d95760056002600060018481548110151561176357fe5b6000918252602080832090910154600160a060020a0316835282019290925260400190205460ff16600581111561179657fe5b146118d15760045460018054600160a060020a039092169163a9059cbb9190849081106117bf57fe5b6000918252602082200154600854600160a060020a03909116916040516020015260405160e060020a63ffffffff8516028152600160a060020a0390921660048301526024820152604401602060405180830381600087803b151561182357600080fd5b6102c65a03f1151561183457600080fd5b5050506040518051505060045460018054600160a060020a03909216916376147a0e91908490811061186257fe5b600091825260209091200154600160a060020a0316600360405160e060020a63ffffffff8516028152600160a060020a0390921660048301526024820152604401600060405180830381600087803b15156118bc57600080fd5b6102c65a03f115156118cd57600080fd5b5050505b600101611744565b6003546101009004600160a060020a0316ff5b6118f4611c23565b6000808060048060035460ff16600581111561190c57fe5b1461191657600080fd5b600a546040518059106119265750595b9080825280602002602001820160405250945060009350600092505b600154831015611a015760046002600060018681548110151561196157fe5b6000918252602080832090910154600160a060020a0316835282019290925260400190205460ff16600581111561199457fe5b14156119f657600b60006001858154811015156119ad57fe5b6000918252602080832090910154600160a060020a03168352820192909252604001902054600f90810b900b8585815181106119e557fe5b602090810290910101526001909301925b600190920191611942565b73__Math__________________________________63140a7ac6866000604051604001526040518263ffffffff1660e060020a0281526004018080602001828103825283818151815260200191508051906020019060200280838360005b83811015611a77578082015183820152602001611a5f565b5050505090500192505050604080518083038186803b1515611a9857600080fd5b6102c65a03f41515611aa957600080fd5b5050506040518051906020018051600c9290925550600a5490925060029004821115611b6457611ad882610835565b6000600c541315611b5f57600354600054600c54600160a060020a036101009093048316926398041ea3921690850260405160e060020a63ffffffff8516028152600160a060020a0390921660048301526024820152604401600060405180830381600087803b1515611b4a57600080fd5b6102c65a03f11515611b5b57600080fd5b5050505b611b6a565b6000600c555b600454600054600160a060020a03918216916376147a0e9116600760405160e060020a63ffffffff8516028152600160a060020a0390921660048301526024820152604401600060405180830381600087803b1515611bc857600080fd5b6102c65a03f11515611bd957600080fd5b5050505050505050565b600160a060020a0381166000908152600260205260409020805460ff19166005908117909155600780546000190190819055101561119957611199611619565b60206040519081016040526000815290565b8154818355818115116104e0576000838152602090206104e0918101908301611c7291905b80821115611c6e5760008155600101611c5a565b5090565b905600a165627a7a72305820b003e2692bf4e59ba42211b2252b7fe70cb4c4057d5dfea416abc610c05df1b90029a165627a7a7230582012cc4ab8ed227f9f7966fb39a6ac44acd4c52b899c78589a69b6e98d036702570029",
  "source": "pragma solidity ^0.4.11;\r\n\r\nimport \"./FathomToken.sol\";\r\nimport \"./ConceptRegistry.sol\";\r\nimport \"./Assessment.sol\";\r\nimport \"./Math.sol\";\r\n\r\n//@purpose: To store concept data and create and manage assessments and members\r\ncontract Concept {\r\n    address[] public parents; //The concepts that this concept is child to (ie: Calculus is child to Math)\r\n    bytes public data;\r\n    address public owner;\r\n    FathomToken public fathomToken;\r\n    ConceptRegistry conceptRegistry;\r\n    uint public lifetime;\r\n    mapping (address => bool) public assessmentExists;\r\n\r\n    uint[] propagationRates;\r\n\r\n    address[] public members;\r\n    mapping (address => MemberData) public memberData;\r\n\r\n\r\n\r\n    struct MemberData {\r\n        address recentAssessment;\r\n        uint index;\r\n        ComponentWeight[] weights;\r\n        mapping(address => uint) componentWeightIndex;\r\n    }\r\n\r\n    struct ComponentWeight {\r\n        uint weight;\r\n        uint date;\r\n    }\r\n\r\n    modifier onlyConcept() {\r\n        require(conceptRegistry.conceptExists(msg.sender));\r\n        _;\r\n    }\r\n\r\n    function Concept(address[] _parents, uint[] _propagationRates, uint _lifetime, bytes _data, address _owner) public {\r\n        require(_parents.length == _propagationRates.length);\r\n        conceptRegistry = ConceptRegistry(msg.sender);\r\n\r\n        for (uint j=0; j < _parents.length; j++) {\r\n            require(conceptRegistry.conceptExists(_parents[j]));\r\n            require(_propagationRates[j] <= 1000);\r\n        }\r\n\r\n        propagationRates = _propagationRates;\r\n        parents = _parents;\r\n        data = _data;\r\n        lifetime = _lifetime;\r\n        owner = _owner;\r\n        fathomToken = FathomToken(conceptRegistry.fathomToken());\r\n    }\r\n\r\n    modifier onlyOwner(){\r\n        require(msg.sender == owner);\r\n        _;\r\n    }\r\n\r\n    function transferOwnership(address _newOwner) onlyOwner() public {\r\n        owner = _newOwner;\r\n    }\r\n\r\n    function changeLifetime(uint _newLifetime) onlyOwner() public {\r\n        lifetime = _newLifetime;\r\n    }\r\n\r\n    function getMemberLength() public constant returns(uint) {\r\n        return members.length;\r\n    }\r\n\r\n    function getParentsLength() public view returns(uint) {\r\n        return parents.length;\r\n    }\r\n\r\n    /*\r\n      @purpose: To add the firstUser to Mew\r\n    */\r\n    function addInitialMember(address _user, uint _weight) public {\r\n        if (conceptRegistry.distributorAddress() == msg.sender)\r\n            {\r\n                this.addWeight(_user, _weight);\r\n            }\r\n    }\r\n\r\n    /*\r\n      @purpose: add the caller of this function to the arrays of potential assessors\r\n      if they still have a weight in the concept\r\n      @returns true if they are available as assessor\r\n    */\r\n    function toggleAvailability() public returns(bool success){\r\n        if (getWeightAndUpdate(msg.sender) > 0) {\r\n            if (memberData[msg.sender].index == 0) {\r\n                members.push(msg.sender);\r\n                memberData[msg.sender].index = members.length;\r\n                success = true;\r\n            }\r\n            else {\r\n                removeMember(msg.sender);\r\n            }\r\n        }\r\n   }\r\n\r\n    /*\r\n      //@purpose: returns a random member of the Concept or the zero address (both with approx. 50%)\r\n      //Users with high weights are more likely to be called\r\n      //@returns the address of the member (0x0 if there is no member)\r\n    */\r\n    function getWeightedRandomMember(uint seed) public returns(address){\r\n        uint weight1;\r\n        uint weight2;\r\n        address randomMember1;\r\n        while (members.length > 1 && weight1 == 0) {\r\n            uint index1 = Math.getRandom(seed, members.length - 1);\r\n            randomMember1 = members[index1];\r\n            weight1 = getWeightAndUpdate(randomMember1);\r\n            seed++;\r\n        }\r\n        while (members.length > 1 && weight2 == 0) {\r\n                uint index2 = Math.getRandom(seed * 2, members.length - 1);\r\n                address randomMember2 = members[index2];\r\n                weight2 = getWeightAndUpdate(randomMember2);\r\n                seed += 10;\r\n        }\r\n        if (weight1 > weight2) {\r\n            return randomMember1;\r\n        }\r\n    }\r\n\r\n    /*\r\n      @purpose: get the weight of a given member, also removes that member from the array\r\n      if there legitimating assessment is expired\r\n    */\r\n    function getWeight(address _member) view public returns(uint weight){\r\n        for (uint i=0; i < memberData[_member].weights.length; i++) {\r\n            if (memberData[_member].weights[i].date > now){\r\n                weight += memberData[_member].weights[i].weight;\r\n            }\r\n        }\r\n    }\r\n\r\n    //@purpose: check weight and update members array\r\n    function getWeightAndUpdate(address _member) public returns(uint weight) {\r\n        weight = getWeight(_member);\r\n        if (weight == 0) {\r\n            removeMember(_member);\r\n        }\r\n    }\r\n\r\n    /*\r\n      @purpose: removes member at a given index from the members array by substituting they with\r\n      the last member and then decreasing the size of the members array\r\n      @returns the updated number of members in the concept\r\n    */\r\n    function removeMember(address _member) private returns(uint){\r\n        uint index = memberData[_member].index;\r\n        if (index > 0){\r\n            members[index] = members[members.length - 1]; //THIS NEEDS TO BE TESTED!\r\n            memberData[_member].index = 0;\r\n            members.length--;\r\n        }\r\n        return members.length;\r\n    }\r\n\r\n    /*\r\n      @purpose: To make a new assessment\r\n      NOTE: While there are less than 200 members in network, all members of mew will\r\n      be called as assessors for any concept\r\n      @param: uint cost = the cost per assessor\r\n      @param: uint size = the number of assessors\r\n    */\r\n    function makeAssessment(uint cost, uint size, uint _waitTime, uint _timeLimit) public returns(bool) {\r\n        if (size >= 5 && fathomToken.balanceOf(msg.sender)>= cost*size) {\r\n            Assessment newAssessment = new Assessment(msg.sender, size, cost, _waitTime, _timeLimit);\r\n            assessmentExists[address(newAssessment)] = true;\r\n            fathomToken.takeBalance(msg.sender, address(newAssessment), cost*size, address(this));\r\n            // get membernumber of mew to see whether there are more than 200 users in the system:\r\n            address mewAddress = conceptRegistry.mewAddress();\r\n            uint nMemberInMew = Concept(mewAddress).getMemberLength();\r\n            if (nMemberInMew < size * 5) {\r\n                newAssessment.callAllFromMew(nMemberInMew, mewAddress);\r\n            } else {\r\n                newAssessment.setAssessorPool(block.number, address(this), size*5);\r\n            }\r\n            return true;\r\n        }\r\n    }\r\n\r\n    /*\r\n      @purpose: To add a member to a concept and to recursively add  a member to parent concept\r\n      @param: address assessee = the address of the assessee\r\n      @param: uint weight = the weight for the member\r\n      @returns: nothing\r\n    */\r\n    function addMember(address _assessee, uint _weight) public {\r\n        if (assessmentExists[msg.sender]) {\r\n            memberData[_assessee].recentAssessment = msg.sender;\r\n            this.addWeight(_assessee, _weight);\r\n        }\r\n    }\r\n\r\n    function addWeight(address _assessee, uint _weight) public onlyConcept() {\r\n        if (memberData[_assessee].index == 0) {\r\n            members.push(_assessee);\r\n            memberData[_assessee].index = members.length;\r\n        }\r\n\r\n        uint idx = memberData[_assessee].componentWeightIndex[msg.sender];\r\n        if (idx > 0) {\r\n            memberData[_assessee].weights[idx-1] = ComponentWeight(_weight, now + lifetime);\r\n        } else {\r\n            memberData[_assessee].weights.push(ComponentWeight(_weight, now + lifetime));\r\n            memberData[_assessee].componentWeightIndex[msg.sender] = memberData[_assessee].weights.length;\r\n        }\r\n\r\n        for(uint i = 0; i < parents.length; i++) {\r\n            if((_weight*propagationRates[i])/1000 > 0) {\r\n                Concept(parents[i]).addWeight(_assessee, (_weight*propagationRates[i])/1000);\r\n            }\r\n        }\r\n    }\r\n}\r\n",
  "sourcePath": "/Users/antoineestienne/GitFolder/fathom/assess/contracts/Concept.sol",
  "compiler": {
    "name": "solc",
    "version": "0.4.19+commit.c4cbbb05.Emscripten.clang"
  },
  "schemaVersion": "1.0.1",
  "updatedAt": "2018-04-04T16:38:17.797Z"
}