{
  "contractName": "Assessment",
  "abi": [
    {
      "constant": true,
      "inputs": [],
      "name": "cost",
      "outputs": [
        {
          "name": "",
          "type": "uint256"
        }
      ],
      "payable": false,
      "stateMutability": "view",
      "type": "function"
    },
    {
      "constant": true,
      "inputs": [],
      "name": "endTime",
      "outputs": [
        {
          "name": "",
          "type": "uint256"
        }
      ],
      "payable": false,
      "stateMutability": "view",
      "type": "function"
    },
    {
      "constant": true,
      "inputs": [],
      "name": "assessee",
      "outputs": [
        {
          "name": "",
          "type": "address"
        }
      ],
      "payable": false,
      "stateMutability": "view",
      "type": "function"
    },
    {
      "constant": true,
      "inputs": [],
      "name": "concept",
      "outputs": [
        {
          "name": "",
          "type": "address"
        }
      ],
      "payable": false,
      "stateMutability": "view",
      "type": "function"
    },
    {
      "constant": true,
      "inputs": [],
      "name": "finalScore",
      "outputs": [
        {
          "name": "",
          "type": "int256"
        }
      ],
      "payable": false,
      "stateMutability": "view",
      "type": "function"
    },
    {
      "constant": true,
      "inputs": [],
      "name": "size",
      "outputs": [
        {
          "name": "",
          "type": "uint256"
        }
      ],
      "payable": false,
      "stateMutability": "view",
      "type": "function"
    },
    {
      "constant": true,
      "inputs": [],
      "name": "assessmentStage",
      "outputs": [
        {
          "name": "",
          "type": "uint8"
        }
      ],
      "payable": false,
      "stateMutability": "view",
      "type": "function"
    },
    {
      "constant": true,
      "inputs": [],
      "name": "done",
      "outputs": [
        {
          "name": "",
          "type": "uint256"
        }
      ],
      "payable": false,
      "stateMutability": "view",
      "type": "function"
    },
    {
      "constant": true,
      "inputs": [
        {
          "name": "",
          "type": "address"
        }
      ],
      "name": "data",
      "outputs": [
        {
          "name": "",
          "type": "bytes"
        }
      ],
      "payable": false,
      "stateMutability": "view",
      "type": "function"
    },
    {
      "constant": true,
      "inputs": [
        {
          "name": "",
          "type": "address"
        }
      ],
      "name": "assessorState",
      "outputs": [
        {
          "name": "",
          "type": "uint8"
        }
      ],
      "payable": false,
      "stateMutability": "view",
      "type": "function"
    },
    {
      "constant": true,
      "inputs": [],
      "name": "salt",
      "outputs": [
        {
          "name": "",
          "type": "bytes32"
        }
      ],
      "payable": false,
      "stateMutability": "view",
      "type": "function"
    },
    {
      "constant": true,
      "inputs": [],
      "name": "checkpoint",
      "outputs": [
        {
          "name": "",
          "type": "uint256"
        }
      ],
      "payable": false,
      "stateMutability": "view",
      "type": "function"
    },
    {
      "inputs": [
        {
          "name": "_assessee",
          "type": "address"
        },
        {
          "name": "_size",
          "type": "uint256"
        },
        {
          "name": "_cost",
          "type": "uint256"
        },
        {
          "name": "_confirmTime",
          "type": "uint256"
        },
        {
          "name": "_timeLimit",
          "type": "uint256"
        }
      ],
      "payable": false,
      "stateMutability": "nonpayable",
      "type": "constructor"
    },
    {
      "anonymous": false,
      "inputs": [
        {
          "indexed": false,
          "name": "user",
          "type": "address"
        },
        {
          "indexed": false,
          "name": "oldData",
          "type": "bytes"
        },
        {
          "indexed": false,
          "name": "newData",
          "type": "bytes"
        }
      ],
      "name": "DataChanged",
      "type": "event"
    },
    {
      "constant": false,
      "inputs": [
        {
          "name": "_data",
          "type": "bytes"
        }
      ],
      "name": "addData",
      "outputs": [],
      "payable": false,
      "stateMutability": "nonpayable",
      "type": "function"
    },
    {
      "constant": false,
      "inputs": [
        {
          "name": "seed",
          "type": "uint256"
        },
        {
          "name": "_concept",
          "type": "address"
        },
        {
          "name": "num",
          "type": "uint256"
        }
      ],
      "name": "setAssessorPool",
      "outputs": [],
      "payable": false,
      "stateMutability": "nonpayable",
      "type": "function"
    },
    {
      "constant": false,
      "inputs": [
        {
          "name": "_nMew",
          "type": "uint256"
        },
        {
          "name": "_mew",
          "type": "address"
        }
      ],
      "name": "callAllFromMew",
      "outputs": [],
      "payable": false,
      "stateMutability": "nonpayable",
      "type": "function"
    },
    {
      "constant": false,
      "inputs": [],
      "name": "confirmAssessor",
      "outputs": [],
      "payable": false,
      "stateMutability": "nonpayable",
      "type": "function"
    },
    {
      "constant": false,
      "inputs": [
        {
          "name": "_hash",
          "type": "bytes32"
        }
      ],
      "name": "commit",
      "outputs": [],
      "payable": false,
      "stateMutability": "nonpayable",
      "type": "function"
    },
    {
      "constant": false,
      "inputs": [
        {
          "name": "_score",
          "type": "int128"
        },
        {
          "name": "_salt",
          "type": "string"
        },
        {
          "name": "assessor",
          "type": "address"
        }
      ],
      "name": "steal",
      "outputs": [],
      "payable": false,
      "stateMutability": "nonpayable",
      "type": "function"
    },
    {
      "constant": false,
      "inputs": [
        {
          "name": "_score",
          "type": "int128"
        },
        {
          "name": "_salt",
          "type": "string"
        }
      ],
      "name": "reveal",
      "outputs": [],
      "payable": false,
      "stateMutability": "nonpayable",
      "type": "function"
    },
    {
      "constant": false,
      "inputs": [
        {
          "name": "finalClusterLength",
          "type": "uint256"
        }
      ],
      "name": "payout",
      "outputs": [],
      "payable": false,
      "stateMutability": "nonpayable",
      "type": "function"
    }
  ],
  "bytecode": "0x60806040523480156200001157600080fd5b5060405160a08062002418833981016040818152825160208085015183860151606087015160809097015160008054600160a060020a031916600160a060020a038088169190911782556003805461010060a860020a031916610100338416810291909117918290557f1684ae4d000000000000000000000000000000000000000000000000000000008b529851979a95999498959793969590041693631684ae4d936004808201949293918390030190829087803b158015620000d457600080fd5b505af1158015620000e9573d6000803e3d6000fd5b505050506040513d60208110156200010057600080fd5b505160048054600160a060020a031916600160a060020a039092169190911790554281810160058190559083016006819055106200013a57fe5b600784905560088390556004805460008054604080517f76147a0e000000000000000000000000000000000000000000000000000000008152600160a060020a039283169581019590955260248501839052519216926376147a0e926044808301939282900301818387803b158015620001b357600080fd5b505af1158015620001c8573d6000803e3d6000fd5b50506000600a555050505050505061223280620001e66000396000f3006080604052600436106100f85763ffffffff60e060020a60003504166313faede681146100fd5780632ad1bc09146101245780632fa4f694146101925780633197cbb6146101b957806347c20ab7146101ce5780636732e966146101ff578063739d9dc11461021457806383017d4014610229578063949d225d146102825780639c6a1dfb14610297578063ae8421e1146102d0578063b90d3d0c146102e5578063bf1c69691461037b578063bfa0b1331461039c578063c2c4c5c1146103b1578063e1152343146103c6578063e6c50020146103de578063f14fcbc814610402578063f571da7f1461041a578063fadf617b1461042f575b600080fd5b34801561010957600080fd5b50610112610490565b60408051918252519081900360200190f35b34801561013057600080fd5b5060408051602060046024803582810135601f8101859004850286018501909652858552610190958335600f0b95369560449491939091019190819084018382808284375094975050509235600160a060020a0316935061049692505050565b005b34801561019e57600080fd5b50610190600435600160a060020a0360243516604435610632565b3480156101c557600080fd5b5061011261096d565b3480156101da57600080fd5b506101e3610973565b60408051600160a060020a039092168252519081900360200190f35b34801561020b57600080fd5b506101e3610982565b34801561022057600080fd5b50610112610996565b34801561023557600080fd5b506040805160206004803580820135601f810184900484028501840190955284845261019094369492936024939284019190819084018382808284375094975061099c9650505050505050565b34801561028e57600080fd5b50610112610bf9565b3480156102a357600080fd5b506102ac610bff565b604051808260058111156102bc57fe5b60ff16815260200191505060405180910390f35b3480156102dc57600080fd5b50610112610c08565b3480156102f157600080fd5b50610306600160a060020a0360043516610c0e565b6040805160208082528351818301528351919283929083019185019080838360005b83811015610340578181015183820152602001610328565b50505050905090810190601f16801561036d5780820380516001836020036101000a031916815260200191505b509250505060405180910390f35b34801561038757600080fd5b506102ac600160a060020a0360043516610ca9565b3480156103a857600080fd5b50610112610cbe565b3480156103bd57600080fd5b50610112610cc4565b3480156103d257600080fd5b50610190600435610cca565b3480156103ea57600080fd5b50610190600435600160a060020a0360243516611249565b34801561040e57600080fd5b50610190600435611316565b34801561042657600080fd5b506101906113e7565b34801561043b57600080fd5b5060408051602060046024803582810135601f8101859004850286018501909652858552610190958335600f0b9536956044949193909101919081908401838280828437509497506116889650505050505050565b60085481565b6003600160a060020a03821660009081526002602052604090205460ff1660058111156104bf57fe5b141561062d5782826040518083600f0b600f0b70010000000000000000000000000000000002815260100182805190602001908083835b602083106105155780518252601f1990920191602091820191016104f6565b51815160209384036101000a60001901801990921691161790526040805192909401829003909120600160a060020a038816600090815260099092529290205490911415935061062d9250505057600454600854600160a060020a039091169063a9059cbb903390600290046040518363ffffffff1660e060020a0281526004018083600160a060020a0316600160a060020a0316815260200182815260200192505050602060405180830381600087803b1580156105d357600080fd5b505af11580156105e7573d6000803e3d6000fd5b505050506040513d60208110156105fd57600080fd5b5050600160a060020a0381166000908152600260205260409020805460ff19166005179055600780546000190190555b505050565b6000806000806000806000600360019054906101000a9004600160a060020a0316600160a060020a031633600160a060020a031614151561067257600080fd5b6000965088600160a060020a031663d965ea006040518163ffffffff1660e060020a028152600401602060405180830381600087803b1580156106b457600080fd5b505af11580156106c8573d6000803e3d6000fd5b505050506040513d60208110156106de57600080fd5b505195506002860488116106f257876106f7565b600286045b9450600093505b848410156107b25788600160a060020a03166385b2ff8f858c016040518263ffffffff1660e060020a02815260040180828152602001915050602060405180830381600087803b15801561075157600080fd5b505af1158015610765573d6000803e3d6000fd5b505050506040513d602081101561077b57600080fd5b50519250600160a060020a0383161580159061079b575061079b83611898565b156107a7576001909601955b6001909301926106fe565b86880391506000821115610954575060005b88600160a060020a031663449a058d6040518163ffffffff1660e060020a028152600401602060405180830381600087803b15801561080257600080fd5b505af1158015610816573d6000803e3d6000fd5b505050506040513d602081101561082c57600080fd5b50518110156109545761094c81888c01018a600160a060020a031663898572a6846040518263ffffffff1660e060020a02815260040180828152602001915050602060405180830381600087803b15801561088657600080fd5b505af115801561089a573d6000803e3d6000fd5b505050506040513d60208110156108b057600080fd5b5051604080517f449a058d0000000000000000000000000000000000000000000000000000000081529051600160a060020a038e169163449a058d9160048083019260209291908290030181600087803b15801561090d57600080fd5b505af1158015610921573d6000803e3d6000fd5b505050506040513d602081101561093757600080fd5b50518581151561094357fe5b04600101610632565b6001016107c4565b50506003805460ff191660011790555050505050505050565b60055481565b600054600160a060020a031681565b6003546101009004600160a060020a031681565b600c5481565b60005460609033600160a060020a03908116911614806109e257506001600160a060020a03331660009081526002602052604090205460ff1660058111156109e057fe5b115b15156109ed57600080fd5b6003805460ff1660058111156109ff57fe5b10610a0957600080fd5b600160a060020a0333166000908152600e602090815260409182902080548351601f600260001961010060018616150201909316929092049182018490048402810184019094528084529091830182828015610aa65780601f10610a7b57610100808354040283529160200191610aa6565b820191906000526020600020905b815481529060010190602001808311610a8957829003601f168201915b505050600160a060020a0333166000908152600e602090815260409091208651949550610ada94909350908601915061216b565b507faadcd29446d57df33a9b095602a5f78d2578d4fd35b92ebb712fbf7e874893193382846040518084600160a060020a0316600160a060020a031681526020018060200180602001838103835285818151815260200191508051906020019080838360005b83811015610b58578181015183820152602001610b40565b50505050905090810190601f168015610b855780820380516001836020036101000a031916815260200191505b50838103825284518152845160209182019186019080838360005b83811015610bb8578181015183820152602001610ba0565b50505050905090810190601f168015610be55780820380516001836020036101000a031916815260200191505b509550505050505060405180910390a15050565b60075481565b60035460ff1681565b600a5481565b600e6020908152600091825260409182902080548351601f600260001961010060018616150201909316929092049182018490048402810184019094528084529091830182828015610ca15780601f10610c7657610100808354040283529160200191610ca1565b820191906000526020600020905b815481529060010190602001808311610c8457829003601f168201915b505050505081565b60026020526000908152604090205460ff1681565b600d5481565b60065481565b60006060808280808060048060035460ff166005811115610ce757fe5b14610cf157600080fd5b60015460408051828152602080840282010190915260009950908015610d21578160200160208202803883390190505b506001546040805182815260208084028201019091529198508015610d50578160200160208202803883390190505b509550600094505b60015485101561109d57600460026000600188815481101515610d7757fe5b6000918252602080832090910154600160a060020a0316835282019290925260400190205460ff166005811115610daa57fe5b14156110925773__Math__________________________________634c619e4c73__Math__________________________________631b5ac4b5600c54600b600060018c815481101515610dfa57fe5b6000918252602080832090910154600160a060020a03168352828101939093526040918201902054815160e060020a63ffffffff8716028152600f91820b90910b93909303600484015251602480840193829003018186803b158015610e5f57600080fd5b505af4158015610e73573d6000803e3d6000fd5b505050506040513d6020811015610e8957600080fd5b50516008546040805160e060020a63ffffffff8616028152600481019390935260248301919091528051604480840193829003018186803b158015610ecd57600080fd5b505af4158015610ee1573d6000803e3d6000fd5b505050506040513d6040811015610ef757600080fd5b50805160209091015190945092508215611058578360085403880197506000841115610fc55760045460018054600160a060020a039092169163a9059cbb919088908110610f4157fe5b60009182526020808320909101546040805160e060020a63ffffffff8716028152600160a060020a039092166004830152602482018a90525160448083019491928390030190829087803b158015610f9857600080fd5b505af1158015610fac573d6000803e3d6000fd5b505050506040513d6020811015610fc257600080fd5b50505b60045460018054600160a060020a03909216916376147a0e919088908110610fe957fe5b60009182526020822001546040805160e060020a63ffffffff8616028152600160a060020a03909216600483015260066024830152516044808301939282900301818387803b15801561103b57600080fd5b505af115801561104f573d6000803e3d6000fd5b50505050611092565b6001878681518110151561106857fe5b9115156020928302909101909101528551849087908790811061108757fe5b602090810290910101525b600190940193610d58565b600091505b855182101561123e5786828151811015156110b957fe5b90602001906020020151156112335760045460018054600160a060020a039092169163a9059cbb9190859081106110ec57fe5b600091825260209091200154600160a060020a03168b8b81151561110c57fe5b04898681518110151561111b57fe5b90602001906020020151016040518363ffffffff1660e060020a0281526004018083600160a060020a0316600160a060020a0316815260200182815260200192505050602060405180830381600087803b15801561117857600080fd5b505af115801561118c573d6000803e3d6000fd5b505050506040513d60208110156111a257600080fd5b505060045460018054600160a060020a03909216916376147a0e9190859081106111c857fe5b60009182526020822001546040805160e060020a63ffffffff8616028152600160a060020a03909216600483015260066024830152516044808301939282900301818387803b15801561121a57600080fd5b505af115801561122e573d6000803e3d6000fd5b505050505b6001909101906110a2565b505050505050505050565b600354600090819033600160a060020a03908116610100909204161461126e57600080fd5b5081905060005b83811015611303576112fa82600160a060020a0316635daf08ca836040518263ffffffff1660e060020a02815260040180828152602001915050602060405180830381600087803b1580156112c957600080fd5b505af11580156112dd573d6000803e3d6000fd5b505050506040513d60208110156112f357600080fd5b5051611898565b50600101611275565b50506003805460ff191660011790555050565b60028060035460ff16600581111561132a57fe5b1461133457600080fd5b600554421115611348576113486002611982565b6002600160a060020a03331660009081526002602052604090205460ff16600581111561137157fe5b14156113b15733600160a060020a0316600090815260096020908152604080832085905560029091529020805460ff19166003179055600a805460010190555b600754600a5414156113e35761a8c042016006556113d160036005611a5f565b6000600a556003805460ff1916811790555b5050565b60018060035460ff1660058111156113fb57fe5b1461140557600080fd5b60065442111561141c57611417611b50565b611685565b6001600160a060020a03331660009081526002602052604090205460ff16600581111561144557fe5b1480156114555750600754600154105b8015611517575060048054600854600354604080517f27234ecc000000000000000000000000000000000000000000000000000000008152600160a060020a033381169682019690965230861660248201526044810193909352610100909104841660648301525192909116916327234ecc916084808201926020929091908290030181600087803b1580156114ea57600080fd5b505af11580156114fe573d6000803e3d6000fd5b505050506040513d602081101561151457600080fd5b50515b156115f157600180548082019091557fb10e2d527612073b26eecdfd717e6a320cf44b4afac2b0732d9fcbe2b7fa0cf6018054600160a060020a0333811673ffffffffffffffffffffffffffffffffffffffff1990921682179092556000818152600260208190526040808320805460ff19168317905560048054825160e160020a633b0a3d070281529182019590955260248101929092525192909316926376147a0e926044808301939282900301818387803b1580156115d857600080fd5b505af11580156115ec573d6000803e3d6000fd5b505050505b60075460015414156116855761160960026004611a5f565b60048054600080546040805160e160020a633b0a3d07028152600160a060020a03928316818701526024810195909552519216926376147a0e926044808301939282900301818387803b15801561165f57600080fd5b505af1158015611673573d6000803e3d6000fd5b50506003805460ff1916600217905550505b50565b60038060035460ff16600581111561169c57fe5b146116a657600080fd5b60065442116116b457600080fd5b60055462015180014211156116cd576116cd6003611982565b6003600160a060020a03331660009081526002602052604090205460ff1660058111156116f657fe5b148015611797575082826040518083600f0b600f0b70010000000000000000000000000000000002815260100182805190602001908083835b6020831061174e5780518252601f19909201916020918201910161172f565b51815160209384036101000a6000190180199092169116179052604080519290940182900390912033600160a060020a0316600090815260099092529290205490911493505050505b156118775733600160a060020a03166000908152600b602090815260409182902080546fffffffffffffffffffffffffffffffff19166fffffffffffffffffffffffffffffffff600f88900b161790559051835184928291908401908083835b602083106118165780518252601f1990920191602091820191016117f7565b51815160001960209485036101000a0190811690199091161790526040805194909201849003909320600d80549091189055600160a060020a03331660009081526002909352909120805460ff191660041790555050600a80546001019055505b600754600a54141561062d576003805460ff1916600417905561062d611e44565b60008054600160a060020a038381169116148015906118db5750600160a060020a03821660009081526002602052604081205460ff1660058111156118d957fe5b145b1561197d57600480546040805160e160020a633b0a3d07028152600160a060020a038681169482019490945260016024820152905192909116916376147a0e9160448082019260009290919082900301818387803b15801561193c57600080fd5b505af1158015611950573d6000803e3d6000fd5b50505050600160a060020a0382166000908152600260205260409020805460ff1916600190811790915590505b919050565b60005b600154811015611a4c5781600581111561199b57fe5b600260006001848154811015156119ae57fe5b6000918252602080832090910154600160a060020a0316835282019290925260400190205460ff1660058111156119e157fe5b1415611a44576005600260006001848154811015156119fc57fe5b6000918252602080832090910154600160a060020a031683528201929092526040019020805460ff19166001836005811115611a3457fe5b0217905550600780546000190190555b600101611985565b600560075410156113e3576113e3611b50565b60005b60015481101561062d578260026000600184815481101515611a8057fe5b6000918252602080832090910154600160a060020a0316835282019290925260400190205460ff166005811115611ab357fe5b1415611b485760045460018054600160a060020a03909216916376147a0e919084908110611add57fe5b60009182526020822001546040805160e060020a63ffffffff8616028152600160a060020a03909216600483015260248201879052516044808301939282900301818387803b158015611b2f57600080fd5b505af1158015611b43573d6000803e3d6000fd5b505050505b600101611a62565b600080600160035460ff166005811115611b6657fe5b14611b775760015460085402611b7f565b600754600854025b6004805460008054604080517fa9059cbb000000000000000000000000000000000000000000000000000000008152600160a060020a039283169581019590955260248501869052519496509091169263a9059cbb926044808201936020939283900390910190829087803b158015611bf757600080fd5b505af1158015611c0b573d6000803e3d6000fd5b505050506040513d6020811015611c2157600080fd5b505060048054600080546040805160e160020a633b0a3d07028152600160a060020a039283169581019590955260036024860152519216926376147a0e926044808301939282900301818387803b158015611c7b57600080fd5b505af1158015611c8f573d6000803e3d6000fd5b50505050600090505b600154811015611e3157600560026000600184815481101515611cb757fe5b6000918252602080832090910154600160a060020a0316835282019290925260400190205460ff166005811115611cea57fe5b14611e295760045460018054600160a060020a039092169163a9059cbb919084908110611d1357fe5b60009182526020808320909101546008546040805160e060020a63ffffffff8816028152600160a060020a03909316600484015260248301919091525160448083019491928390030190829087803b158015611d6e57600080fd5b505af1158015611d82573d6000803e3d6000fd5b505050506040513d6020811015611d9857600080fd5b505060045460018054600160a060020a03909216916376147a0e919084908110611dbe57fe5b60009182526020822001546040805160e060020a63ffffffff8616028152600160a060020a03909216600483015260036024830152516044808301939282900301818387803b158015611e1057600080fd5b505af1158015611e24573d6000803e3d6000fd5b505050505b600101611c98565b6003546101009004600160a060020a0316ff5b60606000808060048060035460ff166005811115611e5e57fe5b14611e6857600080fd5b600a54604051908082528060200260200182016040528015611e94578160200160208202803883390190505b50945060009350600092505b600154831015611f6357600460026000600186815481101515611ebf57fe5b6000918252602080832090910154600160a060020a0316835282019290925260400190205460ff166005811115611ef257fe5b1415611f5857600b6000600185815481101515611f0b57fe5b6000918252602080832090910154600160a060020a031683528201929092526040019020548551600f91820b90910b90869086908110611f4757fe5b602090810290910101526001909301925b600190920191611ea0565b6040517f140a7ac600000000000000000000000000000000000000000000000000000000815260206004820181815287516024840152875173__Math__________________________________9363140a7ac6938a9392839260440191808601910280838360005b83811015611fe3578181015183820152602001611fcb565b5050505090500192505050604080518083038186803b15801561200557600080fd5b505af4158015612019573d6000803e3d6000fd5b505050506040513d604081101561202f57600080fd5b508051602090910151600c91909155600a54909250600290048211156120f95761205882610cca565b6000600c5413156120f45760035460008054600c54604080517f98041ea3000000000000000000000000000000000000000000000000000000008152600160a060020a039384166004820152918702602483015251610100909404909116926398041ea39260448084019391929182900301818387803b1580156120db57600080fd5b505af11580156120ef573d6000803e3d6000fd5b505050505b6120ff565b6000600c555b60048054600080546040805160e160020a633b0a3d07028152600160a060020a039283169581019590955260076024860152519216926376147a0e926044808301939282900301818387803b15801561215757600080fd5b505af115801561123e573d6000803e3d6000fd5b828054600181600116156101000203166002900490600052602060002090601f016020900481019282601f106121ac57805160ff19168380011785556121d9565b828001600101855582156121d9579182015b828111156121d95782518255916020019190600101906121be565b506121e59291506121e9565b5090565b61220391905b808211156121e557600081556001016121ef565b905600a165627a7a7230582077a01dac64fa016c6b0eee163a5a64c1142de6480612dac9a8692007a73aa7120029",
  "source": "pragma solidity ^0.4.11;\n\nimport \"./Math.sol\";\nimport \"./Concept.sol\";\nimport \"./FathomToken.sol\";\n\ncontract Assessment {\n    address public assessee;\n    address[] assessors;\n\n    mapping (address => State) public assessorState;\n    State public assessmentStage;\n    enum State {\n        None,\n        Called,\n        Confirmed,\n        Committed,\n        Done,\n        Burned\n    }\n\n    Concept public concept;\n    FathomToken fathomToken;\n\n    uint public endTime;\n    // will keep track of timelimits for 1) latest possible time to confirm and\n    // 2) earliest time to reveal\n    uint public checkpoint;\n    uint public size;\n    uint public cost;\n\n    mapping(address => bytes32) commits;\n    uint public done; //counter how many assessors have committed/revealed their score\n    mapping(address => int128) scores;\n    int public finalScore;\n    bytes32 public salt; //used for token distribution\n    mapping (address => bytes) public data;\n\n    event DataChanged(address user, bytes oldData, bytes newData);\n\n    modifier onlyConcept() {\n        require(msg.sender == address(concept));\n        _;\n    }\n\n    modifier onlyInStage(State _stage) {\n        require(assessmentStage == _stage);\n        _;\n    }\n\n    function Assessment(address _assessee,\n                        uint _size,\n                        uint _cost,\n                        uint _confirmTime,\n                        uint _timeLimit) public {\n        assessee = _assessee;\n        concept = Concept(msg.sender);\n        fathomToken = concept.fathomToken();\n\n        endTime = now + _timeLimit;\n        // set checkpoint to latest possible time to confirm\n        checkpoint = now + _confirmTime;\n        assert(checkpoint < endTime);\n\n        size = _size;\n        cost = _cost;\n\n        fathomToken.notification(assessee, 0); // assessee has started an assessment\n        done = 0;\n    }\n\n    function addData(bytes _data) public {\n      require(msg.sender == assessee || assessorState[msg.sender] > State.Called);\n      require(assessmentStage < State.Committed);\n      bytes memory oldData = data[msg.sender];\n      data[msg.sender] = _data;\n      emit DataChanged(msg.sender, oldData, _data);\n    }\n\n    // ends the assessment, refunds the assessee and all assessors who have not been burned\n    function cancelAssessment() private {\n        uint assesseeRefund = assessmentStage == State.Called ? cost * size : cost * assessors.length; //in later stages size can be reduced by burned assessors\n        fathomToken.transfer(assessee, assesseeRefund);\n        fathomToken.notification(assessee, 3); //Assessment Cancelled and you have been refunded\n        for (uint i = 0; i < assessors.length; i++) {\n            if (assessorState[assessors[i]] != State.Burned) {\n                fathomToken.transfer(assessors[i], cost);\n                fathomToken.notification(assessors[i], 3); //Assessment Cancelled and you have been refunded\n            }\n        }\n        selfdestruct(address(concept));\n    }\n\n    //adds a user to the pool eligible to accept an assessment\n    function addAssessorToPool(address assessor) private returns(bool) {\n        if (assessor != assessee && assessorState[assessor] == State.None) {\n            fathomToken.notification(assessor, 1); //Called As A Potential Assessor\n            assessorState[assessor] = State.Called;\n            return true;\n        }\n    }\n\n    /*\n      To recursively set the pool to draw assessors from in the assessment\n      stops when the pool of potential assessors is 20 times the size of the assessment2\n      @param: uint seed = the seed number for random number generation\n      @param: address _concept = the concept being called from\n      @param: uint num = the total number of assessors to be called\n    */\n    function setAssessorPool(uint seed, address _concept, uint num) public onlyConcept() {\n        uint numCalled = 0;\n        uint membersOfConcept = Concept(_concept).getMemberLength();\n        //we want to call at most half of the members of each concept\n        uint maxFromThisPool = num > membersOfConcept/2 ? membersOfConcept/2 : num;\n        for (uint k=0; k < maxFromThisPool; k++) {\n            address randomUser = Concept(_concept).getWeightedRandomMember(seed + k);\n            if (randomUser != address(0x0) && addAssessorToPool(randomUser)) {\n                numCalled++;\n            }\n        }\n        uint remaining = num - numCalled;\n        if (remaining > 0) {\n            for (uint i = 0; i < Concept(_concept).getParentsLength(); i++) {\n                setAssessorPool(seed + numCalled + i, Concept(_concept).parents(i), remaining/Concept(_concept).getParentsLength() + 1); //Calls the remaining users from the parent concepts proportional to their size\n            }\n        }\n        assessmentStage = State.Called;\n    }\n\n    /*\n      Function to call all members of mew to be assessors. Will be removed after\n      the alpha-testing phase.\n    */\n    function callAllFromMew(uint _nMew, address _mew) public onlyConcept() {\n        Concept mew = Concept(_mew);\n        for (uint i=0; i< _nMew; i++) {\n            addAssessorToPool(mew.members(i));\n        }\n        assessmentStage = State.Called;\n    }\n\n    // called by an assessor to confirm and stake\n    function confirmAssessor() public onlyInStage(State.Called) {\n        // cancel if the assessment is past its startTime\n        if (now > checkpoint){\n            cancelAssessment();\n            return;\n        }\n        if (assessorState[msg.sender] == State.Called &&\n            assessors.length < size &&\n            fathomToken.takeBalance(msg.sender, address(this), cost, concept)\n            ) {\n            assessors.push(msg.sender);\n            assessorState[msg.sender] = State.Confirmed;\n            fathomToken.notification(msg.sender, 2); //Confirmed for assessing, stake has been taken\n        }\n        if (assessors.length == size) {\n            notifyAssessors(uint(State.Confirmed), 4);\n            fathomToken.notification(assessee, 4);\n            assessmentStage = State.Confirmed;\n        }\n    }\n    //called by an assessor to commit a hash of their score //TODO explain in more detail what's happening\n    function commit(bytes32 _hash) public onlyInStage(State.Confirmed) {\n        if (now > endTime) {\n            burnStakes(State.Confirmed);\n        }\n        if (assessorState[msg.sender] == State.Confirmed) {\n                commits[msg.sender] = _hash;\n                assessorState[msg.sender] = State.Committed;\n                done++; //Increases done by 1 to help progress to the next assessment stage.\n        }\n        if (done == size) {\n            //set checkpoint to end of 12 hour challenge period after which scores can be revealed\n            checkpoint = now + 12 hours;\n            notifyAssessors(uint(State.Committed), 5);\n            done = 0; //Resets the done counter\n            assessmentStage = State.Committed;\n        }\n    }\n\n\n    function steal(int128 _score, string _salt, address assessor) public {\n        if(assessorState[assessor] == State.Committed) {\n            if(commits[assessor] == keccak256(_score, _salt)) {\n                fathomToken.transfer(msg.sender, cost/2);\n                assessorState[assessor] = State.Burned;\n                size--;\n            }\n        }\n    }\n\n    //@purpose: called by assessors to reveal their own commits or others\n    // must be called between 12 hours after the latest commit and 24 hours after the\n    // end of the assessment. If the last commit happens during at the last possible\n    // point in time (right before endtime), this period will be 12hours\n    function reveal(int128 _score, string _salt) public onlyInStage(State.Committed) {\n        // scores can only be revealed after the challenge period has passed\n        require(now > checkpoint);\n        // If the time to reveal has passed, burn all unrevealed assessors\n        if (now > endTime + 24 hours) {\n            burnStakes(State.Committed);\n        }\n\n        if(assessorState[msg.sender] == State.Committed &&\n           commits[msg.sender] == keccak256(_score, _salt)) {\n                    scores[msg.sender] = _score;\n                    salt = salt ^ (keccak256(_salt));\n                    assessorState[msg.sender] = State.Done;\n                    done++;\n        }\n\n        if (done == size) {\n            assessmentStage = State.Done;\n            calculateResult();\n        }\n    }\n\n    // burns stakes of all assessors who are in a certain state\n    // if afterwards, the size is below 5, the assessment is cancelled\n    function burnStakes(State _state) private {\n        for (uint i = 0; i < assessors.length; i++) {\n            if (assessorState[assessors[i]] == _state) {\n              assessorState[assessors[i]] = State.Burned;\n              size--;\n           }\n        }\n        if (size < 5) {\n          cancelAssessment();\n        }\n    }\n\n    function notifyAssessors(uint _state, uint _topic) private {\n        for (uint i=0; i < assessors.length; i++) {\n            if (uint(assessorState[assessors[i]]) == _state) {\n                fathomToken.notification(assessors[i], _topic);\n            }\n        }\n    }\n\n    function calculateResult() onlyInStage(State.Done) private {\n        int[] memory finalScores = new int[] (done);\n        uint idx =0;\n        for (uint j = 0; j < assessors.length; j++) {\n            if (assessorState[assessors[j]] == State.Done) {\n                finalScores[idx] = scores[assessors[j]];\n                idx++;\n            }\n        }\n        uint finalClusterLength;\n        (finalScore, finalClusterLength) = Math.getFinalScore(finalScores);\n        // check if a majority of assessors found a point of consensus\n        if (finalClusterLength > done/2) {\n            payout(finalClusterLength);\n            if (finalScore > 0) {\n                concept.addMember(assessee, uint(finalScore) * finalClusterLength);\n            }\n        } else {\n            // set final Score to zero to signal no consensus\n            finalScore = 0;\n        }\n        fathomToken.notification(assessee, 7);\n    }\n\n    function payout(uint finalClusterLength) onlyInStage(State.Done) public {\n        uint dissentBonus = 0;\n        bool[] memory inAssessor = new bool[] (assessors.length);\n        uint[] memory inAssessorPayout = new uint[] (assessors.length);\n        // pay out dissenting assessors their reduced stake and save how much stake to redistribute to whom\n        for (uint i = 0; i < assessors.length; i++) {\n            if (assessorState[assessors[i]] == State.Done) {\n                uint payoutValue;\n                bool dissenting;\n                (payoutValue, dissenting) = Math.getPayout(Math.abs(scores[assessors[i]] - finalScore), cost);\n                if (dissenting) {\n                    dissentBonus += cost - payoutValue;\n                    if (payoutValue > 0) {\n                        fathomToken.transfer(assessors[i], payoutValue);\n                    }\n                    fathomToken.notification(assessors[i], 6); //Consensus reached; Tokens paid out\n                } else {\n                    inAssessor[i] = true;\n                    inAssessorPayout[i] = payoutValue;\n                }\n            }\n        }\n        // pay out the majority-assessors their share of stake + the remainders of any dissenting assessors\n        for (uint j = 0; j < inAssessorPayout.length; j++) {\n            if (inAssessor[j]) {\n                fathomToken.transfer(assessors[j], inAssessorPayout[j] + dissentBonus/finalClusterLength);\n                fathomToken.notification(assessors[j], 6); //Consensus reached; Tokens paid out\n            }\n        }\n    }\n}\n",
  "sourcePath": "/home/djuju/ethereum/fathom/assess/contracts/Assessment.sol",
  "compiler": {
    "name": "solc",
    "version": "0.4.23+commit.124ca40d.Emscripten.clang"
  },
  "schemaVersion": "2.0.0",
  "updatedAt": "2018-06-07T20:03:10.933Z"
}