{
  "contractName": "ConceptRegistry",
  "abi": [
    {
      "constant": true,
      "inputs": [],
      "name": "fathomToken",
      "outputs": [
        {
          "name": "",
          "type": "address"
        }
      ],
      "payable": false,
      "stateMutability": "view",
      "type": "function"
    },
    {
      "constant": true,
      "inputs": [],
      "name": "mewAddress",
      "outputs": [
        {
          "name": "",
          "type": "address"
        }
      ],
      "payable": false,
      "stateMutability": "view",
      "type": "function"
    },
    {
      "constant": true,
      "inputs": [],
      "name": "distributorAddress",
      "outputs": [
        {
          "name": "",
          "type": "address"
        }
      ],
      "payable": false,
      "stateMutability": "view",
      "type": "function"
    },
    {
      "constant": true,
      "inputs": [
        {
          "name": "",
          "type": "address"
        }
      ],
      "name": "conceptExists",
      "outputs": [
        {
          "name": "",
          "type": "bool"
        }
      ],
      "payable": false,
      "stateMutability": "view",
      "type": "function"
    },
    {
      "anonymous": false,
      "inputs": [
        {
          "indexed": false,
          "name": "_concept",
          "type": "address"
        }
      ],
      "name": "ConceptCreation",
      "type": "event"
    },
    {
      "constant": false,
      "inputs": [
        {
          "name": "_token",
          "type": "address"
        },
        {
          "name": "_distributor",
          "type": "address"
        }
      ],
      "name": "init",
      "outputs": [],
      "payable": false,
      "stateMutability": "nonpayable",
      "type": "function"
    },
    {
      "constant": false,
      "inputs": [
        {
          "name": "parentList",
          "type": "address[]"
        },
        {
          "name": "_propagationRates",
          "type": "uint256[]"
        },
        {
          "name": "_lifetime",
          "type": "uint256"
        },
        {
          "name": "_data",
          "type": "bytes"
        },
        {
          "name": "_owner",
          "type": "address"
        }
      ],
      "name": "makeConcept",
      "outputs": [
        {
          "name": "",
          "type": "address"
        }
      ],
      "payable": false,
      "stateMutability": "nonpayable",
      "type": "function"
    }
  ],
  "bytecode": "0x60806040526001805460a060020a60ff021916905534801561002057600080fd5b506142dc806100306000396000f3006080604052600436106100775763ffffffff7c01000000000000000000000000000000000000000000000000000000006000350416631684ae4d811461007c5780637894d1d0146100ad5780639e45c8861461018a578063a51af4c51461019f578063c18e4679146101b4578063f09a4016146101e9575b600080fd5b34801561008857600080fd5b50610091610212565b60408051600160a060020a039092168252519081900360200190f35b3480156100b957600080fd5b506040805160206004803580820135838102808601850190965280855261009195369593946024949385019291829185019084908082843750506040805187358901803560208181028481018201909552818452989b9a99890198929750908201955093508392508501908490808284375050604080516020601f818a01358b0180359182018390048302840183018552818452989b8a359b909a90999401975091955091820193509150819084018382808284375094975050509235600160a060020a0316935061022192505050565b34801561019657600080fd5b506100916103cb565b3480156101ab57600080fd5b506100916103da565b3480156101c057600080fd5b506101d5600160a060020a03600435166103e9565b604080519115158252519081900360200190f35b3480156101f557600080fd5b50610210600160a060020a03600435811690602435166103fe565b005b600154600160a060020a031681565b6000806000875111151561023457600080fd5b8686868686610241610600565b60408101849052600160a060020a038216608082015260a080825286519082015285518190602080830191606084019160c08501918b8201910280838360005b83811015610299578181015183820152602001610281565b50505050905001848103835288818151815260200191508051906020019060200280838360005b838110156102d85781810151838201526020016102c0565b50505050905001848103825286818151815260200191508051906020019080838360005b838110156103145781810151838201526020016102fc565b50505050905090810190601f1680156103415780820380516001836020036101000a031916815260200191505b5098505050505050505050604051809103906000f080158015610368573d6000803e3d6000fd5b50600160a060020a03811660008181526020818152604091829020805460ff19166001179055815192835290519293507f584f82774c2663c22e328c822f476c5496db7ad9bfcdc79c559f69a2622e39ba92918290030190a19695505050505050565b600254600160a060020a031681565b600354600160a060020a031681565b60006020819052908152604090205460ff1681565b60015460009074010000000000000000000000000000000000000000900460ff1615156105fb5760018054600160a060020a0385811673ffffffffffffffffffffffffffffffffffffffff19928316179092556003805492851692909116919091179055604080516000808252602082018181528284019093529091907f8000000000000000000000000000000000000000000000000000000000000000906104a5610600565b60408101839052600160a060020a038216608082015260a080825285519082015284518190602080830191606084019160c08501918a8201910280838360005b838110156104fd5781810151838201526020016104e5565b50505050905001848103835287818151815260200191508051906020019060200280838360005b8381101561053c578181015183820152602001610524565b50505050905001848103825260008152602001602001975050505050505050604051809103906000f080158015610577573d6000803e3d6000fd5b5060028054600160a060020a0380841673ffffffffffffffffffffffffffffffffffffffff199092169190911791829055166000908152602081905260409020805460ff19166001908117909155805474ff000000000000000000000000000000000000000019167401000000000000000000000000000000000000000017905590505b505050565b604051613ca08061061183390190560060806040523480156200001157600080fd5b5060405162003ca038038062003ca083398101604090815281516020830151918301516060840151608085015193850180519386018051909691959394929091019291600091146200006257600080fd5b5060048054600160a060020a03191633600160a060020a031617905560005b855181101562000188576004548651600160a060020a039091169063c18e467990889084908110620000af57fe5b906020019060200201516040518263ffffffff167c01000000000000000000000000000000000000000000000000000000000281526004018082600160a060020a0316600160a060020a03168152602001915050602060405180830381600087803b1580156200011e57600080fd5b505af115801562000133573d6000803e3d6000fd5b505050506040513d60208110156200014a57600080fd5b505115156200015857600080fd5b6103e885828151811015156200016a57fe5b60209081029091010151106200017f57600080fd5b60010162000081565b84516200019d906007906020880190620002a2565b508551620001b3906000906020890190620002f2565b508251620001c990600190602086019062000358565b50600584905560028054600160a060020a031916600160a060020a038481169190911790915560048054604080517f1684ae4d00000000000000000000000000000000000000000000000000000000815290519190931692631684ae4d92818101926020929091908290030181600087803b1580156200024857600080fd5b505af11580156200025d573d6000803e3d6000fd5b505050506040513d60208110156200027457600080fd5b505160038054600160a060020a031916600160a060020a039092169190911790555062000411945050505050565b828054828255906000526020600020908101928215620002e0579160200282015b82811115620002e0578251825591602001919060010190620002c3565b50620002ee929150620003ca565b5090565b8280548282559060005260206000209081019282156200034a579160200282015b828111156200034a5782518254600160a060020a031916600160a060020a0390911617825560209092019160019091019062000313565b50620002ee929150620003ea565b828054600181600116156101000203166002900490600052602060002090601f016020900481019282601f106200039b57805160ff1916838001178555620002e0565b82800160010185558215620002e05791820182811115620002e0578251825591602001919060010190620002c3565b620003e791905b80821115620002ee5760008155600101620003d1565b90565b620003e791905b80821115620002ee578054600160a060020a0319168155600101620003f1565b61387f80620004216000396000f3006080604052600436106200010d5763ffffffff60e060020a6000350416631684ae4d81146200011257806321d39c2c146200014657806335a07291146200017e5780633f99fa5414620001a2578063449a058d14620001cb5780635daf08ca14620001f557806369d24f63146200021057806370a2b84a146200022857806373d4a13a1462000240578063824989c314620002d057806385b2ff8f14620002eb578063898572a614620003065780638da5cb5b14620003215780639107d08e146200033957806398041ea31462000380578063ac6c525114620003a7578063d965ea0014620003cb578063de0d080214620003e3578063f2fde38b1462000407578063fd636975146200042b575b600080fd5b3480156200011f57600080fd5b506200012a62000452565b60408051600160a060020a039092168252519081900360200190f35b3480156200015357600080fd5b506200016a600160a060020a036004351662000461565b604080519115158252519081900360200190f35b3480156200018b57600080fd5b506200016a60043560243560443560643562000476565b348015620001af57600080fd5b50620001c9600160a060020a0360043516602435620008a1565b005b348015620001d857600080fd5b50620001e3620009c3565b60408051918252519081900360200190f35b3480156200020257600080fd5b506200012a600435620009ca565b3480156200021d57600080fd5b50620001e3620009f3565b3480156200023557600080fd5b506200016a620009f9565b3480156200024d57600080fd5b506200025862000ab6565b6040805160208082528351818301528351919283929083019185019080838360005b83811015620002945781810151838201526020016200027a565b50505050905090810190601f168015620002c25780820380516001836020036101000a031916815260200191505b509250505060405180910390f35b348015620002dd57600080fd5b50620001c960043562000b47565b348015620002f857600080fd5b506200012a60043562000b68565b3480156200031357600080fd5b506200012a60043562000d90565b3480156200032e57600080fd5b506200012a62000d9f565b3480156200034657600080fd5b506200035d600160a060020a036004351662000dae565b60408051600160a060020a03909316835260208301919091528051918290030190f35b3480156200038d57600080fd5b50620001c9600160a060020a036004351660243562000dd3565b348015620003b457600080fd5b50620001e3600160a060020a036004351662000e8c565b348015620003d857600080fd5b50620001e362000f46565b348015620003f057600080fd5b50620001e3600160a060020a036004351662000f4c565b3480156200041457600080fd5b50620001c9600160a060020a036004351662000f73565b3480156200043857600080fd5b50620001c9600160a060020a036004351660243562000fbe565b600354600160a060020a031681565b60066020526000908152604090205460ff1681565b60008060008060058710158015620005285750600354604080517f70a08231000000000000000000000000000000000000000000000000000000008152600160a060020a03338116600483015291518a8c029392909216916370a08231916024808201926020929091908290030181600087803b158015620004f757600080fd5b505af11580156200050c573d6000803e3d6000fd5b505050506040513d60208110156200052357600080fd5b505110155b15156200053457600080fd5b338789888862000543620013e1565b600160a060020a039095168552602085019390935260408085019290925260608401526080830191909152519081900360a001906000f0801580156200058d573d6000803e3d6000fd5b50600160a060020a038082166000818152600660209081526040808320805460ff1916600117905560035481517f27234ecc000000000000000000000000000000000000000000000000000000008152338716600482015260248101959095528e8e02604486015230861660648601529051959850909316936327234ecc936084808501949193918390030190829087803b1580156200062c57600080fd5b505af115801562000641573d6000803e3d6000fd5b505050506040513d60208110156200065857600080fd5b505060048054604080517f9e45c8860000000000000000000000000000000000000000000000000000000081529051600160a060020a0390921692639e45c8869282820192602092908290030181600087803b158015620006b857600080fd5b505af1158015620006cd573d6000803e3d6000fd5b505050506040513d6020811015620006e457600080fd5b5051604080517fd965ea000000000000000000000000000000000000000000000000000000000081529051919350600160a060020a0384169163d965ea00916004808201926020929091908290030181600087803b1580156200074657600080fd5b505af11580156200075b573d6000803e3d6000fd5b505050506040513d60208110156200077257600080fd5b5051905060058702811015620008055782600160a060020a031663e6c5002082846040518363ffffffff1660e060020a0281526004018083815260200182600160a060020a0316600160a060020a0316815260200192505050600060405180830381600087803b158015620007e657600080fd5b505af1158015620007fb573d6000803e3d6000fd5b5050505062000893565b604080517f2fa4f694000000000000000000000000000000000000000000000000000000008152436004820152600160a060020a03308116602483015260058a026044830152915191851691632fa4f6949160648082019260009290919082900301818387803b1580156200087957600080fd5b505af11580156200088e573d6000803e3d6000fd5b505050505b506001979650505050505050565b60048054604080517fa51af4c50000000000000000000000000000000000000000000000000000000081529051600160a060020a033381169493169263a51af4c5928082019260209290918290030181600087803b1580156200090357600080fd5b505af115801562000918573d6000803e3d6000fd5b505050506040513d60208110156200092f57600080fd5b5051600160a060020a03161415620009bf5730600160a060020a031663fd63697583836040518363ffffffff1660e060020a0281526004018083600160a060020a0316600160a060020a0316815260200182815260200192505050600060405180830381600087803b158015620009a557600080fd5b505af1158015620009ba573d6000803e3d6000fd5b505050505b5050565b6000545b90565b6008805482908110620009d957fe5b600091825260209091200154600160a060020a0316905081565b60055481565b60008062000a073362000f4c565b1115620009c757600160a060020a033316600090815260096020526040902060010154151562000aa7575060088054600180820183557ff3f7a9fe364faab93b216da50a3214154f22a0a2b415b23a84c8169e8b636ee3909101805473ffffffffffffffffffffffffffffffffffffffff191633600160a060020a03169081179091559154600092835260096020526040909220810191909155620009c7565b62000ab2336200131a565b5090565b60018054604080516020600284861615610100026000190190941693909304601f8101849004840282018401909252818152929183018282801562000b3f5780601f1062000b135761010080835404028352916020019162000b3f565b820191906000526020600020905b81548152906001019060200180831162000b2157829003601f168201915b505050505081565b60025433600160a060020a0390811691161462000b6357600080fd5b600555565b60008060008060008060005b600854600110801562000b85575085155b1562000c7557600854604080517f655b08eb000000000000000000000000000000000000000000000000000000008152600481018b905260001990920160248301525173__Math__________________________________9163655b08eb916044808301926020929190829003018186803b15801562000c0457600080fd5b505af415801562000c19573d6000803e3d6000fd5b505050506040513d602081101562000c3057600080fd5b505160088054919450908490811062000c4557fe5b600091825260209091200154600160a060020a0316935062000c678462000f4c565b600190980197955062000b74565b600854600110801562000c86575084155b1562000d7857600854604080517f655b08eb00000000000000000000000000000000000000000000000000000000815260028b02600482015260001990920160248301525173__Math__________________________________9163655b08eb916044808301926020929190829003018186803b15801562000d0757600080fd5b505af415801562000d1c573d6000803e3d6000fd5b505050506040513d602081101562000d3357600080fd5b505160088054919350908390811062000d4857fe5b600091825260209091200154600160a060020a0316905062000d6a8162000f4c565b9450600a8801975062000c75565b8486111562000d85578396505b505050505050919050565b6000805482908110620009d957fe5b600254600160a060020a031681565b60096020526000908152604090208054600190910154600160a060020a039091169082565b600160a060020a03331660009081526006602052604090205460ff1615620009bf57600160a060020a03828116600081815260096020526040808220805473ffffffffffffffffffffffffffffffffffffffff191633861617905580517ffd63697500000000000000000000000000000000000000000000000000000000815260048101939093526024830185905251309093169263fd63697592604480820193929182900301818387803b158015620009a557600080fd5b6000805b600160a060020a03831660009081526009602052604090206002015481101562000f4057600160a060020a038316600090815260096020526040902060020180544291908390811062000edf57fe5b906000526020600020906002020160010154111562000f3757600160a060020a038316600090815260096020526040902060020180548290811062000f2057fe5b906000526020600020906002020160000154820191505b60010162000e90565b50919050565b60085490565b600062000f598262000e8c565b905080151562000f6e5762000f40826200131a565b919050565b60025433600160a060020a0390811691161462000f8f57600080fd5b6002805473ffffffffffffffffffffffffffffffffffffffff1916600160a060020a0392909216919091179055565b60048054604080517fc18e4679000000000000000000000000000000000000000000000000000000008152600160a060020a033381169482019490945290516000938493169163c18e467991602480830192602092919082900301818787803b1580156200102b57600080fd5b505af115801562001040573d6000803e3d6000fd5b505050506040513d60208110156200105757600080fd5b505115156200106557600080fd5b600160a060020a0384166000908152600960205260409020600101541515620010f45760088054600180820183557ff3f7a9fe364faab93b216da50a3214154f22a0a2b415b23a84c8169e8b636ee3909101805473ffffffffffffffffffffffffffffffffffffffff1916600160a060020a038816908117909155915460009283526009602052604090922001555b600160a060020a0380851660009081526009602090815260408083203390941683526003909301905290812054925082111562001196576040805180820182528481526005544201602080830191909152600160a060020a0387166000908152600990915291909120600201805460001985019081106200117157fe5b6000918252602091829020835160029092020190815591015160019091015562001200565b600160a060020a0380851660009081526009602090815260408083208151808301835288815260055442018185019081526002808401805460018181018355828a52888a209551919093029094019384559151920191909155543390951684526003019091529020555b5060005b600054811015620013145760006103e86007838154811015156200122457fe5b906000526020600020015485028115156200123b57fe5b0411156200130b5760008054829081106200125257fe5b60009182526020909120015460078054600160a060020a039092169163fd6369759187916103e89190869081106200128657fe5b906000526020600020015487028115156200129d57fe5b046040518363ffffffff1660e060020a0281526004018083600160a060020a0316600160a060020a0316815260200182815260200192505050600060405180830381600087803b158015620012f157600080fd5b505af115801562001306573d6000803e3d6000fd5b505050505b60010162001204565b50505050565b600160a060020a03811660009081526009602052604081206001015481811115620013d7576008805460001981019081106200135257fe5b60009182526020909120015460088054600160a060020a0390921691839081106200137957fe5b6000918252602080832091909101805473ffffffffffffffffffffffffffffffffffffffff1916600160a060020a039485161790559185168152600990915260408120600101556008805490620013d5906000198301620013f2565b505b5050600854919050565b604051612418806200143c83390190565b8154818355818111156200141957600083815260209020620014199181019083016200141e565b505050565b620009c791905b8082111562000ab2576000815560010162001425560060806040523480156200001157600080fd5b5060405160a08062002418833981016040818152825160208085015183860151606087015160809097015160008054600160a060020a031916600160a060020a038088169190911782556003805461010060a860020a031916610100338416810291909117918290557f1684ae4d000000000000000000000000000000000000000000000000000000008b529851979a95999498959793969590041693631684ae4d936004808201949293918390030190829087803b158015620000d457600080fd5b505af1158015620000e9573d6000803e3d6000fd5b505050506040513d60208110156200010057600080fd5b505160048054600160a060020a031916600160a060020a039092169190911790554281810160058190559083016006819055106200013a57fe5b600784905560088390556004805460008054604080517f76147a0e000000000000000000000000000000000000000000000000000000008152600160a060020a039283169581019590955260248501839052519216926376147a0e926044808301939282900301818387803b158015620001b357600080fd5b505af1158015620001c8573d6000803e3d6000fd5b50506000600a555050505050505061223280620001e66000396000f3006080604052600436106100f85763ffffffff60e060020a60003504166313faede681146100fd5780632ad1bc09146101245780632fa4f694146101925780633197cbb6146101b957806347c20ab7146101ce5780636732e966146101ff578063739d9dc11461021457806383017d4014610229578063949d225d146102825780639c6a1dfb14610297578063ae8421e1146102d0578063b90d3d0c146102e5578063bf1c69691461037b578063bfa0b1331461039c578063c2c4c5c1146103b1578063e1152343146103c6578063e6c50020146103de578063f14fcbc814610402578063f571da7f1461041a578063fadf617b1461042f575b600080fd5b34801561010957600080fd5b50610112610490565b60408051918252519081900360200190f35b34801561013057600080fd5b5060408051602060046024803582810135601f8101859004850286018501909652858552610190958335600f0b95369560449491939091019190819084018382808284375094975050509235600160a060020a0316935061049692505050565b005b34801561019e57600080fd5b50610190600435600160a060020a0360243516604435610632565b3480156101c557600080fd5b5061011261096d565b3480156101da57600080fd5b506101e3610973565b60408051600160a060020a039092168252519081900360200190f35b34801561020b57600080fd5b506101e3610982565b34801561022057600080fd5b50610112610996565b34801561023557600080fd5b506040805160206004803580820135601f810184900484028501840190955284845261019094369492936024939284019190819084018382808284375094975061099c9650505050505050565b34801561028e57600080fd5b50610112610bf9565b3480156102a357600080fd5b506102ac610bff565b604051808260058111156102bc57fe5b60ff16815260200191505060405180910390f35b3480156102dc57600080fd5b50610112610c08565b3480156102f157600080fd5b50610306600160a060020a0360043516610c0e565b6040805160208082528351818301528351919283929083019185019080838360005b83811015610340578181015183820152602001610328565b50505050905090810190601f16801561036d5780820380516001836020036101000a031916815260200191505b509250505060405180910390f35b34801561038757600080fd5b506102ac600160a060020a0360043516610ca9565b3480156103a857600080fd5b50610112610cbe565b3480156103bd57600080fd5b50610112610cc4565b3480156103d257600080fd5b50610190600435610cca565b3480156103ea57600080fd5b50610190600435600160a060020a0360243516611249565b34801561040e57600080fd5b50610190600435611316565b34801561042657600080fd5b506101906113e7565b34801561043b57600080fd5b5060408051602060046024803582810135601f8101859004850286018501909652858552610190958335600f0b9536956044949193909101919081908401838280828437509497506116889650505050505050565b60085481565b6003600160a060020a03821660009081526002602052604090205460ff1660058111156104bf57fe5b141561062d5782826040518083600f0b600f0b70010000000000000000000000000000000002815260100182805190602001908083835b602083106105155780518252601f1990920191602091820191016104f6565b51815160209384036101000a60001901801990921691161790526040805192909401829003909120600160a060020a038816600090815260099092529290205490911415935061062d9250505057600454600854600160a060020a039091169063a9059cbb903390600290046040518363ffffffff1660e060020a0281526004018083600160a060020a0316600160a060020a0316815260200182815260200192505050602060405180830381600087803b1580156105d357600080fd5b505af11580156105e7573d6000803e3d6000fd5b505050506040513d60208110156105fd57600080fd5b5050600160a060020a0381166000908152600260205260409020805460ff19166005179055600780546000190190555b505050565b6000806000806000806000600360019054906101000a9004600160a060020a0316600160a060020a031633600160a060020a031614151561067257600080fd5b6000965088600160a060020a031663d965ea006040518163ffffffff1660e060020a028152600401602060405180830381600087803b1580156106b457600080fd5b505af11580156106c8573d6000803e3d6000fd5b505050506040513d60208110156106de57600080fd5b505195506002860488116106f257876106f7565b600286045b9450600093505b848410156107b25788600160a060020a03166385b2ff8f858c016040518263ffffffff1660e060020a02815260040180828152602001915050602060405180830381600087803b15801561075157600080fd5b505af1158015610765573d6000803e3d6000fd5b505050506040513d602081101561077b57600080fd5b50519250600160a060020a0383161580159061079b575061079b83611898565b156107a7576001909601955b6001909301926106fe565b86880391506000821115610954575060005b88600160a060020a031663449a058d6040518163ffffffff1660e060020a028152600401602060405180830381600087803b15801561080257600080fd5b505af1158015610816573d6000803e3d6000fd5b505050506040513d602081101561082c57600080fd5b50518110156109545761094c81888c01018a600160a060020a031663898572a6846040518263ffffffff1660e060020a02815260040180828152602001915050602060405180830381600087803b15801561088657600080fd5b505af115801561089a573d6000803e3d6000fd5b505050506040513d60208110156108b057600080fd5b5051604080517f449a058d0000000000000000000000000000000000000000000000000000000081529051600160a060020a038e169163449a058d9160048083019260209291908290030181600087803b15801561090d57600080fd5b505af1158015610921573d6000803e3d6000fd5b505050506040513d602081101561093757600080fd5b50518581151561094357fe5b04600101610632565b6001016107c4565b50506003805460ff191660011790555050505050505050565b60055481565b600054600160a060020a031681565b6003546101009004600160a060020a031681565b600c5481565b60005460609033600160a060020a03908116911614806109e257506001600160a060020a03331660009081526002602052604090205460ff1660058111156109e057fe5b115b15156109ed57600080fd5b6003805460ff1660058111156109ff57fe5b10610a0957600080fd5b600160a060020a0333166000908152600e602090815260409182902080548351601f600260001961010060018616150201909316929092049182018490048402810184019094528084529091830182828015610aa65780601f10610a7b57610100808354040283529160200191610aa6565b820191906000526020600020905b815481529060010190602001808311610a8957829003601f168201915b505050600160a060020a0333166000908152600e602090815260409091208651949550610ada94909350908601915061216b565b507faadcd29446d57df33a9b095602a5f78d2578d4fd35b92ebb712fbf7e874893193382846040518084600160a060020a0316600160a060020a031681526020018060200180602001838103835285818151815260200191508051906020019080838360005b83811015610b58578181015183820152602001610b40565b50505050905090810190601f168015610b855780820380516001836020036101000a031916815260200191505b50838103825284518152845160209182019186019080838360005b83811015610bb8578181015183820152602001610ba0565b50505050905090810190601f168015610be55780820380516001836020036101000a031916815260200191505b509550505050505060405180910390a15050565b60075481565b60035460ff1681565b600a5481565b600e6020908152600091825260409182902080548351601f600260001961010060018616150201909316929092049182018490048402810184019094528084529091830182828015610ca15780601f10610c7657610100808354040283529160200191610ca1565b820191906000526020600020905b815481529060010190602001808311610c8457829003601f168201915b505050505081565b60026020526000908152604090205460ff1681565b600d5481565b60065481565b60006060808280808060048060035460ff166005811115610ce757fe5b14610cf157600080fd5b60015460408051828152602080840282010190915260009950908015610d21578160200160208202803883390190505b506001546040805182815260208084028201019091529198508015610d50578160200160208202803883390190505b509550600094505b60015485101561109d57600460026000600188815481101515610d7757fe5b6000918252602080832090910154600160a060020a0316835282019290925260400190205460ff166005811115610daa57fe5b14156110925773__Math__________________________________634c619e4c73__Math__________________________________631b5ac4b5600c54600b600060018c815481101515610dfa57fe5b6000918252602080832090910154600160a060020a03168352828101939093526040918201902054815160e060020a63ffffffff8716028152600f91820b90910b93909303600484015251602480840193829003018186803b158015610e5f57600080fd5b505af4158015610e73573d6000803e3d6000fd5b505050506040513d6020811015610e8957600080fd5b50516008546040805160e060020a63ffffffff8616028152600481019390935260248301919091528051604480840193829003018186803b158015610ecd57600080fd5b505af4158015610ee1573d6000803e3d6000fd5b505050506040513d6040811015610ef757600080fd5b50805160209091015190945092508215611058578360085403880197506000841115610fc55760045460018054600160a060020a039092169163a9059cbb919088908110610f4157fe5b60009182526020808320909101546040805160e060020a63ffffffff8716028152600160a060020a039092166004830152602482018a90525160448083019491928390030190829087803b158015610f9857600080fd5b505af1158015610fac573d6000803e3d6000fd5b505050506040513d6020811015610fc257600080fd5b50505b60045460018054600160a060020a03909216916376147a0e919088908110610fe957fe5b60009182526020822001546040805160e060020a63ffffffff8616028152600160a060020a03909216600483015260066024830152516044808301939282900301818387803b15801561103b57600080fd5b505af115801561104f573d6000803e3d6000fd5b50505050611092565b6001878681518110151561106857fe5b9115156020928302909101909101528551849087908790811061108757fe5b602090810290910101525b600190940193610d58565b600091505b855182101561123e5786828151811015156110b957fe5b90602001906020020151156112335760045460018054600160a060020a039092169163a9059cbb9190859081106110ec57fe5b600091825260209091200154600160a060020a03168b8b81151561110c57fe5b04898681518110151561111b57fe5b90602001906020020151016040518363ffffffff1660e060020a0281526004018083600160a060020a0316600160a060020a0316815260200182815260200192505050602060405180830381600087803b15801561117857600080fd5b505af115801561118c573d6000803e3d6000fd5b505050506040513d60208110156111a257600080fd5b505060045460018054600160a060020a03909216916376147a0e9190859081106111c857fe5b60009182526020822001546040805160e060020a63ffffffff8616028152600160a060020a03909216600483015260066024830152516044808301939282900301818387803b15801561121a57600080fd5b505af115801561122e573d6000803e3d6000fd5b505050505b6001909101906110a2565b505050505050505050565b600354600090819033600160a060020a03908116610100909204161461126e57600080fd5b5081905060005b83811015611303576112fa82600160a060020a0316635daf08ca836040518263ffffffff1660e060020a02815260040180828152602001915050602060405180830381600087803b1580156112c957600080fd5b505af11580156112dd573d6000803e3d6000fd5b505050506040513d60208110156112f357600080fd5b5051611898565b50600101611275565b50506003805460ff191660011790555050565b60028060035460ff16600581111561132a57fe5b1461133457600080fd5b600554421115611348576113486002611982565b6002600160a060020a03331660009081526002602052604090205460ff16600581111561137157fe5b14156113b15733600160a060020a0316600090815260096020908152604080832085905560029091529020805460ff19166003179055600a805460010190555b600754600a5414156113e35761a8c042016006556113d160036005611a5f565b6000600a556003805460ff1916811790555b5050565b60018060035460ff1660058111156113fb57fe5b1461140557600080fd5b60065442111561141c57611417611b50565b611685565b6001600160a060020a03331660009081526002602052604090205460ff16600581111561144557fe5b1480156114555750600754600154105b8015611517575060048054600854600354604080517f27234ecc000000000000000000000000000000000000000000000000000000008152600160a060020a033381169682019690965230861660248201526044810193909352610100909104841660648301525192909116916327234ecc916084808201926020929091908290030181600087803b1580156114ea57600080fd5b505af11580156114fe573d6000803e3d6000fd5b505050506040513d602081101561151457600080fd5b50515b156115f157600180548082019091557fb10e2d527612073b26eecdfd717e6a320cf44b4afac2b0732d9fcbe2b7fa0cf6018054600160a060020a0333811673ffffffffffffffffffffffffffffffffffffffff1990921682179092556000818152600260208190526040808320805460ff19168317905560048054825160e160020a633b0a3d070281529182019590955260248101929092525192909316926376147a0e926044808301939282900301818387803b1580156115d857600080fd5b505af11580156115ec573d6000803e3d6000fd5b505050505b60075460015414156116855761160960026004611a5f565b60048054600080546040805160e160020a633b0a3d07028152600160a060020a03928316818701526024810195909552519216926376147a0e926044808301939282900301818387803b15801561165f57600080fd5b505af1158015611673573d6000803e3d6000fd5b50506003805460ff1916600217905550505b50565b60038060035460ff16600581111561169c57fe5b146116a657600080fd5b60065442116116b457600080fd5b60055462015180014211156116cd576116cd6003611982565b6003600160a060020a03331660009081526002602052604090205460ff1660058111156116f657fe5b148015611797575082826040518083600f0b600f0b70010000000000000000000000000000000002815260100182805190602001908083835b6020831061174e5780518252601f19909201916020918201910161172f565b51815160209384036101000a6000190180199092169116179052604080519290940182900390912033600160a060020a0316600090815260099092529290205490911493505050505b156118775733600160a060020a03166000908152600b602090815260409182902080546fffffffffffffffffffffffffffffffff19166fffffffffffffffffffffffffffffffff600f88900b161790559051835184928291908401908083835b602083106118165780518252601f1990920191602091820191016117f7565b51815160001960209485036101000a0190811690199091161790526040805194909201849003909320600d80549091189055600160a060020a03331660009081526002909352909120805460ff191660041790555050600a80546001019055505b600754600a54141561062d576003805460ff1916600417905561062d611e44565b60008054600160a060020a038381169116148015906118db5750600160a060020a03821660009081526002602052604081205460ff1660058111156118d957fe5b145b1561197d57600480546040805160e160020a633b0a3d07028152600160a060020a038681169482019490945260016024820152905192909116916376147a0e9160448082019260009290919082900301818387803b15801561193c57600080fd5b505af1158015611950573d6000803e3d6000fd5b50505050600160a060020a0382166000908152600260205260409020805460ff1916600190811790915590505b919050565b60005b600154811015611a4c5781600581111561199b57fe5b600260006001848154811015156119ae57fe5b6000918252602080832090910154600160a060020a0316835282019290925260400190205460ff1660058111156119e157fe5b1415611a44576005600260006001848154811015156119fc57fe5b6000918252602080832090910154600160a060020a031683528201929092526040019020805460ff19166001836005811115611a3457fe5b0217905550600780546000190190555b600101611985565b600560075410156113e3576113e3611b50565b60005b60015481101561062d578260026000600184815481101515611a8057fe5b6000918252602080832090910154600160a060020a0316835282019290925260400190205460ff166005811115611ab357fe5b1415611b485760045460018054600160a060020a03909216916376147a0e919084908110611add57fe5b60009182526020822001546040805160e060020a63ffffffff8616028152600160a060020a03909216600483015260248201879052516044808301939282900301818387803b158015611b2f57600080fd5b505af1158015611b43573d6000803e3d6000fd5b505050505b600101611a62565b600080600160035460ff166005811115611b6657fe5b14611b775760015460085402611b7f565b600754600854025b6004805460008054604080517fa9059cbb000000000000000000000000000000000000000000000000000000008152600160a060020a039283169581019590955260248501869052519496509091169263a9059cbb926044808201936020939283900390910190829087803b158015611bf757600080fd5b505af1158015611c0b573d6000803e3d6000fd5b505050506040513d6020811015611c2157600080fd5b505060048054600080546040805160e160020a633b0a3d07028152600160a060020a039283169581019590955260036024860152519216926376147a0e926044808301939282900301818387803b158015611c7b57600080fd5b505af1158015611c8f573d6000803e3d6000fd5b50505050600090505b600154811015611e3157600560026000600184815481101515611cb757fe5b6000918252602080832090910154600160a060020a0316835282019290925260400190205460ff166005811115611cea57fe5b14611e295760045460018054600160a060020a039092169163a9059cbb919084908110611d1357fe5b60009182526020808320909101546008546040805160e060020a63ffffffff8816028152600160a060020a03909316600484015260248301919091525160448083019491928390030190829087803b158015611d6e57600080fd5b505af1158015611d82573d6000803e3d6000fd5b505050506040513d6020811015611d9857600080fd5b505060045460018054600160a060020a03909216916376147a0e919084908110611dbe57fe5b60009182526020822001546040805160e060020a63ffffffff8616028152600160a060020a03909216600483015260036024830152516044808301939282900301818387803b158015611e1057600080fd5b505af1158015611e24573d6000803e3d6000fd5b505050505b600101611c98565b6003546101009004600160a060020a0316ff5b60606000808060048060035460ff166005811115611e5e57fe5b14611e6857600080fd5b600a54604051908082528060200260200182016040528015611e94578160200160208202803883390190505b50945060009350600092505b600154831015611f6357600460026000600186815481101515611ebf57fe5b6000918252602080832090910154600160a060020a0316835282019290925260400190205460ff166005811115611ef257fe5b1415611f5857600b6000600185815481101515611f0b57fe5b6000918252602080832090910154600160a060020a031683528201929092526040019020548551600f91820b90910b90869086908110611f4757fe5b602090810290910101526001909301925b600190920191611ea0565b6040517f140a7ac600000000000000000000000000000000000000000000000000000000815260206004820181815287516024840152875173__Math__________________________________9363140a7ac6938a9392839260440191808601910280838360005b83811015611fe3578181015183820152602001611fcb565b5050505090500192505050604080518083038186803b15801561200557600080fd5b505af4158015612019573d6000803e3d6000fd5b505050506040513d604081101561202f57600080fd5b508051602090910151600c91909155600a54909250600290048211156120f95761205882610cca565b6000600c5413156120f45760035460008054600c54604080517f98041ea3000000000000000000000000000000000000000000000000000000008152600160a060020a039384166004820152918702602483015251610100909404909116926398041ea39260448084019391929182900301818387803b1580156120db57600080fd5b505af11580156120ef573d6000803e3d6000fd5b505050505b6120ff565b6000600c555b60048054600080546040805160e160020a633b0a3d07028152600160a060020a039283169581019590955260076024860152519216926376147a0e926044808301939282900301818387803b15801561215757600080fd5b505af115801561123e573d6000803e3d6000fd5b828054600181600116156101000203166002900490600052602060002090601f016020900481019282601f106121ac57805160ff19168380011785556121d9565b828001600101855582156121d9579182015b828111156121d95782518255916020019190600101906121be565b506121e59291506121e9565b5090565b61220391905b808211156121e557600081556001016121ef565b905600a165627a7a7230582077a01dac64fa016c6b0eee163a5a64c1142de6480612dac9a8692007a73aa7120029a165627a7a7230582021e991ec86245f1de061797fa5fa9efa72d08773e1cb5503d65bb406321913ac0029a165627a7a72305820e9686114067043086acc7891e3f56f8b079b68f134e2c16f0e0de89d63968b7d0029",
  "source": "pragma solidity ^0.4.11;\n\nimport \"./Concept.sol\";\n\n//@purpose: To create and store the concept ontology\ncontract ConceptRegistry {\n    mapping (address => bool) public conceptExists;\n    address public fathomToken;\n    bool initialized = false;\n    address public mewAddress; //a manually created contract with no parents\n    address public distributorAddress; //a manually created contract with no parents\n\n    event ConceptCreation (address _concept);\n\n    //@purpose: give this contract the address of a UserRegistry and mew Concept\n    function init(address _token, address _distributor) public {\n        if (initialized == false) {\n            fathomToken = _token;\n            distributorAddress = _distributor;\n            Concept mew = new Concept(new address[] (0), new uint[] (0), uint(2**255), \"\", address(0x0));\n            mewAddress = address(mew);\n            conceptExists[mewAddress] = true;\n            initialized = true;\n        }\n    }\n\n    /*\n      @purpose: To make a concept\n      @param: address[] parentList = an array of addresses containing the addresses of the concepts parents\n    */\n    function makeConcept(address[] parentList, uint[] _propagationRates, uint _lifetime, bytes _data, address _owner) public returns (address){\n        require(parentList.length > 0);\n        Concept newConcept = new Concept(parentList, _propagationRates, _lifetime, _data, _owner);\n\n        conceptExists[address(newConcept)] = true;\n        emit ConceptCreation(address(newConcept));\n        return address(newConcept);\n    }\n}\n",
  "sourcePath": "/home/djuju/ethereum/fathom/assess/contracts/ConceptRegistry.sol",
  "compiler": {
    "name": "solc",
    "version": "0.4.23+commit.124ca40d.Emscripten.clang"
  },
  "schemaVersion": "2.0.0",
  "updatedAt": "2018-06-07T20:04:40.152Z"
}