{
  "contractName": "Constants",
  "abi": [
    {
      "constant": true,
      "inputs": [],
      "name": "MIN_ASSESSMENT_SIZE",
      "outputs": [
        {
          "name": "",
          "type": "uint256"
        }
      ],
      "payable": false,
      "stateMutability": "view",
      "type": "function"
    },
    {
      "constant": true,
      "inputs": [],
      "name": "CHALLENGE_COMMIT_PERIOD",
      "outputs": [
        {
          "name": "",
          "type": "uint256"
        }
      ],
      "payable": false,
      "stateMutability": "view",
      "type": "function"
    },
    {
      "constant": true,
      "inputs": [],
      "name": "ASSESSORPOOL_SIZE_FACTOR",
      "outputs": [
        {
          "name": "",
          "type": "uint256"
        }
      ],
      "payable": false,
      "stateMutability": "view",
      "type": "function"
    },
    {
      "inputs": [
        {
          "name": "_minSize",
          "type": "uint256"
        },
        {
          "name": "_challengePeriod",
          "type": "uint256"
        },
        {
          "name": "_assessorpoolSize",
          "type": "uint256"
        }
      ],
      "payable": false,
      "stateMutability": "nonpayable",
      "type": "constructor"
    },
    {
      "constant": false,
      "inputs": [
        {
          "name": "newSize",
          "type": "uint256"
        }
      ],
      "name": "setMinAssessmentSize",
      "outputs": [],
      "payable": false,
      "stateMutability": "nonpayable",
      "type": "function"
    },
    {
      "constant": false,
      "inputs": [
        {
          "name": "newTime",
          "type": "uint256"
        }
      ],
      "name": "setChallengeCommitPeriod",
      "outputs": [],
      "payable": false,
      "stateMutability": "nonpayable",
      "type": "function"
    },
    {
      "constant": false,
      "inputs": [
        {
          "name": "newFactor",
          "type": "uint256"
        }
      ],
      "name": "setAssessorpoolSizeFactor",
      "outputs": [],
      "payable": false,
      "stateMutability": "nonpayable",
      "type": "function"
    }
  ],
  "bytecode": "0x608060405234801561001057600080fd5b506040516060806101ae8339810160409081528151602083015191909201516000929092556001556002556101648061004a6000396000f3006080604052600436106100775763ffffffff7c01000000000000000000000000000000000000000000000000000000006000350416630ea24e54811461007c5780631f748954146100a3578063213bdfb8146100b85780633ba30806146100d257806345f2ac3b146100e7578063ec118074146100ff575b600080fd5b34801561008857600080fd5b50610091610117565b60408051918252519081900360200190f35b3480156100af57600080fd5b5061009161011d565b3480156100c457600080fd5b506100d0600435610123565b005b3480156100de57600080fd5b50610091610128565b3480156100f357600080fd5b506100d060043561012e565b34801561010b57600080fd5b506100d0600435610133565b60005481565b60015481565b600155565b60025481565b600055565b6002555600a165627a7a7230582093d60b2ff00582feee4a47a26b22ca6965e8041866edf1a94ba7b1cddd9c24f40029",
  "source": "pragma solidity ^0.4.18;\n\n/*\n  @type: contract\n  @name: Constants\n  @purpose: To ease development-cyles and testing, all constants will be loaded\n  from this contract, so that we can change them to our needs. NOTE: This is not\n  supposed to be part of the final contract-design, but specifically for testing\n  purposes\n*/\n\ncontract Constants {\n  uint public MIN_ASSESSMENT_SIZE; // 5\n  uint public CHALLENGE_COMMIT_PERIOD; // 12 hours\n  uint public ASSESSORPOOL_SIZE_FACTOR;  // originally 5\n\n  function Constants(uint _minSize, uint _challengePeriod, uint _assessorpoolSize) public {\n    MIN_ASSESSMENT_SIZE = _minSize;\n    CHALLENGE_COMMIT_PERIOD = _challengePeriod;\n    ASSESSORPOOL_SIZE_FACTOR = _assessorpoolSize;\n  }\n\n  function setMinAssessmentSize(uint newSize) public {\n    MIN_ASSESSMENT_SIZE = newSize;\n  }\n\n  function setChallengeCommitPeriod(uint newTime) public {\n    CHALLENGE_COMMIT_PERIOD = newTime;\n  }\n\n  function setAssessorpoolSizeFactor(uint newFactor) public {\n    ASSESSORPOOL_SIZE_FACTOR = newFactor;\n  }\n\n}\n",
  "sourcePath": "/home/djuju/ethereum/fathom/assess/contracts/Constants.sol",
  "compiler": {
    "name": "solc",
    "version": "0.4.23+commit.124ca40d.Emscripten.clang"
  },
  "schemaVersion": "2.0.0",
  "updatedAt": "2018-06-07T19:03:08.558Z"
}