{
  "contractName": "Concept",
  "abi": [
    {
      "constant": true,
      "inputs": [],
      "name": "fathomToken",
      "outputs": [
        {
          "name": "",
          "type": "address"
        }
      ],
      "payable": false,
      "stateMutability": "view",
      "type": "function"
    },
    {
      "constant": true,
      "inputs": [
        {
          "name": "",
          "type": "address"
        }
      ],
      "name": "assessmentExists",
      "outputs": [
        {
          "name": "",
          "type": "bool"
        }
      ],
      "payable": false,
      "stateMutability": "view",
      "type": "function"
    },
    {
      "constant": true,
      "inputs": [
        {
          "name": "",
          "type": "uint256"
        }
      ],
      "name": "members",
      "outputs": [
        {
          "name": "",
          "type": "address"
        }
      ],
      "payable": false,
      "stateMutability": "view",
      "type": "function"
    },
    {
      "constant": true,
      "inputs": [],
      "name": "lifetime",
      "outputs": [
        {
          "name": "",
          "type": "uint256"
        }
      ],
      "payable": false,
      "stateMutability": "view",
      "type": "function"
    },
    {
      "constant": true,
      "inputs": [],
      "name": "constants",
      "outputs": [
        {
          "name": "",
          "type": "address"
        }
      ],
      "payable": false,
      "stateMutability": "view",
      "type": "function"
    },
    {
      "constant": true,
      "inputs": [],
      "name": "data",
      "outputs": [
        {
          "name": "",
          "type": "bytes"
        }
      ],
      "payable": false,
      "stateMutability": "view",
      "type": "function"
    },
    {
      "constant": true,
      "inputs": [
        {
          "name": "",
          "type": "uint256"
        }
      ],
      "name": "parents",
      "outputs": [
        {
          "name": "",
          "type": "address"
        }
      ],
      "payable": false,
      "stateMutability": "view",
      "type": "function"
    },
    {
      "constant": true,
      "inputs": [],
      "name": "owner",
      "outputs": [
        {
          "name": "",
          "type": "address"
        }
      ],
      "payable": false,
      "stateMutability": "view",
      "type": "function"
    },
    {
      "constant": true,
      "inputs": [
        {
          "name": "",
          "type": "address"
        }
      ],
      "name": "memberData",
      "outputs": [
        {
          "name": "recentAssessment",
          "type": "address"
        },
        {
          "name": "index",
          "type": "uint256"
        }
      ],
      "payable": false,
      "stateMutability": "view",
      "type": "function"
    },
    {
      "inputs": [
        {
          "name": "_parents",
          "type": "address[]"
        },
        {
          "name": "_propagationRates",
          "type": "uint256[]"
        },
        {
          "name": "_lifetime",
          "type": "uint256"
        },
        {
          "name": "_data",
          "type": "bytes"
        },
        {
          "name": "_owner",
          "type": "address"
        }
      ],
      "payable": false,
      "stateMutability": "nonpayable",
      "type": "constructor"
    },
    {
      "constant": false,
      "inputs": [
        {
          "name": "_newOwner",
          "type": "address"
        }
      ],
      "name": "transferOwnership",
      "outputs": [],
      "payable": false,
      "stateMutability": "nonpayable",
      "type": "function"
    },
    {
      "constant": false,
      "inputs": [
        {
          "name": "_newLifetime",
          "type": "uint256"
        }
      ],
      "name": "changeLifetime",
      "outputs": [],
      "payable": false,
      "stateMutability": "nonpayable",
      "type": "function"
    },
    {
      "constant": true,
      "inputs": [],
      "name": "getMemberLength",
      "outputs": [
        {
          "name": "",
          "type": "uint256"
        }
      ],
      "payable": false,
      "stateMutability": "view",
      "type": "function"
    },
    {
      "constant": true,
      "inputs": [],
      "name": "getParentsLength",
      "outputs": [
        {
          "name": "",
          "type": "uint256"
        }
      ],
      "payable": false,
      "stateMutability": "view",
      "type": "function"
    },
    {
      "constant": false,
      "inputs": [
        {
          "name": "_user",
          "type": "address"
        },
        {
          "name": "_weight",
          "type": "uint256"
        }
      ],
      "name": "addInitialMember",
      "outputs": [],
      "payable": false,
      "stateMutability": "nonpayable",
      "type": "function"
    },
    {
      "constant": false,
      "inputs": [],
      "name": "toggleAvailability",
      "outputs": [
        {
          "name": "success",
          "type": "bool"
        }
      ],
      "payable": false,
      "stateMutability": "nonpayable",
      "type": "function"
    },
    {
      "constant": false,
      "inputs": [
        {
          "name": "seed",
          "type": "uint256"
        }
      ],
      "name": "getWeightedRandomMember",
      "outputs": [
        {
          "name": "",
          "type": "address"
        }
      ],
      "payable": false,
      "stateMutability": "nonpayable",
      "type": "function"
    },
    {
      "constant": true,
      "inputs": [
        {
          "name": "_member",
          "type": "address"
        }
      ],
      "name": "getWeight",
      "outputs": [
        {
          "name": "weight",
          "type": "uint256"
        }
      ],
      "payable": false,
      "stateMutability": "view",
      "type": "function"
    },
    {
      "constant": false,
      "inputs": [
        {
          "name": "_member",
          "type": "address"
        }
      ],
      "name": "getWeightAndUpdate",
      "outputs": [
        {
          "name": "weight",
          "type": "uint256"
        }
      ],
      "payable": false,
      "stateMutability": "nonpayable",
      "type": "function"
    },
    {
      "constant": false,
      "inputs": [
        {
          "name": "cost",
          "type": "uint256"
        },
        {
          "name": "size",
          "type": "uint256"
        },
        {
          "name": "_waitTime",
          "type": "uint256"
        },
        {
          "name": "_timeLimit",
          "type": "uint256"
        }
      ],
      "name": "makeAssessment",
      "outputs": [
        {
          "name": "",
          "type": "bool"
        }
      ],
      "payable": false,
      "stateMutability": "nonpayable",
      "type": "function"
    },
    {
      "constant": false,
      "inputs": [
        {
          "name": "_assessee",
          "type": "address"
        },
        {
          "name": "_weight",
          "type": "uint256"
        }
      ],
      "name": "addMember",
      "outputs": [],
      "payable": false,
      "stateMutability": "nonpayable",
      "type": "function"
    },
    {
      "constant": false,
      "inputs": [
        {
          "name": "_assessee",
          "type": "address"
        },
        {
          "name": "_weight",
          "type": "uint256"
        }
      ],
      "name": "addWeight",
      "outputs": [],
      "payable": false,
      "stateMutability": "nonpayable",
      "type": "function"
    }
  ],
  "bytecode": "0x606060405234156200001057600080fd5b6040516200396038038062003960833981016040528080518201919060200180518201919060200180519190602001805182019190602001805191506000905084518651146200005f57600080fd5b5060048054600160a060020a03191633600160a060020a031617905560005b85518110156200016757600454600160a060020a031663c18e4679878381518110620000a657fe5b906020019060200201516000604051602001526040517c010000000000000000000000000000000000000000000000000000000063ffffffff8416028152600160a060020a039091166004820152602401602060405180830381600087803b15156200011157600080fd5b6102c65a03f115156200012357600080fd5b5050506040518051905015156200013957600080fd5b6103e88582815181106200014957fe5b90602001906020020151106200015e57600080fd5b6001016200007e565b60088580516200017c92916020019062000302565b5060008680516200019292916020019062000352565b506001838051620001a8929160200190620003ba565b50600684905560028054600160a060020a031916600160a060020a038481169190911790915560045416631684ae4d6000604051602001526040518163ffffffff167c0100000000000000000000000000000000000000000000000000000000028152600401602060405180830381600087803b15156200022857600080fd5b6102c65a03f115156200023a57600080fd5b505050604051805160038054600160a060020a031916600160a060020a039283161790556004541690506372de5b2f6000604051602001526040518163ffffffff167c0100000000000000000000000000000000000000000000000000000000028152600401602060405180830381600087803b1515620002ba57600080fd5b6102c65a03f11515620002cc57600080fd5b505050604051805160058054600160a060020a031916600160a060020a0392909216919091179055506200047395505050505050565b82805482825590600052602060002090810192821562000340579160200282015b828111156200034057825182559160200191906001019062000323565b506200034e9291506200042c565b5090565b828054828255906000526020600020908101928215620003ac579160200282015b82811115620003ac5782518254600160a060020a031916600160a060020a03919091161782556020929092019160019091019062000373565b506200034e9291506200044c565b828054600181600116156101000203166002900490600052602060002090601f016020900481019282601f10620003fd57805160ff191683800117855562000340565b828001600101855582156200034057918201828111156200034057825182559160200191906001019062000323565b6200044991905b808211156200034e576000815560010162000433565b90565b6200044991905b808211156200034e578054600160a060020a031916815560010162000453565b6134dd80620004836000396000f300606060405260043610620001195763ffffffff60e060020a6000350416631684ae4d81146200011e57806321d39c2c146200015057806335a0729114620001865780633f99fa5414620001a8578063449a058d14620001cf5780635daf08ca14620001f757806369d24f63146200021057806370a2b84a146200022657806372de5b2f146200023c57806373d4a13a1462000252578063824989c314620002e257806385b2ff8f14620002fb578063898572a614620003145780638da5cb5b146200032d5780639107d08e146200034357806398041ea31462000387578063ac6c525114620003ac578063d965ea0014620003ce578063de0d080214620003e4578063f2fde38b1462000406578063fd6369751462000428575b600080fd5b34156200012a57600080fd5b620001346200044d565b604051600160a060020a03909116815260200160405180910390f35b34156200015c57600080fd5b62000172600160a060020a03600435166200045c565b604051901515815260200160405180910390f35b34156200019257600080fd5b6200017260043560243560443560643562000471565b3415620001b457600080fd5b620001cd600160a060020a036004351660243562000910565b005b3415620001db57600080fd5b620001e5620009f8565b60405190815260200160405180910390f35b34156200020357600080fd5b62000134600435620009ff565b34156200021c57600080fd5b620001e562000a28565b34156200023257600080fd5b6200017262000a2e565b34156200024857600080fd5b6200013462000ae2565b34156200025e57600080fd5b6200026862000af1565b60405160208082528190810183818151815260200191508051906020019080838360005b83811015620002a65780820151838201526020016200028c565b50505050905090810190601f168015620002d45780820380516001836020036101000a031916815260200191505b509250505060405180910390f35b3415620002ee57600080fd5b620001cd60043562000b93565b34156200030757600080fd5b6200013460043562000bb4565b34156200032057600080fd5b6200013460043562000d95565b34156200033957600080fd5b6200013462000da4565b34156200034f57600080fd5b62000365600160a060020a036004351662000db3565b604051600160a060020a03909216825260208201526040908101905180910390f35b34156200039357600080fd5b620001cd600160a060020a036004351660243562000dd8565b3415620003b857600080fd5b620001e5600160a060020a036004351662000e85565b3415620003da57600080fd5b620001e562000f3f565b3415620003f057600080fd5b620001e5600160a060020a036004351662000f45565b34156200041257600080fd5b620001cd600160a060020a036004351662000f6c565b34156200043457600080fd5b620001cd600160a060020a036004351660243562000fb7565b600354600160a060020a031681565b60076020526000908152604090205460ff1681565b600554600090819081908190600160a060020a0316630ea24e5482604051602001526040518163ffffffff1660e060020a028152600401602060405180830381600087803b1515620004c257600080fd5b6102c65a03f11515620004d457600080fd5b505050604051805188108015915062000565575060035488880290600160a060020a03166370a082313360006040516020015260405160e060020a63ffffffff8416028152600160a060020a039091166004820152602401602060405180830381600087803b15156200054657600080fd5b6102c65a03f115156200055857600080fd5b5050506040518051905010155b15156200057157600080fd5b338789888862000580620013ce565b600160a060020a03909516855260208501939093526040808501929092526060840152608083019190915260a09091019051809103906000f0801515620005c657600080fd5b600160a060020a03808216600090815260076020526040808220805460ff1916600117905560035493965092909116916327234ecc91339187918d8d0291309190516020015260405160e060020a63ffffffff8716028152600160a060020a039485166004820152928416602484015260448301919091529091166064820152608401602060405180830381600087803b15156200066357600080fd5b6102c65a03f115156200067557600080fd5b50505060405180515050600454600160a060020a0316639e45c8866000604051602001526040518163ffffffff1660e060020a028152600401602060405180830381600087803b1515620006c857600080fd5b6102c65a03f11515620006da57600080fd5b5050506040518051925050600160a060020a03821663d965ea006000604051602001526040518163ffffffff1660e060020a028152600401602060405180830381600087803b15156200072c57600080fd5b6102c65a03f115156200073e57600080fd5b5050506040518051600554909250600160a060020a03169050633ba308066000604051602001526040518163ffffffff1660e060020a028152600401602060405180830381600087803b15156200079457600080fd5b6102c65a03f11515620007a657600080fd5b5050506040518051905087028110156200082b5782600160a060020a031663e6c50020828460405160e060020a63ffffffff85160281526004810192909252600160a060020a03166024820152604401600060405180830381600087803b15156200081057600080fd5b6102c65a03f115156200082257600080fd5b50505062000902565b600554600160a060020a0380851691632fa4f694914391309116630ea24e546000604051602001526040518163ffffffff1660e060020a028152600401602060405180830381600087803b15156200088257600080fd5b6102c65a03f115156200089457600080fd5b505050604051805190508b0260405160e060020a63ffffffff86160281526004810193909352600160a060020a0390911660248301526044820152606401600060405180830381600087803b1515620008ec57600080fd5b6102c65a03f11515620008fe57600080fd5b5050505b506001979650505050505050565b600454600160a060020a03338116911663a51af4c56000604051602001526040518163ffffffff1660e060020a028152600401602060405180830381600087803b15156200095d57600080fd5b6102c65a03f115156200096f57600080fd5b50505060405180519050600160a060020a03161415620009f45730600160a060020a031663fd636975838360405160e060020a63ffffffff8516028152600160a060020a0390921660048301526024820152604401600060405180830381600087803b1515620009de57600080fd5b6102c65a03f11515620009f057600080fd5b5050505b5050565b6000545b90565b600980548290811062000a0e57fe5b600091825260209091200154600160a060020a0316905081565b60065481565b60008062000a3c3362000f45565b1115620009fc57600160a060020a0333166000908152600a6020526040902060010154151562000ad357600980546001810162000a7a8382620013df565b506000918252602080832091909101805473ffffffffffffffffffffffffffffffffffffffff191633600160a060020a0316908117909155600954908352600a90915260409091206001908101919091559050620009fc565b62000ade3362001307565b5090565b600554600160a060020a031681565b60018054600181600116156101000203166002900480601f01602080910402602001604051908101604052809291908181526020018280546001816001161561010002031660029004801562000b8b5780601f1062000b5f5761010080835404028352916020019162000b8b565b820191906000526020600020905b81548152906001019060200180831162000b6d57829003601f168201915b505050505081565b60025433600160a060020a0390811691161462000baf57600080fd5b600655565b60008060008060008060005b60095460019011801562000bd2575085155b1562000c9d5773__Math__________________________________63655b08eb8960016009805490500360006040516020015260405160e060020a63ffffffff85160281526004810192909252602482015260440160206040518083038186803b151562000c3f57600080fd5b6102c65a03f4151562000c5157600080fd5b50505060405180519050925060098381548110151562000c6d57fe5b600091825260209091200154600160a060020a0316935062000c8f8462000f45565b600190980197955062000bc0565b60095460019011801562000caf575084155b1562000d7d5773__Math__________________________________63655b08eb8960020260016009805490500360006040516020015260405160e060020a63ffffffff85160281526004810192909252602482015260440160206040518083038186803b151562000d1f57600080fd5b6102c65a03f4151562000d3157600080fd5b50505060405180519050915060098281548110151562000d4d57fe5b600091825260209091200154600160a060020a0316905062000d6f8162000f45565b9450600a8801975062000c9d565b8486111562000d8a578396505b505050505050919050565b600080548290811062000a0e57fe5b600254600160a060020a031681565b600a6020526000908152604090208054600190910154600160a060020a039091169082565b600160a060020a03331660009081526007602052604090205460ff1615620009f457600160a060020a038281166000908152600a602052604090819020805473ffffffffffffffffffffffffffffffffffffffff1916338416179055309091169063fd63697590849084905160e060020a63ffffffff8516028152600160a060020a0390921660048301526024820152604401600060405180830381600087803b1515620009de57600080fd5b6000805b600160a060020a0383166000908152600a602052604090206002015481101562000f3957600160a060020a0383166000908152600a6020526040902060020180544291908390811062000ed857fe5b906000526020600020906002020160010154111562000f3057600160a060020a0383166000908152600a6020526040902060020180548290811062000f1957fe5b906000526020600020906002020160000154820191505b60010162000e89565b50919050565b60095490565b600062000f528262000e85565b905080151562000f675762000f398262001307565b919050565b60025433600160a060020a0390811691161462000f8857600080fd5b6002805473ffffffffffffffffffffffffffffffffffffffff1916600160a060020a0392909216919091179055565b6004546000908190600160a060020a031663c18e467933836040516020015260405160e060020a63ffffffff8416028152600160a060020a039091166004820152602401602060405180830381600087803b15156200101557600080fd5b6102c65a03f115156200102757600080fd5b5050506040518051905015156200103d57600080fd5b600160a060020a0384166000908152600a60205260409020600101541515620010c1576009805460018101620010748382620013df565b506000918252602080832091909101805473ffffffffffffffffffffffffffffffffffffffff1916600160a060020a038816908117909155600954908352600a9091526040909120600101555b600160a060020a038085166000908152600a602090815260408083203390941683526003909301905290812054925082111562001165576040805190810160409081528482526006544201602080840191909152600160a060020a0387166000908152600a90915220600201805460001985019081106200113e57fe5b906000526020600020906002020160008201518155602082015160019091015550620011fe565b600160a060020a0384166000908152600a602052604090206002018054600181016200119283826200140b565b9160005260206000209060020201600060408051908101604052868152600654420160208201529190508151815560208201516001909101555050600160a060020a038085166000908152600a6020908152604080832060028101543390951684526003019091529020555b5060005b600054811015620013015760006103e86008838154811015156200122257fe5b90600052602060002090015485028115156200123a57fe5b041115620012f85760008054829081106200125157fe5b60009182526020909120015460088054600160a060020a039092169163fd6369759187916103e89190869081106200128557fe5b90600052602060002090015487028115156200129d57fe5b0460405160e060020a63ffffffff8516028152600160a060020a0390921660048301526024820152604401600060405180830381600087803b1515620012e257600080fd5b6102c65a03f11515620012f457600080fd5b5050505b60010162001202565b50505050565b600160a060020a0381166000908152600a602052604081206001015481811115620013c4576009805460001981019081106200133f57fe5b60009182526020909120015460098054600160a060020a0390921691839081106200136657fe5b6000918252602080832091909101805473ffffffffffffffffffffffffffffffffffffffff1916600160a060020a039485161790559185168152600a90915260408120600101556009805490620013c2906000198301620013df565b505b5050600954919050565b604051612037806200147b83390190565b8154818355818115116200140657600083815260209020620014069181019083016200143a565b505050565b815481835581811511620014065760020281600202836000526020600020918201910162001406919062001457565b620009fc91905b8082111562000ade576000815560010162001441565b620009fc91905b8082111562000ade57600080825560018201556002016200145e5600606060405234156200001057600080fd5b60405160a08062002037833981016040528080519190602001805191906020018051919060200180519190602001805160008054600160a060020a031916600160a060020a038981169190911782556003805461010060a860020a03191661010033841681029190911791829055939550929092049091169150631684ae4d90604051602001526040518163ffffffff167c0100000000000000000000000000000000000000000000000000000000028152600401602060405180830381600087803b1515620000df57600080fd5b6102c65a03f11515620000f157600080fd5b505050604051805160048054600160a060020a031916600160a060020a0392831617905560035461010090041690506372de5b2f6000604051602001526040518163ffffffff167c0100000000000000000000000000000000000000000000000000000000028152600401602060405180830381600087803b15156200017657600080fd5b6102c65a03f115156200018857600080fd5b505050604051805160058054600160a060020a031916600160a060020a039290921691909117905550428181016006819055908301600781905510620001ca57fe5b6008849055600983905560045460008054600160a060020a03928316926376147a0e929116906040517c010000000000000000000000000000000000000000000000000000000063ffffffff8516028152600160a060020a0390921660048301526024820152604401600060405180830381600087803b15156200024d57600080fd5b6102c65a03f115156200025f57600080fd5b50506000600b55505050505050611dbb806200027c6000396000f3006060604052600436106100e25763ffffffff60e060020a60003504166313faede681146100e75780632ad1bc091461010c5780632fa4f694146101725780633197cbb61461019757806347c20ab7146101aa5780636732e966146101d9578063739d9dc1146101ec578063949d225d146101ff5780639c6a1dfb14610212578063ae8421e114610249578063bf1c69691461025c578063bfa0b1331461027b578063c2c4c5c11461028e578063e1152343146102a1578063e6c50020146102b7578063f14fcbc8146102d9578063f571da7f146102ef578063fadf617b14610302575b600080fd5b34156100f257600080fd5b6100fa61035b565b60405190815260200160405180910390f35b341561011757600080fd5b61017060048035600f0b9060446024803590810190830135806020601f8201819004810201604051908101604052818152929190602084018383808284375094965050509235600160a060020a03169250610361915050565b005b341561017d57600080fd5b610170600435600160a060020a03602435166044356104e5565b34156101a257600080fd5b6100fa6107d0565b34156101b557600080fd5b6101bd6107d6565b604051600160a060020a03909116815260200160405180910390f35b34156101e457600080fd5b6101bd6107e5565b34156101f757600080fd5b6100fa6107f9565b341561020a57600080fd5b6100fa6107ff565b341561021d57600080fd5b610225610805565b6040518082600581111561023557fe5b60ff16815260200191505060405180910390f35b341561025457600080fd5b6100fa61080e565b341561026757600080fd5b610225600160a060020a0360043516610814565b341561028657600080fd5b6100fa610829565b341561029957600080fd5b6100fa61082f565b34156102ac57600080fd5b610170600435610835565b34156102c257600080fd5b610170600435600160a060020a0360243516610d72565b34156102e457600080fd5b610170600435610e34565b34156102fa57600080fd5b610170610f64565b341561030d57600080fd5b61017060048035600f0b9060446024803590810190830135806020601f820181900481020160405190810160405281815292919060208401838380828437509496506111ec95505050505050565b60095481565b6003600160a060020a03821660009081526002602052604090205460ff16600581111561038a57fe5b14156104e05782826040518083600f0b600f0b70010000000000000000000000000000000002815260100182805190602001908083835b602083106103e05780518252601f1990920191602091820191016103c1565b6001836020036101000a038019825116818451161790925250505091909101935060409250505051908190039020600160a060020a0382166000908152600a602052604090205414156104e057600454600954600160a060020a039091169063a9059cbb9033906002900460006040516020015260405160e060020a63ffffffff8516028152600160a060020a0390921660048301526024820152604401602060405180830381600087803b151561049757600080fd5b6102c65a03f115156104a857600080fd5b50505060405180515050600160a060020a0381166000908152600260205260409020805460ff19166005179055600880546000190190555b505050565b6000806000806000806000600360019054906101000a9004600160a060020a0316600160a060020a031633600160a060020a031614151561052557600080fd5b6000965088600160a060020a031663d965ea006000604051602001526040518163ffffffff1660e060020a028152600401602060405180830381600087803b151561056f57600080fd5b6102c65a03f1151561058057600080fd5b505050604051805196505060028604881161059b57876105a0565b600286045b9450600093505b8484101561064f5788600160a060020a03166385b2ff8f858c0160006040516020015260405160e060020a63ffffffff84160281526004810191909152602401602060405180830381600087803b151561060057600080fd5b6102c65a03f1151561061157600080fd5b5050506040518051935050600160a060020a0383161580159061063857506106388361145f565b15610644576001909601955b6001909301926105a7565b868803915060008211156107b7575060005b88600160a060020a031663449a058d6000604051602001526040518163ffffffff1660e060020a028152600401602060405180830381600087803b15156106a757600080fd5b6102c65a03f115156106b857600080fd5b505050604051805190508110156107b7576107af81888c01018a600160a060020a031663898572a68460006040516020015260405160e060020a63ffffffff84160281526004810191909152602401602060405180830381600087803b151561072057600080fd5b6102c65a03f1151561073157600080fd5b505050604051805190508b600160a060020a031663449a058d6000604051602001526040518163ffffffff1660e060020a028152600401602060405180830381600087803b151561078157600080fd5b6102c65a03f1151561079257600080fd5b50505060405180519050858115156107a657fe5b046001016104e5565b600101610661565b50506003805460ff191660011790555050505050505050565b60065481565b600054600160a060020a031681565b6003546101009004600160a060020a031681565b600d5481565b60085481565b60035460ff1681565b600b5481565b60026020526000908152604090205460ff1681565b600e5481565b60075481565b600061083f611d3d565b610847611d3d565b600080808060048060035460ff16600581111561086057fe5b1461086a57600080fd5b6001546000985060405180591061087e5750595b90808252806020026020018201604052506001549097506040518059106108a25750595b90808252806020026020018201604052509550600094505b600154851015610bdd576004600260006001888154811015156108d957fe5b6000918252602080832090910154600160a060020a0316835282019290925260400190205460ff16600581111561090c57fe5b1415610bd25773__Math__________________________________634c619e4c73__Math__________________________________631b5ac4b5600d54600c600060018c81548110151561095c57fe5b6000918252602080832090910154600160a060020a031683528201929092526040908101822054600f90810b900b9290920391516020015260405160e060020a63ffffffff8416028152600481019190915260240160206040518083038186803b15156109c857600080fd5b6102c65a03f415156109d957600080fd5b5050506040518051905060095460006040516040015260405160e060020a63ffffffff851602815260048101929092526024820152604401604080518083038186803b1515610a2757600080fd5b6102c65a03f41515610a3857600080fd5b5050506040518051906020018051919550909350508215610b9d578360095403880197506000841115610b065760045460018054600160a060020a039092169163a9059cbb919088908110610a8957fe5b6000918252602082200154600160a060020a03169087906040516020015260405160e060020a63ffffffff8516028152600160a060020a0390921660048301526024820152604401602060405180830381600087803b1515610aea57600080fd5b6102c65a03f11515610afb57600080fd5b505050604051805150505b60045460018054600160a060020a03909216916376147a0e919088908110610b2a57fe5b600091825260209091200154600160a060020a0316600660405160e060020a63ffffffff8516028152600160a060020a0390921660048301526024820152604401600060405180830381600087803b1515610b8457600080fd5b6102c65a03f11515610b9557600080fd5b505050610bd2565b6001878681518110610bab57fe5b91151560209283029091019091015283868681518110610bc757fe5b602090810290910101525b6001909401936108ba565b600091505b8551821015610d6757868281518110610bf757fe5b9060200190602002015115610d5c5760045460018054600160a060020a039092169163a9059cbb919085908110610c2a57fe5b600091825260209091200154600160a060020a03168b8b811515610c4a57fe5b04898681518110610c5757fe5b906020019060200201510160006040516020015260405160e060020a63ffffffff8516028152600160a060020a0390921660048301526024820152604401602060405180830381600087803b1515610cae57600080fd5b6102c65a03f11515610cbf57600080fd5b5050506040518051505060045460018054600160a060020a03909216916376147a0e919085908110610ced57fe5b600091825260209091200154600160a060020a0316600660405160e060020a63ffffffff8516028152600160a060020a0390921660048301526024820152604401600060405180830381600087803b1515610d4757600080fd5b6102c65a03f11515610d5857600080fd5b5050505b600190910190610be2565b505050505050505050565b600354600090819033600160a060020a039081166101009092041614610d9757600080fd5b5081905060005b83811015610e2157610e1882600160a060020a0316635daf08ca8360006040516020015260405160e060020a63ffffffff84160281526004810191909152602401602060405180830381600087803b1515610df857600080fd5b6102c65a03f11515610e0957600080fd5b5050506040518051905061145f565b50600101610d9e565b50506003805460ff191660011790555050565b60028060035460ff166005811115610e4857fe5b14610e5257600080fd5b600654421115610e6657610e66600261153f565b6002600160a060020a03331660009081526002602052604090205460ff166005811115610e8f57fe5b1415610ecf5733600160a060020a03166000908152600a6020908152604080832085905560029091529020805460ff19166003179055600b805460010190555b600854600b541415610f6057600554600160a060020a0316631f7489546000604051602001526040518163ffffffff1660e060020a028152600401602060405180830381600087803b1515610f2357600080fd5b6102c65a03f11515610f3457600080fd5b5050506040518051420160075550610f4e600360056115d8565b6000600b556003805460ff1916811790555b5050565b60018060035460ff166005811115610f7857fe5b14610f8257600080fd5b600754421115610f9957610f946116cc565b6111e9565b6001600160a060020a03331660009081526002602052604090205460ff166005811115610fc257fe5b148015610fd25750600854600154105b801561107a5750600454600954600354600160a060020a03928316926327234ecc92339230926101009091041660006040516020015260405160e060020a63ffffffff8716028152600160a060020a039485166004820152928416602484015260448301919091529091166064820152608401602060405180830381600087803b151561105e57600080fd5b6102c65a03f1151561106f57600080fd5b505050604051805190505b1561114f57600180548082016110908382611d4f565b506000918252602080832091909101805473ffffffffffffffffffffffffffffffffffffffff191633600160a060020a031690811790915582526002908190526040909120805460ff19166001830217905550600454600160a060020a03166376147a0e33600260405160e060020a63ffffffff8516028152600160a060020a0390921660048301526024820152604401600060405180830381600087803b151561113a57600080fd5b6102c65a03f1151561114b57600080fd5b5050505b60085460015414156111e957611167600260046115d8565b60048054600054600160a060020a03918216926376147a0e929091169060405160e060020a63ffffffff8516028152600160a060020a0390921660048301526024820152604401600060405180830381600087803b15156111c757600080fd5b6102c65a03f115156111d857600080fd5b50506003805460ff19166002179055505b50565b60038060035460ff16600581111561120057fe5b1461120a57600080fd5b600754421161121857600080fd5b600554600160a060020a0316631f7489546000604051602001526040518163ffffffff1660e060020a028152600401602060405180830381600087803b151561126057600080fd5b6102c65a03f1151561127157600080fd5b505050604051805190506006540161a8c00142111561129457611294600361153f565b6003600160a060020a03331660009081526002602052604090205460ff1660058111156112bd57fe5b14801561135e575082826040518083600f0b600f0b70010000000000000000000000000000000002815260100182805190602001908083835b602083106113155780518252601f1990920191602091820191016112f6565b6001836020036101000a038019825116818451161790925250505091909101935060409250505051908190039020600160a060020a0333166000908152600a6020526040902054145b1561143e5733600160a060020a03166000908152600c60205260409081902080546fffffffffffffffffffffffffffffffff19166fffffffffffffffffffffffffffffffff600f87900b161790558290518082805190602001908083835b602083106113db5780518252601f1990920191602091820191016113bc565b6001836020036101000a0380198251168184511617909252505050919091019250604091505051908190039020600e8054909118905533600160a060020a03166000908152600260205260409020805460ff19166004179055600b805460010190555b600854600b5414156104e0576003805460ff191660041790556104e061199f565b60008054600160a060020a038381169116148015906114a25750600160a060020a03821660009081526002602052604081205460ff1660058111156114a057fe5b145b1561153a57600454600160a060020a03166376147a0e83600160405160e060020a63ffffffff8516028152600160a060020a0390921660048301526024820152604401600060405180830381600087803b15156114fe57600080fd5b6102c65a03f1151561150f57600080fd5b50505050600160a060020a0381166000908152600260205260409020805460ff191660019081179091555b919050565b60005b600154811015610f605781600581111561155857fe5b6002600060018481548110151561156b57fe5b6000918252602080832090910154600160a060020a0316835282019290925260400190205460ff16600581111561159e57fe5b14156115d0576115d06001828154811015156115b657fe5b600091825260209091200154600160a060020a0316611c96565b600101611542565b60005b6001548110156104e05782600260006001848154811015156115f957fe5b6000918252602080832090910154600160a060020a0316835282019290925260400190205460ff16600581111561162c57fe5b14156116c45760045460018054600160a060020a03909216916376147a0e91908490811061165657fe5b600091825260209091200154600160a060020a03168460405160e060020a63ffffffff8516028152600160a060020a0390921660048301526024820152604401600060405180830381600087803b15156116af57600080fd5b6102c65a03f115156116c057600080fd5b5050505b6001016115db565b600080600160035460ff1660058111156116e257fe5b146116f357600154600954026116fb565b600854600954025b60045460008054929450600160a060020a039182169263a9059cbb92169085906040516020015260405160e060020a63ffffffff8516028152600160a060020a0390921660048301526024820152604401602060405180830381600087803b151561176557600080fd5b6102c65a03f1151561177657600080fd5b50505060405180515050600454600054600160a060020a03918216916376147a0e9116600360405160e060020a63ffffffff8516028152600160a060020a0390921660048301526024820152604401600060405180830381600087803b15156117de57600080fd5b6102c65a03f115156117ef57600080fd5b505050600090505b60015481101561198c5760056002600060018481548110151561181657fe5b6000918252602080832090910154600160a060020a0316835282019290925260400190205460ff16600581111561184957fe5b146119845760045460018054600160a060020a039092169163a9059cbb91908490811061187257fe5b6000918252602082200154600954600160a060020a03909116916040516020015260405160e060020a63ffffffff8516028152600160a060020a0390921660048301526024820152604401602060405180830381600087803b15156118d657600080fd5b6102c65a03f115156118e757600080fd5b5050506040518051505060045460018054600160a060020a03909216916376147a0e91908490811061191557fe5b600091825260209091200154600160a060020a0316600360405160e060020a63ffffffff8516028152600160a060020a0390921660048301526024820152604401600060405180830381600087803b151561196f57600080fd5b6102c65a03f1151561198057600080fd5b5050505b6001016117f7565b6003546101009004600160a060020a0316ff5b6119a7611d3d565b6000808060048060035460ff1660058111156119bf57fe5b146119c957600080fd5b600b546040518059106119d95750595b9080825280602002602001820160405250945060009350600092505b600154831015611ab457600460026000600186815481101515611a1457fe5b6000918252602080832090910154600160a060020a0316835282019290925260400190205460ff166005811115611a4757fe5b1415611aa957600c6000600185815481101515611a6057fe5b6000918252602080832090910154600160a060020a03168352820192909252604001902054600f90810b900b858581518110611a9857fe5b602090810290910101526001909301925b6001909201916119f5565b73__Math__________________________________63140a7ac6866000604051604001526040518263ffffffff1660e060020a0281526004018080602001828103825283818151815260200191508051906020019060200280838360005b83811015611b2a578082015183820152602001611b12565b5050505090500192505050604080518083038186803b1515611b4b57600080fd5b6102c65a03f41515611b5c57600080fd5b5050506040518051906020018051600d9290925550600b5490925060029004821115611c1757611b8b82610835565b6000600d541315611c1257600354600054600d54600160a060020a036101009093048316926398041ea3921690850260405160e060020a63ffffffff8516028152600160a060020a0390921660048301526024820152604401600060405180830381600087803b1515611bfd57600080fd5b6102c65a03f11515611c0e57600080fd5b5050505b611c1d565b6000600d555b600454600054600160a060020a03918216916376147a0e9116600760405160e060020a63ffffffff8516028152600160a060020a0390921660048301526024820152604401600060405180830381600087803b1515611c7b57600080fd5b6102c65a03f11515611c8c57600080fd5b5050505050505050565b600160a060020a038116600090815260026020526040902080546005919060ff19166001830217905550600554600160a060020a0316630ea24e546000604051602001526040518163ffffffff1660e060020a028152600401602060405180830381600087803b1515611d0857600080fd5b6102c65a03f11515611d1957600080fd5b5050506040518051600880546000190190819055101590506111e9576111e96116cc565b60206040519081016040526000815290565b8154818355818115116104e0576000838152602090206104e0918101908301611d8c91905b80821115611d885760008155600101611d74565b5090565b905600a165627a7a7230582034ca86a07a025a822249d50199fc28ee51a22244325b5b9fadd14b7604ad65e40029a165627a7a723058205ac8f32b5bf3b645cb59577ce24665df890ce87236294a678b2a2017f60c1ef40029",
  "source": "pragma solidity ^0.4.11;\r\n\r\nimport \"./FathomToken.sol\";\r\nimport \"./ConceptRegistry.sol\";\r\nimport \"./Assessment.sol\";\r\nimport \"./Math.sol\";\r\nimport \"./Constants.sol\";\r\n\r\n//@purpose: To store concept data and create and manage assessments and members\r\ncontract Concept {\r\n    address[] public parents; //The concepts that this concept is child to (ie: Calculus is child to Math)\r\n    bytes public data;\r\n    address public owner;\r\n    FathomToken public fathomToken;\r\n    ConceptRegistry conceptRegistry;\r\n    Constants public constants;\r\n    uint public lifetime;\r\n    mapping (address => bool) public assessmentExists;\r\n\r\n    uint[] propagationRates;\r\n\r\n    address[] public members;\r\n    mapping (address => MemberData) public memberData;\r\n\r\n    struct MemberData {\r\n        address recentAssessment;\r\n        uint index;\r\n        ComponentWeight[] weights;\r\n        mapping(address => uint) componentWeightIndex;\r\n    }\r\n\r\n    struct ComponentWeight {\r\n        uint weight;\r\n        uint date;\r\n    }\r\n\r\n    modifier onlyConcept() {\r\n        require(conceptRegistry.conceptExists(msg.sender));\r\n        _;\r\n    }\r\n\r\n    function Concept(address[] _parents, uint[] _propagationRates, uint _lifetime, bytes _data, address _owner) public {\r\n        require(_parents.length == _propagationRates.length);\r\n        conceptRegistry = ConceptRegistry(msg.sender);\r\n\r\n        for (uint j=0; j < _parents.length; j++) {\r\n            require(conceptRegistry.conceptExists(_parents[j]));\r\n            require(_propagationRates[j] < 1000);\r\n        }\r\n\r\n        propagationRates = _propagationRates;\r\n        parents = _parents;\r\n        data = _data;\r\n        lifetime = _lifetime;\r\n        owner = _owner;\r\n        fathomToken = FathomToken(conceptRegistry.fathomToken());\r\n        constants = Constants(conceptRegistry.constants());\r\n    }\r\n\r\n    modifier onlyOwner(){\r\n        require(msg.sender == owner);\r\n        _;\r\n    }\r\n\r\n    function transferOwnership(address _newOwner) onlyOwner() public {\r\n        owner = _newOwner;\r\n    }\r\n\r\n    function changeLifetime(uint _newLifetime) onlyOwner() public {\r\n        lifetime = _newLifetime;\r\n    }\r\n\r\n    function getMemberLength() public constant returns(uint) {\r\n        return members.length;\r\n    }\r\n\r\n    function getParentsLength() public view returns(uint) {\r\n        return parents.length;\r\n    }\r\n\r\n    /*\r\n      @purpose: To add the firstUser to Mew\r\n    */\r\n    function addInitialMember(address _user, uint _weight) public {\r\n        if (conceptRegistry.distributorAddress() == msg.sender)\r\n            {\r\n                this.addWeight(_user, _weight);\r\n            }\r\n    }\r\n\r\n    /*\r\n      @purpose: add the caller of this function to the arrays of potential assessors\r\n      if they still have a weight in the concept\r\n      @returns true if they are available as assessor\r\n    */\r\n    function toggleAvailability() public returns(bool success){\r\n        if (getWeightAndUpdate(msg.sender) > 0) {\r\n            if (memberData[msg.sender].index == 0) {\r\n                members.push(msg.sender);\r\n                memberData[msg.sender].index = members.length;\r\n                success = true;\r\n            }\r\n            else {\r\n                removeMember(msg.sender);\r\n            }\r\n        }\r\n   }\r\n\r\n    /*\r\n      //@purpose: returns a random member of the Concept or the zero address (both with approx. 50%)\r\n      //Users with high weights are more likely to be called\r\n      //@returns the address of the member (0x0 if there is no member)\r\n    */\r\n    function getWeightedRandomMember(uint seed) public returns(address){\r\n        uint weight1;\r\n        uint weight2;\r\n        address randomMember1;\r\n        while (members.length > 1 && weight1 == 0) {\r\n          \r\n            uint index1 = Math.getRandom(seed, members.length - 1);\r\n            randomMember1 = members[index1];\r\n            weight1 = getWeightAndUpdate(randomMember1);\r\n            seed++;\r\n        }\r\n        while (members.length > 1 && weight2 == 0) {\r\n                uint index2 = Math.getRandom(seed * 2, members.length - 1);\r\n                address randomMember2 = members[index2];\r\n                weight2 = getWeightAndUpdate(randomMember2);\r\n                seed += 10;\r\n        }\r\n        if (weight1 > weight2) {\r\n            return randomMember1;\r\n        }\r\n    }\r\n\r\n    /*\r\n      @purpose: get the weight of a given member, also removes that member from the array\r\n      if there legitimating assessment is expired\r\n    */\r\n    function getWeight(address _member) view public returns(uint weight){\r\n        for (uint i=0; i < memberData[_member].weights.length; i++) {\r\n            if (memberData[_member].weights[i].date > now){\r\n                weight += memberData[_member].weights[i].weight;\r\n            }\r\n        }\r\n    }\r\n\r\n    //@purpose: check weight and update members array\r\n    function getWeightAndUpdate(address _member) public returns(uint weight) {\r\n        weight = getWeight(_member);\r\n        if (weight == 0) {\r\n            removeMember(_member);\r\n        }\r\n    }\r\n\r\n    /*\r\n      @purpose: removes member at a given index from the members array by substituting they with\r\n      the last member and then decreasing the size of the members array\r\n      @returns the updated number of members in the concept\r\n    */\r\n    function removeMember(address _member) private returns(uint){\r\n        uint index = memberData[_member].index;\r\n        if (index > 0){\r\n            members[index] = members[members.length - 1]; //THIS NEEDS TO BE TESTED!\r\n            memberData[_member].index = 0;\r\n            members.length--;\r\n        }\r\n        return members.length;\r\n    }\r\n\r\n    /*\r\n      @purpose: To make a new assessment\r\n      NOTE: While there are less than 200 members in network, all members of mew will\r\n      be called as assessors for any concept\r\n      @param: uint cost = the cost per assessor\r\n      @param: uint size = the number of assessors\r\n    */\r\n    function makeAssessment(uint cost, uint size, uint _waitTime, uint _timeLimit) public returns(bool) {\r\n      require(size >= constants.MIN_ASSESSMENT_SIZE() && fathomToken.balanceOf(msg.sender)>= cost*size);\r\n\r\n      Assessment newAssessment = new Assessment(msg.sender, size, cost, _waitTime, _timeLimit);\r\n      assessmentExists[address(newAssessment)] = true;\r\n      fathomToken.takeBalance(msg.sender, address(newAssessment), cost*size, address(this));\r\n\r\n      // get membernumber of mew to see whether there are more than 200 users in the system:\r\n      address mewAddress = conceptRegistry.mewAddress();\r\n      uint nMemberInMew = Concept(mewAddress).getMemberLength();\r\n      if (nMemberInMew < size * constants.ASSESSORPOOL_SIZE_FACTOR()) {\r\n        newAssessment.callAllFromMew(nMemberInMew, mewAddress);\r\n      } else {\r\n        newAssessment.setAssessorPool(block.number, address(this), size*constants.MIN_ASSESSMENT_SIZE());\r\n      }\r\n      return true;\r\n    }\r\n\r\n    /*\r\n      @purpose: To add a member to a concept and to recursively add  a member to parent concept\r\n      @param: address assessee = the address of the assessee\r\n      @param: uint weight = the weight for the member\r\n      @returns: nothing\r\n    */\r\n    function addMember(address _assessee, uint _weight) public {\r\n        if (assessmentExists[msg.sender]) {\r\n            memberData[_assessee].recentAssessment = msg.sender;\r\n            this.addWeight(_assessee, _weight);\r\n        }\r\n    }\r\n\r\n    function addWeight(address _assessee, uint _weight) public onlyConcept() {\r\n        if (memberData[_assessee].index == 0) {\r\n            members.push(_assessee);\r\n            memberData[_assessee].index = members.length;\r\n        }\r\n\r\n        uint idx = memberData[_assessee].componentWeightIndex[msg.sender];\r\n        if (idx > 0) {\r\n            memberData[_assessee].weights[idx-1] = ComponentWeight(_weight, now + lifetime);\r\n        } else {\r\n            memberData[_assessee].weights.push(ComponentWeight(_weight, now + lifetime));\r\n            memberData[_assessee].componentWeightIndex[msg.sender] = memberData[_assessee].weights.length;\r\n        }\r\n\r\n        for(uint i = 0; i < parents.length; i++) {\r\n            if((_weight*propagationRates[i])/1000 > 0) {\r\n                Concept(parents[i]).addWeight(_assessee, (_weight*propagationRates[i])/1000);\r\n            }\r\n        }\r\n    }\r\n}\r\n",
  "sourcePath": "/Users/antoineestienne/GitFolder/fathom/assess/contracts/Concept.sol",
  "compiler": {
    "name": "solc",
    "version": "0.4.19+commit.c4cbbb05.Emscripten.clang"
  },
  "schemaVersion": "1.0.1",
  "updatedAt": "2018-05-04T16:43:50.266Z"
}