{
  "contractName": "Concept",
  "abi": [
    {
      "constant": true,
      "inputs": [],
      "name": "fathomToken",
      "outputs": [
        {
          "name": "",
          "type": "address"
        }
      ],
      "payable": false,
      "stateMutability": "view",
      "type": "function"
    },
    {
      "constant": true,
      "inputs": [
        {
          "name": "",
          "type": "address"
        }
      ],
      "name": "assessmentExists",
      "outputs": [
        {
          "name": "",
          "type": "bool"
        }
      ],
      "payable": false,
      "stateMutability": "view",
      "type": "function"
    },
    {
      "constant": true,
      "inputs": [],
      "name": "lifetime",
      "outputs": [
        {
          "name": "",
          "type": "uint256"
        }
      ],
      "payable": false,
      "stateMutability": "view",
      "type": "function"
    },
    {
      "constant": true,
      "inputs": [],
      "name": "data",
      "outputs": [
        {
          "name": "",
          "type": "bytes"
        }
      ],
      "payable": false,
      "stateMutability": "view",
      "type": "function"
    },
    {
      "constant": true,
      "inputs": [
        {
          "name": "",
          "type": "uint256"
        }
      ],
      "name": "parents",
      "outputs": [
        {
          "name": "",
          "type": "address"
        }
      ],
      "payable": false,
      "stateMutability": "view",
      "type": "function"
    },
    {
      "constant": true,
      "inputs": [],
      "name": "owner",
      "outputs": [
        {
          "name": "",
          "type": "address"
        }
      ],
      "payable": false,
      "stateMutability": "view",
      "type": "function"
    },
    {
      "constant": true,
      "inputs": [
        {
          "name": "",
          "type": "uint256"
        }
      ],
      "name": "availableMembers",
      "outputs": [
        {
          "name": "",
          "type": "address"
        }
      ],
      "payable": false,
      "stateMutability": "view",
      "type": "function"
    },
    {
      "constant": true,
      "inputs": [
        {
          "name": "",
          "type": "address"
        }
      ],
      "name": "memberData",
      "outputs": [
        {
          "name": "recentAssessment",
          "type": "address"
        },
        {
          "name": "index",
          "type": "uint256"
        }
      ],
      "payable": false,
      "stateMutability": "view",
      "type": "function"
    },
    {
      "constant": false,
      "inputs": [
        {
          "name": "_newOwner",
          "type": "address"
        }
      ],
      "name": "transferOwnership",
      "outputs": [],
      "payable": false,
      "stateMutability": "nonpayable",
      "type": "function"
    },
    {
      "constant": false,
      "inputs": [
        {
          "name": "_newLifetime",
          "type": "uint256"
        }
      ],
      "name": "changeLifetime",
      "outputs": [],
      "payable": false,
      "stateMutability": "nonpayable",
      "type": "function"
    },
    {
      "constant": true,
      "inputs": [],
      "name": "getAvailableMemberLength",
      "outputs": [
        {
          "name": "",
          "type": "uint256"
        }
      ],
      "payable": false,
      "stateMutability": "view",
      "type": "function"
    },
    {
      "constant": true,
      "inputs": [],
      "name": "getParentsLength",
      "outputs": [
        {
          "name": "",
          "type": "uint256"
        }
      ],
      "payable": false,
      "stateMutability": "view",
      "type": "function"
    },
    {
      "constant": false,
      "inputs": [
        {
          "name": "_user",
          "type": "address"
        },
        {
          "name": "_weight",
          "type": "uint256"
        }
      ],
      "name": "addInitialMember",
      "outputs": [],
      "payable": false,
      "stateMutability": "nonpayable",
      "type": "function"
    },
    {
      "constant": false,
      "inputs": [],
      "name": "toggleAvailability",
      "outputs": [
        {
          "name": "success",
          "type": "bool"
        }
      ],
      "payable": false,
      "stateMutability": "nonpayable",
      "type": "function"
    },
    {
      "constant": false,
      "inputs": [
        {
          "name": "seed",
          "type": "uint256"
        }
      ],
      "name": "getWeightedRandomMember",
      "outputs": [
        {
          "name": "",
          "type": "address"
        }
      ],
      "payable": false,
      "stateMutability": "nonpayable",
      "type": "function"
    },
    {
      "constant": true,
      "inputs": [
        {
          "name": "_member",
          "type": "address"
        }
      ],
      "name": "getWeight",
      "outputs": [
        {
          "name": "weight",
          "type": "uint256"
        }
      ],
      "payable": false,
      "stateMutability": "view",
      "type": "function"
    },
    {
      "constant": false,
      "inputs": [
        {
          "name": "_member",
          "type": "address"
        }
      ],
      "name": "getWeightAndUpdate",
      "outputs": [
        {
          "name": "weight",
          "type": "uint256"
        }
      ],
      "payable": false,
      "stateMutability": "nonpayable",
      "type": "function"
    },
    {
      "constant": false,
      "inputs": [
        {
          "name": "cost",
          "type": "uint256"
        },
        {
          "name": "size",
          "type": "uint256"
        },
        {
          "name": "_waitTime",
          "type": "uint256"
        },
        {
          "name": "_timeLimit",
          "type": "uint256"
        }
      ],
      "name": "makeAssessment",
      "outputs": [
        {
          "name": "",
          "type": "bool"
        }
      ],
      "payable": false,
      "stateMutability": "nonpayable",
      "type": "function"
    },
    {
      "constant": false,
      "inputs": [
        {
          "name": "_assessee",
          "type": "address"
        },
        {
          "name": "_weight",
          "type": "uint256"
        }
      ],
      "name": "addMember",
      "outputs": [],
      "payable": false,
      "stateMutability": "nonpayable",
      "type": "function"
    },
    {
      "constant": false,
      "inputs": [
        {
          "name": "_assessee",
          "type": "address"
        },
        {
          "name": "_weight",
          "type": "uint256"
        }
      ],
      "name": "addWeight",
      "outputs": [],
      "payable": false,
      "stateMutability": "nonpayable",
      "type": "function"
    }
  ],
  "bytecode": "0x608060405234801561001057600080fd5b50611432806100206000396000f3006080604052600436106100f85763ffffffff60e060020a600035041663039e071a81146100fd5780631684ae4d1461012457806321d39c2c1461015557806335a072911461018a5780633f99fa54146101ab578063449a058d146101d157806369d24f63146101e657806370a2b84a146101fb57806373d4a13a14610210578063824989c31461029a57806385b2ff8f146102b2578063898572a6146102ca5780638da5cb5b146102e25780638f33dcaa146102f75780639107d08e1461030f57806398041ea314610353578063ac6c525114610377578063de0d080214610398578063f2fde38b146103b9578063fd636975146103da575b600080fd5b34801561010957600080fd5b506101126103fe565b60408051918252519081900360200190f35b34801561013057600080fd5b50610139610405565b60408051600160a060020a039092168252519081900360200190f35b34801561016157600080fd5b50610176600160a060020a0360043516610414565b604080519115158252519081900360200190f35b34801561019657600080fd5b50610176600435602435604435606435610429565b3480156101b757600080fd5b506101cf600160a060020a036004351660243561090e565b005b3480156101dd57600080fd5b50610112610a97565b3480156101f257600080fd5b50610112610a9d565b34801561020757600080fd5b50610176610aa3565b34801561021c57600080fd5b50610225610b47565b6040805160208082528351818301528351919283929083019185019080838360005b8381101561025f578181015183820152602001610247565b50505050905090810190601f16801561028c5780820380516001836020036101000a031916815260200191505b509250505060405180910390f35b3480156102a657600080fd5b506101cf600435610bd2565b3480156102be57600080fd5b50610139600435610bee565b3480156102d657600080fd5b50610139600435610e03565b3480156102ee57600080fd5b50610139610e2b565b34801561030357600080fd5b50610139600435610e3a565b34801561031b57600080fd5b50610330600160a060020a0360043516610e48565b60408051600160a060020a03909316835260208301919091528051918290030190f35b34801561035f57600080fd5b506101cf600160a060020a0360043516602435610e6d565b34801561038357600080fd5b50610112600160a060020a0360043516610f31565b3480156103a457600080fd5b50610112600160a060020a0360043516610fe6565b3480156103c557600080fd5b506101cf600160a060020a0360043516611008565b3480156103e657600080fd5b506101cf600160a060020a036004351660243561104e565b6009545b90565b600454600160a060020a031681565b60076020526000908152604090205460ff1681565b600080600080600587101580156104d5575060048054604080517f70a082310000000000000000000000000000000000000000000000000000000081523393810193909352518a8a0292600160a060020a03909216916370a082319160248083019260209291908290030181600087803b1580156104a657600080fd5b505af11580156104ba573d6000803e3d6000fd5b505050506040513d60208110156104d057600080fd5b505110155b15156104e057600080fd5b600560009054906101000a9004600160a060020a0316600160a060020a031663c10f1a756040518163ffffffff1660e060020a028152600401602060405180830381600087803b15801561053357600080fd5b505af1158015610547573d6000803e3d6000fd5b505050506040513d602081101561055d57600080fd5b5051604080517fd21c307c000000000000000000000000000000000000000000000000000000008152336004820152602481018a9052604481018b905260648101899052608481018890529051600160a060020a039092169163d21c307c9160a4808201926020929091908290030181600087803b1580156105de57600080fd5b505af11580156105f2573d6000803e3d6000fd5b505050506040513d602081101561060857600080fd5b5051600160a060020a038082166000818152600760209081526040808320805460ff191660011790556004805482517f27234ecc000000000000000000000000000000000000000000000000000000008152339281019290925260248201959095528e8e026044820152306064820152905195985092909316936327234ecc936084808501949193918390030190829087803b1580156106a757600080fd5b505af11580156106bb573d6000803e3d6000fd5b505050506040513d60208110156106d157600080fd5b5050600554604080517f9e45c8860000000000000000000000000000000000000000000000000000000081529051600160a060020a0390921691639e45c886916004808201926020929091908290030181600087803b15801561073357600080fd5b505af1158015610747573d6000803e3d6000fd5b505050506040513d602081101561075d57600080fd5b5051604080517f039e071a0000000000000000000000000000000000000000000000000000000081529051919350600160a060020a0384169163039e071a916004808201926020929091908290030181600087803b1580156107be57600080fd5b505af11580156107d2573d6000803e3d6000fd5b505050506040513d60208110156107e857600080fd5b50519050600587028110156108775782600160a060020a031663e6c5002082846040518363ffffffff1660e060020a0281526004018083815260200182600160a060020a0316600160a060020a0316815260200192505050600060405180830381600087803b15801561085a57600080fd5b505af115801561086e573d6000803e3d6000fd5b50505050610900565b604080517f2fa4f694000000000000000000000000000000000000000000000000000000008152434060048201523060248201526005890260448201529051600160a060020a03851691632fa4f69491606480830192600092919082900301818387803b1580156108e757600080fd5b505af11580156108fb573d6000803e3d6000fd5b505050505b506001979650505050505050565b600554604080517fa51af4c500000000000000000000000000000000000000000000000000000000815290513392600160a060020a03169163a51af4c59160048083019260209291908290030181600087803b15801561096d57600080fd5b505af1158015610981573d6000803e3d6000fd5b505050506040513d602081101561099757600080fd5b5051600160a060020a03161415610a9357604080517ffd636975000000000000000000000000000000000000000000000000000000008152600160a060020a0384166004820152602481018390529051309163fd63697591604480830192600092919082900301818387803b158015610a0f57600080fd5b505af1158015610a23573d6000803e3d6000fd5b505060098054600180820183557f6e1540171b6c0c960b71a7020d9f60077f6af931a8bbf590da0223dacf75c7af909101805473ffffffffffffffffffffffffffffffffffffffff1916600160a060020a03881690811790915591546000928352600a6020526040909220015550505b5050565b60015490565b60065481565b600080610aaf33610fe6565b111561040257336000908152600a60205260409020600101541515610b3a575060098054600181810183557f6e1540171b6c0c960b71a7020d9f60077f6af931a8bbf590da0223dacf75c7af909101805473ffffffffffffffffffffffffffffffffffffffff19163390811790915591546000928352600a6020526040909220810191909155610402565b610b4333611301565b5090565b6002805460408051602060018416156101000260001901909316849004601f81018490048402820184019092528181529291830182828015610bca5780601f10610b9f57610100808354040283529160200191610bca565b820191906000526020600020905b815481529060010190602001808311610bad57829003601f168201915b505050505081565b600354600160a060020a03163314610be957600080fd5b600655565b60008060008060008060005b6009546001108015610c0a575085155b15610cf257600954604080517f655b08eb000000000000000000000000000000000000000000000000000000008152600481018b905260001990920160248301525173__Math__________________________________9163655b08eb916044808301926020929190829003018186803b158015610c8757600080fd5b505af4158015610c9b573d6000803e3d6000fd5b505050506040513d6020811015610cb157600080fd5b5051600980549194509084908110610cc557fe5b600091825260209091200154600160a060020a03169350610ce584610fe6565b6001909801979550610bfa565b6009546001108015610d02575084155b15610dec57600954604080517f655b08eb00000000000000000000000000000000000000000000000000000000815260028b02600482015260001990920160248301525173__Math__________________________________9163655b08eb916044808301926020929190829003018186803b158015610d8157600080fd5b505af4158015610d95573d6000803e3d6000fd5b505050506040513d6020811015610dab57600080fd5b5051600980549193509083908110610dbf57fe5b600091825260209091200154600160a060020a03169050610ddf81610fe6565b9450600a88019750610cf2565b84861115610df8578396505b505050505050919050565b6001805482908110610e1157fe5b600091825260209091200154600160a060020a0316905081565b600354600160a060020a031681565b6009805482908110610e1157fe5b600a6020526000908152604090208054600190910154600160a060020a039091169082565b3360009081526007602052604090205460ff1615610a9357600160a060020a0382166000818152600a6020526040808220805473ffffffffffffffffffffffffffffffffffffffff19163317905580517ffd63697500000000000000000000000000000000000000000000000000000000815260048101939093526024830184905251309263fd63697592604480830193919282900301818387803b158015610f1557600080fd5b505af1158015610f29573d6000803e3d6000fd5b505050505050565b6000805b600160a060020a0383166000908152600a6020526040902060020154811015610fe057600160a060020a0383166000908152600a60205260409020600201805442919083908110610f8257fe5b9060005260206000209060020201600101541115610fd857600160a060020a0383166000908152600a60205260409020600201805482908110610fc157fe5b906000526020600020906002020160000154820191505b600101610f35565b50919050565b6000610ff182610f31565b905080151561100357610fe082611301565b919050565b600354600160a060020a0316331461101f57600080fd5b6003805473ffffffffffffffffffffffffffffffffffffffff1916600160a060020a0392909216919091179055565b600554604080517fc18e467900000000000000000000000000000000000000000000000000000000815233600482015290516000928392600160a060020a039091169163c18e46799160248082019260209290919082900301818787803b1580156110b857600080fd5b505af11580156110cc573d6000803e3d6000fd5b505050506040513d60208110156110e257600080fd5b505115156110ef57600080fd5b600160a060020a0384166000908152600a602090815260408083203384526003019091528120549250821115611188576040805180820182528481526006544201602080830191909152600160a060020a0387166000908152600a909152919091206002018054600019850190811061116457fe5b600091825260209182902083516002909202019081559101516001909101556111f1565b600160a060020a0384166000908152600a602090815260408083208151808301835287815260065442018185019081526002808401805460018181018355828a52888a209551919093029094019384559151920191909155543385526003909101909252909120555b5060005b6001548110156112fb5760006103e860088381548110151561121357fe5b9060005260206000200154850281151561122957fe5b0411156112f357600180548290811061123e57fe5b60009182526020909120015460088054600160a060020a039092169163fd6369759187916103e891908690811061127157fe5b9060005260206000200154870281151561128757fe5b046040518363ffffffff1660e060020a0281526004018083600160a060020a0316600160a060020a0316815260200182815260200192505050600060405180830381600087803b1580156112da57600080fd5b505af11580156112ee573d6000803e3d6000fd5b505050505b6001016111f5565b50505050565b600160a060020a0381166000908152600a6020526040812060010154818111156113b95760098054600019810190811061133757fe5b60009182526020909120015460098054600160a060020a03909216918390811061135d57fe5b6000918252602080832091909101805473ffffffffffffffffffffffffffffffffffffffff1916600160a060020a039485161790559185168152600a909152604081206001015560098054906113b79060001983016113c3565b505b5050600954919050565b8154818355818111156113e7576000838152602090206113e79181019083016113ec565b505050565b61040291905b80821115610b4357600081556001016113f25600a165627a7a72305820c93a54c3c4014cbff4ece1cb165572a034afd882e0d32c4ccfd6330679e32f060029",
  "source": "pragma solidity ^0.4.23;\r\n\r\nimport \"./FathomToken.sol\";\r\nimport \"./ConceptRegistry.sol\";\r\nimport \"./Assessment.sol\";\r\nimport \"./Math.sol\";\r\nimport \"./ConceptData.sol\";\r\n\r\n//@purpose: To store concept data and create and manage assessments and members\r\ncontract Concept is ConceptData {\r\n    modifier onlyOwner(){\r\n        require(msg.sender == owner);\r\n        _;\r\n    }\r\n\r\n    modifier onlyConcept() {\r\n      require(conceptRegistry.conceptExists(msg.sender));\r\n      _;\r\n    }\r\n\r\n    function transferOwnership(address _newOwner) onlyOwner() public {\r\n        owner = _newOwner;\r\n    }\r\n\r\n    function changeLifetime(uint _newLifetime) onlyOwner() public {\r\n        lifetime = _newLifetime;\r\n    }\r\n\r\n    function getAvailableMemberLength() public constant returns(uint) {\r\n        return availableMembers.length;\r\n    }\r\n\r\n    function getParentsLength() public view returns(uint) {\r\n        return parents.length;\r\n    }\r\n\r\n    /*\r\n      @purpose: To add the firstUser to Mew\r\n    */\r\n    function addInitialMember(address _user, uint _weight) public {\r\n        if (conceptRegistry.distributorAddress() == msg.sender)\r\n            {\r\n                this.addWeight(_user, _weight);\r\n                availableMembers.push(_user);\r\n                memberData[_user].index = availableMembers.length;\r\n            }\r\n    }\r\n\r\n    /*\r\n      @purpose: add the caller of this function to the arrays of potential assessors\r\n      if they still have a weight in the concept\r\n      @returns true if they are available as assessor\r\n    */\r\n    function toggleAvailability() public returns(bool success){\r\n        if (getWeightAndUpdate(msg.sender) > 0) {\r\n            if (memberData[msg.sender].index == 0) {\r\n                availableMembers.push(msg.sender);\r\n                memberData[msg.sender].index = availableMembers.length;\r\n                success = true;\r\n            }\r\n            else {\r\n                removeMember(msg.sender);\r\n            }\r\n        }\r\n   }\r\n\r\n    /*\r\n      //@purpose: returns a random member of the Concept or the zero address (both with approx. 50%)\r\n      //Users with high weights are more likely to be called\r\n      //@returns the address of the member (0x0 if there is no member)\r\n    */\r\n    function getWeightedRandomMember(uint seed) public returns(address){\r\n        uint weight1;\r\n        uint weight2;\r\n        address randomMember1;\r\n        while (availableMembers.length > 1 && weight1 == 0) {\r\n            uint index1 = Math.getRandom(seed, availableMembers.length - 1);\r\n            randomMember1 = availableMembers[index1];\r\n            weight1 = getWeightAndUpdate(randomMember1);\r\n            seed++;\r\n        }\r\n        while (availableMembers.length > 1 && weight2 == 0) {\r\n                uint index2 = Math.getRandom(seed * 2, availableMembers.length - 1);\r\n                address randomMember2 = availableMembers[index2];\r\n                weight2 = getWeightAndUpdate(randomMember2);\r\n                seed += 10;\r\n        }\r\n        if (weight1 > weight2) {\r\n            return randomMember1;\r\n        }\r\n    }\r\n\r\n    /*\r\n      @purpose: get the weight of a given member, also removes that member from the array\r\n      if there legitimating assessment is expired\r\n    */\r\n    function getWeight(address _member) view public returns(uint weight){\r\n        for (uint i=0; i < memberData[_member].weights.length; i++) {\r\n            if (memberData[_member].weights[i].date > now){\r\n                weight += memberData[_member].weights[i].weight;\r\n            }\r\n        }\r\n    }\r\n\r\n    //@purpose: check weight and update availableMembers array\r\n    function getWeightAndUpdate(address _member) public returns(uint weight) {\r\n        weight = getWeight(_member);\r\n        if (weight == 0) {\r\n            removeMember(_member);\r\n        }\r\n    }\r\n\r\n    /*\r\n      @purpose: removes member at a given index from the availableMembers array by substituting they with\r\n      the last member and then decreasing the size of the availableMembers array\r\n      @returns the updated number of availableMembers in the concept\r\n    */\r\n    function removeMember(address _member) private returns(uint){\r\n        uint index = memberData[_member].index;\r\n        if (index > 0){\r\n            availableMembers[index] = availableMembers[availableMembers.length - 1]; //THIS NEEDS TO BE TESTED!\r\n            memberData[_member].index = 0;\r\n            availableMembers.length--;\r\n        }\r\n        return availableMembers.length;\r\n    }\r\n\r\n    /*\r\n      @purpose: To make a new assessment\r\n      NOTE: While there are less than 200 members in network, all members of mew will\r\n      be called as assessors for any concept\r\n      @param: uint cost = the cost per assessor\r\n      @param: uint size = the number of assessors\r\n    */\r\n    function makeAssessment(uint cost, uint size, uint _waitTime, uint _timeLimit) public returns(bool) {\r\n      require(size >= 5 && fathomToken.balanceOf(msg.sender) >= cost*size);\r\n\r\n      Assessment newAssessment = conceptRegistry.proxyFactory().createAssessment(msg.sender, size, cost, _waitTime, _timeLimit);\r\n      assessmentExists[address(newAssessment)] = true;\r\n      fathomToken.takeBalance(msg.sender, address(newAssessment), cost*size, address(this));\r\n\r\n      // get membernumber of mew to see whether there are more than 200 users in the system:\r\n      address mewAddress = conceptRegistry.mewAddress();\r\n      uint nMemberInMew = Concept(mewAddress).getAvailableMemberLength();\r\n      if (nMemberInMew < size * 5) {\r\n        newAssessment.callAllFromMew(nMemberInMew, mewAddress);\r\n      } else {\r\n        newAssessment.setAssessorPool(uint(blockhash(block.number)), address(this), size*5);\r\n      }\r\n      return true;\r\n    }\r\n\r\n    /*\r\n      @purpose: To add a member to a concept and to recursively add  a member to parent concept\r\n      @param: address assessee = the address of the assessee\r\n      @param: uint weight = the weight for the member\r\n      @returns: nothing\r\n    */\r\n    function addMember(address _assessee, uint _weight) public {\r\n        if (assessmentExists[msg.sender]) {\r\n            memberData[_assessee].recentAssessment = msg.sender;\r\n            this.addWeight(_assessee, _weight);\r\n        }\r\n    }\r\n\r\n    function addWeight(address _assessee, uint _weight) public onlyConcept() {\r\n        uint idx = memberData[_assessee].componentWeightIndex[msg.sender];\r\n        if (idx > 0) {\r\n            memberData[_assessee].weights[idx-1] = ComponentWeight(_weight, now + lifetime);\r\n        } else {\r\n            memberData[_assessee].weights.push(ComponentWeight(_weight, now + lifetime));\r\n            memberData[_assessee].componentWeightIndex[msg.sender] = memberData[_assessee].weights.length;\r\n        }\r\n\r\n        for(uint i = 0; i < parents.length; i++) {\r\n            if((_weight*propagationRates[i])/1000 > 0) {\r\n                Concept(parents[i]).addWeight(_assessee, (_weight*propagationRates[i])/1000);\r\n            }\r\n        }\r\n    }\r\n}\r\n",
  "sourcePath": "/home/jared/dev/blockchain/assess/contracts/Concept.sol",
  "compiler": {
    "name": "solc",
    "version": "0.4.24+commit.e67f0147.Emscripten.clang"
  },
  "schemaVersion": "2.0.1",
  "updatedAt": "2018-07-31T19:41:44.512Z"
}