{
  "contractName": "ConceptRegistry",
  "abi": [
    {
      "constant": true,
      "inputs": [],
      "name": "fathomToken",
      "outputs": [
        {
          "name": "",
          "type": "address"
        }
      ],
      "payable": false,
      "stateMutability": "view",
      "type": "function"
    },
    {
      "constant": true,
      "inputs": [],
      "name": "constants",
      "outputs": [
        {
          "name": "",
          "type": "address"
        }
      ],
      "payable": false,
      "stateMutability": "view",
      "type": "function"
    },
    {
      "constant": true,
      "inputs": [],
      "name": "mewAddress",
      "outputs": [
        {
          "name": "",
          "type": "address"
        }
      ],
      "payable": false,
      "stateMutability": "view",
      "type": "function"
    },
    {
      "constant": true,
      "inputs": [],
      "name": "distributorAddress",
      "outputs": [
        {
          "name": "",
          "type": "address"
        }
      ],
      "payable": false,
      "stateMutability": "view",
      "type": "function"
    },
    {
      "constant": true,
      "inputs": [
        {
          "name": "",
          "type": "address"
        }
      ],
      "name": "conceptExists",
      "outputs": [
        {
          "name": "",
          "type": "bool"
        }
      ],
      "payable": false,
      "stateMutability": "view",
      "type": "function"
    },
    {
      "anonymous": false,
      "inputs": [
        {
          "indexed": false,
          "name": "_concept",
          "type": "address"
        }
      ],
      "name": "ConceptCreation",
      "type": "event"
    },
    {
      "constant": false,
      "inputs": [
        {
          "name": "_token",
          "type": "address"
        },
        {
          "name": "_distributor",
          "type": "address"
        },
        {
          "name": "_constants",
          "type": "address"
        }
      ],
      "name": "init",
      "outputs": [],
      "payable": false,
      "stateMutability": "nonpayable",
      "type": "function"
    },
    {
      "constant": false,
      "inputs": [
        {
          "name": "parentList",
          "type": "address[]"
        },
        {
          "name": "_propagationRates",
          "type": "uint256[]"
        },
        {
          "name": "_lifetime",
          "type": "uint256"
        },
        {
          "name": "_data",
          "type": "bytes"
        },
        {
          "name": "_owner",
          "type": "address"
        }
      ],
      "name": "makeConcept",
      "outputs": [
        {
          "name": "",
          "type": "address"
        }
      ],
      "payable": false,
      "stateMutability": "nonpayable",
      "type": "function"
    }
  ],
  "bytecode": "0x60606040526001805460a060020a60ff0219169055341561001f57600080fd5b613e2c8061002e6000396000f3006060604052600436106100825763ffffffff7c01000000000000000000000000000000000000000000000000000000006000350416631684ae4d8114610087578063184b9559146100b657806372de5b2f146100e35780637894d1d0146100f65780639e45c886146101db578063a51af4c5146101ee578063c18e467914610201575b600080fd5b341561009257600080fd5b61009a610234565b604051600160a060020a03909116815260200160405180910390f35b34156100c157600080fd5b6100e1600160a060020a0360043581169060243581169060443516610243565b005b34156100ee57600080fd5b61009a610482565b341561010157600080fd5b61009a60046024813581810190830135806020818102016040519081016040528093929190818152602001838360200280828437820191505050505050919080359060200190820180359060200190808060200260200160405190810160405280939291908181526020018383602002808284378201915050505050509190803590602001909190803590602001908201803590602001908080601f01602080910402602001604051908101604052818152929190602084018383808284375094965050509235600160a060020a03169250610491915050565b34156101e657600080fd5b61009a61064a565b34156101f957600080fd5b61009a610659565b341561020c57600080fd5b610220600160a060020a0360043516610668565b604051901515815260200160405180910390f35b600154600160a060020a031681565b60015460009074010000000000000000000000000000000000000000900460ff16151561047c5760018054600160a060020a0380871673ffffffffffffffffffffffffffffffffffffffff1992831617909255600380549286169290911691909117905560006040518059106102b65750595b908082528060200260200182016040525060006040518059106102d65750595b90808252806020026020018201604052507f8000000000000000000000000000000000000000000000000000000000000000600061031261067d565b8080602001806020018581526020018060200185600160a060020a0316600160a060020a03168152602001848103845288818151815260200191508051906020019060200280838360005b8381101561037557808201518382015260200161035d565b50505050905001848103835287818151815260200191508051906020019060200280838360005b838110156103b457808201518382015260200161039c565b50505050905001848103825260008152602001602001975050505050505050604051809103906000f08015156103e957600080fd5b60028054600160a060020a0380841673ffffffffffffffffffffffffffffffffffffffff1992831617928390559182166000908152602081905260409020805460ff19166001908117909155805474ff0000000000000000000000000000000000000000191674010000000000000000000000000000000000000000179055600480549286169290911691909117905590505b50505050565b600454600160a060020a031681565b60008060008751116104a257600080fd5b86868686866104af61067d565b8080602001806020018681526020018060200185600160a060020a0316600160a060020a03168152602001848103845289818151815260200191508051906020019060200280838360005b838110156105125780820151838201526020016104fa565b50505050905001848103835288818151815260200191508051906020019060200280838360005b83811015610551578082015183820152602001610539565b50505050905001848103825286818151815260200191508051906020019080838360005b8381101561058d578082015183820152602001610575565b50505050905090810190601f1680156105ba5780820380516001836020036101000a031916815260200191505b5098505050505050505050604051809103906000f08015156105db57600080fd5b600160a060020a03811660009081526020819052604090819020805460ff191660011790559091507f584f82774c2663c22e328c822f476c5496db7ad9bfcdc79c559f69a2622e39ba90829051600160a060020a03909116815260200160405180910390a19695505050505050565b600254600160a060020a031681565b600354600160a060020a031681565b60006020819052908152604090205460ff1681565b604051613772806200068f833901905600606060405234156200001057600080fd5b6040516200377238038062003772833981016040528080518201919060200180518201919060200180519190602001805182019190602001805191506000905084518651146200005f57600080fd5b5060048054600160a060020a03191633600160a060020a031617905560005b85518110156200015a57600454600160a060020a031663c18e4679878381518110620000a657fe5b906020019060200201516040517c010000000000000000000000000000000000000000000000000000000063ffffffff8416028152600160a060020a039091166004820152602401602060405180830381600087803b15156200010857600080fd5b5af115156200011657600080fd5b5050506040518051905015156200012c57600080fd5b6103e88582815181106200013c57fe5b90602001906020020151106200015157600080fd5b6001016200007e565b60088580516200016f929160200190620002db565b506000868051620001859291602001906200032b565b5060018380516200019b92916020019062000393565b50600684905560028054600160a060020a031916600160a060020a038481169190911790915560045416631684ae4d6040518163ffffffff167c0100000000000000000000000000000000000000000000000000000000028152600401602060405180830381600087803b15156200021257600080fd5b5af115156200022057600080fd5b505050604051805160038054600160a060020a031916600160a060020a039283161790556004541690506372de5b2f6040518163ffffffff167c0100000000000000000000000000000000000000000000000000000000028152600401602060405180830381600087803b15156200029757600080fd5b5af11515620002a557600080fd5b505050604051805160058054600160a060020a031916600160a060020a0392909216919091179055506200044c95505050505050565b82805482825590600052602060002090810192821562000319579160200282015b8281111562000319578251825591602001919060010190620002fc565b506200032792915062000405565b5090565b82805482825590600052602060002090810192821562000385579160200282015b82811115620003855782518254600160a060020a031916600160a060020a0391909116178255602092909201916001909101906200034c565b506200032792915062000425565b828054600181600116156101000203166002900490600052602060002090601f016020900481019282601f10620003d657805160ff191683800117855562000319565b8280016001018555821562000319579182018281111562000319578251825591602001919060010190620002fc565b6200042291905b808211156200032757600081556001016200040c565b90565b6200042291905b8082111562000327578054600160a060020a03191681556001016200042c565b613316806200045c6000396000f300606060405260043610620001195763ffffffff60e060020a6000350416631684ae4d81146200011e57806321d39c2c146200015057806335a0729114620001865780633f99fa5414620001a8578063449a058d14620001cf5780635daf08ca14620001f757806369d24f63146200021057806370a2b84a146200022657806372de5b2f146200023c57806373d4a13a1462000252578063824989c314620002e257806385b2ff8f14620002fb578063898572a614620003145780638da5cb5b146200032d5780639107d08e146200034357806398041ea31462000387578063ac6c525114620003ac578063d965ea0014620003ce578063de0d080214620003e4578063f2fde38b1462000406578063fd6369751462000428575b600080fd5b34156200012a57600080fd5b620001346200044d565b604051600160a060020a03909116815260200160405180910390f35b34156200015c57600080fd5b62000172600160a060020a03600435166200045c565b604051901515815260200160405180910390f35b34156200019257600080fd5b6200017260043560243560443560643562000471565b3415620001b457600080fd5b620001cd600160a060020a0360043516602435620008ae565b005b3415620001db57600080fd5b620001e562000985565b60405190815260200160405180910390f35b34156200020357600080fd5b620001346004356200098c565b34156200021c57600080fd5b620001e5620009b5565b34156200023257600080fd5b62000172620009bb565b34156200024857600080fd5b6200013462000a6f565b34156200025e57600080fd5b6200026862000a7e565b60405160208082528190810183818151815260200191508051906020019080838360005b83811015620002a65780820151838201526020016200028c565b50505050905090810190601f168015620002d45780820380516001836020036101000a031916815260200191505b509250505060405180910390f35b3415620002ee57600080fd5b620001cd60043562000b20565b34156200030757600080fd5b6200013460043562000b41565b34156200032057600080fd5b6200013460043562000d08565b34156200033957600080fd5b6200013462000d17565b34156200034f57600080fd5b62000365600160a060020a036004351662000d26565b604051600160a060020a03909216825260208201526040908101905180910390f35b34156200039357600080fd5b620001cd600160a060020a036004351660243562000d4b565b3415620003b857600080fd5b620001e5600160a060020a036004351662000df8565b3415620003da57600080fd5b620001e562000eb2565b3415620003f057600080fd5b620001e5600160a060020a036004351662000eb8565b34156200041257600080fd5b620001cd600160a060020a036004351662000edf565b34156200043457600080fd5b620001cd600160a060020a036004351660243562000f2a565b600354600160a060020a031681565b60076020526000908152604090205460ff1681565b600554600090819081908190600160a060020a0316630ea24e546040518163ffffffff1660e060020a028152600401602060405180830381600087803b1515620004ba57600080fd5b5af11515620004c857600080fd5b50505060405180518810801591506200054c575060035488880290600160a060020a03166370a082313360405160e060020a63ffffffff8416028152600160a060020a039091166004820152602401602060405180830381600087803b15156200053157600080fd5b5af115156200053f57600080fd5b5050506040518051905010155b15156200055857600080fd5b33878988886200056762001331565b600160a060020a03909516855260208501939093526040808501929092526060840152608083019190915260a09091019051809103906000f0801515620005ad57600080fd5b600160a060020a0380821660009081526007602052604090819020805460ff191660011790556003549295509116906327234ecc90339086908c8c029030905160e060020a63ffffffff8716028152600160a060020a039485166004820152928416602484015260448301919091529091166064820152608401602060405180830381600087803b15156200064157600080fd5b5af115156200064f57600080fd5b50505060405180515050600454600160a060020a0316639e45c8866040518163ffffffff1660e060020a028152600401602060405180830381600087803b15156200069957600080fd5b5af11515620006a757600080fd5b5050506040518051925050600160a060020a03821663d965ea006040518163ffffffff1660e060020a028152600401602060405180830381600087803b1515620006f057600080fd5b5af11515620006fe57600080fd5b5050506040518051600554909250600160a060020a03169050633ba308066040518163ffffffff1660e060020a028152600401602060405180830381600087803b15156200074b57600080fd5b5af115156200075957600080fd5b505050604051805190508702811015620007da5782600160a060020a031663e6c50020828460405160e060020a63ffffffff85160281526004810192909252600160a060020a03166024820152604401600060405180830381600087803b1515620007c357600080fd5b5af11515620007d157600080fd5b505050620008a0565b600554600160a060020a0380851691632fa4f694914391309116630ea24e546040518163ffffffff1660e060020a028152600401602060405180830381600087803b15156200082857600080fd5b5af115156200083657600080fd5b505050604051805190508b0260405160e060020a63ffffffff86160281526004810193909352600160a060020a0390911660248301526044820152606401600060405180830381600087803b15156200088e57600080fd5b5af115156200089c57600080fd5b5050505b506001979650505050505050565b600454600160a060020a03338116911663a51af4c56040518163ffffffff1660e060020a028152600401602060405180830381600087803b1515620008f257600080fd5b5af115156200090057600080fd5b50505060405180519050600160a060020a03161415620009815730600160a060020a031663fd636975838360405160e060020a63ffffffff8516028152600160a060020a0390921660048301526024820152604401600060405180830381600087803b15156200096f57600080fd5b5af115156200097d57600080fd5b5050505b5050565b6000545b90565b60098054829081106200099b57fe5b600091825260209091200154600160a060020a0316905081565b60065481565b600080620009c93362000eb8565b11156200098957600160a060020a0333166000908152600a6020526040902060010154151562000a6057600980546001810162000a07838262001342565b506000918252602080832091909101805473ffffffffffffffffffffffffffffffffffffffff191633600160a060020a0316908117909155600954908352600a9091526040909120600190810191909155905062000989565b62000a6b336200126a565b5090565b600554600160a060020a031681565b60018054600181600116156101000203166002900480601f01602080910402602001604051908101604052809291908181526020018280546001816001161561010002031660029004801562000b185780601f1062000aec5761010080835404028352916020019162000b18565b820191906000526020600020905b81548152906001019060200180831162000afa57829003601f168201915b505050505081565b60025433600160a060020a0390811691161462000b3c57600080fd5b600655565b60008060008060008060005b60095460019011801562000b5f575085155b1562000c1d5773__Math__________________________________63655b08eb8960016009805490500360405160e060020a63ffffffff85160281526004810192909252602482015260440160206040518083038186803b151562000bc357600080fd5b5af4151562000bd157600080fd5b50505060405180519050925060098381548110151562000bed57fe5b600091825260209091200154600160a060020a0316935062000c0f8462000eb8565b600190980197955062000b4d565b60095460019011801562000c2f575084155b1562000cf05773__Math__________________________________63655b08eb8960020260016009805490500360405160e060020a63ffffffff85160281526004810192909252602482015260440160206040518083038186803b151562000c9657600080fd5b5af4151562000ca457600080fd5b50505060405180519050915060098281548110151562000cc057fe5b600091825260209091200154600160a060020a0316905062000ce28162000eb8565b9450600a8801975062000c1d565b8486111562000cfd578396505b505050505050919050565b60008054829081106200099b57fe5b600254600160a060020a031681565b600a6020526000908152604090208054600190910154600160a060020a039091169082565b600160a060020a03331660009081526007602052604090205460ff16156200098157600160a060020a038281166000908152600a602052604090819020805473ffffffffffffffffffffffffffffffffffffffff1916338416179055309091169063fd63697590849084905160e060020a63ffffffff8516028152600160a060020a0390921660048301526024820152604401600060405180830381600087803b15156200096f57600080fd5b6000805b600160a060020a0383166000908152600a602052604090206002015481101562000eac57600160a060020a0383166000908152600a6020526040902060020180544291908390811062000e4b57fe5b906000526020600020906002020160010154111562000ea357600160a060020a0383166000908152600a6020526040902060020180548290811062000e8c57fe5b906000526020600020906002020160000154820191505b60010162000dfc565b50919050565b60095490565b600062000ec58262000df8565b905080151562000eda5762000eac826200126a565b919050565b60025433600160a060020a0390811691161462000efb57600080fd5b6002805473ffffffffffffffffffffffffffffffffffffffff1916600160a060020a0392909216919091179055565b6004546000908190600160a060020a031663c18e46793360405160e060020a63ffffffff8416028152600160a060020a039091166004820152602401602060405180830381600087803b151562000f8057600080fd5b5af1151562000f8e57600080fd5b50505060405180519050151562000fa457600080fd5b600160a060020a0384166000908152600a602052604090206001015415156200102857600980546001810162000fdb838262001342565b506000918252602080832091909101805473ffffffffffffffffffffffffffffffffffffffff1916600160a060020a038816908117909155600954908352600a9091526040909120600101555b600160a060020a038085166000908152600a6020908152604080832033909416835260039093019052908120549250821115620010cc576040805190810160409081528482526006544201602080840191909152600160a060020a0387166000908152600a9091522060020180546000198501908110620010a557fe5b90600052602060002090600202016000820151815560208201516001909101555062001165565b600160a060020a0384166000908152600a60205260409020600201805460018101620010f983826200136e565b9160005260206000209060020201600060408051908101604052868152600654420160208201529190508151815560208201516001909101555050600160a060020a038085166000908152600a6020908152604080832060028101543390951684526003019091529020555b5060005b600054811015620012645760006103e86008838154811015156200118957fe5b9060005260206000209001548502811515620011a157fe5b0411156200125b576000805482908110620011b857fe5b60009182526020909120015460088054600160a060020a039092169163fd6369759187916103e8919086908110620011ec57fe5b90600052602060002090015487028115156200120457fe5b0460405160e060020a63ffffffff8516028152600160a060020a0390921660048301526024820152604401600060405180830381600087803b15156200124957600080fd5b5af115156200125757600080fd5b5050505b60010162001169565b50505050565b600160a060020a0381166000908152600a6020526040812060010154818111156200132757600980546000198101908110620012a257fe5b60009182526020909120015460098054600160a060020a039092169183908110620012c957fe5b6000918252602080832091909101805473ffffffffffffffffffffffffffffffffffffffff1916600160a060020a039485161790559185168152600a909152604081206001015560098054906200132590600019830162001342565b505b5050600954919050565b604051611f0d80620013de83390190565b8154818355818115116200136957600083815260209020620013699181019083016200139d565b505050565b8154818355818115116200136957600202816002028360005260206000209182019101620013699190620013ba565b6200098991905b8082111562000a6b5760008155600101620013a4565b6200098991905b8082111562000a6b5760008082556001820155600201620013c15600606060405234156200001057600080fd5b60405160a08062001f0d833981016040528080519190602001805191906020018051919060200180519190602001805160008054600160a060020a031916600160a060020a03898116919091179091556003805461010060a860020a0319166101003384168102919091179182905592945091909104169050631684ae4d6040518163ffffffff167c0100000000000000000000000000000000000000000000000000000000028152600401602060405180830381600087803b1515620000d657600080fd5b5af11515620000e457600080fd5b505050604051805160048054600160a060020a031916600160a060020a0392831617905560035461010090041690506372de5b2f6040518163ffffffff167c0100000000000000000000000000000000000000000000000000000000028152600401602060405180830381600087803b15156200016057600080fd5b5af115156200016e57600080fd5b505050604051805160058054600160a060020a031916600160a060020a039290921691909117905550428181016006819055908301600781905510620001b057fe5b6008849055600983905560045460008054600160a060020a03928316926376147a0e929116906040517c010000000000000000000000000000000000000000000000000000000063ffffffff8516028152600160a060020a0390921660048301526024820152604401600060405180830381600087803b15156200023357600080fd5b5af115156200024157600080fd5b50506000600b55505050505050611caf806200025e6000396000f3006060604052600436106100e25763ffffffff60e060020a60003504166313faede681146100e75780632ad1bc091461010c5780632fa4f694146101725780633197cbb61461019757806347c20ab7146101aa5780636732e966146101d9578063739d9dc1146101ec578063949d225d146101ff5780639c6a1dfb14610212578063ae8421e114610249578063bf1c69691461025c578063bfa0b1331461027b578063c2c4c5c11461028e578063e1152343146102a1578063e6c50020146102b7578063f14fcbc8146102d9578063f571da7f146102ef578063fadf617b14610302575b600080fd5b34156100f257600080fd5b6100fa61035b565b60405190815260200160405180910390f35b341561011757600080fd5b61017060048035600f0b9060446024803590810190830135806020601f8201819004810201604051908101604052818152929190602084018383808284375094965050509235600160a060020a03169250610361915050565b005b341561017d57600080fd5b610170600435600160a060020a03602435166044356104d8565b34156101a257600080fd5b6100fa610782565b34156101b557600080fd5b6101bd610788565b604051600160a060020a03909116815260200160405180910390f35b34156101e457600080fd5b6101bd610797565b34156101f757600080fd5b6100fa6107ab565b341561020a57600080fd5b6100fa6107b1565b341561021d57600080fd5b6102256107b7565b6040518082600581111561023557fe5b60ff16815260200191505060405180910390f35b341561025457600080fd5b6100fa6107c0565b341561026757600080fd5b610225600160a060020a03600435166107c6565b341561028657600080fd5b6100fa6107db565b341561029957600080fd5b6100fa6107e1565b34156102ac57600080fd5b6101706004356107e7565b34156102c257600080fd5b610170600435600160a060020a0360243516610cec565b34156102e457600080fd5b610170600435610da1565b34156102fa57600080fd5b610170610ec4565b341561030d57600080fd5b61017060048035600f0b9060446024803590810190830135806020601f8201819004810201604051908101604052818152929190602084018383808284375094965061113795505050505050565b60095481565b6003600160a060020a03821660009081526002602052604090205460ff16600581111561038a57fe5b14156104d35782826040518083600f0b600f0b70010000000000000000000000000000000002815260100182805190602001908083835b602083106103e05780518252601f1990920191602091820191016103c1565b6001836020036101000a038019825116818451161790925250505091909101935060409250505051908190039020600160a060020a0382166000908152600a602052604090205414156104d357600454600954600160a060020a039091169063a9059cbb9033906002900460405160e060020a63ffffffff8516028152600160a060020a0390921660048301526024820152604401602060405180830381600087803b151561048e57600080fd5b5af1151561049b57600080fd5b50505060405180515050600160a060020a0381166000908152600260205260409020805460ff19166005179055600880546000190190555b505050565b6000806000806000806000600360019054906101000a9004600160a060020a0316600160a060020a031633600160a060020a031614151561051857600080fd5b6000965088600160a060020a031663d965ea006040518163ffffffff1660e060020a028152600401602060405180830381600087803b151561055957600080fd5b5af1151561056657600080fd5b50505060405180519650506002860488116105815787610586565b600286045b9450600093505b848410156106285788600160a060020a03166385b2ff8f858c0160405160e060020a63ffffffff84160281526004810191909152602401602060405180830381600087803b15156105dd57600080fd5b5af115156105ea57600080fd5b5050506040518051935050600160a060020a0383161580159061061157506106118361139d565b1561061d576001909601955b60019093019261058d565b86880391506000821115610769575060005b88600160a060020a031663449a058d6040518163ffffffff1660e060020a028152600401602060405180830381600087803b151561067757600080fd5b5af1151561068457600080fd5b505050604051805190508110156107695761076181888c01018a600160a060020a031663898572a68460405160e060020a63ffffffff84160281526004810191909152602401602060405180830381600087803b15156106e357600080fd5b5af115156106f057600080fd5b505050604051805190508b600160a060020a031663449a058d6040518163ffffffff1660e060020a028152600401602060405180830381600087803b151561073757600080fd5b5af1151561074457600080fd5b505050604051805190508581151561075857fe5b046001016104d8565b60010161063a565b50506003805460ff191660011790555050505050505050565b60065481565b600054600160a060020a031681565b6003546101009004600160a060020a031681565b600d5481565b60085481565b60035460ff1681565b600b5481565b60026020526000908152604090205460ff1681565b600e5481565b60075481565b60006107f1611c31565b6107f9611c31565b600080808060048060035460ff16600581111561081257fe5b1461081c57600080fd5b600154600098506040518059106108305750595b90808252806020026020018201604052506001549097506040518059106108545750595b90808252806020026020018201604052509550600094505b600154851015610b685760046002600060018881548110151561088b57fe5b6000918252602080832090910154600160a060020a0316835282019290925260400190205460ff1660058111156108be57fe5b1415610b5d5773__Math__________________________________634c619e4c73__Math__________________________________631b5ac4b5600d54600c600060018c81548110151561090e57fe5b6000918252602080832090910154600160a060020a03168352820192909252604090810190912054600f90810b900b91909103905160e060020a63ffffffff8416028152600481019190915260240160206040518083038186803b151561097457600080fd5b5af4151561098157600080fd5b5050506040518051905060095460405160e060020a63ffffffff851602815260048101929092526024820152604401604080518083038186803b15156109c657600080fd5b5af415156109d357600080fd5b5050506040518051906020018051919550909350508215610b28578360095403880197506000841115610a955760045460018054600160a060020a039092169163a9059cbb919088908110610a2457fe5b600091825260209091200154600160a060020a03168660405160e060020a63ffffffff8516028152600160a060020a0390921660048301526024820152604401602060405180830381600087803b1515610a7d57600080fd5b5af11515610a8a57600080fd5b505050604051805150505b60045460018054600160a060020a03909216916376147a0e919088908110610ab957fe5b600091825260209091200154600160a060020a0316600660405160e060020a63ffffffff8516028152600160a060020a0390921660048301526024820152604401600060405180830381600087803b1515610b1357600080fd5b5af11515610b2057600080fd5b505050610b5d565b6001878681518110610b3657fe5b91151560209283029091019091015283868681518110610b5257fe5b602090810290910101525b60019094019361086c565b600091505b8551821015610ce157868281518110610b8257fe5b9060200190602002015115610cd65760045460018054600160a060020a039092169163a9059cbb919085908110610bb557fe5b600091825260209091200154600160a060020a03168b8b811515610bd557fe5b04898681518110610be257fe5b906020019060200201510160405160e060020a63ffffffff8516028152600160a060020a0390921660048301526024820152604401602060405180830381600087803b1515610c3057600080fd5b5af11515610c3d57600080fd5b5050506040518051505060045460018054600160a060020a03909216916376147a0e919085908110610c6b57fe5b600091825260209091200154600160a060020a0316600660405160e060020a63ffffffff8516028152600160a060020a0390921660048301526024820152604401600060405180830381600087803b1515610cc557600080fd5b5af11515610cd257600080fd5b5050505b600190910190610b6d565b505050505050505050565b600354600090819033600160a060020a039081166101009092041614610d1157600080fd5b5081905060005b83811015610d8e57610d8582600160a060020a0316635daf08ca8360405160e060020a63ffffffff84160281526004810191909152602401602060405180830381600087803b1515610d6957600080fd5b5af11515610d7657600080fd5b5050506040518051905061139d565b50600101610d18565b50506003805460ff191660011790555050565b60028060035460ff166005811115610db557fe5b14610dbf57600080fd5b600654421115610dd357610dd36002611479565b6002600160a060020a03331660009081526002602052604090205460ff166005811115610dfc57fe5b1415610e3c5733600160a060020a03166000908152600a6020908152604080832085905560029091529020805460ff19166003179055600b805460010190555b600854600b541415610ec057600554600160a060020a0316631f7489546040518163ffffffff1660e060020a028152600401602060405180830381600087803b1515610e8757600080fd5b5af11515610e9457600080fd5b5050506040518051420160075550610eae60036005611512565b6000600b556003805460ff1916811790555b5050565b60018060035460ff166005811115610ed857fe5b14610ee257600080fd5b600754421115610ef957610ef4611602565b611134565b6001600160a060020a03331660009081526002602052604090205460ff166005811115610f2257fe5b148015610f325750600854600154105b8015610fcd5750600454600954600354600160a060020a03928316926327234ecc92339230926101009091041660405160e060020a63ffffffff8716028152600160a060020a039485166004820152928416602484015260448301919091529091166064820152608401602060405180830381600087803b1515610fb557600080fd5b5af11515610fc257600080fd5b505050604051805190505b1561109e5760018054808201610fe38382611c43565b506000918252602080832091909101805473ffffffffffffffffffffffffffffffffffffffff191633600160a060020a031690811790915582526002908190526040909120805460ff19166001830217905550600454600160a060020a03166376147a0e33600260405160e060020a63ffffffff8516028152600160a060020a0390921660048301526024820152604401600060405180830381600087803b151561108d57600080fd5b5af1151561109a57600080fd5b5050505b6008546001541415611134576110b660026004611512565b60048054600054600160a060020a03918216926376147a0e929091169060405160e060020a63ffffffff8516028152600160a060020a0390921660048301526024820152604401600060405180830381600087803b151561111657600080fd5b5af1151561112357600080fd5b50506003805460ff19166002179055505b50565b60038060035460ff16600581111561114b57fe5b1461115557600080fd5b600754421161116357600080fd5b600554600160a060020a0316631f7489546040518163ffffffff1660e060020a028152600401602060405180830381600087803b15156111a257600080fd5b5af115156111af57600080fd5b505050604051805190506006540161a8c0014211156111d2576111d26003611479565b6003600160a060020a03331660009081526002602052604090205460ff1660058111156111fb57fe5b14801561129c575082826040518083600f0b600f0b70010000000000000000000000000000000002815260100182805190602001908083835b602083106112535780518252601f199092019160209182019101611234565b6001836020036101000a038019825116818451161790925250505091909101935060409250505051908190039020600160a060020a0333166000908152600a6020526040902054145b1561137c5733600160a060020a03166000908152600c60205260409081902080546fffffffffffffffffffffffffffffffff19166fffffffffffffffffffffffffffffffff600f87900b161790558290518082805190602001908083835b602083106113195780518252601f1990920191602091820191016112fa565b6001836020036101000a0380198251168184511617909252505050919091019250604091505051908190039020600e8054909118905533600160a060020a03166000908152600260205260409020805460ff19166004179055600b805460010190555b600854600b5414156104d3576003805460ff191660041790556104d36118b5565b60008054600160a060020a038381169116148015906113e05750600160a060020a03821660009081526002602052604081205460ff1660058111156113de57fe5b145b1561147457600454600160a060020a03166376147a0e83600160405160e060020a63ffffffff8516028152600160a060020a0390921660048301526024820152604401600060405180830381600087803b151561143c57600080fd5b5af1151561144957600080fd5b50505050600160a060020a0381166000908152600260205260409020805460ff191660019081179091555b919050565b60005b600154811015610ec05781600581111561149257fe5b600260006001848154811015156114a557fe5b6000918252602080832090910154600160a060020a0316835282019290925260400190205460ff1660058111156114d857fe5b141561150a5761150a6001828154811015156114f057fe5b600091825260209091200154600160a060020a0316611b97565b60010161147c565b60005b6001548110156104d357826002600060018481548110151561153357fe5b6000918252602080832090910154600160a060020a0316835282019290925260400190205460ff16600581111561156657fe5b14156115fa5760045460018054600160a060020a03909216916376147a0e91908490811061159057fe5b600091825260209091200154600160a060020a03168460405160e060020a63ffffffff8516028152600160a060020a0390921660048301526024820152604401600060405180830381600087803b15156115e957600080fd5b5af115156115f657600080fd5b5050505b600101611515565b600080600160035460ff16600581111561161857fe5b146116295760015460095402611631565b600854600954025b600454600054919350600160a060020a039081169163a9059cbb91168460405160e060020a63ffffffff8516028152600160a060020a0390921660048301526024820152604401602060405180830381600087803b151561169157600080fd5b5af1151561169e57600080fd5b50505060405180515050600454600054600160a060020a03918216916376147a0e9116600360405160e060020a63ffffffff8516028152600160a060020a0390921660048301526024820152604401600060405180830381600087803b151561170657600080fd5b5af1151561171357600080fd5b505050600090505b6001548110156118a25760056002600060018481548110151561173a57fe5b6000918252602080832090910154600160a060020a0316835282019290925260400190205460ff16600581111561176d57fe5b1461189a5760045460018054600160a060020a039092169163a9059cbb91908490811061179657fe5b600091825260209091200154600954600160a060020a039091169060405160e060020a63ffffffff8516028152600160a060020a0390921660048301526024820152604401602060405180830381600087803b15156117f457600080fd5b5af1151561180157600080fd5b5050506040518051505060045460018054600160a060020a03909216916376147a0e91908490811061182f57fe5b600091825260209091200154600160a060020a0316600360405160e060020a63ffffffff8516028152600160a060020a0390921660048301526024820152604401600060405180830381600087803b151561188957600080fd5b5af1151561189657600080fd5b5050505b60010161171b565b6003546101009004600160a060020a0316ff5b6118bd611c31565b6000808060048060035460ff1660058111156118d557fe5b146118df57600080fd5b600b546040518059106118ef5750595b9080825280602002602001820160405250945060009350600092505b6001548310156119ca5760046002600060018681548110151561192a57fe5b6000918252602080832090910154600160a060020a0316835282019290925260400190205460ff16600581111561195d57fe5b14156119bf57600c600060018581548110151561197657fe5b6000918252602080832090910154600160a060020a03168352820192909252604001902054600f90810b900b8585815181106119ae57fe5b602090810290910101526001909301925b60019092019161190b565b73__Math__________________________________63140a7ac6866040518263ffffffff1660e060020a0281526004018080602001828103825283818151815260200191508051906020019060200280838360005b83811015611a37578082015183820152602001611a1f565b5050505090500192505050604080518083038186803b1515611a5857600080fd5b5af41515611a6557600080fd5b5050506040518051906020018051600d9290925550600b5490925060029004821115611b1c57611a94826107e7565b6000600d541315611b1757600354600054600d54600160a060020a036101009093048316926398041ea3921690850260405160e060020a63ffffffff8516028152600160a060020a0390921660048301526024820152604401600060405180830381600087803b1515611b0657600080fd5b5af11515611b1357600080fd5b5050505b611b22565b6000600d555b600454600054600160a060020a03918216916376147a0e9116600760405160e060020a63ffffffff8516028152600160a060020a0390921660048301526024820152604401600060405180830381600087803b1515611b8057600080fd5b5af11515611b8d57600080fd5b5050505050505050565b600160a060020a038116600090815260026020526040902080546005919060ff19166001830217905550600554600160a060020a0316630ea24e546040518163ffffffff1660e060020a028152600401602060405180830381600087803b1515611c0057600080fd5b5af11515611c0d57600080fd5b50505060405180516008805460001901908190551015905061113457611134611602565b60206040519081016040526000815290565b8154818355818115116104d3576000838152602090206104d3918101908301611c8091905b80821115611c7c5760008155600101611c68565b5090565b905600a165627a7a723058207b4c4a7fc1f4532397c3177d22045311c17b41dcfba73ab633d5826c243243f70029a165627a7a723058201ef326dc491449b0b974c432e7a1054faafb6b8e25b9fc79e99da39e5448d5db0029a165627a7a723058208add56bceee05aabbfdc61bbd62e9a3c4bb8ff94d193ce5d4c7268419b5fe77e0029",
  "source": "pragma solidity ^0.4.11;\n\nimport \"./Concept.sol\";\n\n//@purpose: To create and store the concept ontology\ncontract ConceptRegistry {\n    mapping (address => bool) public conceptExists;\n    address public fathomToken;\n    bool initialized = false;\n    address public mewAddress; //a manually created contract with no parents\n    address public distributorAddress; //a manually created contract with no parents\n    address public constants; //contract that holds all contracts\n\n    event ConceptCreation (address _concept);\n\n    //@purpose: give this contract the address of a UserRegistry and mew Concept\n    function init(address _token, address _distributor, address _constants) public {\n        if (initialized == false) {\n            fathomToken = _token;\n            distributorAddress = _distributor;\n            Concept mew = new Concept(new address[] (0), new uint[] (0), uint(2**255), \"\", address(0x0));\n            mewAddress = address(mew);\n            conceptExists[mewAddress] = true;\n            initialized = true;\n            constants = _constants;\n        }\n    }\n\n    /*\n      @purpose: To make a concept\n      @param: address[] parentList = an array of addresses containing the addresses of the concepts parents\n    */\n    function makeConcept(address[] parentList, uint[] _propagationRates, uint _lifetime, bytes _data, address _owner) public returns (address){\n        require(parentList.length > 0);\n        Concept newConcept = new Concept(parentList, _propagationRates, _lifetime, _data, _owner);\n\n        conceptExists[address(newConcept)] = true;\n        ConceptCreation(address(newConcept));\n        return address(newConcept);\n    }\n}\n",
  "sourcePath": "/home/djuju/ethereum/fathom/assess/contracts/ConceptRegistry.sol",
  "compiler": {
    "name": "solc",
    "version": "0.4.21+commit.dfe3193c.Emscripten.clang"
  },
  "schemaVersion": "2.0.0",
  "updatedAt": "2018-04-25T13:53:50.033Z"
}