{
  "contractName": "ConceptData",
  "abi": [
    {
      "constant": true,
      "inputs": [],
      "name": "fathomToken",
      "outputs": [
        {
          "name": "",
          "type": "address"
        }
      ],
      "payable": false,
      "stateMutability": "view",
      "type": "function"
    },
    {
      "constant": true,
      "inputs": [
        {
          "name": "",
          "type": "address"
        }
      ],
      "name": "assessmentExists",
      "outputs": [
        {
          "name": "",
          "type": "bool"
        }
      ],
      "payable": false,
      "stateMutability": "view",
      "type": "function"
    },
    {
      "constant": true,
      "inputs": [],
      "name": "lifetime",
      "outputs": [
        {
          "name": "",
          "type": "uint256"
        }
      ],
      "payable": false,
      "stateMutability": "view",
      "type": "function"
    },
    {
      "constant": true,
      "inputs": [],
      "name": "data",
      "outputs": [
        {
          "name": "",
          "type": "bytes"
        }
      ],
      "payable": false,
      "stateMutability": "view",
      "type": "function"
    },
    {
      "constant": true,
      "inputs": [
        {
          "name": "",
          "type": "uint256"
        }
      ],
      "name": "parents",
      "outputs": [
        {
          "name": "",
          "type": "address"
        }
      ],
      "payable": false,
      "stateMutability": "view",
      "type": "function"
    },
    {
      "constant": true,
      "inputs": [],
      "name": "owner",
      "outputs": [
        {
          "name": "",
          "type": "address"
        }
      ],
      "payable": false,
      "stateMutability": "view",
      "type": "function"
    },
    {
      "constant": true,
      "inputs": [
        {
          "name": "",
          "type": "uint256"
        }
      ],
      "name": "availableMembers",
      "outputs": [
        {
          "name": "",
          "type": "address"
        }
      ],
      "payable": false,
      "stateMutability": "view",
      "type": "function"
    },
    {
      "constant": true,
      "inputs": [
        {
          "name": "",
          "type": "address"
        }
      ],
      "name": "memberData",
      "outputs": [
        {
          "name": "recentAssessment",
          "type": "address"
        },
        {
          "name": "index",
          "type": "uint256"
        }
      ],
      "payable": false,
      "stateMutability": "view",
      "type": "function"
    }
  ],
  "bytecode": "0x608060405234801561001057600080fd5b5061037d806100206000396000f30060806040526004361061008d5763ffffffff7c01000000000000000000000000000000000000000000000000000000006000350416631684ae4d811461009257806321d39c2c146100c357806369d24f63146100f857806373d4a13a1461011f578063898572a6146101a95780638da5cb5b146101c15780638f33dcaa146101d65780639107d08e146101ee575b600080fd5b34801561009e57600080fd5b506100a7610232565b60408051600160a060020a039092168252519081900360200190f35b3480156100cf57600080fd5b506100e4600160a060020a0360043516610241565b604080519115158252519081900360200190f35b34801561010457600080fd5b5061010d610256565b60408051918252519081900360200190f35b34801561012b57600080fd5b5061013461025c565b6040805160208082528351818301528351919283929083019185019080838360005b8381101561016e578181015183820152602001610156565b50505050905090810190601f16801561019b5780820380516001836020036101000a031916815260200191505b509250505060405180910390f35b3480156101b557600080fd5b506100a76004356102e7565b3480156101cd57600080fd5b506100a761030f565b3480156101e257600080fd5b506100a760043561031e565b3480156101fa57600080fd5b5061020f600160a060020a036004351661032c565b60408051600160a060020a03909316835260208301919091528051918290030190f35b600454600160a060020a031681565b60076020526000908152604090205460ff1681565b60065481565b6002805460408051602060018416156101000260001901909316849004601f810184900484028201840190925281815292918301828280156102df5780601f106102b4576101008083540402835291602001916102df565b820191906000526020600020905b8154815290600101906020018083116102c257829003601f168201915b505050505081565b60018054829081106102f557fe5b600091825260209091200154600160a060020a0316905081565b600354600160a060020a031681565b60098054829081106102f557fe5b600a6020526000908152604090208054600190910154600160a060020a0390911690825600a165627a7a7230582025dc5467a0071d2f8b01f0f2e2dbb1255b49e8c9cd1dc09968e201f4149e61ad0029",
  "source": "pragma solidity ^0.4.23;\n\nimport \"./FathomToken.sol\";\nimport \"./ConceptRegistry.sol\";\nimport \"./Assessment.sol\";\nimport \"./Math.sol\";\nimport \"./Proxy.sol\";\n\ncontract ConceptData is ProxyData {\n  address[] public parents; //The concepts that this concept is child to (ie: Calculus is child to Math)\n  bytes public data;\n  address public owner;\n  FathomToken public fathomToken;\n  ConceptRegistry conceptRegistry;\n  uint public lifetime;\n  mapping (address => bool) public assessmentExists;\n\n  uint[] propagationRates;\n\n  address[] public availableMembers;\n  mapping (address => MemberData) public memberData;\n\n  struct MemberData {\n    address recentAssessment;\n    uint index;\n    ComponentWeight[] weights;\n    mapping(address => uint) componentWeightIndex;\n  }\n\n  struct ComponentWeight {\n    uint weight;\n    uint date;\n  }\n}\n\ncontract ConceptDataInternal is ProxyData {\n  address[] internal parents; //The concepts that this concept is child to (ie: Calculus is child to Math)\n  bytes internal data;\n  address internal owner;\n  FathomToken internal fathomToken;\n  ConceptRegistry internal conceptRegistry;\n  uint internal lifetime;\n  mapping (address => bool) internal assessmentExists;\n\n  uint[] internal propagationRates;\n\n  address[] internal availableMembers;\n  mapping (address => MemberData) internal memberData;\n\n  struct MemberData {\n    address recentAssessment;\n    uint index;\n    ComponentWeight[] weights;\n    mapping(address => uint) componentWeightIndex;\n  }\n\n  struct ComponentWeight {\n    uint weight;\n    uint date;\n    }\n}\n",
  "sourcePath": "/home/jared/dev/blockchain/assess/contracts/ConceptData.sol",
  "compiler": {
    "name": "solc",
    "version": "0.4.24+commit.e67f0147.Emscripten.clang"
  },
  "schemaVersion": "2.0.1",
  "updatedAt": "2018-07-25T15:34:28.452Z"
}