{
  "contractName": "Concept",
  "abi": [
    {
      "constant": true,
      "inputs": [],
      "name": "fathomToken",
      "outputs": [
        {
          "name": "",
          "type": "address"
        }
      ],
      "payable": false,
      "stateMutability": "view",
      "type": "function"
    },
    {
      "constant": true,
      "inputs": [
        {
          "name": "",
          "type": "address"
        }
      ],
      "name": "assessmentExists",
      "outputs": [
        {
          "name": "",
          "type": "bool"
        }
      ],
      "payable": false,
      "stateMutability": "view",
      "type": "function"
    },
    {
      "constant": true,
      "inputs": [],
      "name": "lifetime",
      "outputs": [
        {
          "name": "",
          "type": "uint256"
        }
      ],
      "payable": false,
      "stateMutability": "view",
      "type": "function"
    },
    {
      "constant": true,
      "inputs": [],
      "name": "data",
      "outputs": [
        {
          "name": "",
          "type": "bytes"
        }
      ],
      "payable": false,
      "stateMutability": "view",
      "type": "function"
    },
    {
      "constant": true,
      "inputs": [
        {
          "name": "",
          "type": "uint256"
        }
      ],
      "name": "parents",
      "outputs": [
        {
          "name": "",
          "type": "address"
        }
      ],
      "payable": false,
      "stateMutability": "view",
      "type": "function"
    },
    {
      "constant": true,
      "inputs": [],
      "name": "owner",
      "outputs": [
        {
          "name": "",
          "type": "address"
        }
      ],
      "payable": false,
      "stateMutability": "view",
      "type": "function"
    },
    {
      "constant": true,
      "inputs": [
        {
          "name": "",
          "type": "uint256"
        }
      ],
      "name": "availableMembers",
      "outputs": [
        {
          "name": "",
          "type": "address"
        }
      ],
      "payable": false,
      "stateMutability": "view",
      "type": "function"
    },
    {
      "constant": true,
      "inputs": [
        {
          "name": "",
          "type": "address"
        }
      ],
      "name": "memberData",
      "outputs": [
        {
          "name": "recentAssessment",
          "type": "address"
        },
        {
          "name": "index",
          "type": "uint256"
        }
      ],
      "payable": false,
      "stateMutability": "view",
      "type": "function"
    },
    {
      "inputs": [
        {
          "name": "_parents",
          "type": "address[]"
        },
        {
          "name": "_propagationRates",
          "type": "uint256[]"
        },
        {
          "name": "_lifetime",
          "type": "uint256"
        },
        {
          "name": "_data",
          "type": "bytes"
        },
        {
          "name": "_owner",
          "type": "address"
        }
      ],
      "payable": false,
      "stateMutability": "nonpayable",
      "type": "constructor"
    },
    {
      "constant": false,
      "inputs": [
        {
          "name": "_newOwner",
          "type": "address"
        }
      ],
      "name": "transferOwnership",
      "outputs": [],
      "payable": false,
      "stateMutability": "nonpayable",
      "type": "function"
    },
    {
      "constant": false,
      "inputs": [
        {
          "name": "_newLifetime",
          "type": "uint256"
        }
      ],
      "name": "changeLifetime",
      "outputs": [],
      "payable": false,
      "stateMutability": "nonpayable",
      "type": "function"
    },
    {
      "constant": true,
      "inputs": [],
      "name": "getAvailableMemberLength",
      "outputs": [
        {
          "name": "",
          "type": "uint256"
        }
      ],
      "payable": false,
      "stateMutability": "view",
      "type": "function"
    },
    {
      "constant": true,
      "inputs": [],
      "name": "getParentsLength",
      "outputs": [
        {
          "name": "",
          "type": "uint256"
        }
      ],
      "payable": false,
      "stateMutability": "view",
      "type": "function"
    },
    {
      "constant": false,
      "inputs": [
        {
          "name": "_user",
          "type": "address"
        },
        {
          "name": "_weight",
          "type": "uint256"
        }
      ],
      "name": "addInitialMember",
      "outputs": [],
      "payable": false,
      "stateMutability": "nonpayable",
      "type": "function"
    },
    {
      "constant": false,
      "inputs": [],
      "name": "toggleAvailability",
      "outputs": [
        {
          "name": "success",
          "type": "bool"
        }
      ],
      "payable": false,
      "stateMutability": "nonpayable",
      "type": "function"
    },
    {
      "constant": false,
      "inputs": [
        {
          "name": "seed",
          "type": "uint256"
        }
      ],
      "name": "getWeightedRandomMember",
      "outputs": [
        {
          "name": "",
          "type": "address"
        }
      ],
      "payable": false,
      "stateMutability": "nonpayable",
      "type": "function"
    },
    {
      "constant": true,
      "inputs": [
        {
          "name": "_member",
          "type": "address"
        }
      ],
      "name": "getWeight",
      "outputs": [
        {
          "name": "weight",
          "type": "uint256"
        }
      ],
      "payable": false,
      "stateMutability": "view",
      "type": "function"
    },
    {
      "constant": false,
      "inputs": [
        {
          "name": "_member",
          "type": "address"
        }
      ],
      "name": "getWeightAndUpdate",
      "outputs": [
        {
          "name": "weight",
          "type": "uint256"
        }
      ],
      "payable": false,
      "stateMutability": "nonpayable",
      "type": "function"
    },
    {
      "constant": false,
      "inputs": [
        {
          "name": "cost",
          "type": "uint256"
        },
        {
          "name": "size",
          "type": "uint256"
        },
        {
          "name": "_waitTime",
          "type": "uint256"
        },
        {
          "name": "_timeLimit",
          "type": "uint256"
        }
      ],
      "name": "makeAssessment",
      "outputs": [
        {
          "name": "",
          "type": "bool"
        }
      ],
      "payable": false,
      "stateMutability": "nonpayable",
      "type": "function"
    },
    {
      "constant": false,
      "inputs": [
        {
          "name": "_assessee",
          "type": "address"
        },
        {
          "name": "_weight",
          "type": "uint256"
        }
      ],
      "name": "addMember",
      "outputs": [],
      "payable": false,
      "stateMutability": "nonpayable",
      "type": "function"
    },
    {
      "constant": false,
      "inputs": [
        {
          "name": "_assessee",
          "type": "address"
        },
        {
          "name": "_weight",
          "type": "uint256"
        }
      ],
      "name": "addWeight",
      "outputs": [],
      "payable": false,
      "stateMutability": "nonpayable",
      "type": "function"
    }
  ],
  "bytecode": "0x60806040523480156200001157600080fd5b5060405162003bed38038062003bed83398101604090815281516020830151918301516060840151608085015193850180519386018051909691959394929091019291600091146200006257600080fd5b5060048054600160a060020a0319163317905560005b85518110156200017f576004548651600160a060020a039091169063c18e467990889084908110620000a657fe5b906020019060200201516040518263ffffffff167c01000000000000000000000000000000000000000000000000000000000281526004018082600160a060020a0316600160a060020a03168152602001915050602060405180830381600087803b1580156200011557600080fd5b505af11580156200012a573d6000803e3d6000fd5b505050506040513d60208110156200014157600080fd5b505115156200014f57600080fd5b6103e885828151811015156200016157fe5b60209081029091010151106200017657600080fd5b60010162000078565b84516200019490600790602088019062000299565b508551620001aa906000906020890190620002e9565b508251620001c09060019060208601906200034f565b50600584905560028054600160a060020a031916600160a060020a038481169190911790915560048054604080517f1684ae4d00000000000000000000000000000000000000000000000000000000815290519190931692631684ae4d92818101926020929091908290030181600087803b1580156200023f57600080fd5b505af115801562000254573d6000803e3d6000fd5b505050506040513d60208110156200026b57600080fd5b505160038054600160a060020a031916600160a060020a039092169190911790555062000408945050505050565b828054828255906000526020600020908101928215620002d7579160200282015b82811115620002d7578251825591602001919060010190620002ba565b50620002e5929150620003c1565b5090565b82805482825590600052602060002090810192821562000341579160200282015b82811115620003415782518254600160a060020a031916600160a060020a039091161782556020909201916001909101906200030a565b50620002e5929150620003e1565b828054600181600116156101000203166002900490600052602060002090601f016020900481019282601f106200039257805160ff1916838001178555620002d7565b82800160010185558215620002d75791820182811115620002d7578251825591602001919060010190620002ba565b620003de91905b80821115620002e55760008155600101620003c8565b90565b620003de91905b80821115620002e5578054600160a060020a0319168155600101620003e8565b6137d580620004186000396000f3006080604052600436106200010d5763ffffffff60e060020a600035041663039e071a8114620001125780631684ae4d146200013c57806321d39c2c146200017057806335a0729114620001a85780633f99fa5414620001cc578063449a058d14620001f557806369d24f63146200020d57806370a2b84a146200022557806373d4a13a146200023d578063824989c314620002cd57806385b2ff8f14620002e8578063898572a614620003035780638da5cb5b146200031e5780638f33dcaa14620003365780639107d08e146200035157806398041ea31462000398578063ac6c525114620003bf578063de0d080214620003e3578063f2fde38b1462000407578063fd636975146200042b575b600080fd5b3480156200011f57600080fd5b506200012a62000452565b60408051918252519081900360200190f35b3480156200014957600080fd5b506200015462000459565b60408051600160a060020a039092168252519081900360200190f35b3480156200017d57600080fd5b5062000194600160a060020a036004351662000468565b604080519115158252519081900360200190f35b348015620001b557600080fd5b50620001946004356024356044356064356200047d565b348015620001d957600080fd5b50620001f3600160a060020a03600435166024356200089b565b005b3480156200020257600080fd5b506200012a62000a2b565b3480156200021a57600080fd5b506200012a62000a31565b3480156200023257600080fd5b506200019462000a37565b3480156200024a57600080fd5b506200025562000ae2565b6040805160208082528351818301528351919283929083019185019080838360005b838110156200029157818101518382015260200162000277565b50505050905090810190601f168015620002bf5780820380516001836020036101000a031916815260200191505b509250505060405180910390f35b348015620002da57600080fd5b50620001f360043562000b73565b348015620002f557600080fd5b506200015460043562000b90565b3480156200031057600080fd5b506200015460043562000db8565b3480156200032b57600080fd5b506200015462000de1565b3480156200034357600080fd5b506200015460043562000df0565b3480156200035e57600080fd5b5062000375600160a060020a036004351662000dff565b60408051600160a060020a03909316835260208301919091528051918290030190f35b348015620003a557600080fd5b50620001f3600160a060020a036004351660243562000e24565b348015620003cc57600080fd5b506200012a600160a060020a036004351662000eeb565b348015620003f057600080fd5b506200012a600160a060020a036004351662000fa5565b3480156200041457600080fd5b50620001f3600160a060020a036004351662000fcc565b3480156200043857600080fd5b50620001f3600160a060020a036004351660243562001013565b6008545b90565b600354600160a060020a031681565b60066020526000908152604090205460ff1681565b60008060008060058710158015620005295750600354604080517f70a0823100000000000000000000000000000000000000000000000000000000815233600482015290518a8a0292600160a060020a0316916370a082319160248083019260209291908290030181600087803b158015620004f857600080fd5b505af11580156200050d573d6000803e3d6000fd5b505050506040513d60208110156200052457600080fd5b505110155b15156200053557600080fd5b3387898888620005446200139e565b600160a060020a039095168552602085019390935260408085019290925260608401526080830191909152519081900360a001906000f0801580156200058e573d6000803e3d6000fd5b50600160a060020a038082166000818152600660209081526040808320805460ff1916600117905560035481517f27234ecc00000000000000000000000000000000000000000000000000000000815233600482015260248101959095528e8e0260448601523060648601529051959850909316936327234ecc936084808501949193918390030190829087803b1580156200062957600080fd5b505af11580156200063e573d6000803e3d6000fd5b505050506040513d60208110156200065557600080fd5b505060048054604080517f9e45c8860000000000000000000000000000000000000000000000000000000081529051600160a060020a0390921692639e45c8869282820192602092908290030181600087803b158015620006b557600080fd5b505af1158015620006ca573d6000803e3d6000fd5b505050506040513d6020811015620006e157600080fd5b5051604080517f039e071a0000000000000000000000000000000000000000000000000000000081529051919350600160a060020a0384169163039e071a916004808201926020929091908290030181600087803b1580156200074357600080fd5b505af115801562000758573d6000803e3d6000fd5b505050506040513d60208110156200076f57600080fd5b5051905060058702811015620008025782600160a060020a031663e6c5002082846040518363ffffffff1660e060020a0281526004018083815260200182600160a060020a0316600160a060020a0316815260200192505050600060405180830381600087803b158015620007e357600080fd5b505af1158015620007f8573d6000803e3d6000fd5b505050506200088d565b604080517f2fa4f694000000000000000000000000000000000000000000000000000000008152434060048201523060248201526005890260448201529051600160a060020a03851691632fa4f69491606480830192600092919082900301818387803b1580156200087357600080fd5b505af115801562000888573d6000803e3d6000fd5b505050505b506001979650505050505050565b60048054604080517fa51af4c500000000000000000000000000000000000000000000000000000000815290513393600160a060020a039093169263a51af4c5928082019260209290918290030181600087803b158015620008fc57600080fd5b505af115801562000911573d6000803e3d6000fd5b505050506040513d60208110156200092857600080fd5b5051600160a060020a0316141562000a2757604080517ffd636975000000000000000000000000000000000000000000000000000000008152600160a060020a0384166004820152602481018390529051309163fd63697591604480830192600092919082900301818387803b158015620009a257600080fd5b505af1158015620009b7573d6000803e3d6000fd5b505060088054600180820183557ff3f7a9fe364faab93b216da50a3214154f22a0a2b415b23a84c8169e8b636ee3909101805473ffffffffffffffffffffffffffffffffffffffff1916600160a060020a0388169081179091559154600092835260096020526040909220015550505b5050565b60005490565b60055481565b60008062000a453362000fa5565b1115620004565733600090815260096020526040902060010154151562000ad3575060088054600181810183557ff3f7a9fe364faab93b216da50a3214154f22a0a2b415b23a84c8169e8b636ee3909101805473ffffffffffffffffffffffffffffffffffffffff191633908117909155915460009283526009602052604090922081019190915562000456565b62000ade33620012d7565b5090565b60018054604080516020600284861615610100026000190190941693909304601f8101849004840282018401909252818152929183018282801562000b6b5780601f1062000b3f5761010080835404028352916020019162000b6b565b820191906000526020600020905b81548152906001019060200180831162000b4d57829003601f168201915b505050505081565b600254600160a060020a0316331462000b8b57600080fd5b600555565b60008060008060008060005b600854600110801562000bad575085155b1562000c9d57600854604080517f655b08eb000000000000000000000000000000000000000000000000000000008152600481018b905260001990920160248301525173__Math__________________________________9163655b08eb916044808301926020929190829003018186803b15801562000c2c57600080fd5b505af415801562000c41573d6000803e3d6000fd5b505050506040513d602081101562000c5857600080fd5b505160088054919450908490811062000c6d57fe5b600091825260209091200154600160a060020a0316935062000c8f8462000fa5565b600190980197955062000b9c565b600854600110801562000cae575084155b1562000da057600854604080517f655b08eb00000000000000000000000000000000000000000000000000000000815260028b02600482015260001990920160248301525173__Math__________________________________9163655b08eb916044808301926020929190829003018186803b15801562000d2f57600080fd5b505af415801562000d44573d6000803e3d6000fd5b505050506040513d602081101562000d5b57600080fd5b505160088054919350908390811062000d7057fe5b600091825260209091200154600160a060020a0316905062000d928162000fa5565b9450600a8801975062000c9d565b8486111562000dad578396505b505050505050919050565b600080548290811062000dc757fe5b600091825260209091200154600160a060020a0316905081565b600254600160a060020a031681565b600880548290811062000dc757fe5b60096020526000908152604090208054600190910154600160a060020a039091169082565b3360009081526006602052604090205460ff161562000a2757600160a060020a038216600081815260096020526040808220805473ffffffffffffffffffffffffffffffffffffffff19163317905580517ffd63697500000000000000000000000000000000000000000000000000000000815260048101939093526024830184905251309263fd63697592604480830193919282900301818387803b15801562000ece57600080fd5b505af115801562000ee3573d6000803e3d6000fd5b505050505050565b6000805b600160a060020a03831660009081526009602052604090206002015481101562000f9f57600160a060020a038316600090815260096020526040902060020180544291908390811062000f3e57fe5b906000526020600020906002020160010154111562000f9657600160a060020a038316600090815260096020526040902060020180548290811062000f7f57fe5b906000526020600020906002020160000154820191505b60010162000eef565b50919050565b600062000fb28262000eeb565b905080151562000fc75762000f9f82620012d7565b919050565b600254600160a060020a0316331462000fe457600080fd5b6002805473ffffffffffffffffffffffffffffffffffffffff1916600160a060020a0392909216919091179055565b60048054604080517fc18e46790000000000000000000000000000000000000000000000000000000081523393810193909352516000928392600160a060020a03169163c18e46799160248082019260209290919082900301818787803b1580156200107e57600080fd5b505af115801562001093573d6000803e3d6000fd5b505050506040513d6020811015620010aa57600080fd5b50511515620010b857600080fd5b600160a060020a0384166000908152600960209081526040808320338452600301909152812054925082111562001154576040805180820182528481526005544201602080830191909152600160a060020a0387166000908152600990915291909120600201805460001985019081106200112f57fe5b60009182526020918290208351600290920201908155910151600190910155620011bd565b600160a060020a03841660009081526009602090815260408083208151808301835287815260055442018185019081526002808401805460018181018355828a52888a209551919093029094019384559151920191909155543385526003909101909252909120555b5060005b600054811015620012d15760006103e8600783815481101515620011e157fe5b90600052602060002001548502811515620011f857fe5b041115620012c85760008054829081106200120f57fe5b60009182526020909120015460078054600160a060020a039092169163fd6369759187916103e89190869081106200124357fe5b906000526020600020015487028115156200125a57fe5b046040518363ffffffff1660e060020a0281526004018083600160a060020a0316600160a060020a0316815260200182815260200192505050600060405180830381600087803b158015620012ae57600080fd5b505af1158015620012c3573d6000803e3d6000fd5b505050505b600101620011c1565b50505050565b600160a060020a0381166000908152600960205260408120600101548181111562001394576008805460001981019081106200130f57fe5b60009182526020909120015460088054600160a060020a0390921691839081106200133657fe5b6000918252602080832091909101805473ffffffffffffffffffffffffffffffffffffffff1916600160a060020a03948516179055918516815260099091526040812060010155600880549062001392906000198301620013af565b505b5050600854919050565b6040516123b180620013f983390190565b815481835581811115620013d657600083815260209020620013d6918101908301620013db565b505050565b6200045691905b8082111562000ade5760008155600101620013e2560060806040523480156200001157600080fd5b5060405160a080620023b1833981016040818152825160208085015183860151606087015160809097015160008054600160a060020a031916600160a060020a038088169190911782556003805461010060a860020a03191661010033810291909117918290557f1684ae4d000000000000000000000000000000000000000000000000000000008b529851979a95999498959793969590041693631684ae4d936004808201949293918390030190829087803b158015620000d257600080fd5b505af1158015620000e7573d6000803e3d6000fd5b505050506040513d6020811015620000fe57600080fd5b505160048054600160a060020a031916600160a060020a039092169190911790554281810160058190559083016006819055106200013857fe5b600784905560088390556004805460008054604080517f76147a0e000000000000000000000000000000000000000000000000000000008152600160a060020a039283169581019590955260248501839052519216926376147a0e926044808301939282900301818387803b158015620001b157600080fd5b505af1158015620001c6573d6000803e3d6000fd5b50506000600a55505050505050506121cd80620001e46000396000f3006080604052600436106100f85763ffffffff60e060020a60003504166313faede681146100fd5780632ad1bc09146101245780632fa4f694146101925780633197cbb6146101b957806347c20ab7146101ce5780636732e966146101ff578063739d9dc11461021457806383017d4014610229578063949d225d146102825780639c6a1dfb14610297578063ae8421e1146102d0578063b90d3d0c146102e5578063bf1c69691461037b578063bfa0b1331461039c578063c2c4c5c1146103b1578063e1152343146103c6578063e6c50020146103de578063f14fcbc814610402578063f571da7f1461041a578063fadf617b1461042f575b600080fd5b34801561010957600080fd5b50610112610490565b60408051918252519081900360200190f35b34801561013057600080fd5b5060408051602060046024803582810135601f8101859004850286018501909652858552610190958335600f0b95369560449491939091019190819084018382808284375094975050509235600160a060020a0316935061049692505050565b005b34801561019e57600080fd5b50610190600435600160a060020a0360243516604435610636565b3480156101c557600080fd5b50610112610971565b3480156101da57600080fd5b506101e3610977565b60408051600160a060020a039092168252519081900360200190f35b34801561020b57600080fd5b506101e3610986565b34801561022057600080fd5b5061011261099a565b34801561023557600080fd5b506040805160206004803580820135601f81018490048402850184019095528484526101909436949293602493928401919081908401838280828437509497506109a09650505050505050565b34801561028e57600080fd5b50610112610bdf565b3480156102a357600080fd5b506102ac610be5565b604051808260058111156102bc57fe5b60ff16815260200191505060405180910390f35b3480156102dc57600080fd5b50610112610bee565b3480156102f157600080fd5b50610306600160a060020a0360043516610bf4565b6040805160208082528351818301528351919283929083019185019080838360005b83811015610340578181015183820152602001610328565b50505050905090810190601f16801561036d5780820380516001836020036101000a031916815260200191505b509250505060405180910390f35b34801561038757600080fd5b506102ac600160a060020a0360043516610c8f565b3480156103a857600080fd5b50610112610ca4565b3480156103bd57600080fd5b50610112610caa565b3480156103d257600080fd5b50610190600435610cb0565b3480156103ea57600080fd5b50610190600435600160a060020a036024351661122f565b34801561040e57600080fd5b506101906004356112f8565b34801561042657600080fd5b506101906113b7565b34801561043b57600080fd5b5060408051602060046024803582810135601f8101859004850286018501909652858552610190958335600f0b9536956044949193909101919081908401838280828437509497506116479650505050505050565b60085481565b6003600160a060020a03821660009081526002602052604090205460ff1660058111156104bf57fe5b14156106315782826040518083600f0b600f0b70010000000000000000000000000000000002815260100182805190602001908083835b602083106105155780518252601f1990920191602091820191016104f6565b51815160209384036101000a60001901801990921691161790526040805192909401829003909120600160a060020a0388166000908152600990925292902054909114159350610631925050505760048054600854604080517fa9059cbb00000000000000000000000000000000000000000000000000000000815233948101949094526002909104602484015251600160a060020a039091169163a9059cbb9160448083019260209291908290030181600087803b1580156105d757600080fd5b505af11580156105eb573d6000803e3d6000fd5b505050506040513d602081101561060157600080fd5b5050600160a060020a0381166000908152600260205260409020805460ff19166005179055600780546000190190555b505050565b6000806000806000806000600360019054906101000a9004600160a060020a0316600160a060020a031633600160a060020a031614151561067657600080fd5b6000965088600160a060020a031663039e071a6040518163ffffffff1660e060020a028152600401602060405180830381600087803b1580156106b857600080fd5b505af11580156106cc573d6000803e3d6000fd5b505050506040513d60208110156106e257600080fd5b505195506002860488116106f657876106fb565b600286045b9450600093505b848410156107b65788600160a060020a03166385b2ff8f858c016040518263ffffffff1660e060020a02815260040180828152602001915050602060405180830381600087803b15801561075557600080fd5b505af1158015610769573d6000803e3d6000fd5b505050506040513d602081101561077f57600080fd5b50519250600160a060020a0383161580159061079f575061079f83611833565b156107ab576001909601955b600190930192610702565b86880391506000821115610958575060005b88600160a060020a031663449a058d6040518163ffffffff1660e060020a028152600401602060405180830381600087803b15801561080657600080fd5b505af115801561081a573d6000803e3d6000fd5b505050506040513d602081101561083057600080fd5b50518110156109585761095081888c01018a600160a060020a031663898572a6846040518263ffffffff1660e060020a02815260040180828152602001915050602060405180830381600087803b15801561088a57600080fd5b505af115801561089e573d6000803e3d6000fd5b505050506040513d60208110156108b457600080fd5b5051604080517f449a058d0000000000000000000000000000000000000000000000000000000081529051600160a060020a038e169163449a058d9160048083019260209291908290030181600087803b15801561091157600080fd5b505af1158015610925573d6000803e3d6000fd5b505050506040513d602081101561093b57600080fd5b50518581151561094757fe5b04600101610636565b6001016107c8565b50506003805460ff191660011790555050505050505050565b60055481565b600054600160a060020a031681565b6003546101009004600160a060020a031681565b600c5481565b600054606090600160a060020a03163314806109d9575060013360009081526002602052604090205460ff1660058111156109d757fe5b115b15156109e457600080fd5b6003805460ff1660058111156109f657fe5b10610a0057600080fd5b336000908152600e602090815260409182902080548351601f600260001961010060018616150201909316929092049182018490048402810184019094528084529091830182828015610a945780601f10610a6957610100808354040283529160200191610a94565b820191906000526020600020905b815481529060010190602001808311610a7757829003601f168201915b5050336000908152600e602090815260409091208751959650610ac09590945090870192509050612106565b507faadcd29446d57df33a9b095602a5f78d2578d4fd35b92ebb712fbf7e874893193382846040518084600160a060020a0316600160a060020a031681526020018060200180602001838103835285818151815260200191508051906020019080838360005b83811015610b3e578181015183820152602001610b26565b50505050905090810190601f168015610b6b5780820380516001836020036101000a031916815260200191505b50838103825284518152845160209182019186019080838360005b83811015610b9e578181015183820152602001610b86565b50505050905090810190601f168015610bcb5780820380516001836020036101000a031916815260200191505b509550505050505060405180910390a15050565b60075481565b60035460ff1681565b600a5481565b600e6020908152600091825260409182902080548351601f600260001961010060018616150201909316929092049182018490048402810184019094528084529091830182828015610c875780601f10610c5c57610100808354040283529160200191610c87565b820191906000526020600020905b815481529060010190602001808311610c6a57829003601f168201915b505050505081565b60026020526000908152604090205460ff1681565b600d5481565b60065481565b60006060808280808060048060035460ff166005811115610ccd57fe5b14610cd757600080fd5b60015460408051828152602080840282010190915260009950908015610d07578160200160208202803883390190505b506001546040805182815260208084028201019091529198508015610d36578160200160208202803883390190505b509550600094505b60015485101561108357600460026000600188815481101515610d5d57fe5b6000918252602080832090910154600160a060020a0316835282019290925260400190205460ff166005811115610d9057fe5b14156110785773__Math__________________________________634c619e4c73__Math__________________________________631b5ac4b5600c54600b600060018c815481101515610de057fe5b6000918252602080832090910154600160a060020a03168352828101939093526040918201902054815160e060020a63ffffffff8716028152600f91820b90910b93909303600484015251602480840193829003018186803b158015610e4557600080fd5b505af4158015610e59573d6000803e3d6000fd5b505050506040513d6020811015610e6f57600080fd5b50516008546040805160e060020a63ffffffff8616028152600481019390935260248301919091528051604480840193829003018186803b158015610eb357600080fd5b505af4158015610ec7573d6000803e3d6000fd5b505050506040513d6040811015610edd57600080fd5b5080516020909101519094509250821561103e578360085403880197506000841115610fab5760045460018054600160a060020a039092169163a9059cbb919088908110610f2757fe5b60009182526020808320909101546040805160e060020a63ffffffff8716028152600160a060020a039092166004830152602482018a90525160448083019491928390030190829087803b158015610f7e57600080fd5b505af1158015610f92573d6000803e3d6000fd5b505050506040513d6020811015610fa857600080fd5b50505b60045460018054600160a060020a03909216916376147a0e919088908110610fcf57fe5b60009182526020822001546040805160e060020a63ffffffff8616028152600160a060020a03909216600483015260066024830152516044808301939282900301818387803b15801561102157600080fd5b505af1158015611035573d6000803e3d6000fd5b50505050611078565b6001878681518110151561104e57fe5b9115156020928302909101909101528551849087908790811061106d57fe5b602090810290910101525b600190940193610d3e565b600091505b855182101561122457868281518110151561109f57fe5b90602001906020020151156112195760045460018054600160a060020a039092169163a9059cbb9190859081106110d257fe5b600091825260209091200154600160a060020a03168b8b8115156110f257fe5b04898681518110151561110157fe5b90602001906020020151016040518363ffffffff1660e060020a0281526004018083600160a060020a0316600160a060020a0316815260200182815260200192505050602060405180830381600087803b15801561115e57600080fd5b505af1158015611172573d6000803e3d6000fd5b505050506040513d602081101561118857600080fd5b505060045460018054600160a060020a03909216916376147a0e9190859081106111ae57fe5b60009182526020822001546040805160e060020a63ffffffff8616028152600160a060020a03909216600483015260066024830152516044808301939282900301818387803b15801561120057600080fd5b505af1158015611214573d6000803e3d6000fd5b505050505b600190910190611088565b505050505050505050565b60035460009081906101009004600160a060020a0316331461125057600080fd5b5081905060005b838110156112e5576112dc82600160a060020a0316638f33dcaa836040518263ffffffff1660e060020a02815260040180828152602001915050602060405180830381600087803b1580156112ab57600080fd5b505af11580156112bf573d6000803e3d6000fd5b505050506040513d60208110156112d557600080fd5b5051611833565b50600101611257565b50506003805460ff191660011790555050565b60028060035460ff16600581111561130c57fe5b1461131657600080fd5b60055442111561132a5761132a600261191d565b60023360009081526002602052604090205460ff16600581111561134a57fe5b14156113815733600090815260096020908152604080832085905560029091529020805460ff19166003179055600a805460010190555b600754600a5414156113b35761a8c042016006556113a1600360056119fa565b6000600a556003805460ff1916811790555b5050565b60018060035460ff1660058111156113cb57fe5b146113d557600080fd5b6006544211156113ec576113e7611aeb565b611644565b60013360009081526002602052604090205460ff16600581111561140c57fe5b14801561141c5750600754600154105b80156114d8575060048054600854600354604080517f27234ecc000000000000000000000000000000000000000000000000000000008152339581019590955230602486015260448501929092526101009004600160a060020a03908116606485015290519116916327234ecc9160848083019260209291908290030181600087803b1580156114ab57600080fd5b505af11580156114bf573d6000803e3d6000fd5b505050506040513d60208110156114d557600080fd5b50515b156115b057600180548082019091557fb10e2d527612073b26eecdfd717e6a320cf44b4afac2b0732d9fcbe2b7fa0cf601805473ffffffffffffffffffffffffffffffffffffffff1916339081179091556000818152600260208190526040808320805460ff19168317905560048054825160e160020a633b0a3d0702815291820195909552602481019290925251600160a060020a03909316926376147a0e9260448084019391929182900301818387803b15801561159757600080fd5b505af11580156115ab573d6000803e3d6000fd5b505050505b6007546001541415611644576115c8600260046119fa565b60048054600080546040805160e160020a633b0a3d07028152600160a060020a03928316818701526024810195909552519216926376147a0e926044808301939282900301818387803b15801561161e57600080fd5b505af1158015611632573d6000803e3d6000fd5b50506003805460ff1916600217905550505b50565b60038060035460ff16600581111561165b57fe5b1461166557600080fd5b600654421161167357600080fd5b600554620151800142111561168c5761168c600361191d565b60033360009081526002602052604090205460ff1660058111156116ac57fe5b148015611744575082826040518083600f0b600f0b70010000000000000000000000000000000002815260100182805190602001908083835b602083106117045780518252601f1990920191602091820191016116e5565b51815160209384036101000a6000190180199092169116179052604080519290940182900390912033600090815260099092529290205490911493505050505b1561181257336000908152600b602090815260409182902080546fffffffffffffffffffffffffffffffff19166fffffffffffffffffffffffffffffffff600f88900b161790559051835184928291908401908083835b602083106117ba5780518252601f19909201916020918201910161179b565b51815160001960209485036101000a0190811690199091161790526040805194909201849003909320600d805490911890553360009081526002909352909120805460ff191660041790555050600a80546001019055505b600754600a541415610631576003805460ff19166004179055610631611ddf565b60008054600160a060020a038381169116148015906118765750600160a060020a03821660009081526002602052604081205460ff16600581111561187457fe5b145b1561191857600480546040805160e160020a633b0a3d07028152600160a060020a038681169482019490945260016024820152905192909116916376147a0e9160448082019260009290919082900301818387803b1580156118d757600080fd5b505af11580156118eb573d6000803e3d6000fd5b50505050600160a060020a0382166000908152600260205260409020805460ff1916600190811790915590505b919050565b60005b6001548110156119e75781600581111561193657fe5b6002600060018481548110151561194957fe5b6000918252602080832090910154600160a060020a0316835282019290925260400190205460ff16600581111561197c57fe5b14156119df5760056002600060018481548110151561199757fe5b6000918252602080832090910154600160a060020a031683528201929092526040019020805460ff191660018360058111156119cf57fe5b0217905550600780546000190190555b600101611920565b600560075410156113b3576113b3611aeb565b60005b600154811015610631578260026000600184815481101515611a1b57fe5b6000918252602080832090910154600160a060020a0316835282019290925260400190205460ff166005811115611a4e57fe5b1415611ae35760045460018054600160a060020a03909216916376147a0e919084908110611a7857fe5b60009182526020822001546040805160e060020a63ffffffff8616028152600160a060020a03909216600483015260248201879052516044808301939282900301818387803b158015611aca57600080fd5b505af1158015611ade573d6000803e3d6000fd5b505050505b6001016119fd565b600080600160035460ff166005811115611b0157fe5b14611b125760015460085402611b1a565b600754600854025b6004805460008054604080517fa9059cbb000000000000000000000000000000000000000000000000000000008152600160a060020a039283169581019590955260248501869052519496509091169263a9059cbb926044808201936020939283900390910190829087803b158015611b9257600080fd5b505af1158015611ba6573d6000803e3d6000fd5b505050506040513d6020811015611bbc57600080fd5b505060048054600080546040805160e160020a633b0a3d07028152600160a060020a039283169581019590955260036024860152519216926376147a0e926044808301939282900301818387803b158015611c1657600080fd5b505af1158015611c2a573d6000803e3d6000fd5b50505050600090505b600154811015611dcc57600560026000600184815481101515611c5257fe5b6000918252602080832090910154600160a060020a0316835282019290925260400190205460ff166005811115611c8557fe5b14611dc45760045460018054600160a060020a039092169163a9059cbb919084908110611cae57fe5b60009182526020808320909101546008546040805160e060020a63ffffffff8816028152600160a060020a03909316600484015260248301919091525160448083019491928390030190829087803b158015611d0957600080fd5b505af1158015611d1d573d6000803e3d6000fd5b505050506040513d6020811015611d3357600080fd5b505060045460018054600160a060020a03909216916376147a0e919084908110611d5957fe5b60009182526020822001546040805160e060020a63ffffffff8616028152600160a060020a03909216600483015260036024830152516044808301939282900301818387803b158015611dab57600080fd5b505af1158015611dbf573d6000803e3d6000fd5b505050505b600101611c33565b6003546101009004600160a060020a0316ff5b60606000808060048060035460ff166005811115611df957fe5b14611e0357600080fd5b600a54604051908082528060200260200182016040528015611e2f578160200160208202803883390190505b50945060009350600092505b600154831015611efe57600460026000600186815481101515611e5a57fe5b6000918252602080832090910154600160a060020a0316835282019290925260400190205460ff166005811115611e8d57fe5b1415611ef357600b6000600185815481101515611ea657fe5b6000918252602080832090910154600160a060020a031683528201929092526040019020548551600f91820b90910b90869086908110611ee257fe5b602090810290910101526001909301925b600190920191611e3b565b6040517f140a7ac600000000000000000000000000000000000000000000000000000000815260206004820181815287516024840152875173__Math__________________________________9363140a7ac6938a9392839260440191808601910280838360005b83811015611f7e578181015183820152602001611f66565b5050505090500192505050604080518083038186803b158015611fa057600080fd5b505af4158015611fb4573d6000803e3d6000fd5b505050506040513d6040811015611fca57600080fd5b508051602090910151600c91909155600a549092506002900482111561209457611ff382610cb0565b6000600c54131561208f5760035460008054600c54604080517f98041ea3000000000000000000000000000000000000000000000000000000008152600160a060020a039384166004820152918702602483015251610100909404909116926398041ea39260448084019391929182900301818387803b15801561207657600080fd5b505af115801561208a573d6000803e3d6000fd5b505050505b61209a565b6000600c555b60048054600080546040805160e160020a633b0a3d07028152600160a060020a039283169581019590955260076024860152519216926376147a0e926044808301939282900301818387803b1580156120f257600080fd5b505af1158015611224573d6000803e3d6000fd5b828054600181600116156101000203166002900490600052602060002090601f016020900481019282601f1061214757805160ff1916838001178555612174565b82800160010185558215612174579182015b82811115612174578251825591602001919060010190612159565b50612180929150612184565b5090565b61219e91905b80821115612180576000815560010161218a565b905600a165627a7a723058200a03464a55b27adefff09b1f264e1de51fe6ddbc35f73e3d3173c6e434a6e30b0029a165627a7a72305820580029b4fa72ac53556826a4d10062b8d43affc780baa13bf4082c18f0ec4dca0029",
  "source": "pragma solidity ^0.4.11;\r\n\r\nimport \"./FathomToken.sol\";\r\nimport \"./ConceptRegistry.sol\";\r\nimport \"./Assessment.sol\";\r\nimport \"./Math.sol\";\r\n\r\n//@purpose: To store concept data and create and manage assessments and members\r\ncontract Concept {\r\n    address[] public parents; //The concepts that this concept is child to (ie: Calculus is child to Math)\r\n    bytes public data;\r\n    address public owner;\r\n    FathomToken public fathomToken;\r\n    ConceptRegistry conceptRegistry;\r\n    uint public lifetime;\r\n    mapping (address => bool) public assessmentExists;\r\n\r\n    uint[] propagationRates;\r\n\r\n    address[] public availableMembers;\r\n    mapping (address => MemberData) public memberData;\r\n\r\n    struct MemberData {\r\n        address recentAssessment;\r\n        uint index;\r\n        ComponentWeight[] weights;\r\n        mapping(address => uint) componentWeightIndex;\r\n    }\r\n\r\n    struct ComponentWeight {\r\n        uint weight;\r\n        uint date;\r\n    }\r\n\r\n    modifier onlyConcept() {\r\n        require(conceptRegistry.conceptExists(msg.sender));\r\n        _;\r\n    }\r\n\r\n    function Concept(address[] _parents, uint[] _propagationRates, uint _lifetime, bytes _data, address _owner) public {\r\n        require(_parents.length == _propagationRates.length);\r\n        conceptRegistry = ConceptRegistry(msg.sender);\r\n\r\n        for (uint j=0; j < _parents.length; j++) {\r\n            require(conceptRegistry.conceptExists(_parents[j]));\r\n            require(_propagationRates[j] < 1000);\r\n        }\r\n\r\n        propagationRates = _propagationRates;\r\n        parents = _parents;\r\n        data = _data;\r\n        lifetime = _lifetime;\r\n        owner = _owner;\r\n        fathomToken = FathomToken(conceptRegistry.fathomToken());\r\n    }\r\n\r\n    modifier onlyOwner(){\r\n        require(msg.sender == owner);\r\n        _;\r\n    }\r\n\r\n    function transferOwnership(address _newOwner) onlyOwner() public {\r\n        owner = _newOwner;\r\n    }\r\n\r\n    function changeLifetime(uint _newLifetime) onlyOwner() public {\r\n        lifetime = _newLifetime;\r\n    }\r\n\r\n    function getAvailableMemberLength() public constant returns(uint) {\r\n        return availableMembers.length;\r\n    }\r\n\r\n    function getParentsLength() public view returns(uint) {\r\n        return parents.length;\r\n    }\r\n\r\n    /*\r\n      @purpose: To add the firstUser to Mew\r\n    */\r\n    function addInitialMember(address _user, uint _weight) public {\r\n        if (conceptRegistry.distributorAddress() == msg.sender)\r\n            {\r\n                this.addWeight(_user, _weight);\r\n                availableMembers.push(_user);\r\n                memberData[_user].index = availableMembers.length;\r\n            }\r\n    }\r\n\r\n    /*\r\n      @purpose: add the caller of this function to the arrays of potential assessors\r\n      if they still have a weight in the concept\r\n      @returns true if they are available as assessor\r\n    */\r\n    function toggleAvailability() public returns(bool success){\r\n        if (getWeightAndUpdate(msg.sender) > 0) {\r\n            if (memberData[msg.sender].index == 0) {\r\n                availableMembers.push(msg.sender);\r\n                memberData[msg.sender].index = availableMembers.length;\r\n                success = true;\r\n            }\r\n            else {\r\n                removeMember(msg.sender);\r\n            }\r\n        }\r\n   }\r\n\r\n    /*\r\n      //@purpose: returns a random member of the Concept or the zero address (both with approx. 50%)\r\n      //Users with high weights are more likely to be called\r\n      //@returns the address of the member (0x0 if there is no member)\r\n    */\r\n    function getWeightedRandomMember(uint seed) public returns(address){\r\n        uint weight1;\r\n        uint weight2;\r\n        address randomMember1;\r\n        while (availableMembers.length > 1 && weight1 == 0) {\r\n            uint index1 = Math.getRandom(seed, availableMembers.length - 1);\r\n            randomMember1 = availableMembers[index1];\r\n            weight1 = getWeightAndUpdate(randomMember1);\r\n            seed++;\r\n        }\r\n        while (availableMembers.length > 1 && weight2 == 0) {\r\n                uint index2 = Math.getRandom(seed * 2, availableMembers.length - 1);\r\n                address randomMember2 = availableMembers[index2];\r\n                weight2 = getWeightAndUpdate(randomMember2);\r\n                seed += 10;\r\n        }\r\n        if (weight1 > weight2) {\r\n            return randomMember1;\r\n        }\r\n    }\r\n\r\n    /*\r\n      @purpose: get the weight of a given member, also removes that member from the array\r\n      if there legitimating assessment is expired\r\n    */\r\n    function getWeight(address _member) view public returns(uint weight){\r\n        for (uint i=0; i < memberData[_member].weights.length; i++) {\r\n            if (memberData[_member].weights[i].date > now){\r\n                weight += memberData[_member].weights[i].weight;\r\n            }\r\n        }\r\n    }\r\n\r\n    //@purpose: check weight and update availableMembers array\r\n    function getWeightAndUpdate(address _member) public returns(uint weight) {\r\n        weight = getWeight(_member);\r\n        if (weight == 0) {\r\n            removeMember(_member);\r\n        }\r\n    }\r\n\r\n    /*\r\n      @purpose: removes member at a given index from the availableMembers array by substituting they with\r\n      the last member and then decreasing the size of the availableMembers array\r\n      @returns the updated number of availableMembers in the concept\r\n    */\r\n    function removeMember(address _member) private returns(uint){\r\n        uint index = memberData[_member].index;\r\n        if (index > 0){\r\n            availableMembers[index] = availableMembers[availableMembers.length - 1]; //THIS NEEDS TO BE TESTED!\r\n            memberData[_member].index = 0;\r\n            availableMembers.length--;\r\n        }\r\n        return availableMembers.length;\r\n    }\r\n\r\n    /*\r\n      @purpose: To make a new assessment\r\n      NOTE: While there are less than 200 members in network, all members of mew will\r\n      be called as assessors for any concept\r\n      @param: uint cost = the cost per assessor\r\n      @param: uint size = the number of assessors\r\n    */\r\n    function makeAssessment(uint cost, uint size, uint _waitTime, uint _timeLimit) public returns(bool) {\r\n      require(size >= 5 && fathomToken.balanceOf(msg.sender)>= cost*size);\r\n\r\n      Assessment newAssessment = new Assessment(msg.sender, size, cost, _waitTime, _timeLimit);\r\n      assessmentExists[address(newAssessment)] = true;\r\n      fathomToken.takeBalance(msg.sender, address(newAssessment), cost*size, address(this));\r\n\r\n      // get membernumber of mew to see whether there are more than 200 users in the system:\r\n      address mewAddress = conceptRegistry.mewAddress();\r\n      uint nMemberInMew = Concept(mewAddress).getAvailableMemberLength();\r\n      if (nMemberInMew < size * 5) {\r\n        newAssessment.callAllFromMew(nMemberInMew, mewAddress);\r\n      } else {\r\n        newAssessment.setAssessorPool(uint(blockhash(block.number)), address(this), size*5);\r\n      }\r\n      return true;\r\n    }\r\n\r\n    /*\r\n      @purpose: To add a member to a concept and to recursively add  a member to parent concept\r\n      @param: address assessee = the address of the assessee\r\n      @param: uint weight = the weight for the member\r\n      @returns: nothing\r\n    */\r\n    function addMember(address _assessee, uint _weight) public {\r\n        if (assessmentExists[msg.sender]) {\r\n            memberData[_assessee].recentAssessment = msg.sender;\r\n            this.addWeight(_assessee, _weight);\r\n        }\r\n    }\r\n\r\n    function addWeight(address _assessee, uint _weight) public onlyConcept() {\r\n        uint idx = memberData[_assessee].componentWeightIndex[msg.sender];\r\n        if (idx > 0) {\r\n            memberData[_assessee].weights[idx-1] = ComponentWeight(_weight, now + lifetime);\r\n        } else {\r\n            memberData[_assessee].weights.push(ComponentWeight(_weight, now + lifetime));\r\n            memberData[_assessee].componentWeightIndex[msg.sender] = memberData[_assessee].weights.length;\r\n        }\r\n\r\n        for(uint i = 0; i < parents.length; i++) {\r\n            if((_weight*propagationRates[i])/1000 > 0) {\r\n                Concept(parents[i]).addWeight(_assessee, (_weight*propagationRates[i])/1000);\r\n            }\r\n        }\r\n    }\r\n}\r\n",
  "sourcePath": "/home/jared/dev/blockchain/assess/contracts/Concept.sol",
  "compiler": {
    "name": "solc",
    "version": "0.4.24+commit.e67f0147.Emscripten.clang"
  },
  "schemaVersion": "2.0.1",
  "updatedAt": "2018-07-13T23:05:16.548Z"
}