{
  "contractName": "Distributor",
  "abi": [
    {
      "constant": true,
      "inputs": [],
      "name": "conceptRegistry",
      "outputs": [
        {
          "name": "",
          "type": "address"
        }
      ],
      "payable": false,
      "stateMutability": "view",
      "type": "function"
    },
    {
      "constant": true,
      "inputs": [],
      "name": "nInitialMembers",
      "outputs": [
        {
          "name": "",
          "type": "uint256"
        }
      ],
      "payable": false,
      "stateMutability": "view",
      "type": "function"
    },
    {
      "constant": true,
      "inputs": [
        {
          "name": "",
          "type": "uint256"
        }
      ],
      "name": "memberWeights",
      "outputs": [
        {
          "name": "",
          "type": "uint256"
        }
      ],
      "payable": false,
      "stateMutability": "view",
      "type": "function"
    },
    {
      "constant": true,
      "inputs": [
        {
          "name": "",
          "type": "uint256"
        }
      ],
      "name": "memberAddresses",
      "outputs": [
        {
          "name": "",
          "type": "address"
        }
      ],
      "payable": false,
      "stateMutability": "view",
      "type": "function"
    },
    {
      "inputs": [
        {
          "name": "_nInitialMembers",
          "type": "uint256"
        },
        {
          "name": "_conceptRegistry",
          "type": "address"
        }
      ],
      "payable": false,
      "stateMutability": "nonpayable",
      "type": "constructor"
    },
    {
      "constant": false,
      "inputs": [
        {
          "name": "_memberAddress",
          "type": "address"
        },
        {
          "name": "_memberWeight",
          "type": "uint256"
        }
      ],
      "name": "addInitialMember",
      "outputs": [],
      "payable": false,
      "stateMutability": "nonpayable",
      "type": "function"
    }
  ],
  "bytecode": "0x608060405234801561001057600080fd5b506040516040806103bc833981016040528051602090910151600091825560018054600160a060020a031916600160a060020a0390921691909117905561035f90819061005d90396000f30060806040526004361061006c5763ffffffff7c01000000000000000000000000000000000000000000000000000000006000350416633f99fa5481146100715780637654e92114610097578063963e01f7146100c8578063a0786d0c146100ef578063cc4e629914610107575b600080fd5b34801561007d57600080fd5b50610095600160a060020a036004351660243561011f565b005b3480156100a357600080fd5b506100ac6102d7565b60408051600160a060020a039092168252519081900360200190f35b3480156100d457600080fd5b506100dd6102e6565b60408051918252519081900360200190f35b3480156100fb57600080fd5b506100dd6004356102ec565b34801561011357600080fd5b506100ac60043561030b565b6000546002541061012f57600080fd5b600160009054906101000a9004600160a060020a0316600160a060020a0316639e45c8866040518163ffffffff167c0100000000000000000000000000000000000000000000000000000000028152600401602060405180830381600087803b15801561019b57600080fd5b505af11580156101af573d6000803e3d6000fd5b505050506040513d60208110156101c557600080fd5b5051604080517f3f99fa54000000000000000000000000000000000000000000000000000000008152600160a060020a0385811660048301526024820185905291519190921691633f99fa5491604480830192600092919082900301818387803b15801561023257600080fd5b505af1158015610246573d6000803e3d6000fd5b50506002805460018082019092557f405787fa12a823e0f2b7631cc41b3ba8828b3321ca811111fa75cd3aa3bb5ace01805473ffffffffffffffffffffffffffffffffffffffff1916600160a060020a03969096169590951790945550506003805492830181556000527fc2575a0e9e593c00f959f8c92f12db2869c3395a3b0502d05e2516446f71f85b90910155565b600154600160a060020a031681565b60005481565b60038054829081106102fa57fe5b600091825260209091200154905081565b600280548290811061031957fe5b600091825260209091200154600160a060020a03169050815600a165627a7a72305820b8fd05f672958418b524ace202d3ae2952b34711301c2a6ec1594a6ab0002aaf0029",
  "source": "pragma solidity ^0.4.23;\n\nimport \"./Concept.sol\";\nimport \"./ConceptRegistry.sol\";\n\n// Contract that can add a specified number of members to the mew-concept\n// of the given conceptRegistry\ncontract Distributor{\n    uint public nInitialMembers;\n    address public conceptRegistry;\n    address[] public memberAddresses;\n    uint[] public memberWeights;\n\n    constructor(uint _nInitialMembers, address _conceptRegistry) public {\n        nInitialMembers = _nInitialMembers;\n        conceptRegistry = _conceptRegistry;\n    }\n\n    function addInitialMember(address _memberAddress, uint _memberWeight) public {\n        require(memberAddresses.length < nInitialMembers);\n        Concept(ConceptRegistry(conceptRegistry).mewAddress()).addInitialMember(_memberAddress, _memberWeight);\n        memberAddresses.push(_memberAddress);\n        memberWeights.push(_memberWeight);\n    }\n\n}\n\n",
  "sourcePath": "/home/jared/dev/blockchain/assess/contracts/Distributor.sol",
  "compiler": {
    "name": "solc",
    "version": "0.4.24+commit.e67f0147.Emscripten.clang"
  },
  "schemaVersion": "2.0.1",
  "updatedAt": "2018-07-25T17:58:52.474Z"
}