{
  "contractName": "FathomToken",
  "abi": [
    {
      "constant": true,
      "inputs": [],
      "name": "name",
      "outputs": [
        {
          "name": "",
          "type": "string"
        }
      ],
      "payable": false,
      "stateMutability": "view",
      "type": "function"
    },
    {
      "constant": true,
      "inputs": [],
      "name": "minter",
      "outputs": [
        {
          "name": "",
          "type": "address"
        }
      ],
      "payable": false,
      "stateMutability": "view",
      "type": "function"
    },
    {
      "constant": false,
      "inputs": [
        {
          "name": "_spender",
          "type": "address"
        },
        {
          "name": "_value",
          "type": "uint256"
        }
      ],
      "name": "approve",
      "outputs": [
        {
          "name": "success",
          "type": "bool"
        }
      ],
      "payable": false,
      "stateMutability": "nonpayable",
      "type": "function"
    },
    {
      "constant": true,
      "inputs": [],
      "name": "totalSupply",
      "outputs": [
        {
          "name": "",
          "type": "uint256"
        }
      ],
      "payable": false,
      "stateMutability": "view",
      "type": "function"
    },
    {
      "constant": false,
      "inputs": [
        {
          "name": "_from",
          "type": "address"
        },
        {
          "name": "_to",
          "type": "address"
        },
        {
          "name": "_value",
          "type": "uint256"
        }
      ],
      "name": "transferFrom",
      "outputs": [
        {
          "name": "success",
          "type": "bool"
        }
      ],
      "payable": false,
      "stateMutability": "nonpayable",
      "type": "function"
    },
    {
      "constant": true,
      "inputs": [
        {
          "name": "_owner",
          "type": "address"
        }
      ],
      "name": "balanceOf",
      "outputs": [
        {
          "name": "balance",
          "type": "uint256"
        }
      ],
      "payable": false,
      "stateMutability": "view",
      "type": "function"
    },
    {
      "constant": true,
      "inputs": [],
      "name": "owner",
      "outputs": [
        {
          "name": "",
          "type": "address"
        }
      ],
      "payable": false,
      "stateMutability": "view",
      "type": "function"
    },
    {
      "constant": false,
      "inputs": [
        {
          "name": "_to",
          "type": "address"
        },
        {
          "name": "_value",
          "type": "uint256"
        }
      ],
      "name": "transfer",
      "outputs": [
        {
          "name": "success",
          "type": "bool"
        }
      ],
      "payable": false,
      "stateMutability": "nonpayable",
      "type": "function"
    },
    {
      "constant": true,
      "inputs": [
        {
          "name": "_owner",
          "type": "address"
        },
        {
          "name": "_spender",
          "type": "address"
        }
      ],
      "name": "allowance",
      "outputs": [
        {
          "name": "remaining",
          "type": "uint256"
        }
      ],
      "payable": false,
      "stateMutability": "view",
      "type": "function"
    },
    {
      "inputs": [
        {
          "name": "_conceptRegistry",
          "type": "address"
        },
        {
          "name": "_initialUser",
          "type": "address"
        },
        {
          "name": "_initialBalance",
          "type": "uint256"
        },
        {
          "name": "_minter",
          "type": "address"
        }
      ],
      "payable": false,
      "stateMutability": "nonpayable",
      "type": "constructor"
    },
    {
      "anonymous": false,
      "inputs": [
        {
          "indexed": true,
          "name": "previousOwner",
          "type": "address"
        },
        {
          "indexed": true,
          "name": "newOwner",
          "type": "address"
        }
      ],
      "name": "OwnershipTransferred",
      "type": "event"
    },
    {
      "anonymous": false,
      "inputs": [
        {
          "indexed": true,
          "name": "user",
          "type": "address"
        },
        {
          "indexed": true,
          "name": "sender",
          "type": "address"
        },
        {
          "indexed": true,
          "name": "topic",
          "type": "uint256"
        }
      ],
      "name": "Notification",
      "type": "event"
    },
    {
      "anonymous": false,
      "inputs": [
        {
          "indexed": true,
          "name": "_from",
          "type": "address"
        },
        {
          "indexed": true,
          "name": "_to",
          "type": "address"
        },
        {
          "indexed": false,
          "name": "_value",
          "type": "uint256"
        }
      ],
      "name": "Transfer",
      "type": "event"
    },
    {
      "anonymous": false,
      "inputs": [
        {
          "indexed": true,
          "name": "_owner",
          "type": "address"
        },
        {
          "indexed": true,
          "name": "_spender",
          "type": "address"
        },
        {
          "indexed": false,
          "name": "_value",
          "type": "uint256"
        }
      ],
      "name": "Approval",
      "type": "event"
    },
    {
      "constant": false,
      "inputs": [
        {
          "name": "user",
          "type": "address"
        },
        {
          "name": "topic",
          "type": "uint256"
        }
      ],
      "name": "notification",
      "outputs": [],
      "payable": false,
      "stateMutability": "nonpayable",
      "type": "function"
    },
    {
      "constant": false,
      "inputs": [
        {
          "name": "_from",
          "type": "address"
        },
        {
          "name": "_to",
          "type": "address"
        },
        {
          "name": "_amount",
          "type": "uint256"
        },
        {
          "name": "_concept",
          "type": "address"
        }
      ],
      "name": "takeBalance",
      "outputs": [
        {
          "name": "",
          "type": "bool"
        }
      ],
      "payable": false,
      "stateMutability": "nonpayable",
      "type": "function"
    },
    {
      "constant": false,
      "inputs": [
        {
          "name": "_to",
          "type": "address"
        },
        {
          "name": "_amount",
          "type": "uint256"
        }
      ],
      "name": "mint",
      "outputs": [
        {
          "name": "",
          "type": "bool"
        }
      ],
      "payable": false,
      "stateMutability": "nonpayable",
      "type": "function"
    },
    {
      "constant": false,
      "inputs": [
        {
          "name": "_newMinter",
          "type": "address"
        }
      ],
      "name": "changeMinter",
      "outputs": [],
      "payable": false,
      "stateMutability": "nonpayable",
      "type": "function"
    },
    {
      "constant": false,
      "inputs": [
        {
          "name": "_newOwner",
          "type": "address"
        }
      ],
      "name": "transferOwnership",
      "outputs": [],
      "payable": false,
      "stateMutability": "nonpayable",
      "type": "function"
    }
  ],
  "bytecode": "0x6060604052341561000f57600080fd5b6040516080806109ea8339810160405280805191906020018051919060200180519190602001805160058054600160a060020a03338116600160a060020a0319928316179092556003805498831698821698909817909755600480549282169290971691909117909555505060008181559190921681526001602052604090205561094b8061009f6000396000f3006060604052600436106100b65763ffffffff60e060020a60003504166306fdde0381146100bb5780630754617214610145578063095ea7b31461017457806318160ddd146101aa57806323b872dd146101cf57806327234ecc146101f75780632c4d4d181461022657806340c10f191461024757806370a082311461026957806376147a0e146102885780638da5cb5b146102aa578063a9059cbb146102bd578063dd62ed3e146102df578063f2fde38b14610304575b600080fd5b34156100c657600080fd5b6100ce610323565b60405160208082528190810183818151815260200191508051906020019080838360005b8381101561010a5780820151838201526020016100f2565b50505050905090810190601f1680156101375780820380516001836020036101000a031916815260200191505b509250505060405180910390f35b341561015057600080fd5b61015861035a565b604051600160a060020a03909116815260200160405180910390f35b341561017f57600080fd5b610196600160a060020a0360043516602435610369565b604051901515815260200160405180910390f35b34156101b557600080fd5b6101bd6103d5565b60405190815260200160405180910390f35b34156101da57600080fd5b610196600160a060020a03600435811690602435166044356103db565b341561020257600080fd5b610196600160a060020a0360043581169060243581169060443590606435166104cf565b341561023157600080fd5b610245600160a060020a0360043516610693565b005b341561025257600080fd5b610196600160a060020a03600435166024356106dd565b341561027457600080fd5b6101bd600160a060020a036004351661075d565b341561029357600080fd5b610245600160a060020a0360043516602435610778565b34156102b557600080fd5b6101586107bd565b34156102c857600080fd5b610196600160a060020a03600435166024356107cc565b34156102ea57600080fd5b6101bd600160a060020a036004358116906024351661084e565b341561030f57600080fd5b610245600160a060020a0360043516610879565b60408051908101604052600381527f4168610000000000000000000000000000000000000000000000000000000000602082015281565b600454600160a060020a031681565b600160a060020a03338116600081815260026020908152604080832094871680845294909152808220859055909291907f8c5be1e5ebec7d5bd14f71427d1e84f3dd0314c0f7b2291e5b200ac8c7c3b9259085905190815260200160405180910390a350600192915050565b60005481565b600160a060020a03808416600081815260026020908152604080832033909516835293815283822054928252600190529182205483901080159061041f5750828110155b151561042a57600080fd5b600160a060020a038085166000908152600160205260408082208054870190559187168152208054849003905560001981101561048f57600160a060020a03808616600090815260026020908152604080832033909416835292905220805484900390555b83600160a060020a031685600160a060020a03166000805160206109008339815191528560405190815260200160405180910390a3506001949350505050565b600354600090600160a060020a031663c18e467983836040516020015260405160e060020a63ffffffff8416028152600160a060020a039091166004820152602401602060405180830381600087803b151561052a57600080fd5b6102c65a03f1151561053b57600080fd5b50505060405180519050151561055057600080fd5b81600160a060020a031633600160a060020a03161415156105e85781600160a060020a03166321d39c2c3360006040516020015260405160e060020a63ffffffff8416028152600160a060020a039091166004820152602401602060405180830381600087803b15156105c257600080fd5b6102c65a03f115156105d357600080fd5b5050506040518051905015156105e857600080fd5b600160a060020a03851660009081526001602052604090205483901080159061062a5750600160a060020a038416600090815260016020526040902054838101115b151561063557600080fd5b600160a060020a038086166000818152600160205260408082208054889003905592871680825290839020805487019055916000805160206109008339815191529086905190815260200160405180910390a3506001949350505050565b60055433600160a060020a039081169116146106ae57600080fd5b6004805473ffffffffffffffffffffffffffffffffffffffff1916600160a060020a0392909216919091179055565b60045460009033600160a060020a039081169116146106fb57600080fd5b6000548281011161070b57600080fd5b6000805483018155600160a060020a038416808252600160205260408083208054860190559091906000805160206109008339815191529085905190815260200160405180910390a350600192915050565b600160a060020a031660009081526001602052604090205490565b8033600160a060020a031683600160a060020a03167fe41f8f86e0c2a4bb86f57d2698c1704cd23b5f42a84336cdb49377cdca96d87660405160405180910390a45050565b600554600160a060020a031681565b600160a060020a033316600090815260016020526040812054829010156107f257600080fd5b600160a060020a033381166000818152600160205260408082208054879003905592861680825290839020805486019055916000805160206109008339815191529085905190815260200160405180910390a350600192915050565b600160a060020a03918216600090815260026020908152604080832093909416825291909152205490565b60055433600160a060020a0390811691161461089457600080fd5b600554600160a060020a0380831691167f8be0079c531659141344cd1fd0a4f28419497f9722a3daafe3b4186f6b6457e060405160405180910390a36005805473ffffffffffffffffffffffffffffffffffffffff1916600160a060020a03929092169190911790555600ddf252ad1be2c89b69c2b068fc378daa952ba7f163c4a11628f55a4df523b3efa165627a7a72305820deb30e676274b1ef6b0814194c8d455b33f52e806a8e8b5a160d102fefbe7fc60029",
  "source": "pragma solidity ^0.4.11;\r\n\r\nimport \"./Concept.sol\";\r\nimport \"./ConceptRegistry.sol\";\r\nimport \"./lib/StandardToken.sol\";\r\nimport \"./Minter.sol\";\r\n\r\n/*\r\n@type: contract\r\n@name: UserRegistry\r\n@purpose: To store data about users for easy, secure access and manage token balances\r\n*/\r\ncontract FathomToken is StandardToken{\r\n    // address public conceptRegistry;\r\n    ConceptRegistry conceptRegistry;\r\n    string public constant name = \"Aha\";\r\n\r\n    address public minter;\r\n    address public owner;\r\n\r\n    event OwnershipTransferred(address indexed previousOwner, address indexed newOwner);\r\n    event Notification(address indexed user, address indexed sender, uint indexed topic);\r\n    /*\r\n      0 = You've started an assessment\r\n      1 = Called As A Potential Assessor\r\n     2 = Confirmed for assessing, stake has been taken\r\n      3 = Assessment Cancelled and you have been refunded\r\n      4 = Assessment Has Started\r\n      5 = All have commited; Reveal score\r\n      6 = Consenus was reached; Tokens paid out\r\n      7 = Assessment Finished,\r\n    */\r\n\r\n    function FathomToken(address _conceptRegistry, address _initialUser, uint _initialBalance, address _minter) public {\r\n        owner = msg.sender;\r\n        conceptRegistry = ConceptRegistry(_conceptRegistry);\r\n        minter = _minter;\r\n        totalSupply = _initialBalance;\r\n        balances[_initialUser] = _initialBalance;\r\n    }\r\n\r\n    function notification(address user, uint topic) public {\r\n        Notification(user, msg.sender, topic);\r\n    }\r\n\r\n    //@purpose: To perform payments and staking for assessments\r\n    function takeBalance(address _from,  address _to, uint _amount, address _concept) public returns(bool) {\r\n        require(conceptRegistry.conceptExists(_concept));\r\n        if(msg.sender != _concept) require(Concept(_concept).assessmentExists(msg.sender));\r\n\r\n        require(balances[_from] >= _amount\r\n                && balances[_to] + _amount > balances[_to]);\r\n        balances[_from] -= _amount;\r\n        balances[_to] += _amount;\r\n        Transfer(_from, _to, _amount);\r\n        return true;\r\n    }\r\n\r\n    function mint(address _to, uint _amount) public returns(bool){\r\n        require(msg.sender == minter);\r\n        require(totalSupply + _amount > totalSupply);\r\n\r\n        totalSupply += _amount;\r\n        balances[_to] += _amount;\r\n        Transfer(address(0), _to, _amount);\r\n        return true;\r\n    }\r\n\r\n    function changeMinter(address _newMinter) public {\r\n        require(msg.sender == owner);\r\n        minter = _newMinter;\r\n    }\r\n\r\n    function transferOwnership(address _newOwner) public {\r\n        require(msg.sender == owner);\r\n        OwnershipTransferred(owner, _newOwner);\r\n        owner = _newOwner;\r\n    }\r\n}\r\n",
  "sourcePath": "/Users/antoineestienne/GitFolder/fathom/assess/contracts/FathomToken.sol",
  "compiler": {
    "name": "solc",
    "version": "0.4.19+commit.c4cbbb05.Emscripten.clang"
  },
  "schemaVersion": "1.0.1",
  "updatedAt": "2018-05-04T16:44:19.965Z"
}