{
  "contractName": "FathomToken",
  "abi": [
    {
      "constant": true,
      "inputs": [],
      "name": "name",
      "outputs": [
        {
          "name": "",
          "type": "string"
        }
      ],
      "payable": false,
      "stateMutability": "view",
      "type": "function"
    },
    {
      "constant": true,
      "inputs": [],
      "name": "minter",
      "outputs": [
        {
          "name": "",
          "type": "address"
        }
      ],
      "payable": false,
      "stateMutability": "view",
      "type": "function"
    },
    {
      "constant": false,
      "inputs": [
        {
          "name": "_spender",
          "type": "address"
        },
        {
          "name": "_value",
          "type": "uint256"
        }
      ],
      "name": "approve",
      "outputs": [
        {
          "name": "success",
          "type": "bool"
        }
      ],
      "payable": false,
      "stateMutability": "nonpayable",
      "type": "function"
    },
    {
      "constant": true,
      "inputs": [],
      "name": "totalSupply",
      "outputs": [
        {
          "name": "",
          "type": "uint256"
        }
      ],
      "payable": false,
      "stateMutability": "view",
      "type": "function"
    },
    {
      "constant": false,
      "inputs": [
        {
          "name": "_from",
          "type": "address"
        },
        {
          "name": "_to",
          "type": "address"
        },
        {
          "name": "_value",
          "type": "uint256"
        }
      ],
      "name": "transferFrom",
      "outputs": [
        {
          "name": "success",
          "type": "bool"
        }
      ],
      "payable": false,
      "stateMutability": "nonpayable",
      "type": "function"
    },
    {
      "constant": true,
      "inputs": [],
      "name": "decimals",
      "outputs": [
        {
          "name": "",
          "type": "uint8"
        }
      ],
      "payable": false,
      "stateMutability": "view",
      "type": "function"
    },
    {
      "constant": true,
      "inputs": [
        {
          "name": "_owner",
          "type": "address"
        }
      ],
      "name": "balanceOf",
      "outputs": [
        {
          "name": "balance",
          "type": "uint256"
        }
      ],
      "payable": false,
      "stateMutability": "view",
      "type": "function"
    },
    {
      "constant": true,
      "inputs": [],
      "name": "owner",
      "outputs": [
        {
          "name": "",
          "type": "address"
        }
      ],
      "payable": false,
      "stateMutability": "view",
      "type": "function"
    },
    {
      "constant": true,
      "inputs": [],
      "name": "symbol",
      "outputs": [
        {
          "name": "",
          "type": "string"
        }
      ],
      "payable": false,
      "stateMutability": "view",
      "type": "function"
    },
    {
      "constant": false,
      "inputs": [
        {
          "name": "_to",
          "type": "address"
        },
        {
          "name": "_value",
          "type": "uint256"
        }
      ],
      "name": "transfer",
      "outputs": [
        {
          "name": "success",
          "type": "bool"
        }
      ],
      "payable": false,
      "stateMutability": "nonpayable",
      "type": "function"
    },
    {
      "constant": true,
      "inputs": [
        {
          "name": "_owner",
          "type": "address"
        },
        {
          "name": "_spender",
          "type": "address"
        }
      ],
      "name": "allowance",
      "outputs": [
        {
          "name": "remaining",
          "type": "uint256"
        }
      ],
      "payable": false,
      "stateMutability": "view",
      "type": "function"
    },
    {
      "inputs": [
        {
          "name": "_conceptRegistry",
          "type": "address"
        },
        {
          "name": "_initialUser",
          "type": "address"
        },
        {
          "name": "_initialBalance",
          "type": "uint256"
        },
        {
          "name": "_minter",
          "type": "address"
        }
      ],
      "payable": false,
      "stateMutability": "nonpayable",
      "type": "constructor"
    },
    {
      "anonymous": false,
      "inputs": [
        {
          "indexed": true,
          "name": "previousOwner",
          "type": "address"
        },
        {
          "indexed": true,
          "name": "newOwner",
          "type": "address"
        }
      ],
      "name": "OwnershipTransferred",
      "type": "event"
    },
    {
      "anonymous": false,
      "inputs": [
        {
          "indexed": true,
          "name": "user",
          "type": "address"
        },
        {
          "indexed": true,
          "name": "sender",
          "type": "address"
        },
        {
          "indexed": true,
          "name": "topic",
          "type": "uint256"
        }
      ],
      "name": "Notification",
      "type": "event"
    },
    {
      "anonymous": false,
      "inputs": [
        {
          "indexed": true,
          "name": "_from",
          "type": "address"
        },
        {
          "indexed": true,
          "name": "_to",
          "type": "address"
        },
        {
          "indexed": false,
          "name": "_value",
          "type": "uint256"
        }
      ],
      "name": "Transfer",
      "type": "event"
    },
    {
      "anonymous": false,
      "inputs": [
        {
          "indexed": true,
          "name": "_owner",
          "type": "address"
        },
        {
          "indexed": true,
          "name": "_spender",
          "type": "address"
        },
        {
          "indexed": false,
          "name": "_value",
          "type": "uint256"
        }
      ],
      "name": "Approval",
      "type": "event"
    },
    {
      "constant": false,
      "inputs": [
        {
          "name": "user",
          "type": "address"
        },
        {
          "name": "topic",
          "type": "uint256"
        }
      ],
      "name": "notification",
      "outputs": [],
      "payable": false,
      "stateMutability": "nonpayable",
      "type": "function"
    },
    {
      "constant": false,
      "inputs": [
        {
          "name": "_from",
          "type": "address"
        },
        {
          "name": "_to",
          "type": "address"
        },
        {
          "name": "_amount",
          "type": "uint256"
        },
        {
          "name": "_concept",
          "type": "address"
        }
      ],
      "name": "takeBalance",
      "outputs": [
        {
          "name": "",
          "type": "bool"
        }
      ],
      "payable": false,
      "stateMutability": "nonpayable",
      "type": "function"
    },
    {
      "constant": false,
      "inputs": [
        {
          "name": "_to",
          "type": "address"
        },
        {
          "name": "_amount",
          "type": "uint256"
        }
      ],
      "name": "mint",
      "outputs": [
        {
          "name": "",
          "type": "bool"
        }
      ],
      "payable": false,
      "stateMutability": "nonpayable",
      "type": "function"
    },
    {
      "constant": false,
      "inputs": [
        {
          "name": "_newMinter",
          "type": "address"
        }
      ],
      "name": "changeMinter",
      "outputs": [],
      "payable": false,
      "stateMutability": "nonpayable",
      "type": "function"
    },
    {
      "constant": false,
      "inputs": [
        {
          "name": "_newOwner",
          "type": "address"
        }
      ],
      "name": "transferOwnership",
      "outputs": [],
      "payable": false,
      "stateMutability": "nonpayable",
      "type": "function"
    }
  ],
  "bytecode": "0x608060405234801561001057600080fd5b50604051608080610aa883398101604090815281516020808401518385015160609095015160058054600160a060020a0319908116331790915560038054600160a060020a039687169083161790556004805492861692909116919091179055600085815592168252600190522055610a1a8061008e6000396000f3006080604052600436106100e55763ffffffff7c010000000000000000000000000000000000000000000000000000000060003504166306fdde0381146100ea5780630754617214610174578063095ea7b3146101a557806318160ddd146101dd57806323b872dd1461020457806327234ecc1461022e5780632c4d4d181461025f578063313ce5671461028257806340c10f19146102ad57806370a08231146102d157806376147a0e146102f25780638da5cb5b1461031657806395d89b411461032b578063a9059cbb14610340578063dd62ed3e14610364578063f2fde38b1461038b575b600080fd5b3480156100f657600080fd5b506100ff6103ac565b6040805160208082528351818301528351919283929083019185019080838360005b83811015610139578181015183820152602001610121565b50505050905090810190601f1680156101665780820380516001836020036101000a031916815260200191505b509250505060405180910390f35b34801561018057600080fd5b506101896103e3565b60408051600160a060020a039092168252519081900360200190f35b3480156101b157600080fd5b506101c9600160a060020a03600435166024356103f2565b604080519115158252519081900360200190f35b3480156101e957600080fd5b506101f2610458565b60408051918252519081900360200190f35b34801561021057600080fd5b506101c9600160a060020a036004358116906024351660443561045e565b34801561023a57600080fd5b506101c9600160a060020a036004358116906024358116906044359060643516610550565b34801561026b57600080fd5b50610280600160a060020a0360043516610746565b005b34801561028e57600080fd5b5061029761078c565b6040805160ff9092168252519081900360200190f35b3480156102b957600080fd5b506101c9600160a060020a0360043516602435610791565b3480156102dd57600080fd5b506101f2600160a060020a036004351661080e565b3480156102fe57600080fd5b50610280600160a060020a0360043516602435610829565b34801561032257600080fd5b50610189610865565b34801561033757600080fd5b506100ff610874565b34801561034c57600080fd5b506101c9600160a060020a03600435166024356108ab565b34801561037057600080fd5b506101f2600160a060020a0360043581169060243516610923565b34801561039757600080fd5b50610280600160a060020a036004351661094e565b60408051808201909152600381527f4168610000000000000000000000000000000000000000000000000000000000602082015281565b600454600160a060020a031681565b336000818152600260209081526040808320600160a060020a038716808552908352818420869055815186815291519394909390927f8c5be1e5ebec7d5bd14f71427d1e84f3dd0314c0f7b2291e5b200ac8c7c3b925928290030190a350600192915050565b60005481565b600160a060020a03831660008181526002602090815260408083203384528252808320549383526001909152812054909190831180159061049f5750828110155b15156104aa57600080fd5b600160a060020a038085166000908152600160205260408082208054870190559187168152208054849003905560001981101561050c57600160a060020a03851660009081526002602090815260408083203384529091529020805484900390555b83600160a060020a031685600160a060020a03166000805160206109cf833981519152856040518082815260200191505060405180910390a3506001949350505050565b600354604080517fc18e4679000000000000000000000000000000000000000000000000000000008152600160a060020a0384811660048301529151600093929092169163c18e46799160248082019260209290919082900301818787803b1580156105bb57600080fd5b505af11580156105cf573d6000803e3d6000fd5b505050506040513d60208110156105e557600080fd5b505115156105f257600080fd5b33600160a060020a0383161461069a57604080517f21d39c2c0000000000000000000000000000000000000000000000000000000081523360048201529051600160a060020a038416916321d39c2c9160248083019260209291908290030181600087803b15801561066357600080fd5b505af1158015610677573d6000803e3d6000fd5b505050506040513d602081101561068d57600080fd5b5051151561069a57600080fd5b600160a060020a03851660009081526001602052604090205483118015906106db5750600160a060020a038416600090815260016020526040902054838101115b15156106e657600080fd5b600160a060020a03808616600081815260016020908152604080832080548990039055938816808352918490208054880190558351878152935191936000805160206109cf833981519152929081900390910190a3506001949350505050565b600554600160a060020a0316331461075d57600080fd5b6004805473ffffffffffffffffffffffffffffffffffffffff1916600160a060020a0392909216919091179055565b600981565b600454600090600160a060020a031633146107ab57600080fd5b600054828101116107bb57600080fd5b6000805483018155600160a060020a038416808252600160209081526040808420805487019055805186815290519293926000805160206109cf833981519152929181900390910190a350600192915050565b600160a060020a031660009081526001602052604090205490565b60405181903390600160a060020a038516907fe41f8f86e0c2a4bb86f57d2698c1704cd23b5f42a84336cdb49377cdca96d87690600090a45050565b600554600160a060020a031681565b60408051808201909152600381527f4148410000000000000000000000000000000000000000000000000000000000602082015281565b336000908152600160205260408120548211156108c757600080fd5b33600081815260016020908152604080832080548790039055600160a060020a03871680845292819020805487019055805186815290519293926000805160206109cf833981519152929181900390910190a350600192915050565b600160a060020a03918216600090815260026020908152604080832093909416825291909152205490565b600554600160a060020a0316331461096557600080fd5b600554604051600160a060020a038084169216907f8be0079c531659141344cd1fd0a4f28419497f9722a3daafe3b4186f6b6457e090600090a36005805473ffffffffffffffffffffffffffffffffffffffff1916600160a060020a03929092169190911790555600ddf252ad1be2c89b69c2b068fc378daa952ba7f163c4a11628f55a4df523b3efa165627a7a723058200b5eba1a9410dd280c742f0fed4b4649209929c9980607f55315f5ab9865ded20029",
  "source": "pragma solidity ^0.4.23;\r\n\r\nimport \"./Concept.sol\";\r\nimport \"./ConceptRegistry.sol\";\r\nimport \"./lib/StandardToken.sol\";\r\nimport \"./Minter.sol\";\r\n\r\n/*\r\n@type: contract\r\n@name: UserRegistry\r\n@purpose: To store data about users for easy, secure access and manage token balances\r\n*/\r\ncontract FathomToken is StandardToken{\r\n    // address public conceptRegistry;\r\n    ConceptRegistry conceptRegistry;\r\n    string public constant name = \"Aha\";\r\n    string public constant symbol = \"AHA\";\r\n    uint8 public constant decimals = 9;\r\n\r\n    address public minter;\r\n    address public owner;\r\n\r\n    event OwnershipTransferred(address indexed previousOwner, address indexed newOwner);\r\n    event Notification(address indexed user, address indexed sender, uint indexed topic);\r\n    /*\r\n      0 = You've started an assessment\r\n      1 = Called As A Potential Assessor\r\n     2 = Confirmed for assessing, stake has been taken\r\n      3 = Assessment Cancelled and you have been refunded\r\n      4 = Assessment Has Started\r\n      5 = All have commited; Reveal score\r\n      6 = Consenus was reached; Tokens paid out\r\n      7 = Assessment Finished,\r\n    */\r\n\r\n    constructor(address _conceptRegistry, address _initialUser, uint _initialBalance, address _minter) public {\r\n        owner = msg.sender;\r\n        conceptRegistry = ConceptRegistry(_conceptRegistry);\r\n        minter = _minter;\r\n        totalSupply = _initialBalance;\r\n        balances[_initialUser] = _initialBalance;\r\n    }\r\n\r\n    function notification(address user, uint topic) public {\r\n        emit Notification(user, msg.sender, topic);\r\n    }\r\n\r\n    //@purpose: To perform payments and staking for assessments\r\n    function takeBalance(address _from,  address _to, uint _amount, address _concept) public returns(bool) {\r\n        require(conceptRegistry.conceptExists(_concept));\r\n        if(msg.sender != _concept) require(Concept(_concept).assessmentExists(msg.sender));\r\n\r\n        require(balances[_from] >= _amount\r\n                && balances[_to] + _amount > balances[_to]);\r\n        balances[_from] -= _amount;\r\n        balances[_to] += _amount;\r\n        emit Transfer(_from, _to, _amount);\r\n        return true;\r\n    }\r\n\r\n    function mint(address _to, uint _amount) public returns(bool){\r\n        require(msg.sender == minter);\r\n        require(totalSupply + _amount > totalSupply);\r\n\r\n        totalSupply += _amount;\r\n        balances[_to] += _amount;\r\n        emit Transfer(address(0), _to, _amount);\r\n        return true;\r\n    }\r\n\r\n    function changeMinter(address _newMinter) public {\r\n        require(msg.sender == owner);\r\n        minter = _newMinter;\r\n    }\r\n\r\n    function transferOwnership(address _newOwner) public {\r\n        require(msg.sender == owner);\r\n        emit OwnershipTransferred(owner, _newOwner);\r\n        owner = _newOwner;\r\n    }\r\n}\r\n",
  "sourcePath": "/home/jared/dev/blockchain/assess/contracts/FathomToken.sol",
  "compiler": {
    "name": "solc",
    "version": "0.4.24+commit.e67f0147.Emscripten.clang"
  },
  "schemaVersion": "2.0.1",
  "updatedAt": "2018-07-31T19:48:31.946Z"
}