{
  "contractName": "FathomToken",
  "abi": [
    {
      "constant": true,
      "inputs": [],
      "name": "name",
      "outputs": [
        {
          "name": "",
          "type": "string"
        }
      ],
      "payable": false,
      "stateMutability": "view",
      "type": "function"
    },
    {
      "constant": true,
      "inputs": [],
      "name": "minter",
      "outputs": [
        {
          "name": "",
          "type": "address"
        }
      ],
      "payable": false,
      "stateMutability": "view",
      "type": "function"
    },
    {
      "constant": false,
      "inputs": [
        {
          "name": "_spender",
          "type": "address"
        },
        {
          "name": "_value",
          "type": "uint256"
        }
      ],
      "name": "approve",
      "outputs": [
        {
          "name": "success",
          "type": "bool"
        }
      ],
      "payable": false,
      "stateMutability": "nonpayable",
      "type": "function"
    },
    {
      "constant": true,
      "inputs": [],
      "name": "totalSupply",
      "outputs": [
        {
          "name": "",
          "type": "uint256"
        }
      ],
      "payable": false,
      "stateMutability": "view",
      "type": "function"
    },
    {
      "constant": false,
      "inputs": [
        {
          "name": "_from",
          "type": "address"
        },
        {
          "name": "_to",
          "type": "address"
        },
        {
          "name": "_value",
          "type": "uint256"
        }
      ],
      "name": "transferFrom",
      "outputs": [
        {
          "name": "success",
          "type": "bool"
        }
      ],
      "payable": false,
      "stateMutability": "nonpayable",
      "type": "function"
    },
    {
      "constant": true,
      "inputs": [
        {
          "name": "_owner",
          "type": "address"
        }
      ],
      "name": "balanceOf",
      "outputs": [
        {
          "name": "balance",
          "type": "uint256"
        }
      ],
      "payable": false,
      "stateMutability": "view",
      "type": "function"
    },
    {
      "constant": true,
      "inputs": [],
      "name": "owner",
      "outputs": [
        {
          "name": "",
          "type": "address"
        }
      ],
      "payable": false,
      "stateMutability": "view",
      "type": "function"
    },
    {
      "constant": false,
      "inputs": [
        {
          "name": "_to",
          "type": "address"
        },
        {
          "name": "_value",
          "type": "uint256"
        }
      ],
      "name": "transfer",
      "outputs": [
        {
          "name": "success",
          "type": "bool"
        }
      ],
      "payable": false,
      "stateMutability": "nonpayable",
      "type": "function"
    },
    {
      "constant": true,
      "inputs": [
        {
          "name": "_owner",
          "type": "address"
        },
        {
          "name": "_spender",
          "type": "address"
        }
      ],
      "name": "allowance",
      "outputs": [
        {
          "name": "remaining",
          "type": "uint256"
        }
      ],
      "payable": false,
      "stateMutability": "view",
      "type": "function"
    },
    {
      "inputs": [
        {
          "name": "_conceptRegistry",
          "type": "address"
        },
        {
          "name": "_initialUser",
          "type": "address"
        },
        {
          "name": "_initialBalance",
          "type": "uint256"
        },
        {
          "name": "_minter",
          "type": "address"
        }
      ],
      "payable": false,
      "stateMutability": "nonpayable",
      "type": "constructor"
    },
    {
      "anonymous": false,
      "inputs": [
        {
          "indexed": true,
          "name": "previousOwner",
          "type": "address"
        },
        {
          "indexed": true,
          "name": "newOwner",
          "type": "address"
        }
      ],
      "name": "OwnershipTransferred",
      "type": "event"
    },
    {
      "anonymous": false,
      "inputs": [
        {
          "indexed": true,
          "name": "user",
          "type": "address"
        },
        {
          "indexed": true,
          "name": "sender",
          "type": "address"
        },
        {
          "indexed": true,
          "name": "topic",
          "type": "uint256"
        }
      ],
      "name": "Notification",
      "type": "event"
    },
    {
      "anonymous": false,
      "inputs": [
        {
          "indexed": true,
          "name": "_from",
          "type": "address"
        },
        {
          "indexed": true,
          "name": "_to",
          "type": "address"
        },
        {
          "indexed": false,
          "name": "_value",
          "type": "uint256"
        }
      ],
      "name": "Transfer",
      "type": "event"
    },
    {
      "anonymous": false,
      "inputs": [
        {
          "indexed": true,
          "name": "_owner",
          "type": "address"
        },
        {
          "indexed": true,
          "name": "_spender",
          "type": "address"
        },
        {
          "indexed": false,
          "name": "_value",
          "type": "uint256"
        }
      ],
      "name": "Approval",
      "type": "event"
    },
    {
      "constant": false,
      "inputs": [
        {
          "name": "user",
          "type": "address"
        },
        {
          "name": "topic",
          "type": "uint256"
        }
      ],
      "name": "notification",
      "outputs": [],
      "payable": false,
      "stateMutability": "nonpayable",
      "type": "function"
    },
    {
      "constant": false,
      "inputs": [
        {
          "name": "_from",
          "type": "address"
        },
        {
          "name": "_to",
          "type": "address"
        },
        {
          "name": "_amount",
          "type": "uint256"
        },
        {
          "name": "_concept",
          "type": "address"
        }
      ],
      "name": "takeBalance",
      "outputs": [
        {
          "name": "",
          "type": "bool"
        }
      ],
      "payable": false,
      "stateMutability": "nonpayable",
      "type": "function"
    },
    {
      "constant": false,
      "inputs": [
        {
          "name": "_to",
          "type": "address"
        },
        {
          "name": "_amount",
          "type": "uint256"
        }
      ],
      "name": "mint",
      "outputs": [
        {
          "name": "",
          "type": "bool"
        }
      ],
      "payable": false,
      "stateMutability": "nonpayable",
      "type": "function"
    },
    {
      "constant": false,
      "inputs": [
        {
          "name": "_newMinter",
          "type": "address"
        }
      ],
      "name": "changeMinter",
      "outputs": [],
      "payable": false,
      "stateMutability": "nonpayable",
      "type": "function"
    },
    {
      "constant": false,
      "inputs": [
        {
          "name": "_newOwner",
          "type": "address"
        }
      ],
      "name": "transferOwnership",
      "outputs": [],
      "payable": false,
      "stateMutability": "nonpayable",
      "type": "function"
    }
  ],
  "bytecode": "0x608060405234801561001057600080fd5b50604051608080610a1683398101604090815281516020808401518385015160609095015160058054600160a060020a0319908116331790915560038054600160a060020a0396871690831617905560048054928616929091169190911790556000858155921682526001905220556109888061008e6000396000f3006080604052600436106100cf5763ffffffff7c010000000000000000000000000000000000000000000000000000000060003504166306fdde0381146100d4578063075461721461015e578063095ea7b31461018f57806318160ddd146101c757806323b872dd146101ee57806327234ecc146102185780632c4d4d181461024957806340c10f191461026c57806370a082311461029057806376147a0e146102b15780638da5cb5b146102d5578063a9059cbb146102ea578063dd62ed3e1461030e578063f2fde38b14610335575b600080fd5b3480156100e057600080fd5b506100e9610356565b6040805160208082528351818301528351919283929083019185019080838360005b8381101561012357818101518382015260200161010b565b50505050905090810190601f1680156101505780820380516001836020036101000a031916815260200191505b509250505060405180910390f35b34801561016a57600080fd5b5061017361038d565b60408051600160a060020a039092168252519081900360200190f35b34801561019b57600080fd5b506101b3600160a060020a036004351660243561039c565b604080519115158252519081900360200190f35b3480156101d357600080fd5b506101dc610402565b60408051918252519081900360200190f35b3480156101fa57600080fd5b506101b3600160a060020a0360043581169060243516604435610408565b34801561022457600080fd5b506101b3600160a060020a0360043581169060243581169060443590606435166104fa565b34801561025557600080fd5b5061026a600160a060020a03600435166106f0565b005b34801561027857600080fd5b506101b3600160a060020a0360043516602435610736565b34801561029c57600080fd5b506101dc600160a060020a03600435166107b3565b3480156102bd57600080fd5b5061026a600160a060020a03600435166024356107ce565b3480156102e157600080fd5b5061017361080a565b3480156102f657600080fd5b506101b3600160a060020a0360043516602435610819565b34801561031a57600080fd5b506101dc600160a060020a0360043581169060243516610891565b34801561034157600080fd5b5061026a600160a060020a03600435166108bc565b60408051808201909152600381527f4168610000000000000000000000000000000000000000000000000000000000602082015281565b600454600160a060020a031681565b336000818152600260209081526040808320600160a060020a038716808552908352818420869055815186815291519394909390927f8c5be1e5ebec7d5bd14f71427d1e84f3dd0314c0f7b2291e5b200ac8c7c3b925928290030190a350600192915050565b60005481565b600160a060020a0383166000818152600260209081526040808320338452825280832054938352600190915281205490919083118015906104495750828110155b151561045457600080fd5b600160a060020a03808516600090815260016020526040808220805487019055918716815220805484900390556000198110156104b657600160a060020a03851660009081526002602090815260408083203384529091529020805484900390555b83600160a060020a031685600160a060020a031660008051602061093d833981519152856040518082815260200191505060405180910390a3506001949350505050565b600354604080517fc18e4679000000000000000000000000000000000000000000000000000000008152600160a060020a0384811660048301529151600093929092169163c18e46799160248082019260209290919082900301818787803b15801561056557600080fd5b505af1158015610579573d6000803e3d6000fd5b505050506040513d602081101561058f57600080fd5b5051151561059c57600080fd5b33600160a060020a0383161461064457604080517f21d39c2c0000000000000000000000000000000000000000000000000000000081523360048201529051600160a060020a038416916321d39c2c9160248083019260209291908290030181600087803b15801561060d57600080fd5b505af1158015610621573d6000803e3d6000fd5b505050506040513d602081101561063757600080fd5b5051151561064457600080fd5b600160a060020a03851660009081526001602052604090205483118015906106855750600160a060020a038416600090815260016020526040902054838101115b151561069057600080fd5b600160a060020a038086166000818152600160209081526040808320805489900390559388168083529184902080548801905583518781529351919360008051602061093d833981519152929081900390910190a3506001949350505050565b600554600160a060020a0316331461070757600080fd5b6004805473ffffffffffffffffffffffffffffffffffffffff1916600160a060020a0392909216919091179055565b600454600090600160a060020a0316331461075057600080fd5b6000548281011161076057600080fd5b6000805483018155600160a060020a0384168082526001602090815260408084208054870190558051868152905192939260008051602061093d833981519152929181900390910190a350600192915050565b600160a060020a031660009081526001602052604090205490565b60405181903390600160a060020a038516907fe41f8f86e0c2a4bb86f57d2698c1704cd23b5f42a84336cdb49377cdca96d87690600090a45050565b600554600160a060020a031681565b3360009081526001602052604081205482111561083557600080fd5b33600081815260016020908152604080832080548790039055600160a060020a038716808452928190208054870190558051868152905192939260008051602061093d833981519152929181900390910190a350600192915050565b600160a060020a03918216600090815260026020908152604080832093909416825291909152205490565b600554600160a060020a031633146108d357600080fd5b600554604051600160a060020a038084169216907f8be0079c531659141344cd1fd0a4f28419497f9722a3daafe3b4186f6b6457e090600090a36005805473ffffffffffffffffffffffffffffffffffffffff1916600160a060020a03929092169190911790555600ddf252ad1be2c89b69c2b068fc378daa952ba7f163c4a11628f55a4df523b3efa165627a7a7230582006f68fafc3aceccd1b660db992491e9d1b31f74754e80439fb32781eec4fbb300029",
  "source": "pragma solidity ^0.4.11;\r\n\r\nimport \"./Concept.sol\";\r\nimport \"./ConceptRegistry.sol\";\r\nimport \"./lib/StandardToken.sol\";\r\nimport \"./Minter.sol\";\r\n\r\n/*\r\n@type: contract\r\n@name: UserRegistry\r\n@purpose: To store data about users for easy, secure access and manage token balances\r\n*/\r\ncontract FathomToken is StandardToken{\r\n    // address public conceptRegistry;\r\n    ConceptRegistry conceptRegistry;\r\n    string public constant name = \"Aha\";\r\n\r\n    address public minter;\r\n    address public owner;\r\n\r\n    event OwnershipTransferred(address indexed previousOwner, address indexed newOwner);\r\n    event Notification(address indexed user, address indexed sender, uint indexed topic);\r\n    /*\r\n      0 = You've started an assessment\r\n      1 = Called As A Potential Assessor\r\n     2 = Confirmed for assessing, stake has been taken\r\n      3 = Assessment Cancelled and you have been refunded\r\n      4 = Assessment Has Started\r\n      5 = All have commited; Reveal score\r\n      6 = Consenus was reached; Tokens paid out\r\n      7 = Assessment Finished,\r\n    */\r\n\r\n    function FathomToken(address _conceptRegistry, address _initialUser, uint _initialBalance, address _minter) public {\r\n        owner = msg.sender;\r\n        conceptRegistry = ConceptRegistry(_conceptRegistry);\r\n        minter = _minter;\r\n        totalSupply = _initialBalance;\r\n        balances[_initialUser] = _initialBalance;\r\n    }\r\n\r\n    function notification(address user, uint topic) public {\r\n        emit Notification(user, msg.sender, topic);\r\n    }\r\n\r\n    //@purpose: To perform payments and staking for assessments\r\n    function takeBalance(address _from,  address _to, uint _amount, address _concept) public returns(bool) {\r\n        require(conceptRegistry.conceptExists(_concept));\r\n        if(msg.sender != _concept) require(Concept(_concept).assessmentExists(msg.sender));\r\n\r\n        require(balances[_from] >= _amount\r\n                && balances[_to] + _amount > balances[_to]);\r\n        balances[_from] -= _amount;\r\n        balances[_to] += _amount;\r\n        emit Transfer(_from, _to, _amount);\r\n        return true;\r\n    }\r\n\r\n    function mint(address _to, uint _amount) public returns(bool){\r\n        require(msg.sender == minter);\r\n        require(totalSupply + _amount > totalSupply);\r\n\r\n        totalSupply += _amount;\r\n        balances[_to] += _amount;\r\n        emit Transfer(address(0), _to, _amount);\r\n        return true;\r\n    }\r\n\r\n    function changeMinter(address _newMinter) public {\r\n        require(msg.sender == owner);\r\n        minter = _newMinter;\r\n    }\r\n\r\n    function transferOwnership(address _newOwner) public {\r\n        require(msg.sender == owner);\r\n        emit OwnershipTransferred(owner, _newOwner);\r\n        owner = _newOwner;\r\n    }\r\n}\r\n",
  "sourcePath": "/home/jared/dev/blockchain/assess/contracts/FathomToken.sol",
  "compiler": {
    "name": "solc",
    "version": "0.4.24+commit.e67f0147.Emscripten.clang"
  },
  "schemaVersion": "2.0.1",
  "updatedAt": "2018-07-13T23:05:46.210Z"
}