{
  "contractName": "Math",
  "abi": [
    {
      "constant": true,
      "inputs": [],
      "name": "consentRadius",
      "outputs": [
        {
          "name": "",
          "type": "uint256"
        }
      ],
      "payable": false,
      "stateMutability": "view",
      "type": "function"
    },
    {
      "constant": true,
      "inputs": [
        {
          "name": "seed",
          "type": "uint256"
        },
        {
          "name": "max",
          "type": "uint256"
        }
      ],
      "name": "getRandom",
      "outputs": [
        {
          "name": "",
          "type": "uint256"
        }
      ],
      "payable": false,
      "stateMutability": "view",
      "type": "function"
    },
    {
      "constant": true,
      "inputs": [
        {
          "name": "data",
          "type": "int256[]"
        }
      ],
      "name": "getFinalScore",
      "outputs": [
        {
          "name": "finalScore",
          "type": "int256"
        },
        {
          "name": "largestClusterSize",
          "type": "uint256"
        }
      ],
      "payable": false,
      "stateMutability": "pure",
      "type": "function"
    },
    {
      "constant": true,
      "inputs": [
        {
          "name": "distance",
          "type": "uint256"
        },
        {
          "name": "stake",
          "type": "uint256"
        }
      ],
      "name": "getPayout",
      "outputs": [
        {
          "name": "payout",
          "type": "uint256"
        },
        {
          "name": "dissenting",
          "type": "bool"
        }
      ],
      "payable": false,
      "stateMutability": "pure",
      "type": "function"
    },
    {
      "constant": true,
      "inputs": [
        {
          "name": "x",
          "type": "int256"
        }
      ],
      "name": "abs",
      "outputs": [
        {
          "name": "",
          "type": "uint256"
        }
      ],
      "payable": false,
      "stateMutability": "pure",
      "type": "function"
    }
  ],
  "bytecode": "0x61035f610030600b82828239805160001a6073146000811461002057610022565bfe5b5030600052607381538281f30073000000000000000000000000000000000000000030146080604052600436106100835763ffffffff7c0100000000000000000000000000000000000000000000000000000000600035041663140a7ac681146100885780631b5ac4b5146100e9578063460e7acf146101065780634c619e4c1461010e578063655b08eb14610135575b600080fd5b604080516020600480358082013583810280860185019096528085526100d0953695939460249493850192918291850190849080828437509497506101439650505050505050565b6040805192835260208301919091528051918290030190f35b6100f460043561021b565b60408051918252519081900360200190f35b6100f4610239565b61011c60043560243561023e565b6040805192835290151560208301528051918290030190f35b6100f4600435602435610295565b60008080808080805b8751841015610203575060009150819050805b87518110156101d557600d6101a3898381518110151561017b57fe5b906020019060200201518a8781518110151561019357fe5b906020019060200201510361021b565b116101cd5787818151811015156101b657fe5b906020019060200201518201915082806001019350505b60010161015f565b858311806101ec575085831480156101ec57508482125b156101f8578295508194505b60019093019261014c565b858581151561020e57fe5b0596505050505050915091565b6000808212156102315781600019029050610234565b50805b919050565b600d81565b6000808080600d6127108702049150600d8611610267578461271083810382020401935061028c565b614e208211610276578161027a565b614e205b9050614e208181038602049350600192505b50509250929050565b604080516000194301406020808301919091528183018590528251808303840181526060909201928390528151600093600186019392909182918401908083835b602083106102f55780518252601f1990920191602091820191016102d6565b5181516020939093036101000a600019018019909116921691909117905260405192018290039091209250505081151561032b57fe5b0693925050505600a165627a7a7230582008e3b503535d7538017e453bb3626e90032964621df36ff83bed44ae2d00eb960029",
  "source": "pragma solidity ^0.4.23;\n\n/*\n@type: Library\n@name: Math\n@purpose: To provide a library of math functions\n*/\n\nlibrary Math {\n    uint constant public consentRadius = 13; //13 is 5% of the total range of 256\n\n    /*\n      @purpose: To generate a weak random number between 0 and the specified maximum\n      @param: uint seed = seed number for the generation of a random number\n      @param: uint max = the max for the range of random numbers that can be made\n      @returns: The random number\n    */\n    function getRandom(uint seed, uint max) public constant returns(uint) { //Based on the function by alexvandesande\n        return(uint(keccak256(abi.encodePacked(blockhash(block.number-1), seed)))%(max+1)); //Hashes the seed number with the last blockhash to generate a random number and shifts it into the desired range by using a modulus\n    }\n\n  // calculates possible clusters around all scores and returns the average score\n  // and size of the biggest one.\n  function getFinalScore(int[] data) public pure returns(int finalScore, uint largestClusterSize) {\n      //get largest Cluster and its score\n      int largestClusterScore;\n        for(uint i = 0; i < data.length; i++) {\n            uint clusterSize = 0;\n            int clusterScore = 0;\n            for (uint j = 0; j < data.length; j++){\n                if(abs(data[i] - data[j]) <= consentRadius) {\n                    clusterScore += data[j];\n                    clusterSize++;\n                }\n            }\n            if( clusterSize > largestClusterSize ||\n               (clusterSize == largestClusterSize && clusterScore < largestClusterScore)) {\n                largestClusterSize = clusterSize;\n                largestClusterScore = clusterScore;\n\n            }\n        }\n        finalScore = largestClusterScore/int(largestClusterSize);\n   }\n\n  /*\n    @purpose: To calculate the proportion of stake an assessors gets back and whether\n    or not the remained should be distributed to the others or not (iff they are not in\n    the biggest cluster)\n  */\n  function getPayout(uint distance, uint stake) pure public returns(uint payout, bool dissenting){\n      uint xOfRadius = (distance*10000) / consentRadius;\n      //if in rewardCluster\n      if (distance <= consentRadius) {\n          payout = (stake * (10000 - xOfRadius)) / 10000 + stake;\n      }\n      else {\n          // cap it to 20000 to prevent underflow\n          uint xOf2RadiusCapped = xOfRadius > 20000 ? 20000 : xOfRadius;\n          payout = (stake * (20000 - xOf2RadiusCapped)) / 20000;\n          dissenting = true;\n      }\n  }\n\n\n  function abs(int x) public pure returns(uint){\n      if( x < 0 ) { return uint(-1*x); }\n      else { return uint(x);}\n  }\n}\n\n",
  "sourcePath": "/home/jared/dev/blockchain/assess/contracts/Math.sol",
  "compiler": {
    "name": "solc",
    "version": "0.4.24+commit.e67f0147.Emscripten.clang"
  },
  "schemaVersion": "2.0.1",
  "updatedAt": "2018-07-31T19:41:44.492Z"
}