{
  "contractName": "AssessmentData",
  "abi": [
    {
      "constant": true,
      "inputs": [],
      "name": "cost",
      "outputs": [
        {
          "name": "",
          "type": "uint256"
        }
      ],
      "payable": false,
      "stateMutability": "view",
      "type": "function"
    },
    {
      "constant": true,
      "inputs": [],
      "name": "endTime",
      "outputs": [
        {
          "name": "",
          "type": "uint256"
        }
      ],
      "payable": false,
      "stateMutability": "view",
      "type": "function"
    },
    {
      "constant": true,
      "inputs": [],
      "name": "assessee",
      "outputs": [
        {
          "name": "",
          "type": "address"
        }
      ],
      "payable": false,
      "stateMutability": "view",
      "type": "function"
    },
    {
      "constant": true,
      "inputs": [],
      "name": "concept",
      "outputs": [
        {
          "name": "",
          "type": "address"
        }
      ],
      "payable": false,
      "stateMutability": "view",
      "type": "function"
    },
    {
      "constant": true,
      "inputs": [],
      "name": "finalScore",
      "outputs": [
        {
          "name": "",
          "type": "int256"
        }
      ],
      "payable": false,
      "stateMutability": "view",
      "type": "function"
    },
    {
      "constant": true,
      "inputs": [],
      "name": "size",
      "outputs": [
        {
          "name": "",
          "type": "uint256"
        }
      ],
      "payable": false,
      "stateMutability": "view",
      "type": "function"
    },
    {
      "constant": true,
      "inputs": [],
      "name": "assessmentStage",
      "outputs": [
        {
          "name": "",
          "type": "uint8"
        }
      ],
      "payable": false,
      "stateMutability": "view",
      "type": "function"
    },
    {
      "constant": true,
      "inputs": [],
      "name": "done",
      "outputs": [
        {
          "name": "",
          "type": "uint256"
        }
      ],
      "payable": false,
      "stateMutability": "view",
      "type": "function"
    },
    {
      "constant": true,
      "inputs": [
        {
          "name": "",
          "type": "address"
        }
      ],
      "name": "data",
      "outputs": [
        {
          "name": "",
          "type": "bytes"
        }
      ],
      "payable": false,
      "stateMutability": "view",
      "type": "function"
    },
    {
      "constant": true,
      "inputs": [
        {
          "name": "",
          "type": "address"
        }
      ],
      "name": "assessorState",
      "outputs": [
        {
          "name": "",
          "type": "uint8"
        }
      ],
      "payable": false,
      "stateMutability": "view",
      "type": "function"
    },
    {
      "constant": true,
      "inputs": [],
      "name": "salt",
      "outputs": [
        {
          "name": "",
          "type": "bytes32"
        }
      ],
      "payable": false,
      "stateMutability": "view",
      "type": "function"
    },
    {
      "constant": true,
      "inputs": [],
      "name": "checkpoint",
      "outputs": [
        {
          "name": "",
          "type": "uint256"
        }
      ],
      "payable": false,
      "stateMutability": "view",
      "type": "function"
    },
    {
      "anonymous": false,
      "inputs": [
        {
          "indexed": false,
          "name": "user",
          "type": "address"
        },
        {
          "indexed": false,
          "name": "oldData",
          "type": "bytes"
        },
        {
          "indexed": false,
          "name": "newData",
          "type": "bytes"
        }
      ],
      "name": "DataChanged",
      "type": "event"
    }
  ],
  "bytecode": "0x608060405234801561001057600080fd5b5061040c806100206000396000f3006080604052600436106100b95763ffffffff7c010000000000000000000000000000000000000000000000000000000060003504166313faede681146100be5780633197cbb6146100e557806347c20ab7146100fa5780636732e96614610138578063739d9dc11461014d578063949d225d146101625780639c6a1dfb14610177578063ae8421e1146101b0578063b90d3d0c146101c5578063bf1c696914610268578063bfa0b13314610296578063c2c4c5c1146102ab575b600080fd5b3480156100ca57600080fd5b506100d36102c0565b60408051918252519081900360200190f35b3480156100f157600080fd5b506100d36102c6565b34801561010657600080fd5b5061010f6102cc565b6040805173ffffffffffffffffffffffffffffffffffffffff9092168252519081900360200190f35b34801561014457600080fd5b5061010f6102e8565b34801561015957600080fd5b506100d3610309565b34801561016e57600080fd5b506100d361030f565b34801561018357600080fd5b5061018c610315565b6040518082600681111561019c57fe5b60ff16815260200191505060405180910390f35b3480156101bc57600080fd5b506100d361031e565b3480156101d157600080fd5b506101f373ffffffffffffffffffffffffffffffffffffffff60043516610324565b6040805160208082528351818301528351919283929083019185019080838360005b8381101561022d578181015183820152602001610215565b50505050905090810190601f16801561025a5780820380516001836020036101000a031916815260200191505b509250505060405180910390f35b34801561027457600080fd5b5061018c73ffffffffffffffffffffffffffffffffffffffff600435166103bf565b3480156102a257600080fd5b506100d36103d4565b3480156102b757600080fd5b506100d36103da565b60095481565b60065481565b60015473ffffffffffffffffffffffffffffffffffffffff1681565b600454610100900473ffffffffffffffffffffffffffffffffffffffff1681565b600d5481565b60085481565b60045460ff1681565b600b5481565b600f6020908152600091825260409182902080548351601f6002600019610100600186161502019093169290920491820184900484028101840190945280845290918301828280156103b75780601f1061038c576101008083540402835291602001916103b7565b820191906000526020600020905b81548152906001019060200180831161039a57829003601f168201915b505050505081565b60036020526000908152604090205460ff1681565b600e5481565b600754815600a165627a7a723058208d57e31f3c59d24f79f60ed76a40799c72ad70e10da7c68fb9969aecd40510c50029",
  "source": "pragma solidity ^0.4.23;\n\nimport \"./Math.sol\";\nimport \"./Concept.sol\";\nimport \"./FathomToken.sol\";\nimport \"./Proxy.sol\";\n\ncontract AssessmentHeader {\n  event DataChanged(address user, bytes oldData, bytes newData);\n}\n\ncontract AssessmentData is ProxyData, AssessmentHeader {\n    address public assessee;\n    address[] assessors;\n\n    mapping (address => State) public assessorState;\n    State public assessmentStage;\n    enum State {\n        None,\n        Called,\n        Confirmed,\n        Committed,\n        Done,\n        Burned,\n        Dissent\n    }\n\n    Concept public concept;\n    FathomToken fathomToken;\n\n    uint public endTime;\n    // will keep track of timelimits for 1) latest possible time to confirm and\n    // 2) earliest time to reveal\n    uint public checkpoint;\n    uint public size;\n    uint public cost;\n\n    mapping(address => bytes32) commits;\n    uint public done; //counter how many assessors have committed/revealed their score\n    mapping(address => int128) scores;\n    int public finalScore;\n    bytes32 public salt; //used for token distribution\n    mapping (address => bytes) public data;\n}\n\n// same as assessmentData but with all variables internal, so as to not produce getter methods on the Assessment-Proxy\ncontract AssessmentDataInternal is ProxyData, AssessmentHeader {\n  address internal assessee;\n  address[] internal assessors;\n\n  mapping (address => State) internal assessorState;\n  State internal assessmentStage;\n  enum State {\n    None,\n    Called,\n    Confirmed,\n    Committed,\n    Done,\n    Burned\n  }\n\n  Concept internal concept;\n  FathomToken internal fathomToken;\n\n  uint internal endTime;\n  // will keep track of timelimits for 1) latest possible time to confirm and\n  // 2) earliest time to reveal\n  uint internal checkpoint;\n  uint internal size;\n  uint internal cost;\n\n  mapping(address => bytes32) internal commits;\n  uint internal done; //counter how many assessors have committed/revealed their score\n  mapping(address => int128) internal scores;\n  int internal finalScore;\n  bytes32 internal salt; //used for token distribution\n  mapping (address => bytes) internal data;\n}\n",
  "sourcePath": "/Users/antoineestienne/GitFolder/fathom/assess/contracts/AssessmentData.sol",
  "compiler": {
    "name": "solc",
    "version": "0.4.23+commit.124ca40d.Emscripten.clang"
  },
  "schemaVersion": "2.0.0",
  "updatedAt": "2018-07-30T18:29:19.356Z"
}