{
  "contractName": "AssessmentFactory",
  "abi": [
    {
      "inputs": [
        {
          "name": "_masterCopy",
          "type": "address"
        }
      ],
      "payable": false,
      "stateMutability": "nonpayable",
      "type": "constructor"
    },
    {
      "anonymous": false,
      "inputs": [
        {
          "indexed": false,
          "name": "x",
          "type": "address"
        }
      ],
      "name": "fbFA",
      "type": "event"
    },
    {
      "constant": false,
      "inputs": [
        {
          "name": "assessee",
          "type": "address"
        },
        {
          "name": "cost",
          "type": "uint256"
        },
        {
          "name": "size",
          "type": "uint256"
        },
        {
          "name": "_waitTime",
          "type": "uint256"
        },
        {
          "name": "_timeLimit",
          "type": "uint256"
        }
      ],
      "name": "createAssessment",
      "outputs": [
        {
          "name": "",
          "type": "address"
        }
      ],
      "payable": false,
      "stateMutability": "nonpayable",
      "type": "function"
    }
  ],
  "bytecode": "0x608060405234801561001057600080fd5b506040516020806104cd833981016040525160008054600160a060020a03909216600160a060020a031990921691909117905561047b806100526000396000f3006080604052600436106100405763ffffffff7c0100000000000000000000000000000000000000000000000000000000600035041663d21c307c8114610045575b600080fd5b34801561005157600080fd5b5061007f73ffffffffffffffffffffffffffffffffffffffff600435166024356044356064356084356100a8565b6040805173ffffffffffffffffffffffffffffffffffffffff9092168252519081900360200190f35b6040805173ffffffffffffffffffffffffffffffffffffffff3316815290516000917f2a3c9d407604b1e5cb0738928bed285b1346e03e8cc6e89b16e1f6473631938e919081900360200190a160005473ffffffffffffffffffffffffffffffffffffffff1633878787878761011c61018f565b73ffffffffffffffffffffffffffffffffffffffff97881681529587166020870152939095166040808601919091526060850192909252608084015260a083019390935260c082015290519081900360e001906000f080158015610184573d6000803e3d6000fd5b509695505050505050565b6040516102b0806101a0833901905600608060405234801561001057600080fd5b5060405160e0806102b08339810160408181528251602080850151838601516060870151608088015160a089015160c09099015160008054600160a060020a0319908116600160a060020a03808b1691909117909255600180549091168287161790556004805461010060a860020a031916610100838916021790553316895296519598939792969195909491927f0ca321b166a82e03f92002add539506dc7ac3992b5b22f7d301272d8ab2e82c392908290030190a1600460019054906101000a9004600160a060020a0316600160a060020a0316631684ae4d6040518163ffffffff167c0100000000000000000000000000000000000000000000000000000000028152600401602060405180830381600087803b15801561013357600080fd5b505af1158015610147573d6000803e3d6000fd5b505050506040513d602081101561015d57600080fd5b505160058054600160a060020a031916600160a060020a0390921691909117905542818101600681905590830160078190551061019657fe5b60088490556009839055600554600154604080517f76147a0e000000000000000000000000000000000000000000000000000000008152600160a060020a039283166004820152600060248201819052915192909316926376147a0e926044808301939282900301818387803b15801561020f57600080fd5b505af1158015610223573d6000803e3d6000fd5b50506000600b55505050505050505050606f806102416000396000f300608060408190526000805473ffffffffffffffffffffffffffffffffffffffff16919036908237600081368185600019f43d6000833e808015603f573d83f35b3d83fd00a165627a7a72305820992fba35b84e1a26a8a41a837b341b19243564632ad2bfcdf744a788a91637580029a165627a7a72305820aa486fe695a321e8721c263821140a46e772887500c193e38469ec332d6a847f0029",
  "source": "pragma solidity ^0.4.23;\n\nimport './Assessment.sol';\nimport './AssessmentProxy.sol';\n\ncontract AssessmentFactory {\n    address private masterCopy;\n    event fbFA(address x);\n\n    constructor(address _masterCopy) public {\n        masterCopy = _masterCopy;\n    }\n\n    function createAssessment(address assessee, uint cost, uint size, uint _waitTime, uint _timeLimit)\n        public\n        returns (Assessment)\n    {\n      fbFA(msg.sender);\n      return Assessment(new AssessmentProxy(masterCopy, msg.sender, assessee, cost, size, _waitTime, _timeLimit));\n    }\n}\n",
  "sourcePath": "/home/djuju/ethereum/fathom/assess/contracts/AssessmentFactory.sol",
  "compiler": {
    "name": "solc",
    "version": "0.4.23+commit.124ca40d.Emscripten.clang"
  },
  "schemaVersion": "2.0.0",
  "updatedAt": "2018-07-17T09:45:29.709Z"
}