{
  "contractName": "ConceptRegistry",
  "abi": [
    {
      "constant": true,
      "inputs": [],
      "name": "fathomToken",
      "outputs": [
        {
          "name": "",
          "type": "address"
        }
      ],
      "payable": false,
      "stateMutability": "view",
      "type": "function"
    },
    {
      "constant": true,
      "inputs": [],
      "name": "mewAddress",
      "outputs": [
        {
          "name": "",
          "type": "address"
        }
      ],
      "payable": false,
      "stateMutability": "view",
      "type": "function"
    },
    {
      "constant": true,
      "inputs": [],
      "name": "distributorAddress",
      "outputs": [
        {
          "name": "",
          "type": "address"
        }
      ],
      "payable": false,
      "stateMutability": "view",
      "type": "function"
    },
    {
      "constant": true,
      "inputs": [],
      "name": "proxyFactory",
      "outputs": [
        {
          "name": "",
          "type": "address"
        }
      ],
      "payable": false,
      "stateMutability": "view",
      "type": "function"
    },
    {
      "constant": true,
      "inputs": [
        {
          "name": "",
          "type": "address"
        }
      ],
      "name": "conceptExists",
      "outputs": [
        {
          "name": "",
          "type": "bool"
        }
      ],
      "payable": false,
      "stateMutability": "view",
      "type": "function"
    },
    {
      "anonymous": false,
      "inputs": [
        {
          "indexed": false,
          "name": "_concept",
          "type": "address"
        }
      ],
      "name": "ConceptCreation",
      "type": "event"
    },
    {
      "constant": false,
      "inputs": [
        {
          "name": "_token",
          "type": "address"
        },
        {
          "name": "_distributor",
          "type": "address"
        },
        {
          "name": "_proxyFactory",
          "type": "address"
        }
      ],
      "name": "init",
      "outputs": [],
      "payable": false,
      "stateMutability": "nonpayable",
      "type": "function"
    },
    {
      "constant": false,
      "inputs": [
        {
          "name": "parentList",
          "type": "address[]"
        },
        {
          "name": "_propagationRates",
          "type": "uint256[]"
        },
        {
          "name": "_lifetime",
          "type": "uint256"
        },
        {
          "name": "_data",
          "type": "bytes"
        },
        {
          "name": "_owner",
          "type": "address"
        }
      ],
      "name": "makeConcept",
      "outputs": [
        {
          "name": "",
          "type": "address"
        }
      ],
      "payable": false,
      "stateMutability": "nonpayable",
      "type": "function"
    }
  ],
  "bytecode": "0x60806040526001805460a060020a60ff021916905534801561002057600080fd5b5061071e806100306000396000f3006080604052600436106100825763ffffffff7c01000000000000000000000000000000000000000000000000000000006000350416631684ae4d8114610087578063184b9559146100b85780637894d1d0146100e75780639e45c886146101c4578063a51af4c5146101d9578063c10f1a75146101ee578063c18e467914610203575b600080fd5b34801561009357600080fd5b5061009c610238565b60408051600160a060020a039092168252519081900360200190f35b3480156100c457600080fd5b506100e5600160a060020a0360043581169060243581169060443516610247565b005b3480156100f357600080fd5b506040805160206004803580820135838102808601850190965280855261009c95369593946024949385019291829185019084908082843750506040805187358901803560208181028481018201909552818452989b9a99890198929750908201955093508392508501908490808284375050604080516020601f818a01358b0180359182018390048302840183018552818452989b8a359b909a90999401975091955091820193509150819084018382808284375094975050509235600160a060020a031693506104a792505050565b3480156101d057600080fd5b5061009c6106b0565b3480156101e557600080fd5b5061009c6106bf565b3480156101fa57600080fd5b5061009c6106ce565b34801561020f57600080fd5b50610224600160a060020a03600435166106dd565b604080519115158252519081900360200190f35b600154600160a060020a031681565b60015460009074010000000000000000000000000000000000000000900460ff1615156104a1576001805473ffffffffffffffffffffffffffffffffffffffff19908116600160a060020a03878116919091179092556003805482168684161790556004805490911684831617908190556040805160008082526020808301828152838501948590527fcff28979000000000000000000000000000000000000000000000000000000009094527f80000000000000000000000000000000000000000000000000000000000000006084840181905260c4840183905260a060448501908152845160e48601819052969097169663cff289799694959491939290918291606488019160a48901916101048a01918991028083838a5b8381101561037a578181015183820152602001610362565b50505050905001848103835287818151815260200191508051906020019060200280838360005b838110156103b95781810151838201526020016103a1565b50505050905001848103825260008152602001602001975050505050505050602060405180830381600087803b1580156103f257600080fd5b505af1158015610406573d6000803e3d6000fd5b505050506040513d602081101561041c57600080fd5b505160028054600160a060020a0380841673ffffffffffffffffffffffffffffffffffffffff199092169190911791829055166000908152602081905260409020805460ff19166001908117909155805474ff000000000000000000000000000000000000000019167401000000000000000000000000000000000000000017905590505b50505050565b600080600087511115156104ba57600080fd5b600480546040517fcff2897900000000000000000000000000000000000000000000000000000000815260448101889052600160a060020a03868116608483015260a09382019384528a5160a48301528a5192169263cff28979928b928b928b928b928b929182916024810191606482019160c401906020808c01910280838360005b8381101561055557818101518382015260200161053d565b50505050905001848103835288818151815260200191508051906020019060200280838360005b8381101561059457818101518382015260200161057c565b50505050905001848103825286818151815260200191508051906020019080838360005b838110156105d05781810151838201526020016105b8565b50505050905090810190601f1680156105fd5780820380516001836020036101000a031916815260200191505b5098505050505050505050602060405180830381600087803b15801561062257600080fd5b505af1158015610636573d6000803e3d6000fd5b505050506040513d602081101561064c57600080fd5b5051600160a060020a03811660008181526020818152604091829020805460ff19166001179055815192835290519293507f584f82774c2663c22e328c822f476c5496db7ad9bfcdc79c559f69a2622e39ba92918290030190a19695505050505050565b600254600160a060020a031681565b600354600160a060020a031681565b600454600160a060020a031681565b60006020819052908152604090205460ff16815600a165627a7a72305820989f56076cee0e4363cdabd2a9a06121894db66d3459d733e6828c78e1a5b0c50029",
  "source": "pragma solidity ^0.4.23;\n\nimport \"./Concept.sol\";\nimport \"./ProxyFactory.sol\";\n\n//@purpose: To create and store the concept ontology\ncontract ConceptRegistry {\n    mapping (address => bool) public conceptExists;\n    address public fathomToken;\n    bool initialized = false;\n    address public mewAddress; //a manually created contract with no parents\n    address public distributorAddress; //a manually created contract with no parents\n    ProxyFactory public proxyFactory;\n\n    event ConceptCreation (address _concept);\n\n    //@purpose: give this contract the address of a UserRegistry and mew Concept\n    function init(address _token, address _distributor, address _proxyFactory) public {\n        if (initialized == false) {\n            fathomToken = _token;\n            distributorAddress = _distributor;\n            proxyFactory =  ProxyFactory(_proxyFactory);\n            Concept mew = proxyFactory.createConcept(new address[] (0), new uint[] (0), uint(2**255), \"\", address(0x0));\n            mewAddress = address(mew);\n            conceptExists[mewAddress] = true;\n            initialized = true;\n        }\n    }\n\n    /*\n      @purpose: To make a concept\n      @param: address[] parentList = an array of addresses containing the addresses of the concepts parents\n    */\n    function makeConcept(address[] parentList, uint[] _propagationRates, uint _lifetime, bytes _data, address _owner) public returns (address){\n        require(parentList.length > 0);\n        /* Concept newConcept = new Concept(parentList, _propagationRates, _lifetime, _data, _owner); */\n        Concept newConcept = proxyFactory.createConcept(parentList, _propagationRates, _lifetime, _data, _owner);\n\n        conceptExists[address(newConcept)] = true;\n        emit ConceptCreation(address(newConcept));\n        return address(newConcept);\n    }\n}\n",
  "sourcePath": "/Users/antoineestienne/GitFolder/fathom/assess/contracts/ConceptRegistry.sol",
  "compiler": {
    "name": "solc",
    "version": "0.4.23+commit.124ca40d.Emscripten.clang"
  },
  "schemaVersion": "2.0.0",
  "updatedAt": "2018-07-30T18:31:24.927Z"
}