{
  "contractName": "ProxyFactory",
  "abi": [
    {
      "inputs": [
        {
          "name": "_masterConcept",
          "type": "address"
        },
        {
          "name": "_masterAssessment",
          "type": "address"
        }
      ],
      "payable": false,
      "stateMutability": "nonpayable",
      "type": "constructor"
    },
    {
      "constant": false,
      "inputs": [
        {
          "name": "assessee",
          "type": "address"
        },
        {
          "name": "cost",
          "type": "uint256"
        },
        {
          "name": "size",
          "type": "uint256"
        },
        {
          "name": "_waitTime",
          "type": "uint256"
        },
        {
          "name": "_timeLimit",
          "type": "uint256"
        }
      ],
      "name": "createAssessment",
      "outputs": [
        {
          "name": "",
          "type": "address"
        }
      ],
      "payable": false,
      "stateMutability": "nonpayable",
      "type": "function"
    },
    {
      "constant": false,
      "inputs": [
        {
          "name": "_parents",
          "type": "address[]"
        },
        {
          "name": "_propagationRates",
          "type": "uint256[]"
        },
        {
          "name": "_lifetime",
          "type": "uint256"
        },
        {
          "name": "_data",
          "type": "bytes"
        },
        {
          "name": "_owner",
          "type": "address"
        }
      ],
      "name": "createConcept",
      "outputs": [
        {
          "name": "",
          "type": "address"
        }
      ],
      "payable": false,
      "stateMutability": "nonpayable",
      "type": "function"
    }
  ],
  "bytecode": "0x608060405234801561001057600080fd5b50604051604080610b5183398101604052805160209091015160008054600160a060020a03938416600160a060020a03199182161790915560018054939092169216919091179055610aea806100676000396000f30060806040526004361061004b5763ffffffff7c0100000000000000000000000000000000000000000000000000000000600035041663cff289798114610050578063d21c307c14610149575b600080fd5b34801561005c57600080fd5b506040805160206004803580820135838102808601850190965280855261012d95369593946024949385019291829185019084908082843750506040805187358901803560208181028481018201909552818452989b9a99890198929750908201955093508392508501908490808284375050604080516020601f818a01358b0180359182018390048302840183018552818452989b8a359b909a90999401975091955091820193509150819084018382808284375094975050509235600160a060020a0316935061017692505050565b60408051600160a060020a039092168252519081900360200190f35b34801561015557600080fd5b5061012d600160a060020a0360043516602435604435606435608435610300565b60008054600160a060020a0316338787878787610191610378565b8088600160a060020a0316600160a060020a0316815260200187600160a060020a0316600160a060020a0316815260200180602001806020018681526020018060200185600160a060020a0316600160a060020a03168152602001848103845289818151815260200191508051906020019060200280838360005b8381101561022457818101518382015260200161020c565b50505050905001848103835288818151815260200191508051906020019060200280838360005b8381101561026357818101518382015260200161024b565b50505050905001848103825286818151815260200191508051906020019080838360005b8381101561029f578181015183820152602001610287565b50505050905090810190601f1680156102cc5780820380516001836020036101000a031916815260200191505b509a5050505050505050505050604051809103906000f0801580156102f5573d6000803e3d6000fd5b509695505050505050565b600154600090600160a060020a031633878787878761031d610388565b600160a060020a0397881681529587166020870152939095166040808601919091526060850192909252608084015260a083019390935260c082015290519081900360e001906000f0801580156102f5573d6000803e3d6000fd5b6040516104bb8061039983390190565b60405161026b80610854833901905600608060405234801561001057600080fd5b506040516104bb3803806104bb83398101604090815281516020830151918301516060840151608085015160a086015160c087015160008054600160a060020a031916600160a060020a0388161781559388018051958901805197999097919694959301939192911461008257600080fd5b5060058054600160a060020a031916600160a060020a03881617905560005b855181101561019f576005548651600160a060020a039091169063c18e4679908890849081106100cd57fe5b906020019060200201516040518263ffffffff167c01000000000000000000000000000000000000000000000000000000000281526004018082600160a060020a0316600160a060020a03168152602001915050602060405180830381600087803b15801561013b57600080fd5b505af115801561014f573d6000803e3d6000fd5b505050506040513d602081101561016557600080fd5b5051151561017257600080fd5b6103e8858281518110151561018357fe5b602090810290910101511061019757600080fd5b6001016100a1565b6040805133815290517fed15f03ba5384e0621c5969eab98cbd6dc4c788280f3cc3a8bdafb3ab4e7f8f69181900360200190a184516101e59060089060208801906102e4565b5085516101f990600190602089019061032f565b50825161020d906002906020860190610390565b50600684905560038054600160a060020a031916600160a060020a0384811691909117909155600554604080517f1684ae4d00000000000000000000000000000000000000000000000000000000815290519190921691631684ae4d9160048083019260209291908290030181600087803b15801561028b57600080fd5b505af115801561029f573d6000803e3d6000fd5b505050506040513d60208110156102b557600080fd5b505160048054600160a060020a031916600160a060020a039092169190911790555061043e9650505050505050565b82805482825590600052602060002090810192821561031f579160200282015b8281111561031f578251825591602001919060010190610304565b5061032b9291506103fd565b5090565b828054828255906000526020600020908101928215610384579160200282015b828111156103845782518254600160a060020a031916600160a060020a0390911617825560209092019160019091019061034f565b5061032b92915061041a565b828054600181600116156101000203166002900490600052602060002090601f016020900481019282601f106103d157805160ff191683800117855561031f565b8280016001018555821561031f579182018281111561031f578251825591602001919060010190610304565b61041791905b8082111561032b5760008155600101610403565b90565b61041791905b8082111561032b578054600160a060020a0319168155600101610420565b606f8061044c6000396000f300608060408190526000805473ffffffffffffffffffffffffffffffffffffffff16919036908237600081368185600019f43d6000833e808015603f573d83f35b3d83fd00a165627a7a72305820064f78df248fdc60f5bbba6beb54281b0d13d35a831667477181dcf1234a623c0029608060405234801561001057600080fd5b5060405160e08061026b8339810160408181528251602080850151838601516060870151608088015160a089015160c09099015160008054600160a060020a0319908116600160a060020a03808b1691909117835560018054909216818816179091556004805461010060a860020a031916610100838a168102919091178083557f1684ae4d000000000000000000000000000000000000000000000000000000008e529b519a9d989c979b969a95999497960490911694631684ae4d94828201949390929183900390910190829087803b1580156100ee57600080fd5b505af1158015610102573d6000803e3d6000fd5b505050506040513d602081101561011857600080fd5b505160058054600160a060020a031916600160a060020a0390921691909117905542818101600681905590830160078190551061015157fe5b60088490556009839055600554600154604080517f76147a0e000000000000000000000000000000000000000000000000000000008152600160a060020a039283166004820152600060248201819052915192909316926376147a0e926044808301939282900301818387803b1580156101ca57600080fd5b505af11580156101de573d6000803e3d6000fd5b50506000600b55505050505050505050606f806101fc6000396000f300608060408190526000805473ffffffffffffffffffffffffffffffffffffffff16919036908237600081368185600019f43d6000833e808015603f573d83f35b3d83fd00a165627a7a723058202927ed3e40b26b1d703bbf995393d02a2be2deeac3ad94e7d912e83196e7229f0029a165627a7a7230582049507ec2e138445b16a3ac775f91a0f22e8969be97b56464d3ef8168c8eccfeb0029",
  "source": "pragma solidity ^0.4.23;\n\nimport './Assessment.sol';\nimport './Concept.sol';\nimport './AssessmentProxy.sol';\nimport './ConceptProxy.sol';\n\ncontract ProxyFactory {\n    address private masterConceptCopy;\n    address private masterAssessmentCopy;\n\n    constructor(address _masterConcept, address _masterAssessment) public {\n        masterConceptCopy = _masterConcept;\n        masterAssessmentCopy = _masterAssessment;\n    }\n\n    function createAssessment(address assessee, uint cost, uint size, uint _waitTime, uint _timeLimit)\n        public\n        returns (Assessment)\n    {\n      return Assessment(new AssessmentProxy(masterAssessmentCopy, msg.sender, assessee, cost, size, _waitTime, _timeLimit));\n    }\n\n    function createConcept(address[] _parents, uint[] _propagationRates, uint _lifetime, bytes _data, address _owner)\n      public\n      returns (Concept)\n    {\n      return Concept(new ConceptProxy(masterConceptCopy, msg.sender, _parents, _propagationRates, _lifetime, _data, _owner));\n    }\n\n}\n",
  "sourcePath": "/home/djuju/ethereum/fathom/assess/contracts/ProxyFactory.sol",
  "compiler": {
    "name": "solc",
    "version": "0.4.24+commit.e67f0147.Emscripten.clang"
  },
  "schemaVersion": "2.0.1",
  "updatedAt": "2018-08-08T13:21:01.888Z"
}